{
  "_format": "hh-sol-artifact-1",
  "contractName": "ERC2771Forwarder",
  "sourceName": "contracts/utils/ERC2771Forwarder.sol",
  "abi": [
    {
      "anonymous": false,
      "inputs": [
        {
          "indexed": true,
          "internalType": "address",
          "name": "previousOwner",
          "type": "address"
        },
        {
          "indexed": true,
          "internalType": "address",
          "name": "newOwner",
          "type": "address"
        }
      ],
      "name": "OwnershipTransferred",
      "type": "event"
    },
    {
      "inputs": [
        {
          "internalType": "address",
          "name": "target",
          "type": "address"
        },
        {
          "internalType": "address",
          "name": "msgSender",
          "type": "address"
        },
        {
          "internalType": "bytes",
          "name": "data",
          "type": "bytes"
        }
      ],
      "name": "forward2771Call",
      "outputs": [
        {
          "internalType": "bool",
          "name": "success",
          "type": "bool"
        },
        {
          "internalType": "bytes",
          "name": "returnData",
          "type": "bytes"
        }
      ],
      "stateMutability": "payable",
      "type": "function"
    },
    {
      "inputs": [],
      "name": "owner",
      "outputs": [
        {
          "internalType": "address",
          "name": "",
          "type": "address"
        }
      ],
      "stateMutability": "view",
      "type": "function"
    },
    {
      "inputs": [],
      "name": "renounceOwnership",
      "outputs": [],
      "stateMutability": "nonpayable",
      "type": "function"
    },
    {
      "inputs": [
        {
          "internalType": "address",
          "name": "newOwner",
          "type": "address"
        }
      ],
      "name": "transferOwnership",
      "outputs": [],
      "stateMutability": "nonpayable",
      "type": "function"
    },
    {
      "inputs": [
        {
          "internalType": "address payable",
          "name": "receiver",
          "type": "address"
        }
      ],
      "name": "withdrawLostNativeTokens",
      "outputs": [],
      "stateMutability": "nonpayable",
      "type": "function"
    }
  ],
  "bytecode": "0x6080604052348015600f57600080fd5b50601733601b565b606b565b600080546001600160a01b038381166001600160a01b0319831681178455604051919092169283917f8be0079c531659141344cd1fd0a4f28419497f9722a3daafe3b4186f6b6457e09190a35050565b61051e8061007a6000396000f3fe60806040526004361061004a5760003560e01c8063177ec5941461004f578063715018a6146100795780638da5cb5b14610090578063a2852784146100b8578063f2fde38b146100d8575b600080fd5b61006261005d366004610333565b6100f8565b604051610070929190610435565b60405180910390f35b34801561008557600080fd5b5061008e61018b565b005b34801561009c57600080fd5b506000546040516001600160a01b039091168152602001610070565b3480156100c457600080fd5b5061008e6100d3366004610471565b61019f565b3480156100e457600080fd5b5061008e6100f3366004610471565b6101e0565b6000606061010461025e565b846001600160a01b0316348486604051602001610122929190610495565b60408051601f198184030181529082905261013c916104cc565b60006040518083038185875af1925050503d8060008114610179576040519150601f19603f3d011682016040523d82523d6000602084013e61017e565b606091505b5090969095509350505050565b61019361025e565b61019d60006102b8565b565b6101a761025e565b6040516001600160a01b038216904780156108fc02916000818181858888f193505050501580156101dc573d6000803e3d6000fd5b5050565b6101e861025e565b6001600160a01b0381166102525760405162461bcd60e51b815260206004820152602660248201527f4f776e61626c653a206e6577206f776e657220697320746865207a65726f206160448201526564647265737360d01b60648201526084015b60405180910390fd5b61025b816102b8565b50565b6000546001600160a01b0316331461019d5760405162461bcd60e51b815260206004820181905260248201527f4f776e61626c653a2063616c6c6572206973206e6f7420746865206f776e65726044820152606401610249565b600080546001600160a01b038381166001600160a01b0319831681178455604051919092169283917f8be0079c531659141344cd1fd0a4f28419497f9722a3daafe3b4186f6b6457e09190a35050565b6001600160a01b038116811461025b57600080fd5b634e487b7160e01b600052604160045260246000fd5b60008060006060848603121561034857600080fd5b833561035381610308565b9250602084013561036381610308565b9150604084013567ffffffffffffffff81111561037f57600080fd5b8401601f8101861361039057600080fd5b803567ffffffffffffffff8111156103aa576103aa61031d565b604051601f8201601f19908116603f0116810167ffffffffffffffff811182821017156103d9576103d961031d565b6040528181528282016020018810156103f157600080fd5b816020840160208301376000602083830101528093505050509250925092565b60005b8381101561042c578181015183820152602001610414565b50506000910152565b8215158152604060208201526000825180604084015261045c816060850160208701610411565b601f01601f1916919091016060019392505050565b60006020828403121561048357600080fd5b813561048e81610308565b9392505050565b600083516104a7818460208801610411565b60609390931b6bffffffffffffffffffffffff19169190920190815260140192915050565b600082516104de818460208701610411565b919091019291505056fea2646970667358221220b2845950c4c3cffd46f161869d397d8741db87f1550459cd8114cb58c01a87b964736f6c634300081a0033",
  "linkReferences": {},
  "deployedLinkReferences": {}
}