{
  "contractName": "BatchLiquidator",
  "abi": [
    {
      "inputs": [
        {
          "internalType": "address",
          "name": "host_",
          "type": "address"
        }
      ],
      "stateMutability": "nonpayable",
      "type": "constructor"
    },
    {
      "inputs": [],
      "name": "cfa",
      "outputs": [
        {
          "internalType": "address",
          "name": "",
          "type": "address"
        }
      ],
      "stateMutability": "view",
      "type": "function"
    },
    {
      "inputs": [],
      "name": "gda",
      "outputs": [
        {
          "internalType": "address",
          "name": "",
          "type": "address"
        }
      ],
      "stateMutability": "view",
      "type": "function"
    },
    {
      "inputs": [],
      "name": "host",
      "outputs": [
        {
          "internalType": "address",
          "name": "",
          "type": "address"
        }
      ],
      "stateMutability": "view",
      "type": "function"
    },
    {
      "inputs": [
        {
          "internalType": "address",
          "name": "superToken",
          "type": "address"
        },
        {
          "components": [
            {
              "internalType": "enum BatchLiquidator.FlowType",
              "name": "agreementOperation",
              "type": "uint8"
            },
            {
              "internalType": "address",
              "name": "sender",
              "type": "address"
            },
            {
              "internalType": "address",
              "name": "receiver",
              "type": "address"
            }
          ],
          "internalType": "struct BatchLiquidator.FlowLiquidationData[]",
          "name": "data",
          "type": "tuple[]"
        }
      ],
      "name": "deleteFlows",
      "outputs": [],
      "stateMutability": "nonpayable",
      "type": "function"
    },
    {
      "inputs": [
        {
          "internalType": "address",
          "name": "superToken",
          "type": "address"
        },
        {
          "components": [
            {
              "internalType": "enum BatchLiquidator.FlowType",
              "name": "agreementOperation",
              "type": "uint8"
            },
            {
              "internalType": "address",
              "name": "sender",
              "type": "address"
            },
            {
              "internalType": "address",
              "name": "receiver",
              "type": "address"
            }
          ],
          "internalType": "struct BatchLiquidator.FlowLiquidationData",
          "name": "data",
          "type": "tuple"
        }
      ],
      "name": "deleteFlow",
      "outputs": [],
      "stateMutability": "nonpayable",
      "type": "function"
    }
  ],
  "bytecode": "0x60e060405234801561001057600080fd5b50604051610cd2380380610cd283398101604081905261002f91610176565b6001600160a01b0381166080819052604051635b69006f60e11b81527fa9214cc96615e0085d3bb077758db69497dc2dce3b2b1e97bc93c3d18d83efd3600482015263b6d200de90602401602060405180830381865afa158015610097573d6000803e3d6000fd5b505050506040513d601f19601f820116820180604052508101906100bb9190610176565b6001600160a01b0390811660a052608051604051635b69006f60e11b81527fdfd8ece9bfbcb8c5c540edb935641f63d67686490a1ab97f000288759f30a946600482015291169063b6d200de90602401602060405180830381865afa158015610128573d6000803e3d6000fd5b505050506040513d601f19601f8201168201806040525081019061014c9190610176565b6001600160a01b031660c0525061019a565b6001600160a01b038116811461017357600080fd5b50565b60006020828403121561018857600080fd5b81516101938161015e565b9392505050565b60805160a05160c051610ad46101fe6000396000818160b9015281816105aa01526105cb0152600081816061015281816103d101526103f201526000818160f301528181610378015281816103a201528181610551015261057b0152610ad46000f3fe608060405234801561001057600080fd5b50600436106100575760003560e01c80631054df8c1461005c578063179ea6dc1461009f5780635fbd36fa146100b4578063eacb0e8f146100db578063f437bc59146100ee575b600080fd5b6100837f000000000000000000000000000000000000000000000000000000000000000081565b6040516001600160a01b03909116815260200160405180910390f35b6100b26100ad366004610805565b610115565b005b6100837f000000000000000000000000000000000000000000000000000000000000000081565b6100b26100e93660046108d3565b61023d565b6100837f000000000000000000000000000000000000000000000000000000000000000081565b60005b815181101561014e576101448383838151811061013757610137610907565b6020026020010151610359565b5050600101610118565b506040516370a0823160e01b81523060048201526000906001600160a01b038416906370a0823190602401602060405180830381865afa158015610196573d6000803e3d6000fd5b505050506040513d601f19601f820116820180604052508101906101ba919061091d565b90508015610238576040516323b872dd60e01b8152306004820152336024820152604481018290526001600160a01b038416906323b872dd906064016020604051808303816000875af1925050508015610231575060408051601f3d908101601f1916820190925261022e91810190610936565b60015b1561023857505b505050565b60008061024a8484610359565b915091508161026957805160000361026157600080fd5b805181602001fd5b6040516370a0823160e01b81523060048201526000906001600160a01b038616906370a0823190602401602060405180830381865afa1580156102b0573d6000803e3d6000fd5b505050506040513d601f19601f820116820180604052508101906102d4919061091d565b90508015610352576040516323b872dd60e01b8152306004820152336024820152604481018290526001600160a01b038616906323b872dd906064016020604051808303816000875af192505050801561034b575060408051601f3d908101601f1916820190925261034891810190610936565b60015b1561035257505b5050505050565b6000606081835160018111156103715761037161095f565b0361054f577f00000000000000000000000000000000000000000000000000000000000000006001600160a01b03167f00000000000000000000000000000000000000000000000000000000000000006001600160a01b03166339255d5b7f00000000000000000000000000000000000000000000000000000000000000007f00000000000000000000000000000000000000000000000000000000000000006001600160a01b031663b4b333c68989602001518a60400151600067ffffffffffffffff81111561044457610444610749565b6040519080825280601f01601f19166020018201604052801561046e576020820181803683370190505b5060405160240161048294939291906109c5565b60408051601f19818403018152918152602080830180516001600160e01b031660e09590951b9490941790935280516000815292830190526104ca9392509060448101610a03565b60408051601f198184030181529181526020820180516001600160e01b031660e09490941b9390931790925290516105029250610a39565b6000604051808303816000865af19150503d806000811461053f576040519150601f19603f3d011682016040523d82523d6000602084013e610544565b606091505b509092509050610726565b7f00000000000000000000000000000000000000000000000000000000000000006001600160a01b03167f00000000000000000000000000000000000000000000000000000000000000006001600160a01b03166339255d5b7f00000000000000000000000000000000000000000000000000000000000000007f00000000000000000000000000000000000000000000000000000000000000006001600160a01b0316635a6c6dbc8989602001518a6040015160008067ffffffffffffffff81111561061e5761061e610749565b6040519080825280601f01601f191660200182016040528015610648576020820181803683370190505b5060405160240161065d959493929190610a55565b60408051601f19818403018152918152602080830180516001600160e01b031660e09590951b9490941790935280516000815292830190526106a59392509060448101610a03565b60408051601f198184030181529181526020820180516001600160e01b031660e09490941b9390931790925290516106dd9250610a39565b6000604051808303816000865af19150503d806000811461071a576040519150601f19603f3d011682016040523d82523d6000602084013e61071f565b606091505b5090925090505b9250929050565b80356001600160a01b038116811461074457600080fd5b919050565b634e487b7160e01b600052604160045260246000fd5b604051601f8201601f1916810167ffffffffffffffff8111828210171561078857610788610749565b604052919050565b6000606082840312156107a257600080fd5b6040516060810167ffffffffffffffff811182821017156107c5576107c5610749565b6040529050808235600281106107da57600080fd5b81526107e86020840161072d565b60208201526107f96040840161072d565b60408201525092915050565b6000806040838503121561081857600080fd5b6108218361072d565b9150602083013567ffffffffffffffff81111561083d57600080fd5b8301601f8101851361084e57600080fd5b803567ffffffffffffffff81111561086857610868610749565b61087760208260051b0161075f565b8082825260208201915060206060840285010192508783111561089957600080fd5b6020840193505b828410156108c5576108b28885610790565b82526020820191506060840193506108a0565b809450505050509250929050565b600080608083850312156108e657600080fd5b6108ef8361072d565b91506108fe8460208501610790565b90509250929050565b634e487b7160e01b600052603260045260246000fd5b60006020828403121561092f57600080fd5b5051919050565b60006020828403121561094857600080fd5b8151801515811461095857600080fd5b9392505050565b634e487b7160e01b600052602160045260246000fd5b60005b83811015610990578181015183820152602001610978565b50506000910152565b600081518084526109b1816020860160208601610975565b601f01601f19169290920160200192915050565b6001600160a01b0385811682528481166020830152831660408201526080606082018190526000906109f990830184610999565b9695505050505050565b6001600160a01b0384168152606060208201819052600090610a2790830185610999565b82810360408401526109f98185610999565b60008251610a4b818460208701610975565b9190910192915050565b6001600160a01b038681168252858116602083015284166040820152600b83900b606082015260a060808201819052600090610a9390830184610999565b97965050505050505056fea2646970667358221220d97a3978ee551a2265565c895e5860401721234eacb951b03daf2fb207f504ee64736f6c634300081a0033",
  "immutableReferences": {
    "54458": [
      {
        "length": 32,
        "start": 243
      },
      {
        "length": 32,
        "start": 888
      },
      {
        "length": 32,
        "start": 930
      },
      {
        "length": 32,
        "start": 1361
      },
      {
        "length": 32,
        "start": 1403
      }
    ],
    "54460": [
      {
        "length": 32,
        "start": 97
      },
      {
        "length": 32,
        "start": 977
      },
      {
        "length": 32,
        "start": 1010
      }
    ],
    "54462": [
      {
        "length": 32,
        "start": 185
      },
      {
        "length": 32,
        "start": 1450
      },
      {
        "length": 32,
        "start": 1483
      }
    ]
  },
  "source": "// SPDX-License-Identifier: AGPLv3\npragma solidity ^0.8.23;\n\nimport {\n    ISuperfluid, ISuperAgreement, ISuperToken, ISuperfluidPool,\n    IConstantFlowAgreementV1, IGeneralDistributionAgreementV1\n} from \"../interfaces/superfluid/ISuperfluid.sol\";\nimport { ERC20 } from \"@openzeppelin/contracts/token/ERC20/ERC20.sol\";\n\n/**\n * @title Batch liquidator contract\n * @author Superfluid\n * @dev This contract allows to delete multiple flows in a single transaction.\n * @notice Reduces calldata by having host and cfa hardcoded, this can make a significant difference in tx fees on L2s\n */\n\ncontract BatchLiquidator {\n    enum FlowType {\n        ConstantFlowAgreement,\n        GeneralDistributionAgreement\n    }\n\n    struct FlowLiquidationData {\n        FlowType agreementOperation;\n        address sender;\n        address receiver;\n    }\n\n    address public immutable host;\n    address public immutable cfa;\n    address public immutable gda;\n\n    constructor(address host_) {\n        host = host_;\n        cfa = address(\n            ISuperfluid(host).getAgreementClass(keccak256(\"org.superfluid-finance.agreements.ConstantFlowAgreement.v1\"))\n        );\n        gda = address(\n            ISuperfluid(host).getAgreementClass(\n                keccak256(\"org.superfluid-finance.agreements.GeneralDistributionAgreement.v1\")\n            )\n        );\n    }\n\n    /**\n     * @dev Delete flows in batch\n     * @param superToken - The super token the flows belong to.\n     * @param data - The array of flow data to be deleted.\n     */\n    function deleteFlows(address superToken, FlowLiquidationData[] memory data) external {\n        for (uint256 i; i < data.length;) {\n            // We tolerate any errors occured during liquidations.\n            // It could be due to flow had been liquidated by others.\n            _deleteFlow(superToken, data[i]);\n\n            unchecked {\n                i++;\n            }\n        }\n\n        // If the liquidation(s) resulted in any super token\n        // rewards, send them all to the sender instead of having them\n        // locked in the contract\n        {\n            uint256 balance = ERC20(superToken).balanceOf(address(this));\n            if (balance > 0) {\n                // don't fail for non-transferrable tokens\n                try ERC20(superToken).transferFrom(address(this), msg.sender, balance)\n                // solhint-disable-next-line no-empty-blocks\n                {} catch {}\n            }\n        }\n    }\n\n    /**\n     * @dev Delete a single flow\n     * @param superToken - The super token the flow belongs to.\n     * @param data - The flow data to be deleted.\n     */\n    function deleteFlow(address superToken, FlowLiquidationData memory data) external {\n        /* solhint-disable */\n        (bool success, bytes memory returndata) = _deleteFlow(superToken, data);\n        if (!success) {\n            if (returndata.length == 0) revert();\n            // solhint-disable\n            assembly {\n                revert(add(32, returndata), mload(returndata))\n            }\n        }\n        /* solhint-enable */\n        // If the liquidation(s) resulted in any super token\n        // rewards, send them all to the sender instead of having them\n        // locked in the contract\n        {\n            uint256 balance = ERC20(superToken).balanceOf(address(this));\n            if (balance > 0) {\n                try ERC20(superToken).transferFrom(address(this), msg.sender, balance)\n                // solhint-disable-next-line no-empty-blocks\n                {} catch {}\n            }\n        }\n    }\n\n    function _deleteFlow(address superToken, FlowLiquidationData memory data)\n        internal\n        returns (bool success, bytes memory returndata)\n    {\n        if (data.agreementOperation == FlowType.ConstantFlowAgreement) {\n            // solhint-disable-next-line avoid-low-level-calls\n            (success, returndata) = address(host).call(\n                abi.encodeCall(\n                    ISuperfluid(host).callAgreement,\n                    (\n                        ISuperAgreement(cfa),\n                        abi.encodeCall(\n                            IConstantFlowAgreementV1(cfa).deleteFlow,\n                            (ISuperToken(superToken), data.sender, data.receiver, new bytes(0))\n                            ),\n                        new bytes(0)\n                    )\n                )\n            );\n        } else {\n            // solhint-disable-next-line avoid-low-level-calls\n            (success, returndata) = address(host).call(\n                abi.encodeCall(\n                    ISuperfluid(host).callAgreement,\n                    (\n                        ISuperAgreement(gda),\n                        abi.encodeCall(\n                            IGeneralDistributionAgreementV1(gda).distributeFlow,\n                            (ISuperToken(superToken), data.sender, ISuperfluidPool(data.receiver), 0, new bytes(0))\n                            ),\n                        new bytes(0)\n                    )\n                )\n            );\n        }\n    }\n}\n",
  "sourcePath": "/home/runner/work/protocol-monorepo/protocol-monorepo/packages/ethereum-contracts/contracts/utils/BatchLiquidator.sol",
  "compiler": {
    "name": "solc",
    "version": "0.8.26+commit.8a97fa7a.Linux.g++"
  },
  "schemaVersion": "3.4.16",
  "updatedAt": "2024-11-25T09:47:04.365Z",
  "devdoc": {
    "author": "Superfluid",
    "details": "This contract allows to delete multiple flows in a single transaction.",
    "kind": "dev",
    "methods": {
      "deleteFlow(address,(uint8,address,address))": {
        "details": "Delete a single flow",
        "params": {
          "data": "- The flow data to be deleted.",
          "superToken": "- The super token the flow belongs to."
        }
      },
      "deleteFlows(address,(uint8,address,address)[])": {
        "details": "Delete flows in batch",
        "params": {
          "data": "- The array of flow data to be deleted.",
          "superToken": "- The super token the flows belong to."
        }
      }
    },
    "title": "Batch liquidator contract",
    "version": 1
  },
  "userdoc": {
    "kind": "user",
    "methods": {},
    "notice": "Reduces calldata by having host and cfa hardcoded, this can make a significant difference in tx fees on L2s",
    "version": 1
  }
}