{
  "contractName": "CFAv1Forwarder",
  "abi": [
    {
      "inputs": [
        {
          "internalType": "contract ISuperfluid",
          "name": "host",
          "type": "address"
        }
      ],
      "stateMutability": "nonpayable",
      "type": "constructor"
    },
    {
      "inputs": [],
      "name": "CFA_FWD_INVALID_FLOW_RATE",
      "type": "error"
    },
    {
      "inputs": [
        {
          "internalType": "contract ISuperToken",
          "name": "token",
          "type": "address"
        },
        {
          "internalType": "address",
          "name": "receiver",
          "type": "address"
        },
        {
          "internalType": "int96",
          "name": "flowrate",
          "type": "int96"
        }
      ],
      "name": "setFlowrate",
      "outputs": [
        {
          "internalType": "bool",
          "name": "",
          "type": "bool"
        }
      ],
      "stateMutability": "nonpayable",
      "type": "function"
    },
    {
      "inputs": [
        {
          "internalType": "contract ISuperToken",
          "name": "token",
          "type": "address"
        },
        {
          "internalType": "address",
          "name": "sender",
          "type": "address"
        },
        {
          "internalType": "address",
          "name": "receiver",
          "type": "address"
        },
        {
          "internalType": "int96",
          "name": "flowrate",
          "type": "int96"
        }
      ],
      "name": "setFlowrateFrom",
      "outputs": [
        {
          "internalType": "bool",
          "name": "",
          "type": "bool"
        }
      ],
      "stateMutability": "nonpayable",
      "type": "function"
    },
    {
      "inputs": [
        {
          "internalType": "contract ISuperToken",
          "name": "token",
          "type": "address"
        },
        {
          "internalType": "address",
          "name": "sender",
          "type": "address"
        },
        {
          "internalType": "address",
          "name": "receiver",
          "type": "address"
        }
      ],
      "name": "getFlowrate",
      "outputs": [
        {
          "internalType": "int96",
          "name": "flowrate",
          "type": "int96"
        }
      ],
      "stateMutability": "view",
      "type": "function"
    },
    {
      "inputs": [
        {
          "internalType": "contract ISuperToken",
          "name": "token",
          "type": "address"
        },
        {
          "internalType": "address",
          "name": "sender",
          "type": "address"
        },
        {
          "internalType": "address",
          "name": "receiver",
          "type": "address"
        }
      ],
      "name": "getFlowInfo",
      "outputs": [
        {
          "internalType": "uint256",
          "name": "lastUpdated",
          "type": "uint256"
        },
        {
          "internalType": "int96",
          "name": "flowrate",
          "type": "int96"
        },
        {
          "internalType": "uint256",
          "name": "deposit",
          "type": "uint256"
        },
        {
          "internalType": "uint256",
          "name": "owedDeposit",
          "type": "uint256"
        }
      ],
      "stateMutability": "view",
      "type": "function"
    },
    {
      "inputs": [
        {
          "internalType": "contract ISuperToken",
          "name": "token",
          "type": "address"
        },
        {
          "internalType": "int96",
          "name": "flowrate",
          "type": "int96"
        }
      ],
      "name": "getBufferAmountByFlowrate",
      "outputs": [
        {
          "internalType": "uint256",
          "name": "bufferAmount",
          "type": "uint256"
        }
      ],
      "stateMutability": "view",
      "type": "function"
    },
    {
      "inputs": [
        {
          "internalType": "contract ISuperToken",
          "name": "token",
          "type": "address"
        },
        {
          "internalType": "address",
          "name": "account",
          "type": "address"
        }
      ],
      "name": "getAccountFlowrate",
      "outputs": [
        {
          "internalType": "int96",
          "name": "flowrate",
          "type": "int96"
        }
      ],
      "stateMutability": "view",
      "type": "function"
    },
    {
      "inputs": [
        {
          "internalType": "contract ISuperToken",
          "name": "token",
          "type": "address"
        },
        {
          "internalType": "address",
          "name": "account",
          "type": "address"
        }
      ],
      "name": "getAccountFlowInfo",
      "outputs": [
        {
          "internalType": "uint256",
          "name": "lastUpdated",
          "type": "uint256"
        },
        {
          "internalType": "int96",
          "name": "flowrate",
          "type": "int96"
        },
        {
          "internalType": "uint256",
          "name": "deposit",
          "type": "uint256"
        },
        {
          "internalType": "uint256",
          "name": "owedDeposit",
          "type": "uint256"
        }
      ],
      "stateMutability": "view",
      "type": "function"
    },
    {
      "inputs": [
        {
          "internalType": "contract ISuperToken",
          "name": "token",
          "type": "address"
        },
        {
          "internalType": "address",
          "name": "sender",
          "type": "address"
        },
        {
          "internalType": "address",
          "name": "receiver",
          "type": "address"
        },
        {
          "internalType": "int96",
          "name": "flowrate",
          "type": "int96"
        },
        {
          "internalType": "bytes",
          "name": "userData",
          "type": "bytes"
        }
      ],
      "name": "createFlow",
      "outputs": [
        {
          "internalType": "bool",
          "name": "",
          "type": "bool"
        }
      ],
      "stateMutability": "nonpayable",
      "type": "function"
    },
    {
      "inputs": [
        {
          "internalType": "contract ISuperToken",
          "name": "token",
          "type": "address"
        },
        {
          "internalType": "address",
          "name": "sender",
          "type": "address"
        },
        {
          "internalType": "address",
          "name": "receiver",
          "type": "address"
        },
        {
          "internalType": "int96",
          "name": "flowrate",
          "type": "int96"
        },
        {
          "internalType": "bytes",
          "name": "userData",
          "type": "bytes"
        }
      ],
      "name": "updateFlow",
      "outputs": [
        {
          "internalType": "bool",
          "name": "",
          "type": "bool"
        }
      ],
      "stateMutability": "nonpayable",
      "type": "function"
    },
    {
      "inputs": [
        {
          "internalType": "contract ISuperToken",
          "name": "token",
          "type": "address"
        },
        {
          "internalType": "address",
          "name": "sender",
          "type": "address"
        },
        {
          "internalType": "address",
          "name": "receiver",
          "type": "address"
        },
        {
          "internalType": "bytes",
          "name": "userData",
          "type": "bytes"
        }
      ],
      "name": "deleteFlow",
      "outputs": [
        {
          "internalType": "bool",
          "name": "",
          "type": "bool"
        }
      ],
      "stateMutability": "nonpayable",
      "type": "function"
    },
    {
      "inputs": [
        {
          "internalType": "contract ISuperToken",
          "name": "token",
          "type": "address"
        },
        {
          "internalType": "address",
          "name": "flowOperator",
          "type": "address"
        }
      ],
      "name": "grantPermissions",
      "outputs": [
        {
          "internalType": "bool",
          "name": "",
          "type": "bool"
        }
      ],
      "stateMutability": "nonpayable",
      "type": "function"
    },
    {
      "inputs": [
        {
          "internalType": "contract ISuperToken",
          "name": "token",
          "type": "address"
        },
        {
          "internalType": "address",
          "name": "flowOperator",
          "type": "address"
        }
      ],
      "name": "revokePermissions",
      "outputs": [
        {
          "internalType": "bool",
          "name": "",
          "type": "bool"
        }
      ],
      "stateMutability": "nonpayable",
      "type": "function"
    },
    {
      "inputs": [
        {
          "internalType": "contract ISuperToken",
          "name": "token",
          "type": "address"
        },
        {
          "internalType": "address",
          "name": "flowOperator",
          "type": "address"
        },
        {
          "internalType": "uint8",
          "name": "permissions",
          "type": "uint8"
        },
        {
          "internalType": "int96",
          "name": "flowrateAllowance",
          "type": "int96"
        }
      ],
      "name": "updateFlowOperatorPermissions",
      "outputs": [
        {
          "internalType": "bool",
          "name": "",
          "type": "bool"
        }
      ],
      "stateMutability": "nonpayable",
      "type": "function"
    },
    {
      "inputs": [
        {
          "internalType": "contract ISuperToken",
          "name": "token",
          "type": "address"
        },
        {
          "internalType": "address",
          "name": "sender",
          "type": "address"
        },
        {
          "internalType": "address",
          "name": "flowOperator",
          "type": "address"
        }
      ],
      "name": "getFlowOperatorPermissions",
      "outputs": [
        {
          "internalType": "uint8",
          "name": "permissions",
          "type": "uint8"
        },
        {
          "internalType": "int96",
          "name": "flowrateAllowance",
          "type": "int96"
        }
      ],
      "stateMutability": "view",
      "type": "function"
    }
  ],
  "bytecode": "0x60c060405234801561001057600080fd5b506040516117f33803806117f383398101604081905261002f916100e5565b6001600160a01b0381166080819052604051635b69006f60e11b81527fa9214cc96615e0085d3bb077758db69497dc2dce3b2b1e97bc93c3d18d83efd3600482015263b6d200de90602401602060405180830381865afa158015610097573d6000803e3d6000fd5b505050506040513d601f19601f820116820180604052508101906100bb91906100e5565b6001600160a01b031660a05250610109565b6001600160a01b03811681146100e257600080fd5b50565b6000602082840312156100f757600080fd5b8151610102816100cd565b9392505050565b60805160a05161164e6101a56000396000818161029a01528181610366015281816103fb015281816104ab01528181610520015281816105de015281816106e901528181610766015281816107aa01528181610851015281816108ef0152818161092501528181610abc01528181610b4101528181610bb001528181610bf30152610c2d015260008181610d3b0152610dad015261164e6000f3fe608060405234801561001057600080fd5b50600436106100ea5760003560e01c8063308855911161008c5780637243fb93116100665780637243fb9314610222578063b4b333c614610235578063c5ad5c1a14610248578063e15536b61461025b57600080fd5b806330885591146101cd5780634d3f60f9146101e057806357e6aa361461020f57600080fd5b80630f1ac495116100c85780630f1ac4951461014b5780631d8b65261461018157806322c904d9146101a75780632860fd93146101ba57600080fd5b806309f0b495146100ef5780630bd0728d146101155780630c03399114610138575b600080fd5b6101026100fd366004610f9b565b61026e565b6040519081526020015b60405180910390f35b610128610123366004610fd4565b61030e565b604051901515815260200161010c565b6101286101463660046110a7565b61031d565b61015e610159366004610fd4565b610336565b60408051948552600b9390930b602085015291830152606082015260800161010c565b61019461018f36600461112f565b6103e1565b604051600b9190910b815260200161010c565b6101946101b5366004610fd4565b610481565b61015e6101c836600461112f565b610518565b6101286101db366004611189565b6105c0565b6101f36101ee36600461112f565b6105d9565b6040805160ff9093168352600b9190910b60208301520161010c565b61012861021d3660046111e5565b610679565b610128610230366004610fd4565b610687565b610128610243366004611225565b6106a2565b61012861025636600461129a565b6106b0565b6101286102693660046110a7565b6106be565b6040516346ccbfb760e11b81526001600160a01b038381166004830152600b83900b60248301526000917f000000000000000000000000000000000000000000000000000000000000000090911690638d997f6e90604401602060405180830381865afa1580156102e3573d6000803e3d6000fd5b505050506040513d601f19601f8201168201806040525081019061030791906112db565b9392505050565b600061030783836000806106cd565b600061032c868686868661078d565b9695505050505050565b604051630f1ac49560e01b81526001600160a01b03838116600483015282811660248301526000918291829182917f00000000000000000000000000000000000000000000000000000000000000001690630f1ac49590604401608060405180830381865afa1580156103ad573d6000803e3d6000fd5b505050506040513d601f19601f820116820180604052508101906103d191906112f4565b9299919850965090945092505050565b604051631cd43d1160e31b81526000906001600160a01b037f0000000000000000000000000000000000000000000000000000000000000000169063e6a1e8889061043490879087908790600401611333565b608060405180830381865afa158015610451573d6000803e3d6000fd5b505050506040513d601f19601f8201168201806040525081019061047591906112f4565b50909695505050505050565b60405163e8e7e2d160e01b81526001600160a01b03838116600483015282811660248301526000917f00000000000000000000000000000000000000000000000000000000000000009091169063e8e7e2d190604401602060405180830381865afa1580156104f4573d6000803e3d6000fd5b505050506040513d601f19601f820116820180604052508101906103079190611356565b6000806000807f00000000000000000000000000000000000000000000000000000000000000006001600160a01b031663e6a1e8888888886040518463ffffffff1660e01b815260040161056e93929190611333565b608060405180830381865afa15801561058b573d6000803e3d6000fd5b505050506040513d601f19601f820116820180604052508101906105af91906112f4565b929a91995097509095509350505050565b60006105ce858585856106cd565b90505b949350505050565b6000807f00000000000000000000000000000000000000000000000000000000000000006001600160a01b031662422bbe8686866040518463ffffffff1660e01b815260040161062b93929190611333565b606060405180830381865afa158015610648573d6000803e3d6000fd5b505050506040513d601f19601f8201168201806040525081019061066c9190611373565b9097909650945050505050565b60006105d184338585610920565b6000610307838360076b7fffffffffffffffffffffff6106cd565b60006105ce85858585610a7d565b60006105ce85858585610920565b600061032c8686868686610bd6565b6040805160008082526020820190925281906001600160a01b037f0000000000000000000000000000000000000000000000000000000000000000169063811b3d4090610725908990899089908990604481016113fb565b60408051601f19818403018152918152602080830180516001600160e01b031660e09590951b949094179093528051600081529283019052925061032c91507f0000000000000000000000000000000000000000000000000000000000000000908390610c5c565b6000806001600160a01b0386163314610847576001600160a01b037f00000000000000000000000000000000000000000000000000000000000000001663354b95908888888860005b6040519080825280601f01601f191660200182016040528015610800576020820181803683370190505b5060405160240161081595949392919061143a565b604051602081830303815290604052915060e01b6020820180516001600160e01b0383818316178352505050506108e8565b6001600160a01b037f0000000000000000000000000000000000000000000000000000000000000000166350209a6288878760005b6040519080825280601f01601f1916602001820160405280156108a6576020820181803683370190505b506040516024016108ba9493929190611478565b604051602081830303815290604052915060e01b6020820180516001600160e01b0383818316178352505050505b90506109157f00000000000000000000000000000000000000000000000000000000000000008285610c5c565b979650505050505050565b6000807f00000000000000000000000000000000000000000000000000000000000000006001600160a01b031663e6a1e8888787876040518463ffffffff1660e01b815260040161097393929190611333565b608060405180830381865afa158015610990573d6000803e3d6000fd5b505050506040513d601f19601f820116820180604052508101906109b491906112f4565b5050915050600083600b0b1315610a2f5780600b0b6000036109f8576040805160008152602081019091526109f0908790879087908790610bd6565b9150506105d1565b82600b0b81600b0b14610a25576040805160008152602081019091526109f090879087908790879061078d565b60019150506105d1565b82600b0b600003610a6457600081600b0b1315610a25576040805160008152602081019091526109f090879087908790610a7d565b60405163cea9aa5f60e01b815260040160405180910390fd5b6000806001600160a01b038516331480610a9f57506001600160a01b03841633145b610b28576040805160008152602081019091526001600160a01b037f00000000000000000000000000000000000000000000000000000000000000001690634c8b181f90610af690899089908990604481016114ae565b604051602081830303815290604052915060e01b6020820180516001600160e01b038381831617835250505050610ba9565b6040805160008152602081019091526001600160a01b037f0000000000000000000000000000000000000000000000000000000000000000169063b4b333c690610b7b90899089908990604481016114ae565b604051602081830303815290604052915060e01b6020820180516001600160e01b0383818316178352505050505b905061032c7f00000000000000000000000000000000000000000000000000000000000000008285610c5c565b6000806001600160a01b0386163314610c23576001600160a01b037f0000000000000000000000000000000000000000000000000000000000000000166394229ecb8888888860006107d6565b6001600160a01b037f0000000000000000000000000000000000000000000000000000000000000000166362fc305e888787600061087c565b604080516001808252818301909252600091829190816020015b60408051606080820183526000808352602083015291810191909152815260200190600190039081610c76579050509050604051806060016040528060c963ffffffff168152602001866001600160a01b031681526020018585604051602001610ce19291906114e2565b60405160208183030381529060405281525081600081518110610d0657610d06611507565b6020026020010181905250610d1a81610d23565b95945050505050565b6000610d30826000610d36565b92915050565b6000807f00000000000000000000000000000000000000000000000000000000000000006001600160a01b031663670e77e385604051602401610d79919061151d565b604051602081830303815290604052915060e01b6020820180516001600160e01b03838183161783525050505090506000807f00000000000000000000000000000000000000000000000000000000000000006001600160a01b0316858433604051602001610de99291906115b2565b60408051601f1981840301815290829052610e03916115e9565b60006040518083038185875af1925050503d8060008114610e40576040519150601f19603f3d011682016040523d82523d6000602084013e610e45565b606091505b509150915081610e5857610e5881610e64565b50600195945050505050565b600481511015610ebb5760405162461bcd60e51b815260206004820152601a60248201527f43616c6c5574696c733a2074617267657420726576657274282900000000000060448201526064015b60405180910390fd5b602081015163b1b7848f60e01b6001600160e01b0319821601610f6b5760408051808201825260208082527f43616c6c5574696c733a207461726765742070616e69636b65643a2030785f5f90820190815260248501517f43616c6c5574696c733a207461726765742070616e69636b65643a2030780000600482811c600f908116603090810160081b918516011791909117909252925162461bcd60e51b8152919291610eb291849101611605565b81518060208401fd5b50565b6001600160a01b0381168114610f7457600080fd5b80600b0b8114610f7457600080fd5b60008060408385031215610fae57600080fd5b8235610fb981610f77565b91506020830135610fc981610f8c565b809150509250929050565b60008060408385031215610fe757600080fd5b8235610ff281610f77565b91506020830135610fc981610f77565b634e487b7160e01b600052604160045260246000fd5b600082601f83011261102957600080fd5b813567ffffffffffffffff81111561104357611043611002565b604051601f8201601f19908116603f0116810167ffffffffffffffff8111828210171561107257611072611002565b60405281815283820160200185101561108a57600080fd5b816020850160208301376000918101602001919091529392505050565b600080600080600060a086880312156110bf57600080fd5b85356110ca81610f77565b945060208601356110da81610f77565b935060408601356110ea81610f77565b925060608601356110fa81610f8c565b9150608086013567ffffffffffffffff81111561111657600080fd5b61112288828901611018565b9150509295509295909350565b60008060006060848603121561114457600080fd5b833561114f81610f77565b9250602084013561115f81610f77565b9150604084013561116f81610f77565b809150509250925092565b60ff81168114610f7457600080fd5b6000806000806080858703121561119f57600080fd5b84356111aa81610f77565b935060208501356111ba81610f77565b925060408501356111ca8161117a565b915060608501356111da81610f8c565b939692955090935050565b6000806000606084860312156111fa57600080fd5b833561120581610f77565b9250602084013561121581610f77565b9150604084013561116f81610f8c565b6000806000806080858703121561123b57600080fd5b843561124681610f77565b9350602085013561125681610f77565b9250604085013561126681610f77565b9150606085013567ffffffffffffffff81111561128257600080fd5b61128e87828801611018565b91505092959194509250565b600080600080608085870312156112b057600080fd5b84356112bb81610f77565b935060208501356112cb81610f77565b925060408501356111ca81610f77565b6000602082840312156112ed57600080fd5b5051919050565b6000806000806080858703121561130a57600080fd5b8451602086015190945061131d81610f8c565b6040860151606090960151949790965092505050565b6001600160a01b0393841681529183166020830152909116604082015260600190565b60006020828403121561136857600080fd5b815161030781610f8c565b60008060006060848603121561138857600080fd5b83519250602084015161139a8161117a565b604085015190925061116f81610f8c565b60005b838110156113c65781810151838201526020016113ae565b50506000910152565b600081518084526113e78160208601602086016113ab565b601f01601f19169290920160200192915050565b6001600160a01b0386811682528516602082015260ff84166040820152600b83900b606082015260a060808201819052600090610915908301846113cf565b6001600160a01b038681168252858116602083015284166040820152600b83900b606082015260a060808201819052600090610915908301846113cf565b6001600160a01b03858116825284166020820152600b83900b604082015260806060820181905260009061032c908301846113cf565b6001600160a01b03858116825284811660208301528316604082015260806060820181905260009061032c908301846113cf565b6040815260006114f560408301856113cf565b8281036020840152610d1a81856113cf565b634e487b7160e01b600052603260045260246000fd5b6000602082016020835280845180835260408501915060408160051b86010192506020860160005b828110156115a657868503603f190184528151805163ffffffff1686526020808201516001600160a01b031690870152604090810151606091870182905290611590908701826113cf565b9550506020938401939190910190600101611545565b50929695505050505050565b600083516115c48184602088016113ab565b60609390931b6bffffffffffffffffffffffff19169190920190815260140192915050565b600082516115fb8184602087016113ab565b9190910192915050565b60208152600061030760208301846113cf56fea26469706673582212206399911c4ca3c082db5b48c782d2349469bf8b2bac6c40bffd1a32e359a67a8464736f6c634300081a0033",
  "immutableReferences": {
    "54765": [
      {
        "length": 32,
        "start": 666
      },
      {
        "length": 32,
        "start": 870
      },
      {
        "length": 32,
        "start": 1019
      },
      {
        "length": 32,
        "start": 1195
      },
      {
        "length": 32,
        "start": 1312
      },
      {
        "length": 32,
        "start": 1502
      },
      {
        "length": 32,
        "start": 1769
      },
      {
        "length": 32,
        "start": 1894
      },
      {
        "length": 32,
        "start": 1962
      },
      {
        "length": 32,
        "start": 2129
      },
      {
        "length": 32,
        "start": 2287
      },
      {
        "length": 32,
        "start": 2341
      },
      {
        "length": 32,
        "start": 2748
      },
      {
        "length": 32,
        "start": 2881
      },
      {
        "length": 32,
        "start": 2992
      },
      {
        "length": 32,
        "start": 3059
      },
      {
        "length": 32,
        "start": 3117
      }
    ],
    "55508": [
      {
        "length": 32,
        "start": 3387
      },
      {
        "length": 32,
        "start": 3501
      }
    ]
  },
  "source": "// SPDX-License-Identifier: AGPLv3\npragma solidity ^0.8.23;\n\nimport {\n    ISuperfluid,\n    ISuperToken,\n    FlowOperatorDefinitions,\n    IConstantFlowAgreementV1\n} from \"../interfaces/superfluid/ISuperfluid.sol\";\nimport { ForwarderBase } from \"./ForwarderBase.sol\";\n\n\n/**\n * @title CFAv1Forwarder\n * @author Superfluid\n * The CFAv1Forwarder contract provides an easy to use interface to\n * ConstantFlowAgreementV1 specific functionality of Super Tokens.\n * Instances of this contract can operate on the protocol only if configured as \"trusted forwarder\"\n * by protocol governance.\n */\ncontract CFAv1Forwarder is ForwarderBase {\n    error CFA_FWD_INVALID_FLOW_RATE();\n\n    IConstantFlowAgreementV1 internal immutable _cfa;\n\n    // is tied to a specific instance of host and agreement contracts at deploy time\n    constructor(ISuperfluid host) ForwarderBase(host) {\n        _cfa = IConstantFlowAgreementV1(address(_host.getAgreementClass(\n            keccak256(\"org.superfluid-finance.agreements.ConstantFlowAgreement.v1\")\n        )));\n    }\n\n    /**\n     * @notice Sets the given flowrate between msg.sender and a given receiver.\n     * If there's no pre-existing flow and `flowrate` non-zero, a new flow is created.\n     * If there's an existing flow and `flowrate` non-zero, the flowrate of that flow is updated.\n     * If there's an existing flow and `flowrate` zero, the flow is deleted.\n     * If the existing and given flowrate are equal, no action is taken.\n     * On creation of a flow, a \"buffer\" amount is automatically detracted from the sender account's available balance.\n     * If the sender account is solvent when the flow is deleted, this buffer is redeemed to it.\n     * @param token Super token address\n     * @param receiver The receiver of the flow\n     * @param flowrate The wanted flowrate in wad/second. Only positive values are valid here.\n     * @return bool\n     */\n    function setFlowrate(ISuperToken token, address receiver, int96 flowrate) external returns (bool) {\n       return _setFlowrateFrom(token, msg.sender, receiver, flowrate);\n    }\n\n    /**\n     * @notice Like `setFlowrate`, but can be invoked by an account with flowOperator permissions\n     * on behalf of the sender account.\n     * @param token Super token address\n     * @param sender The sender of the flow\n     * @param receiver The receiver of the flow\n     * @param flowrate The wanted flowrate in wad/second. Only positive values are valid here.\n     * @return bool\n     */\n    function setFlowrateFrom(\n        ISuperToken token,\n        address sender,\n        address receiver,\n        int96 flowrate\n    ) external returns (bool) {\n        return _setFlowrateFrom(token, sender, receiver, flowrate);\n    }\n\n    /**\n     * @notice Get the flowrate of the flow between 2 accounts if exists.\n     * @dev Currently, only 0 or 1 flows can exist between 2 accounts. This may change in the future.\n     * @param token Super token address\n     * @param sender The sender of the flow\n     * @param receiver The receiver of the flow\n     * @return flowrate The flowrate from the sender to the receiver account. Returns 0 if no flow exists.\n     */\n    function getFlowrate(ISuperToken token, address sender, address receiver) external view\n        returns(int96 flowrate)\n    {\n        (, flowrate, , ) = _cfa.getFlow(token, sender, receiver);\n    }\n\n    /**\n     * @notice Get all available information about a flow (if exists).\n     * If only the flowrate is needed, consider using `getFlowrate` instead.\n     * @param token Super token address\n     * @param sender The sender of the flow\n     * @param receiver The receiver of the flow\n     * @return lastUpdated Timestamp of last update (flowrate change) or zero if no flow exists\n     * @return flowrate Current flowrate of the flow or zero if no flow exists\n     * @return deposit Deposit amount locked as security buffer during the lifetime of the flow\n     * @return owedDeposit Extra deposit amount borrowed to a SuperApp receiver by the flow sender\n     */\n    function getFlowInfo(ISuperToken token, address sender, address receiver) external view\n        returns(uint256 lastUpdated, int96 flowrate, uint256 deposit, uint256 owedDeposit)\n    {\n        (lastUpdated, flowrate, deposit, owedDeposit) = _cfa.getFlow(token, sender, receiver);\n    }\n\n    /**\n     * @notice Get the buffer amount required for the given token and flowrate.\n     * This amount can vary based on the combination of token, flowrate and chain being queried.\n     * The result for a given set of parameters can change over time,\n     * because it depends on governance configurable protocol parameters.\n     * Changes of the required buffer amount affect only flows created or updated after the change.\n     * @param token Super token address\n     * @param flowrate The flowrate for which the buffer amount is calculated\n     * @return bufferAmount The buffer amount required for the given configuration.\n     */\n    function getBufferAmountByFlowrate(ISuperToken token, int96 flowrate) external view\n        returns (uint256 bufferAmount)\n    {\n        return _cfa.getDepositRequiredForFlowRate(token, flowrate);\n    }\n\n    /**\n     * @notice Get the net flowrate of an account.\n     * @param token Super token address\n     * @param account Account to query\n     * @return flowrate The net flowrate (aggregate incoming minus aggregate outgoing flowrate), can be negative.\n     */\n    function getAccountFlowrate(ISuperToken token, address account) external view\n        returns (int96 flowrate)\n    {\n        return _cfa.getNetFlow(token, account);\n    }\n\n    /**\n     * @notice Get aggregated flow information (if any exist) of an account.\n     * If only the net flowrate is needed, consider using `getAccountFlowrate` instead.\n     * @param token Super token address\n     * @param account Account to query\n     * @return lastUpdated Timestamp of last update of a flow to or from the account (flowrate change)\n     * @return flowrate Current net aggregate flowrate\n     * @return deposit Aggregate deposit amount currently locked as security buffer for outgoing flows\n     * @return owedDeposit Aggregate extra deposit amount currently borrowed to SuperApps receiving from this account\n     */\n    function getAccountFlowInfo(ISuperToken token, address account) external view\n        returns (uint256 lastUpdated, int96 flowrate, uint256 deposit, uint256 owedDeposit)\n    {\n        return _cfa.getAccountFlowInfo(token, account);\n    }\n\n    /**\n     * @notice Low-level wrapper of createFlow/createFlowByOperator.\n     * If the address of msg.sender is not the same as the address of the `sender` argument,\n     * createFlowByOperator is used internally. In this case msg.sender needs to have permission to create flows\n     * on behalf of the given sender account with sufficient flowRateAllowance.\n     * Currently, only 1 flow can exist between 2 accounts, thus `createFlow` will fail if one already exists.\n     * @param token Super token address\n     * @param sender Sender address of the flow\n     * @param receiver Receiver address of the flow\n     * @param flowrate The flowrate in wad/second to be set initially\n     * @param userData (optional) User data to be set. Should be set to zero if not needed.\n     * @return bool\n     */\n    function createFlow(ISuperToken token, address sender, address receiver, int96 flowrate, bytes memory userData)\n        external returns (bool)\n    {\n        return _createFlow(token, sender, receiver, flowrate, userData);\n    }\n\n    /**\n     * @notice Low-level wrapper if updateFlow/updateFlowByOperator.\n     * If the address of msg.sender doesn't match the address of the `sender` argument,\n     * updateFlowByOperator is invoked. In this case msg.sender needs to have permission to update flows\n     * on behalf of the given sender account with sufficient flowRateAllowance.\n     * @param token Super token address\n     * @param sender Sender address of the flow\n     * @param receiver Receiver address of the flow\n     * @param flowrate The flowrate in wad/second the flow should be updated to\n     * @param userData (optional) User data to be set. Should be set to zero if not needed.\n     * @return bool\n     */\n    function updateFlow(ISuperToken token, address sender, address receiver, int96 flowrate, bytes memory userData)\n        external returns (bool)\n    {\n        return _updateFlow(token, sender, receiver, flowrate, userData);\n    }\n\n    /**\n     * @notice Low-level wrapper of deleteFlow/deleteFlowByOperator.\n     * If msg.sender isn't the same as sender address, msg.sender needs to have permission\n     * to delete flows on behalf of the given sender account.\n     * @param token Super token address\n     * @param sender Sender address of the flow\n     * @param receiver Receiver address of the flow\n     * @param userData (optional) User data to be set. Should be set to zero if not needed.\n     * @return bool\n     */\n    function deleteFlow(\n        ISuperToken token,\n        address sender,\n        address receiver,\n        bytes memory userData\n    )\n        external returns (bool)\n    {\n        return _deleteFlow(token, sender, receiver, userData);\n    }\n\n    /**\n     * @notice Grants a flowOperator permission to create/update/delete flows on behalf of msg.sender.\n     * In order to restrict what a flowOperator can or can't do, the flowOperator account\n     * should be a contract implementing the desired restrictions.\n     * @param token Super token address\n     * @param flowOperator Account to which permissions are granted\n     * @return bool\n     */\n    function grantPermissions(ISuperToken token, address flowOperator) external returns (bool)\n    {\n        return _updateFlowOperatorPermissions(\n            token,\n            flowOperator,\n            FlowOperatorDefinitions.AUTHORIZE_FULL_CONTROL,\n            type(int96).max\n        );\n    }\n\n    /**\n     * @notice Revokes all permissions previously granted to a flowOperator by msg.sender.\n     * Revocation doesn't undo or reset flows previously created/updated by the flowOperator.\n     * In order to be sure about the state of flows at the time of revocation, you need to check that state\n     * either in the same transaction or after this transaction.\n     * @param token Super token address\n     * @param flowOperator Account from which permissions are revoked\n     * @return bool\n     */\n    function revokePermissions(ISuperToken token, address flowOperator) external returns (bool)\n    {\n        return _updateFlowOperatorPermissions(\n            token,\n            flowOperator,\n            0,\n            0\n        );\n    }\n\n    /**\n     * @notice Low-level wrapper of `IConstantFlowAgreementV1.updateFlowOperatorPermissions`\n     * @param token Super token address\n     * @param flowOperator Account for which permissions are set on behalf of msg.sender\n     * @param permissions Bitmask for create/update/delete permission flags. See library `FlowOperatorDefinitions`\n     * @param flowrateAllowance Max. flowrate in wad/second the operator can set for individual flows.\n     * @return bool\n     * @notice flowrateAllowance does NOT restrict the net flowrate a flowOperator is able to set.\n     * In order to restrict that, flowOperator needs to be a contract implementing the wanted limitations.\n     */\n    function updateFlowOperatorPermissions(\n        ISuperToken token,\n        address flowOperator,\n        uint8 permissions,\n        int96 flowrateAllowance\n    )\n        external returns (bool)\n    {\n        return _updateFlowOperatorPermissions(token, flowOperator, permissions, flowrateAllowance);\n    }\n\n    /**\n     * @notice Get the currently set permissions granted to the given flowOperator by the given sender account.\n     * @param token Super token address\n     * @param sender The account which (possiby) granted permissions\n     * @param flowOperator Account to which (possibly) permissions were granted\n     * @return permissions A bitmask of the permissions currently granted (or not) by `sender` to `flowOperator`\n     * @return flowrateAllowance Max. flowrate in wad/second the flowOperator can set for individual flows.\n     */\n    function getFlowOperatorPermissions(ISuperToken token, address sender, address flowOperator) external view\n        returns (uint8 permissions, int96 flowrateAllowance)\n    {\n        (, permissions, flowrateAllowance) = _cfa.getFlowOperatorData(token, sender, flowOperator);\n    }\n\n    /**************************************************************************\n     * Internal functions\n     *************************************************************************/\n\n    function _setFlowrateFrom(\n        ISuperToken token,\n        address sender,\n        address receiver,\n        int96 flowrate\n    ) internal returns (bool) {\n        (, int96 prevFlowRate,,) = _cfa.getFlow(token, sender, receiver);\n\n        if (flowrate > 0) {\n            if (prevFlowRate == 0) {\n                return _createFlow(token, sender, receiver, flowrate, new bytes(0));\n            } else if (prevFlowRate != flowrate) {\n                return _updateFlow(token, sender, receiver, flowrate, new bytes(0));\n            } // else no change, do nothing\n            return true;\n        } else if (flowrate == 0) {\n            if (prevFlowRate > 0) {\n                return _deleteFlow(token, sender, receiver, new bytes(0));\n            } // else no change, do nothing\n            return true;\n        } else {\n            revert CFA_FWD_INVALID_FLOW_RATE();\n        }\n    }\n\n    function _createFlow(\n        ISuperToken token,\n        address sender,\n        address receiver,\n        int96 flowrate,\n        bytes memory userData\n    )\n        internal returns (bool)\n    {\n        bytes memory cfaCallData = sender == msg.sender ?\n            abi.encodeCall(\n                _cfa.createFlow,\n                (\n                    token,\n                    receiver,\n                    flowrate,\n                    new bytes(0) // placeholder\n                )\n            ) :\n            abi.encodeCall(\n                _cfa.createFlowByOperator,\n                (\n                    token,\n                    sender,\n                    receiver,\n                    flowrate,\n                    new bytes(0) // placeholder\n                )\n            );\n\n        return _forwardBatchCall(address(_cfa), cfaCallData, userData);\n    }\n\n    function _updateFlow(\n        ISuperToken token,\n        address sender,\n        address receiver,\n        int96 flowrate,\n        bytes memory userData\n    )\n        internal returns (bool)\n    {\n        bytes memory cfaCallData = sender == msg.sender ?\n            abi.encodeCall(\n                _cfa.updateFlow,\n                (\n                    token,\n                    receiver,\n                    flowrate,\n                    new bytes(0) // placeholder\n                )\n            ) :\n            abi.encodeCall(\n                _cfa.updateFlowByOperator,\n                (\n                    token,\n                    sender,\n                    receiver,\n                    flowrate,\n                    new bytes(0) // placeholder\n                )\n            );\n\n        return _forwardBatchCall(address(_cfa), cfaCallData, userData);\n    }\n\n    function _deleteFlow(\n        ISuperToken token,\n        address sender,\n        address receiver,\n        bytes memory userData\n    )\n        internal returns (bool)\n    {\n        bytes memory cfaCallData = sender == msg.sender || receiver == msg.sender ?\n            abi.encodeCall(\n                _cfa.deleteFlow,\n                (\n                    token,\n                    sender,\n                    receiver,\n                    new bytes(0) // placeholder\n                )\n            ) :\n            abi.encodeCall(\n                _cfa.deleteFlowByOperator,\n                (\n                    token,\n                    sender,\n                    receiver,\n                    new bytes(0) // placeholder\n                )\n            );\n\n        return _forwardBatchCall(address(_cfa), cfaCallData, userData);\n    }\n\n    function _updateFlowOperatorPermissions(\n        ISuperToken token,\n        address flowOperator,\n        uint8 permissions,\n        int96 flowrateAllowance\n    )\n        internal returns (bool)\n    {\n        bytes memory cfaCallData =\n            abi.encodeCall(\n                _cfa.updateFlowOperatorPermissions,\n                (\n                    token,\n                    flowOperator,\n                    permissions,\n                    flowrateAllowance,\n                    new bytes(0) // placeholder\n                )\n            );\n\n        return _forwardBatchCall(address(_cfa), cfaCallData, new bytes(0));\n    }\n}\n",
  "sourcePath": "/home/runner/work/protocol-monorepo/protocol-monorepo/packages/ethereum-contracts/contracts/utils/CFAv1Forwarder.sol",
  "compiler": {
    "name": "solc",
    "version": "0.8.26+commit.8a97fa7a.Linux.g++"
  },
  "schemaVersion": "3.4.16",
  "updatedAt": "2024-11-25T09:47:04.370Z",
  "devdoc": {
    "author": "Superfluid The CFAv1Forwarder contract provides an easy to use interface to ConstantFlowAgreementV1 specific functionality of Super Tokens. Instances of this contract can operate on the protocol only if configured as \"trusted forwarder\" by protocol governance.",
    "kind": "dev",
    "methods": {
      "createFlow(address,address,address,int96,bytes)": {
        "params": {
          "flowrate": "The flowrate in wad/second to be set initially",
          "receiver": "Receiver address of the flow",
          "sender": "Sender address of the flow",
          "token": "Super token address",
          "userData": "(optional) User data to be set. Should be set to zero if not needed."
        },
        "returns": {
          "_0": "bool"
        }
      },
      "deleteFlow(address,address,address,bytes)": {
        "params": {
          "receiver": "Receiver address of the flow",
          "sender": "Sender address of the flow",
          "token": "Super token address",
          "userData": "(optional) User data to be set. Should be set to zero if not needed."
        },
        "returns": {
          "_0": "bool"
        }
      },
      "getAccountFlowInfo(address,address)": {
        "params": {
          "account": "Account to query",
          "token": "Super token address"
        },
        "returns": {
          "deposit": "Aggregate deposit amount currently locked as security buffer for outgoing flows",
          "flowrate": "Current net aggregate flowrate",
          "lastUpdated": "Timestamp of last update of a flow to or from the account (flowrate change)",
          "owedDeposit": "Aggregate extra deposit amount currently borrowed to SuperApps receiving from this account"
        }
      },
      "getAccountFlowrate(address,address)": {
        "params": {
          "account": "Account to query",
          "token": "Super token address"
        },
        "returns": {
          "flowrate": "The net flowrate (aggregate incoming minus aggregate outgoing flowrate), can be negative."
        }
      },
      "getBufferAmountByFlowrate(address,int96)": {
        "params": {
          "flowrate": "The flowrate for which the buffer amount is calculated",
          "token": "Super token address"
        },
        "returns": {
          "bufferAmount": "The buffer amount required for the given configuration."
        }
      },
      "getFlowInfo(address,address,address)": {
        "params": {
          "receiver": "The receiver of the flow",
          "sender": "The sender of the flow",
          "token": "Super token address"
        },
        "returns": {
          "deposit": "Deposit amount locked as security buffer during the lifetime of the flow",
          "flowrate": "Current flowrate of the flow or zero if no flow exists",
          "lastUpdated": "Timestamp of last update (flowrate change) or zero if no flow exists",
          "owedDeposit": "Extra deposit amount borrowed to a SuperApp receiver by the flow sender"
        }
      },
      "getFlowOperatorPermissions(address,address,address)": {
        "params": {
          "flowOperator": "Account to which (possibly) permissions were granted",
          "sender": "The account which (possiby) granted permissions",
          "token": "Super token address"
        },
        "returns": {
          "flowrateAllowance": "Max. flowrate in wad/second the flowOperator can set for individual flows.",
          "permissions": "A bitmask of the permissions currently granted (or not) by `sender` to `flowOperator`"
        }
      },
      "getFlowrate(address,address,address)": {
        "details": "Currently, only 0 or 1 flows can exist between 2 accounts. This may change in the future.",
        "params": {
          "receiver": "The receiver of the flow",
          "sender": "The sender of the flow",
          "token": "Super token address"
        },
        "returns": {
          "flowrate": "The flowrate from the sender to the receiver account. Returns 0 if no flow exists."
        }
      },
      "grantPermissions(address,address)": {
        "params": {
          "flowOperator": "Account to which permissions are granted",
          "token": "Super token address"
        },
        "returns": {
          "_0": "bool"
        }
      },
      "revokePermissions(address,address)": {
        "params": {
          "flowOperator": "Account from which permissions are revoked",
          "token": "Super token address"
        },
        "returns": {
          "_0": "bool"
        }
      },
      "setFlowrate(address,address,int96)": {
        "params": {
          "flowrate": "The wanted flowrate in wad/second. Only positive values are valid here.",
          "receiver": "The receiver of the flow",
          "token": "Super token address"
        },
        "returns": {
          "_0": "bool"
        }
      },
      "setFlowrateFrom(address,address,address,int96)": {
        "params": {
          "flowrate": "The wanted flowrate in wad/second. Only positive values are valid here.",
          "receiver": "The receiver of the flow",
          "sender": "The sender of the flow",
          "token": "Super token address"
        },
        "returns": {
          "_0": "bool"
        }
      },
      "updateFlow(address,address,address,int96,bytes)": {
        "params": {
          "flowrate": "The flowrate in wad/second the flow should be updated to",
          "receiver": "Receiver address of the flow",
          "sender": "Sender address of the flow",
          "token": "Super token address",
          "userData": "(optional) User data to be set. Should be set to zero if not needed."
        },
        "returns": {
          "_0": "bool"
        }
      },
      "updateFlowOperatorPermissions(address,address,uint8,int96)": {
        "params": {
          "flowOperator": "Account for which permissions are set on behalf of msg.sender",
          "flowrateAllowance": "Max. flowrate in wad/second the operator can set for individual flows.",
          "permissions": "Bitmask for create/update/delete permission flags. See library `FlowOperatorDefinitions`",
          "token": "Super token address"
        },
        "returns": {
          "_0": "bool"
        }
      }
    },
    "title": "CFAv1Forwarder",
    "version": 1
  },
  "userdoc": {
    "kind": "user",
    "methods": {
      "createFlow(address,address,address,int96,bytes)": {
        "notice": "Low-level wrapper of createFlow/createFlowByOperator. If the address of msg.sender is not the same as the address of the `sender` argument, createFlowByOperator is used internally. In this case msg.sender needs to have permission to create flows on behalf of the given sender account with sufficient flowRateAllowance. Currently, only 1 flow can exist between 2 accounts, thus `createFlow` will fail if one already exists."
      },
      "deleteFlow(address,address,address,bytes)": {
        "notice": "Low-level wrapper of deleteFlow/deleteFlowByOperator. If msg.sender isn't the same as sender address, msg.sender needs to have permission to delete flows on behalf of the given sender account."
      },
      "getAccountFlowInfo(address,address)": {
        "notice": "Get aggregated flow information (if any exist) of an account. If only the net flowrate is needed, consider using `getAccountFlowrate` instead."
      },
      "getAccountFlowrate(address,address)": {
        "notice": "Get the net flowrate of an account."
      },
      "getBufferAmountByFlowrate(address,int96)": {
        "notice": "Get the buffer amount required for the given token and flowrate. This amount can vary based on the combination of token, flowrate and chain being queried. The result for a given set of parameters can change over time, because it depends on governance configurable protocol parameters. Changes of the required buffer amount affect only flows created or updated after the change."
      },
      "getFlowInfo(address,address,address)": {
        "notice": "Get all available information about a flow (if exists). If only the flowrate is needed, consider using `getFlowrate` instead."
      },
      "getFlowOperatorPermissions(address,address,address)": {
        "notice": "Get the currently set permissions granted to the given flowOperator by the given sender account."
      },
      "getFlowrate(address,address,address)": {
        "notice": "Get the flowrate of the flow between 2 accounts if exists."
      },
      "grantPermissions(address,address)": {
        "notice": "Grants a flowOperator permission to create/update/delete flows on behalf of msg.sender. In order to restrict what a flowOperator can or can't do, the flowOperator account should be a contract implementing the desired restrictions."
      },
      "revokePermissions(address,address)": {
        "notice": "Revokes all permissions previously granted to a flowOperator by msg.sender. Revocation doesn't undo or reset flows previously created/updated by the flowOperator. In order to be sure about the state of flows at the time of revocation, you need to check that state either in the same transaction or after this transaction."
      },
      "setFlowrate(address,address,int96)": {
        "notice": "Sets the given flowrate between msg.sender and a given receiver. If there's no pre-existing flow and `flowrate` non-zero, a new flow is created. If there's an existing flow and `flowrate` non-zero, the flowrate of that flow is updated. If there's an existing flow and `flowrate` zero, the flow is deleted. If the existing and given flowrate are equal, no action is taken. On creation of a flow, a \"buffer\" amount is automatically detracted from the sender account's available balance. If the sender account is solvent when the flow is deleted, this buffer is redeemed to it."
      },
      "setFlowrateFrom(address,address,address,int96)": {
        "notice": "Like `setFlowrate`, but can be invoked by an account with flowOperator permissions on behalf of the sender account."
      },
      "updateFlow(address,address,address,int96,bytes)": {
        "notice": "Low-level wrapper if updateFlow/updateFlowByOperator. If the address of msg.sender doesn't match the address of the `sender` argument, updateFlowByOperator is invoked. In this case msg.sender needs to have permission to update flows on behalf of the given sender account with sufficient flowRateAllowance."
      },
      "updateFlowOperatorPermissions(address,address,uint8,int96)": {
        "notice": "Low-level wrapper of `IConstantFlowAgreementV1.updateFlowOperatorPermissions`flowrateAllowance does NOT restrict the net flowrate a flowOperator is able to set. In order to restrict that, flowOperator needs to be a contract implementing the wanted limitations."
      }
    },
    "version": 1
  }
}