{
  "contractName": "GeneralDistributionAgreementV1",
  "abi": [
    {
      "inputs": [
        {
          "internalType": "contract ISuperfluid",
          "name": "host",
          "type": "address"
        },
        {
          "internalType": "contract SuperfluidUpgradeableBeacon",
          "name": "superfluidPoolBeacon_",
          "type": "address"
        }
      ],
      "stateMutability": "nonpayable",
      "type": "constructor"
    },
    {
      "inputs": [],
      "name": "AGREEMENT_BASE_ONLY_HOST",
      "type": "error"
    },
    {
      "inputs": [],
      "name": "GDA_ADMIN_CANNOT_BE_POOL",
      "type": "error"
    },
    {
      "inputs": [],
      "name": "GDA_DISTRIBUTE_FOR_OTHERS_NOT_ALLOWED",
      "type": "error"
    },
    {
      "inputs": [],
      "name": "GDA_DISTRIBUTE_FROM_ANY_ADDRESS_NOT_ALLOWED",
      "type": "error"
    },
    {
      "inputs": [],
      "name": "GDA_FLOW_DOES_NOT_EXIST",
      "type": "error"
    },
    {
      "inputs": [],
      "name": "GDA_INSUFFICIENT_BALANCE",
      "type": "error"
    },
    {
      "inputs": [],
      "name": "GDA_NON_CRITICAL_SENDER",
      "type": "error"
    },
    {
      "inputs": [],
      "name": "GDA_NOT_POOL_ADMIN",
      "type": "error"
    },
    {
      "inputs": [],
      "name": "GDA_NO_NEGATIVE_FLOW_RATE",
      "type": "error"
    },
    {
      "inputs": [],
      "name": "GDA_NO_ZERO_ADDRESS_ADMIN",
      "type": "error"
    },
    {
      "inputs": [],
      "name": "GDA_ONLY_SUPER_TOKEN_POOL",
      "type": "error"
    },
    {
      "anonymous": false,
      "inputs": [
        {
          "indexed": true,
          "internalType": "contract ISuperfluidToken",
          "name": "token",
          "type": "address"
        },
        {
          "indexed": true,
          "internalType": "contract ISuperfluidPool",
          "name": "pool",
          "type": "address"
        },
        {
          "indexed": true,
          "internalType": "address",
          "name": "from",
          "type": "address"
        },
        {
          "indexed": false,
          "internalType": "int256",
          "name": "bufferDelta",
          "type": "int256"
        },
        {
          "indexed": false,
          "internalType": "uint256",
          "name": "newBufferAmount",
          "type": "uint256"
        },
        {
          "indexed": false,
          "internalType": "uint256",
          "name": "totalBufferAmount",
          "type": "uint256"
        }
      ],
      "name": "BufferAdjusted",
      "type": "event"
    },
    {
      "anonymous": false,
      "inputs": [
        {
          "indexed": false,
          "internalType": "bytes32",
          "name": "uuid",
          "type": "bytes32"
        },
        {
          "indexed": false,
          "internalType": "address",
          "name": "codeAddress",
          "type": "address"
        }
      ],
      "name": "CodeUpdated",
      "type": "event"
    },
    {
      "anonymous": false,
      "inputs": [
        {
          "indexed": true,
          "internalType": "contract ISuperfluidToken",
          "name": "token",
          "type": "address"
        },
        {
          "indexed": true,
          "internalType": "contract ISuperfluidPool",
          "name": "pool",
          "type": "address"
        },
        {
          "indexed": true,
          "internalType": "address",
          "name": "distributor",
          "type": "address"
        },
        {
          "indexed": false,
          "internalType": "address",
          "name": "operator",
          "type": "address"
        },
        {
          "indexed": false,
          "internalType": "int96",
          "name": "oldFlowRate",
          "type": "int96"
        },
        {
          "indexed": false,
          "internalType": "int96",
          "name": "newDistributorToPoolFlowRate",
          "type": "int96"
        },
        {
          "indexed": false,
          "internalType": "int96",
          "name": "newTotalDistributionFlowRate",
          "type": "int96"
        },
        {
          "indexed": false,
          "internalType": "address",
          "name": "adjustmentFlowRecipient",
          "type": "address"
        },
        {
          "indexed": false,
          "internalType": "int96",
          "name": "adjustmentFlowRate",
          "type": "int96"
        },
        {
          "indexed": false,
          "internalType": "bytes",
          "name": "userData",
          "type": "bytes"
        }
      ],
      "name": "FlowDistributionUpdated",
      "type": "event"
    },
    {
      "anonymous": false,
      "inputs": [
        {
          "indexed": false,
          "internalType": "uint8",
          "name": "version",
          "type": "uint8"
        }
      ],
      "name": "Initialized",
      "type": "event"
    },
    {
      "anonymous": false,
      "inputs": [
        {
          "indexed": true,
          "internalType": "contract ISuperfluidToken",
          "name": "token",
          "type": "address"
        },
        {
          "indexed": true,
          "internalType": "contract ISuperfluidPool",
          "name": "pool",
          "type": "address"
        },
        {
          "indexed": true,
          "internalType": "address",
          "name": "distributor",
          "type": "address"
        },
        {
          "indexed": false,
          "internalType": "address",
          "name": "operator",
          "type": "address"
        },
        {
          "indexed": false,
          "internalType": "uint256",
          "name": "requestedAmount",
          "type": "uint256"
        },
        {
          "indexed": false,
          "internalType": "uint256",
          "name": "actualAmount",
          "type": "uint256"
        },
        {
          "indexed": false,
          "internalType": "bytes",
          "name": "userData",
          "type": "bytes"
        }
      ],
      "name": "InstantDistributionUpdated",
      "type": "event"
    },
    {
      "anonymous": false,
      "inputs": [
        {
          "indexed": true,
          "internalType": "contract ISuperfluidToken",
          "name": "token",
          "type": "address"
        },
        {
          "indexed": true,
          "internalType": "contract ISuperfluidPool",
          "name": "pool",
          "type": "address"
        },
        {
          "indexed": true,
          "internalType": "address",
          "name": "account",
          "type": "address"
        },
        {
          "indexed": false,
          "internalType": "bool",
          "name": "connected",
          "type": "bool"
        },
        {
          "indexed": false,
          "internalType": "bytes",
          "name": "userData",
          "type": "bytes"
        }
      ],
      "name": "PoolConnectionUpdated",
      "type": "event"
    },
    {
      "anonymous": false,
      "inputs": [
        {
          "indexed": true,
          "internalType": "contract ISuperfluidToken",
          "name": "token",
          "type": "address"
        },
        {
          "indexed": true,
          "internalType": "address",
          "name": "admin",
          "type": "address"
        },
        {
          "indexed": false,
          "internalType": "contract ISuperfluidPool",
          "name": "pool",
          "type": "address"
        }
      ],
      "name": "PoolCreated",
      "type": "event"
    },
    {
      "inputs": [],
      "name": "SLOTS_BITMAP_LIBRARY_ADDRESS",
      "outputs": [
        {
          "internalType": "address",
          "name": "",
          "type": "address"
        }
      ],
      "stateMutability": "view",
      "type": "function"
    },
    {
      "inputs": [],
      "name": "SUPERFLUID_POOL_DEPLOYER_ADDRESS",
      "outputs": [
        {
          "internalType": "address",
          "name": "",
          "type": "address"
        }
      ],
      "stateMutability": "view",
      "type": "function"
    },
    {
      "inputs": [],
      "name": "agreementType",
      "outputs": [
        {
          "internalType": "bytes32",
          "name": "",
          "type": "bytes32"
        }
      ],
      "stateMutability": "pure",
      "type": "function"
    },
    {
      "inputs": [],
      "name": "castrate",
      "outputs": [],
      "stateMutability": "nonpayable",
      "type": "function"
    },
    {
      "inputs": [],
      "name": "getCodeAddress",
      "outputs": [
        {
          "internalType": "address",
          "name": "codeAddress",
          "type": "address"
        }
      ],
      "stateMutability": "view",
      "type": "function"
    },
    {
      "inputs": [],
      "name": "proxiableUUID",
      "outputs": [
        {
          "internalType": "bytes32",
          "name": "",
          "type": "bytes32"
        }
      ],
      "stateMutability": "view",
      "type": "function"
    },
    {
      "inputs": [],
      "name": "superfluidPoolBeacon",
      "outputs": [
        {
          "internalType": "contract SuperfluidUpgradeableBeacon",
          "name": "",
          "type": "address"
        }
      ],
      "stateMutability": "view",
      "type": "function"
    },
    {
      "inputs": [
        {
          "internalType": "address",
          "name": "newAddress",
          "type": "address"
        }
      ],
      "name": "updateCode",
      "outputs": [],
      "stateMutability": "nonpayable",
      "type": "function"
    },
    {
      "inputs": [
        {
          "internalType": "contract ISuperfluidToken",
          "name": "token",
          "type": "address"
        },
        {
          "internalType": "address",
          "name": "account",
          "type": "address"
        },
        {
          "internalType": "uint256",
          "name": "time",
          "type": "uint256"
        }
      ],
      "name": "realtimeBalanceOf",
      "outputs": [
        {
          "internalType": "int256",
          "name": "rtb",
          "type": "int256"
        },
        {
          "internalType": "uint256",
          "name": "buf",
          "type": "uint256"
        },
        {
          "internalType": "uint256",
          "name": "owedBuffer",
          "type": "uint256"
        }
      ],
      "stateMutability": "view",
      "type": "function"
    },
    {
      "inputs": [
        {
          "internalType": "contract ISuperfluidToken",
          "name": "token",
          "type": "address"
        },
        {
          "internalType": "address",
          "name": "account",
          "type": "address"
        }
      ],
      "name": "realtimeBalanceOfNow",
      "outputs": [
        {
          "internalType": "int256",
          "name": "availableBalance",
          "type": "int256"
        },
        {
          "internalType": "uint256",
          "name": "buffer",
          "type": "uint256"
        },
        {
          "internalType": "uint256",
          "name": "owedBuffer",
          "type": "uint256"
        },
        {
          "internalType": "uint256",
          "name": "timestamp",
          "type": "uint256"
        }
      ],
      "stateMutability": "view",
      "type": "function"
    },
    {
      "inputs": [
        {
          "internalType": "contract ISuperfluidToken",
          "name": "token",
          "type": "address"
        },
        {
          "internalType": "address",
          "name": "account",
          "type": "address"
        }
      ],
      "name": "getNetFlow",
      "outputs": [
        {
          "internalType": "int96",
          "name": "netFlowRate",
          "type": "int96"
        }
      ],
      "stateMutability": "view",
      "type": "function"
    },
    {
      "inputs": [
        {
          "internalType": "contract ISuperfluidToken",
          "name": "token",
          "type": "address"
        },
        {
          "internalType": "address",
          "name": "from",
          "type": "address"
        },
        {
          "internalType": "contract ISuperfluidPool",
          "name": "to",
          "type": "address"
        }
      ],
      "name": "getFlowRate",
      "outputs": [
        {
          "internalType": "int96",
          "name": "",
          "type": "int96"
        }
      ],
      "stateMutability": "view",
      "type": "function"
    },
    {
      "inputs": [
        {
          "internalType": "contract ISuperfluidToken",
          "name": "token",
          "type": "address"
        },
        {
          "internalType": "address",
          "name": "from",
          "type": "address"
        },
        {
          "internalType": "contract ISuperfluidPool",
          "name": "to",
          "type": "address"
        }
      ],
      "name": "getFlow",
      "outputs": [
        {
          "internalType": "uint256",
          "name": "lastUpdated",
          "type": "uint256"
        },
        {
          "internalType": "int96",
          "name": "flowRate",
          "type": "int96"
        },
        {
          "internalType": "uint256",
          "name": "deposit",
          "type": "uint256"
        }
      ],
      "stateMutability": "view",
      "type": "function"
    },
    {
      "inputs": [
        {
          "internalType": "contract ISuperfluidToken",
          "name": "token",
          "type": "address"
        },
        {
          "internalType": "address",
          "name": "account",
          "type": "address"
        }
      ],
      "name": "getAccountFlowInfo",
      "outputs": [
        {
          "internalType": "uint256",
          "name": "timestamp",
          "type": "uint256"
        },
        {
          "internalType": "int96",
          "name": "flowRate",
          "type": "int96"
        },
        {
          "internalType": "uint256",
          "name": "deposit",
          "type": "uint256"
        }
      ],
      "stateMutability": "view",
      "type": "function"
    },
    {
      "inputs": [
        {
          "internalType": "contract ISuperfluidToken",
          "name": "token",
          "type": "address"
        },
        {
          "internalType": "address",
          "name": "from",
          "type": "address"
        },
        {
          "internalType": "contract ISuperfluidPool",
          "name": "to",
          "type": "address"
        },
        {
          "internalType": "int96",
          "name": "requestedFlowRate",
          "type": "int96"
        }
      ],
      "name": "estimateFlowDistributionActualFlowRate",
      "outputs": [
        {
          "internalType": "int96",
          "name": "actualFlowRate",
          "type": "int96"
        },
        {
          "internalType": "int96",
          "name": "totalDistributionFlowRate",
          "type": "int96"
        }
      ],
      "stateMutability": "view",
      "type": "function"
    },
    {
      "inputs": [
        {
          "internalType": "contract ISuperfluidToken",
          "name": "token",
          "type": "address"
        },
        {
          "internalType": "address",
          "name": "from",
          "type": "address"
        },
        {
          "internalType": "contract ISuperfluidPool",
          "name": "to",
          "type": "address"
        },
        {
          "internalType": "uint256",
          "name": "requestedAmount",
          "type": "uint256"
        }
      ],
      "name": "estimateDistributionActualAmount",
      "outputs": [
        {
          "internalType": "uint256",
          "name": "actualAmount",
          "type": "uint256"
        }
      ],
      "stateMutability": "view",
      "type": "function"
    },
    {
      "inputs": [
        {
          "internalType": "contract ISuperfluidToken",
          "name": "token",
          "type": "address"
        },
        {
          "internalType": "address",
          "name": "admin",
          "type": "address"
        },
        {
          "components": [
            {
              "internalType": "bool",
              "name": "transferabilityForUnitsOwner",
              "type": "bool"
            },
            {
              "internalType": "bool",
              "name": "distributionFromAnyAddress",
              "type": "bool"
            }
          ],
          "internalType": "struct PoolConfig",
          "name": "config",
          "type": "tuple"
        }
      ],
      "name": "createPool",
      "outputs": [
        {
          "internalType": "contract ISuperfluidPool",
          "name": "pool",
          "type": "address"
        }
      ],
      "stateMutability": "nonpayable",
      "type": "function"
    },
    {
      "inputs": [
        {
          "internalType": "contract ISuperfluidPool",
          "name": "pool",
          "type": "address"
        },
        {
          "internalType": "address",
          "name": "memberAddress",
          "type": "address"
        },
        {
          "internalType": "uint128",
          "name": "newUnits",
          "type": "uint128"
        },
        {
          "internalType": "bytes",
          "name": "ctx",
          "type": "bytes"
        }
      ],
      "name": "updateMemberUnits",
      "outputs": [
        {
          "internalType": "bytes",
          "name": "newCtx",
          "type": "bytes"
        }
      ],
      "stateMutability": "nonpayable",
      "type": "function"
    },
    {
      "inputs": [
        {
          "internalType": "contract ISuperfluidPool",
          "name": "pool",
          "type": "address"
        },
        {
          "internalType": "address",
          "name": "memberAddress",
          "type": "address"
        },
        {
          "internalType": "bytes",
          "name": "ctx",
          "type": "bytes"
        }
      ],
      "name": "claimAll",
      "outputs": [
        {
          "internalType": "bytes",
          "name": "newCtx",
          "type": "bytes"
        }
      ],
      "stateMutability": "nonpayable",
      "type": "function"
    },
    {
      "inputs": [
        {
          "internalType": "contract ISuperfluidPool",
          "name": "pool",
          "type": "address"
        },
        {
          "internalType": "bytes",
          "name": "ctx",
          "type": "bytes"
        }
      ],
      "name": "disconnectPool",
      "outputs": [
        {
          "internalType": "bytes",
          "name": "newCtx",
          "type": "bytes"
        }
      ],
      "stateMutability": "nonpayable",
      "type": "function"
    },
    {
      "inputs": [
        {
          "internalType": "contract ISuperfluidPool",
          "name": "pool",
          "type": "address"
        },
        {
          "internalType": "bool",
          "name": "doConnect",
          "type": "bool"
        },
        {
          "internalType": "bytes",
          "name": "ctx",
          "type": "bytes"
        }
      ],
      "name": "connectPool",
      "outputs": [
        {
          "internalType": "bytes",
          "name": "newCtx",
          "type": "bytes"
        }
      ],
      "stateMutability": "nonpayable",
      "type": "function"
    },
    {
      "inputs": [
        {
          "internalType": "contract ISuperfluidPool",
          "name": "pool",
          "type": "address"
        },
        {
          "internalType": "bytes",
          "name": "ctx",
          "type": "bytes"
        }
      ],
      "name": "connectPool",
      "outputs": [
        {
          "internalType": "bytes",
          "name": "newCtx",
          "type": "bytes"
        }
      ],
      "stateMutability": "nonpayable",
      "type": "function"
    },
    {
      "inputs": [
        {
          "internalType": "contract ISuperfluidPool",
          "name": "pool",
          "type": "address"
        },
        {
          "internalType": "address",
          "name": "member",
          "type": "address"
        }
      ],
      "name": "isMemberConnected",
      "outputs": [
        {
          "internalType": "bool",
          "name": "",
          "type": "bool"
        }
      ],
      "stateMutability": "view",
      "type": "function"
    },
    {
      "inputs": [
        {
          "internalType": "contract ISuperfluidToken",
          "name": "token",
          "type": "address"
        },
        {
          "components": [
            {
              "internalType": "Time",
              "name": "_settled_at",
              "type": "uint32"
            },
            {
              "internalType": "FlowRate",
              "name": "_flow_rate",
              "type": "int128"
            },
            {
              "internalType": "Value",
              "name": "_settled_value",
              "type": "int256"
            }
          ],
          "internalType": "struct BasicParticle",
          "name": "p",
          "type": "tuple"
        },
        {
          "internalType": "Time",
          "name": "t",
          "type": "uint32"
        }
      ],
      "name": "appendIndexUpdateByPool",
      "outputs": [
        {
          "internalType": "bool",
          "name": "",
          "type": "bool"
        }
      ],
      "stateMutability": "nonpayable",
      "type": "function"
    },
    {
      "inputs": [
        {
          "internalType": "contract ISuperfluidToken",
          "name": "superToken",
          "type": "address"
        },
        {
          "internalType": "address",
          "name": "claimRecipient",
          "type": "address"
        },
        {
          "internalType": "int256",
          "name": "amount",
          "type": "int256"
        }
      ],
      "name": "poolSettleClaim",
      "outputs": [
        {
          "internalType": "bool",
          "name": "",
          "type": "bool"
        }
      ],
      "stateMutability": "nonpayable",
      "type": "function"
    },
    {
      "inputs": [
        {
          "internalType": "contract ISuperfluidToken",
          "name": "token",
          "type": "address"
        },
        {
          "internalType": "address",
          "name": "from",
          "type": "address"
        },
        {
          "internalType": "contract ISuperfluidPool",
          "name": "pool",
          "type": "address"
        },
        {
          "internalType": "uint256",
          "name": "requestedAmount",
          "type": "uint256"
        },
        {
          "internalType": "bytes",
          "name": "ctx",
          "type": "bytes"
        }
      ],
      "name": "distribute",
      "outputs": [
        {
          "internalType": "bytes",
          "name": "newCtx",
          "type": "bytes"
        }
      ],
      "stateMutability": "nonpayable",
      "type": "function"
    },
    {
      "inputs": [
        {
          "internalType": "contract ISuperfluidToken",
          "name": "token",
          "type": "address"
        },
        {
          "internalType": "address",
          "name": "from",
          "type": "address"
        },
        {
          "internalType": "contract ISuperfluidPool",
          "name": "pool",
          "type": "address"
        },
        {
          "internalType": "int96",
          "name": "requestedFlowRate",
          "type": "int96"
        },
        {
          "internalType": "bytes",
          "name": "ctx",
          "type": "bytes"
        }
      ],
      "name": "distributeFlow",
      "outputs": [
        {
          "internalType": "bytes",
          "name": "newCtx",
          "type": "bytes"
        }
      ],
      "stateMutability": "nonpayable",
      "type": "function"
    },
    {
      "inputs": [
        {
          "internalType": "contract ISuperfluidToken",
          "name": "token",
          "type": "address"
        },
        {
          "internalType": "address",
          "name": "account",
          "type": "address"
        }
      ],
      "name": "isPatricianPeriodNow",
      "outputs": [
        {
          "internalType": "bool",
          "name": "isCurrentlyPatricianPeriod",
          "type": "bool"
        },
        {
          "internalType": "uint256",
          "name": "timestamp",
          "type": "uint256"
        }
      ],
      "stateMutability": "view",
      "type": "function"
    },
    {
      "inputs": [
        {
          "internalType": "contract ISuperfluidToken",
          "name": "token",
          "type": "address"
        },
        {
          "internalType": "address",
          "name": "account",
          "type": "address"
        },
        {
          "internalType": "uint256",
          "name": "timestamp",
          "type": "uint256"
        }
      ],
      "name": "isPatricianPeriod",
      "outputs": [
        {
          "internalType": "bool",
          "name": "",
          "type": "bool"
        }
      ],
      "stateMutability": "view",
      "type": "function"
    },
    {
      "inputs": [
        {
          "internalType": "contract ISuperfluidPool",
          "name": "pool",
          "type": "address"
        }
      ],
      "name": "getPoolAdjustmentFlowInfo",
      "outputs": [
        {
          "internalType": "address",
          "name": "recipient",
          "type": "address"
        },
        {
          "internalType": "bytes32",
          "name": "flowHash",
          "type": "bytes32"
        },
        {
          "internalType": "int96",
          "name": "flowRate",
          "type": "int96"
        }
      ],
      "stateMutability": "view",
      "type": "function"
    },
    {
      "inputs": [
        {
          "internalType": "address",
          "name": "pool",
          "type": "address"
        }
      ],
      "name": "getPoolAdjustmentFlowRate",
      "outputs": [
        {
          "internalType": "int96",
          "name": "",
          "type": "int96"
        }
      ],
      "stateMutability": "view",
      "type": "function"
    },
    {
      "inputs": [
        {
          "internalType": "contract ISuperfluidToken",
          "name": "token",
          "type": "address"
        },
        {
          "internalType": "address",
          "name": "account",
          "type": "address"
        }
      ],
      "name": "isPool",
      "outputs": [
        {
          "internalType": "bool",
          "name": "",
          "type": "bool"
        }
      ],
      "stateMutability": "view",
      "type": "function"
    }
  ],
  "bytecode": "0x60c060405234801561001057600080fd5b50604051615c52380380615c5283398101604081905261002f9161005e565b6001600160a01b039182166080521660a052610098565b6001600160a01b038116811461005b57600080fd5b50565b6000806040838503121561007157600080fd5b825161007c81610046565b602084015190925061008d81610046565b809150509250929050565b60805160a051615b6b6100e76000396000818161040b0152612464015260008181610c7601528181610d5401528181610f9c015281816135c8015281816137d701526138fc0152615b6b6000f3fe608060405234801561001057600080fd5b50600436106101f05760003560e01c806352d1902d1161010f5780639b2e48bc116100a2578063e8e7e2d111610071578063e8e7e2d11461052e578063eccfc6a514610541578063f0b7b91514610554578063fa48736d1461056757600080fd5b80639b2e48bc146104c7578063c782eb9c146104f5578063d2c0d54214610508578063e6a1e8881461051b57600080fd5b80636d1007a6116100de5780636d1007a6146104735780637730599e146104865780637b2cc0da146104ac5780639903ad38146104bf57600080fd5b806352d1902d146103f05780635437dd97146104065780635a6c6dbc1461042d5780635cfd50d71461044057600080fd5b80633fd4176a116101875780634d5c91ec116101565780634d5c91ec1461037e5780634e9ced57146103ab5780634fe9c291146103be57806350d75d25146103e857600080fd5b80633fd4176a146103185780634543b7451461033357806346951954146103565780634b839e0b1461036b57600080fd5b806330925b79116101c357806330925b791461029c57806337bd42e0146102af578063398c74e1146102ea5780633c56f090146102fd57600080fd5b80630735d750146101f55780630779d365146102205780630f1ac4951461024b57806310dc87921461027c575b600080fd5b610208610203366004614c16565b61057a565b604051600b9190910b81526020015b60405180910390f35b61023361022e366004614cde565b6105a0565b6040516001600160a01b039091168152602001610217565b61025e610259366004614d78565b6105b5565b60408051938452600b9290920b602084015290820152606001610217565b61028f61028a366004614df2565b61060d565b6040516102179190614ea6565b61028f6102aa366004614eb9565b61095a565b6102c26102bd366004614f0d565b610969565b604080516001600160a01b0390941684526020840192909252600b0b90820152606001610217565b61028f6102f8366004614f3f565b610a0a565b61023373__SuperfluidPoolDeployerLibrary_________81565b61023373__SlotsBitmapLibrary____________________81565b610346610341366004614fba565b610c03565b6040519015158152602001610217565b610369610364366004614f0d565b610c6b565b005b610346610379366004614fba565b610cc0565b61039161038c36600461500a565b610dd7565b60408051600b93840b81529190920b602082015201610217565b6102086103b9366004614f0d565b610ef6565b6103d16103cc366004614d78565b610f97565b604080519215158352602083019190915201610217565b610233611032565b6103f8611061565b604051908152602001610217565b6102337f000000000000000000000000000000000000000000000000000000000000000081565b61028f61043b366004615066565b6110c5565b61045361044e366004614d78565b61170a565b604080519485526020850193909352918301526060820152608001610217565b61028f6104813660046150f3565b61172c565b7fdfd8ece9bfbcb8c5c540edb935641f63d67686490a1ab97f000288759f30a9466103f8565b6103466104ba366004614d78565b611ac2565b610369611ad7565b6104da6104d5366004614fba565b611be5565b60408051938452602084019290925290820152606001610217565b610346610503366004614d78565b611e31565b61028f610516366004615159565b611e9f565b61025e610529366004614c16565b611ff3565b61020861053c366004614d78565b61202b565b6103f861054f36600461518a565b6121b2565b61028f610562366004614eb9565b61221d565b6103466105753660046151ed565b61222c565b6000806105908561058b86866122c5565b612335565b60200151925050505b9392505050565b60006105ad8484846123fc565b949350505050565b604080516001600160a01b03841660208201526000918291829182916105eb910160405160208183030381529060405286612680565b6020810151815160409092015163ffffffff9091169891975095509350505050565b60606000856001600160a01b0316632b4116f76040518163ffffffff1660e01b8152600401602060405180830381865afa15801561064f573d6000803e3d6000fd5b505050506040513d601f19601f820116820180604052508101906106739190615297565b905060006106b78286868080601f01602080910402602001604051908101604052809392919081815260200183838082843760009201919091525061273f92505050565b905060008160600151905085858080601f016020809104026020016040519081016040528093929190818152602001838380828437600092018290525093975061070892508691508b905084612903565b90508015158815151461094e57604083810151905163d877ec8760e01b81526001600160a01b0384811660048301528a1515602483015263ffffffff9092166044820152908a169063d877ec87906064016020604051808303816000875af1158015610778573d6000803e3d6000fd5b505050506040513d601f19601f8201168201806040525081019061079c91906152b4565b6107a8576107a86152d1565b87156108605760006107c485846001600160a01b038d16612911565b9050846001600160a01b03166312a6a3f86107df858d6129b0565b61080b60405180604001604052808f6001600160a01b031681526020018663ffffffff16815250612a00565b6040518363ffffffff1660e01b8152600401610828929190615323565b600060405180830381600087803b15801561084257600080fd5b505af1158015610856573d6000803e3d6000fd5b50505050506108f2565b600061086d85848c612a67565b915050846001600160a01b03166327048397610889858d6129b0565b6040516001600160e01b031960e084901b168152600481019190915260016024820152604401600060405180830381600087803b1580156108c957600080fd5b505af11580156108dd573d6000803e3d6000fd5b505050506108f085848360200151612b41565b505b816001600160a01b0316896001600160a01b0316856001600160a01b03167ff357a2e6919da4efedb0301baf1caaed2bca70b115b913f9add41bbefc75c9b38b8760a0015160405161094592919061533c565b60405180910390a45b50505050949350505050565b60606105ad846000858561060d565b60008060006109fd846001600160a01b0316632b4116f76040518163ffffffff1660e01b8152600401602060405180830381865afa1580156109af573d6000803e3d6000fd5b505050506040513d601f19601f820116820180604052508101906109d39190615297565b604080516001600160a01b0390921660208301520160405160208183030381529060405285612bcc565b9250925092509193909250565b6060856001600160a01b031663f851a4406040518163ffffffff1660e01b8152600401602060405180830381865afa158015610a4a573d6000803e3d6000fd5b505050506040513d601f19601f82011682018060405250810190610a6e9190615297565b6001600160a01b0316610b18876001600160a01b0316632b4116f76040518163ffffffff1660e01b8152600401602060405180830381865afa158015610ab8573d6000803e3d6000fd5b505050506040513d601f19601f82011682018060405250810190610adc9190615297565b85858080601f01602080910402602001604051908101604052809392919081815260200183838082843760009201919091525061273f92505050565b606001516001600160a01b031614610b4357604051633a87e56560e01b815260040160405180910390fd5b82828080601f01602080910402602001604051908101604052809392919081815260200183838082843760009201919091525050604051631b16777760e01b81526001600160a01b0389811660048301526001600160801b038916602483015293945092891692631b167777925060440190506020604051808303816000875af1158015610bd5573d6000803e3d6000fd5b505050506040513d601f19601f82011682018060405250810190610bf991906152b4565b5095945050505050565b6000610c0f8433612c5d565b1515600003610c31576040516390028c3760e01b815260040160405180910390fd5b604080516001600160a01b0386166020820152610c609101604051602081830303815290604052338585612d0a565b506001949350505050565b336001600160a01b037f00000000000000000000000000000000000000000000000000000000000000001614610cb457604051630b00ec8f60e11b815260040160405180910390fd5b610cbd81612d70565b50565b604051633acd4df360e21b81526001600160a01b03838116600483015260248201839052600091829186169063eb3537cc90604401606060405180830381865afa158015610d12573d6000803e3d6000fd5b505050506040513d601f19601f82011682018060405250810190610d369190615357565b5050905060008112610d4c576001915050610599565b600080610d797f000000000000000000000000000000000000000000000000000000000000000088612f78565b91509150610dcc83610dc5610dbc8a604051602001610da791906001600160a01b0391909116815260200190565b6040516020818303038152906040528a612680565b60400151613096565b8484613104565b979650505050505050565b604080516001600160a01b0386166020820152600091829182910160405160208183030381529060405290506000610e0f87876122c5565b90506000610e1d8389613152565b90506000610e3a60405180602001604052806000815250896131fe565b90506000610e488585613275565b9050600080610e56846132a5565b9050600080610e688c600b0b866132bf565b90506000610e768a8f6132cb565b905042610e9088610e8785856132e5565b8b9190846132f1565b919a5098509350610eb3610ead88610ea887896132bf565b6132e5565b836132bf565b9550610ec186600f0b6133bd565b9c50610ecf84600f0b6133bd565b9b5060008d600b0b1215610ee25760009c505b505050505050505050505094509492505050565b600080826001600160a01b0316632b4116f76040518163ffffffff1660e01b8152600401602060405180830381865afa158015610f37573d6000803e3d6000fd5b505050506040513d601f19601f82011682018060405250810190610f5b9190615297565b604080516001600160a01b038316602082015291925061059991610f8f9101604051602081830303815290604052856132cb565b600f0b6133bd565b6000807f00000000000000000000000000000000000000000000000000000000000000006001600160a01b031663bbe4fd506040518163ffffffff1660e01b8152600401602060405180830381865afa158015610ff8573d6000803e3d6000fd5b505050506040513d601f19601f8201168201806040525081019061101c9190615385565b9050611029848483610cc0565b91509250929050565b600061105c7f360894a13ba1a3210667c828492db98dca3e2076cc3735a920a3ca505d382bbc5490565b905090565b6000306001600160a01b0316637730599e6040518163ffffffff1660e01b8152600401602060405180830381865afa1580156110a1573d6000803e3d6000fd5b505050506040513d601f19601f8201168201806040525081019061105c9190615385565b60606110d18786612c5d565b15806111505750866001600160a01b0316856001600160a01b0316632b4116f76040518163ffffffff1660e01b8152600401602060405180830381865afa158015611120573d6000803e3d6000fd5b505050506040513d601f19601f820116820180604052508101906111449190615297565b6001600160a01b031614155b1561116e576040516390028c3760e01b815260040160405180910390fd5b600084600b0b1215611193576040516315f2566360e01b815260040160405180910390fd5b61119b614b42565b6111db8885858080601f01602080910402602001604051908101604052809392919081815260200183838082843760009201919091525061273f92505050565b81526111e787876122c5565b6020828101918252604080516001600160a01b038c16818401528151808203909301835281019052905161121b9190613275565b600f0b60408083019190915280516020601f86018190048102820181019092528481529085908590819084018382808284376000920182905250939550505050600b86900b1380156112cc5750856001600160a01b031663cb8599f06040518163ffffffff1660e01b8152600401602060405180830381865afa1580156112a6573d6000803e3d6000fd5b505050506040513d601f19601f820116820180604052508101906112ca91906152b4565b155b1561136c578060000151606001516001600160a01b0316866001600160a01b031663f851a4406040518163ffffffff1660e01b8152600401602060405180830381865afa158015611321573d6000803e3d6000fd5b505050506040513d601f19601f820116820180604052508101906113459190615297565b6001600160a01b03161461136c57604051637761a5e560e01b815260040160405180910390fd5b604080516001600160a01b038a16602082015260009182916113b191016040516020818303038152906040528a8a86602001518b600b0b8860000151604001516133e6565b92509250508260000151606001516001600160a01b0316896001600160a01b03161461154c57600087600b0b13156113fc57604051637b3e931f60e11b815260040160405180910390fd5b82516040908101519051633acd4df360e21b81526001600160a01b038b8116600483015260248201929092526000918c169063eb3537cc90604401606060405180830381865afa158015611454573d6000803e3d6000fd5b505050506040513d601f19601f820116820180604052508101906114789190615357565b50506040805160c081018252600080825260208201819052918101829052606081018290526080810182905260a08101919091529091506001600160a01b03808d168083528c8216604080850191909152875160609081015190931660a08501526020808901519385019390935280519283019190915261150d91610dbc91016040516020818303038152906040528d612680565b60808201526020810182905260008212156115305761152b81613596565b611549565b60405163666f381d60e01b815260040160405180910390fd5b50505b61155d8a898b8660200151866137d3565b8260000151606001516001600160a01b0316896001600160a01b0316036116315782516040908101519051633acd4df360e21b81526001600160a01b038b8116600483015260248201929092526000918c169063eb3537cc90604401606060405180830381865afa1580156115d6573d6000803e3d6000fd5b505050506040513d601f19601f820116820180604052508101906115fa9190615357565b50509050600088600b0b1380156116115750600081125b1561162f576040516333115c3f60e01b815260040160405180910390fd5b505b604080516001600160a01b038c166020820152600091829161166391016040516020818303038152906040528b612bcc565b92505091508a6001600160a01b03168a6001600160a01b03168d6001600160a01b03167fc4bd0e4bfe3a83cbd5a7a71bb33bcb6bed9e0c24d710f3fb51c85caf1cd3af368860000151606001516116c08a60400151600f0b6133bd565b6116cc8a600f0b6133bd565b6116d88a600f0b6133bd565b8c5160a001516040516116f395949392918c918c919061539e565b60405180910390a450505050509695505050505050565b60008060008061171b868642611be5565b919890975090955042945092505050565b606060006117708885858080601f01602080910402602001604051908101604052809392919081815260200183838082843760009201919091525061273f92505050565b905083838080601f0160208091040260200160405190810160405280939291908181526020018383808284376000920191909152509294506117b892508a9150889050612c5d565b15806118375750876001600160a01b0316866001600160a01b0316632b4116f76040518163ffffffff1660e01b8152600401602060405180830381865afa158015611807573d6000803e3d6000fd5b505050506040513d601f19601f8201168201806040525081019061182b9190615297565b6001600160a01b031614155b15611855576040516390028c3760e01b815260040160405180910390fd5b856001600160a01b031663cb8599f06040518163ffffffff1660e01b8152600401602060405180830381865afa158015611893573d6000803e3d6000fd5b505050506040513d601f19601f820116820180604052508101906118b791906152b4565b6119525780606001516001600160a01b0316866001600160a01b031663f851a4406040518163ffffffff1660e01b8152600401602060405180830381865afa158015611907573d6000803e3d6000fd5b505050506040513d601f19601f8201168201806040525081019061192b9190615297565b6001600160a01b03161461195257604051637761a5e560e01b815260040160405180910390fd5b80606001516001600160a01b0316876001600160a01b03161461198857604051637b3e931f60e11b815260040160405180910390fd5b604080516001600160a01b038a1660208201526000916119c691016040516020818303038152906040528360600151896119c18a613096565b613b6b565b6040516379359f6f60e01b81526001600160a01b038b81166004830152919350908b1691506379359f6f90602401602060405180830381865afa158015611a11573d6000803e3d6000fd5b505050506040513d601f19601f82011682018060405250810190611a3591906152b4565b15611a53576040516333115c3f60e01b815260040160405180910390fd5b876001600160a01b0316876001600160a01b03168a6001600160a01b03167f6e8348961b299f365797c30cd18a91284b046858689eeb6150a5ba432fe6583e85606001518a868860a00151604051611aae94939291906153ed565b60405180910390a450509695505050505050565b6000611ace8383612c5d565b90505b92915050565b600054610100900460ff1615808015611af75750600054600160ff909116105b80611b115750303b158015611b11575060005460ff166001145b611b795760405162461bcd60e51b815260206004820152602e60248201527f496e697469616c697a61626c653a20636f6e747261637420697320616c72656160448201526d191e481a5b9a5d1a585b1a5e995960921b60648201526084015b60405180910390fd5b6000805460ff191660011790558015611b9c576000805461ff0019166101001790555b8015610cbd576000805461ff0019169055604051600181527f7f26b83ff96e1f2b6a682f133852f6798a09c465da95921460cefb3847402498906020015b60405180910390a150565b604080516001600160a01b0385166020820152600091829182918291611c1b910160405160208183030381529060405287612680565b9050611c278787612c5d565b15611ca1576040516336062c1560e11b815263ffffffff861660048201526001600160a01b03871690636c0c582a90602401602060405180830381865afa158015611c76573d6000803e3d6000fd5b505050506040513d601f19601f82011682018060405250810190611c9a9190615385565b9350611cee565b611ceb85611ce58360408051606081018252600080825260208083018281529383019182528451600b0b9093529183015163ffffffff168152608090920151905290565b90613be4565b93505b6000806000611cfd8a8a613c12565b9150915060005b8251811015611e02576000828281518110611d2157611d2161541a565b602002602001015160001c9050600080611d3c8e8e85612a67565b9150915081611d4d57611d4d6152d1565b826001600160a01b031681600001516001600160a01b031614611d7257611d726152d1565b604051637d6c008d60e01b81526001600160a01b038e8116600483015263ffffffff8e166024830152841690637d6c008d90604401602060405180830381865afa158015611dc4573d6000803e3d6000fd5b505050506040513d601f19601f82011682018060405250810190611de89190615385565b611df29088615446565b9650505050806001019050611d04565b5050508085611e119190615446565b9450611e208260400151613096565b935060009250505093509350939050565b6000611ace836001600160a01b0316632b4116f76040518163ffffffff1660e01b8152600401602060405180830381865afa158015611e74573d6000803e3d6000fd5b505050506040513d601f19601f82011682018060405250810190611e989190615297565b8484612903565b6060611f42856001600160a01b0316632b4116f76040518163ffffffff1660e01b8152600401602060405180830381865afa158015611ee2573d6000803e3d6000fd5b505050506040513d601f19601f82011682018060405250810190611f069190615297565b84848080601f01602080910402602001604051908101604052809392919081815260200183838082843760009201919091525061273f92505050565b5082828080601f016020809104026020016040519081016040528093929190818152602001838380828437600092019190915250506040516377329f3560e01b81526001600160a01b038881166004830152939450928816926377329f35925060240190506020604051808303816000875af1158015611fc6573d6000803e3d6000fd5b505050506040513d601f19601f82011682018060405250810190611fea91906152b4565b50949350505050565b6000806000806120078761058b88886122c5565b8051602082015160409092015163ffffffff9091169a919950975095505050505050565b604080516001600160a01b038416602082015260009161206a91610f8f91612063910160405160208183030381529060405285613152565b6020015190565b90506120768383612c5d565b156120ea57816001600160a01b031663a94ff3406040518163ffffffff1660e01b8152600401602060405180830381865afa1580156120b9573d6000803e3d6000fd5b505050506040513d601f19601f820116820180604052508101906120dd919061546e565b6120e7908261548b565b90505b6000806120f78585613c12565b9150915060005b82518110156121a957600082828151811061211b5761211b61541a565b60209081029190910101516040516314e7a30760e21b81526001600160a01b0388811660048301529192509082169063539e8c1c90602401602060405180830381865afa158015612170573d6000803e3d6000fd5b505050506040513d601f19601f82011682018060405250810190612194919061546e565b61219e908661548b565b9450506001016120fe565b50505092915050565b604080516001600160a01b038616602082015260009182910160408051601f1981840301815260208301909152600080835290925090612210906121f690876131fe565b6121ff86613096565b612209858a613152565b9190613c9c565b9998505050505050505050565b60606105ad846001858561060d565b60006122388433612c5d565b151560000361225a576040516390028c3760e01b815260040160405180910390fd5b604080516001600160a01b03861660208201526000910160405160208183030381529060405290506122a0813361229b876122958633613152565b90613cf0565b613d93565b506122b9813360016122b3886020015190565b87613e34565b50600195945050505050565b604080514660208201526080918101829052601060a08201526f646973747269627574696f6e466c6f7760801b60c08201526001600160a01b03808516606083015283169181019190915260009060e0015b60405160208183030381529060405280519060200120905092915050565b60408051606081018252600080825260208201819052918101829052604051636c2d9f2f60e01b815230600482015260248101849052600160448201526123f1906001600160a01b03861690636c2d9f2f90606401600060405180830381865afa1580156123a7573d6000803e3d6000fd5b505050506040513d6000823e601f3d908101601f191682016040526123cf9190810190615548565b6000815181106123e1576123e161541a565b602002602001015160001c613edb565b909590945092505050565b60006001600160a01b038316612425576040516382c5d83760e01b815260040160405180910390fd5b61242f8484612c5d565b1561244d57604051634d5c451360e11b815260040160405180910390fd5b6040516357677fc760e11b81526001600160a01b037f00000000000000000000000000000000000000000000000000000000000000008116600483015280851660248301528516604482015282511515606482015260208301511515608482015273__SuperfluidPoolDeployerLibrary_________9063aeceff8e9060a401602060405180830381865af41580156124ea573d6000803e3d6000fd5b505050506040513d601f19601f8201168201806040525081019061250e9190615297565b6040805160018082528183019092529192506000919060208083019080368337019050509050600160001b8160008151811061254c5761254c61541a565b602090810291909101015260405163048620af60e11b81526001600160a01b0386169063090c415e90612588908590600090869060040161557c565b600060405180830381600087803b1580156125a257600080fd5b505af11580156125b6573d6000803e3d6000fd5b5050505060006125c586613f30565b90506001600160a01b03811615612632576040516335313c2160e11b81526001600160a01b038481166004830152821690636a62784290602401600060405180830381600087803b15801561261957600080fd5b505af115801561262d573d6000803e3d6000fd5b505050505b6040516001600160a01b03848116825280871691908816907f9c5d829b9b23efc461f9aeef91979ec04bb903feb3bee4f26d22114abfc7335b9060200160405180910390a350509392505050565b6040805160a0810182526000808252602082018190529181018290526060810182905260808101919091526105ad838060200190518101906126c29190615297565b6001600160a01b0316634b61cc333085600060026040518563ffffffff1660e01b81526004016126f594939291906155a3565b600060405180830381865afa158015612712573d6000803e3d6000fd5b505050506040513d6000823e601f3d908101601f1916820160405261273a9190810190615548565b613fdf565b612747614b69565b336001600160a01b0316836001600160a01b03166320bc44256040518163ffffffff1660e01b8152600401602060405180830381865afa15801561278f573d6000803e3d6000fd5b505050506040513d601f19601f820116820180604052508101906127b39190615297565b6001600160a01b0316146127fd5760405162461bcd60e51b81526020600482015260116024820152701d5b985d5d1a1bdc9a5e9959081a1bdcdd607a1b6044820152606401611b70565b604051632fd0a1cd60e21b8152339063bf42873490612820908590600401614ea6565b602060405180830381865afa15801561283d573d6000803e3d6000fd5b505050506040513d601f19601f8201168201806040525081019061286191906152b4565b61289b5760405162461bcd60e51b815260206004820152600b60248201526a0d2dcecc2d8d2c840c6e8f60ab1b6044820152606401611b70565b604051631fb6491d60e11b81523390633f6c923a906128be908590600401614ea6565b600060405180830381865afa1580156128db573d6000803e3d6000fd5b505050506040513d6000823e601f3d908101601f19168201604052611ace9190810190615658565b600080610bf9858486612a67565b604051630a32470160e41b81526001600160a01b0380851660048301528316602482015260016044820152600160801b60648201526084810182905260009073__SlotsBitmapLibrary____________________9063a32470109060a401602060405180830381865af415801561298c573d6000803e3d6000fd5b505050506040513d601f19601f820116820180604052508101906105ad919061575b565b604080514660208201526080918101829052600a60a0820152693837b7b626b2b6b132b960b11b60c08201526001600160a01b03808516606083015283169181019190915260009060e001612317565b6040805160018082528183019092526060916020808301908036833701905050905081600001516001600160a01b031660a0836020015163ffffffff16901b1760001b81600081518110612a5657612a5661541a565b602002602001018181525050919050565b6040805180820190915260008082526020820181905290612b35856001600160a01b0316636c2d9f2f30612a9b88886129b0565b6040516001600160e01b031960e085901b1681526001600160a01b039092166004830152602482015260016044820152606401600060405180830381865afa158015612aeb573d6000803e3d6000fd5b505050506040513d6000823e601f3d908101601f19168201604052612b139190810190615548565b600081518110612b2557612b2561541a565b602002602001015160001c6140ab565b90969095509350505050565b604051631528e57f60e31b81526001600160a01b038085166004830152831660248201526001604482015263ffffffff8216606482015273__SlotsBitmapLibrary____________________9063a9472bf89060840160006040518083038186803b158015612baf57600080fd5b505af4158015612bc3573d6000803e3d6000fd5b50505050505050565b6000806000836001600160a01b031663f851a4406040518163ffffffff1660e01b8152600401602060405180830381865afa158015612c0f573d6000803e3d6000fd5b505050506040513d601f19601f82011682018060405250810190612c339190615297565b9250612c3f84846140e9565b91508282612c50610f8f8886613275565b9250925092509250925092565b600060e080846001600160a01b0316634b61cc333086600060016040518563ffffffff1660e01b8152600401612c9694939291906155a3565b600060405180830381865afa158015612cb3573d6000803e3d6000fd5b505050506040513d6000823e601f3d908101601f19168201604052612cdb9190810190615548565b600081518110612ced57612ced61541a565b602002602001015160001c901b901c600116600114905092915050565b6060826001600160a01b0316846001600160a01b031603612d2c5750836105ad565b6000612d388686613152565b90506000612d468786613152565b9050612d53828286614141565b9092509050612d63878784613d93565b9650610dcc878683613d93565b6000612d9a7f360894a13ba1a3210667c828492db98dca3e2076cc3735a920a3ca505d382bbc5490565b6001600160a01b031603612df05760405162461bcd60e51b815260206004820152601d60248201527f5555505350726f786961626c653a206e6f742075706772616461626c650000006044820152606401611b70565b806001600160a01b03166352d1902d6040518163ffffffff1660e01b8152600401602060405180830381865afa158015612e2e573d6000803e3d6000fd5b505050506040513d601f19601f82011682018060405250810190612e529190615385565b612e5a611061565b14612eb35760405162461bcd60e51b815260206004820152602360248201527f5555505350726f786961626c653a206e6f7420636f6d70617469626c65206c6f60448201526267696360e81b6064820152608401611b70565b6001600160a01b0381163003612f0b5760405162461bcd60e51b815260206004820152601960248201527f5555505350726f786961626c653a2070726f7879206c6f6f70000000000000006044820152606401611b70565b612f33817f360894a13ba1a3210667c828492db98dca3e2076cc3735a920a3ca505d382bbc55565b7fe011bc04c286c344a8fcbb8de77f953da762c3e25d8cdea984147fc4168a5dcc612f5c611061565b604080519182526001600160a01b038416602083015201611bda565b6000806000846001600160a01b031663289b3c0d6040518163ffffffff1660e01b8152600401602060405180830381865afa158015612fbb573d6000803e3d6000fd5b505050506040513d601f19601f82011682018060405250810190612fdf9190615297565b60405163407b865d60e11b81526001600160a01b03878116600483015286811660248301527fe420d96e81cb4a6b2abb2366c4f93312d4e2ae878a7d4b22e73472fdad891f7860448301529192506000918316906380f70cba90606401602060405180830381865afa158015613059573d6000803e3d6000fd5b505050506040513d601f19601f8201168201806040525081019061307d9190615385565b63ffffffff602082901c81169891169650945050505050565b60006001600160ff1b038211156131005760405162461bcd60e51b815260206004820152602860248201527f53616665436173743a2076616c756520646f65736e27742066697420696e2061604482015267371034b73a191a9b60c11b6064820152608401611b70565b5090565b600083600003613116575060006105ad565b60006131228587615446565b90506000613130858761578e565b905061313c84866157bc565b613146828461578e565b13979650505050505050565b604080516060810182526000808252602082018190529181019190915260006131bb848060200190518101906131889190615297565b6001600160a01b0316634b61cc333086600060026040518563ffffffff1660e01b81526004016126f594939291906155a3565b9150506105ad8160408051606081018252600080825260208083018281529383019182528451600b0b9093529183015163ffffffff168152608090920151905290565b613206614bc4565b6000826001600160a01b031663de7b54d96040518163ffffffff1660e01b8152600401608060405180830381865afa158015613246573d6000803e3d6000fd5b505050506040513d601f19601f8201168201806040525081019061326a91906157cf565b90506105ad8161419f565b6000806132958480602001905181019061328f9190615297565b84612335565b60200151600b0b95945050505050565b80516020808301510151600091611ad191600f0b90614211565b6000611ace828461584e565b6000806132d88484612bcc565b600b0b9695505050505050565b6000611ace828461587b565b6040805160608101825260008082526020820181905291810191909152613316614bc4565b604080516060808201835260008083526020808401829052838501829052845180840186528281528082018390528086018390528551938401865282845290830182905293820181905292908361336c8a6132a5565b90506133848a61337b8361421d565b8691908b614228565b5090935061339890508a61337b838c6132e5565b909750955091506133ad826122958d86613cf0565b9650505050509450945094915050565b80600b81900b81146133e15760405162461bcd60e51b8152600401611b70906158a8565b919050565b6060600080866001600160a01b0316886001600160a01b03160361340c5761340c6152d1565b60006134188a8a613152565b905060006134268b8a613152565b905060006134348c8b6131fe565b604080516060810182526000808252602082018190529181019190915290915061345e8d8c6132cb565b600f0b8152600061346f8e8c613275565b9050600061347c846132a5565b9050600061348a8c846132bf565b90506134a78561349e8387600001516132e5565b8891908e6132f1565b995090965094506000600f89900b12156134c3576134c36152d1565b6134db6134d484610ea88b866132bf565b85516132bf565b9850600089600f0b126134f4576000602085015261350a565b6134fd8961421d565b600f0b6020850152600098505b61351489846132bf565b600f0b6040850181905261352c90889088908e614290565b80975081985050505050506135428d8d86613d93565b9c5061354f8d8c85613d93565b9c5061355c8d8c8461435b565b9c506135708d8b8e8e8a866040015161440b565b9c506135828d8c83602001518b6144de565b9d959c50939a509398505050505050505050565b60006135aa82600001518360600151612335565b91505060006135bc8260400151613096565b905060008060006135f17f00000000000000000000000000000000000000000000000000000000000000008760000151612f78565b91509150613609866020015187608001518484613104565b925050506000846080015185602001516136239190615446565b90506000811261371657608085015160009061363f83866158ee565b613649919061578e565b905085600001516001600160a01b0316631863e8098760600151600286613671576001613674565b60005b6040805160ff938416602082015292909116908201526060016040516020818303038152906040528960a00151878b604001516136b0886144f7565b6136bc896000196158ee565b6040518863ffffffff1660e01b81526004016136de979695949392919061591e565b600060405180830381600087803b1580156136f857600080fd5b505af115801561370c573d6000803e3d6000fd5b50505050506137cc565b8451606080870151604080516002602082018190529181019190915286936001600160a01b031692631863e8099291016040516020818303038152906040528960a0015160008b6040015161376a886144f7565b6137768a6000196158ee565b6040518863ffffffff1660e01b8152600401613798979695949392919061591e565b600060405180830381600087803b1580156137b257600080fd5b505af11580156137c6573d6000803e3d6000fd5b50505050505b5050505050565b60007f00000000000000000000000000000000000000000000000000000000000000006001600160a01b031663289b3c0d6040518163ffffffff1660e01b8152600401602060405180830381865afa158015613833573d6000803e3d6000fd5b505050506040513d601f19601f820116820180604052508101906138579190615297565b60405163407b865d60e11b81523360048201526001600160a01b0388811660248301527feae305fa863b373417e615b1044222e2806cefc7788d169ce6748a443c3f6cc460448301529192506000918316906380f70cba90606401602060405180830381865afa1580156138cf573d6000803e3d6000fd5b505050506040513d601f19601f820116820180604052508101906138f39190615385565b905060006139217f000000000000000000000000000000000000000000000000000000000000000089612f78565b50905060006139308987612335565b915060009050613944600f87900b84614549565b905083613950826144f7565b1080156139605750600086600f0b135b156139715761396e84613096565b90505b6000613989826139848560400151613096565b61455f565b905060006139c360405180606001604052804263ffffffff1681526020016139b38b600f0b6133bd565b600b0b815260200185905261456b565b60405163a1b2bf8b60e01b81529091506001600160a01b038d169063a1b2bf8b906139f4908c908590600401615323565b600060405180830381600087803b158015613a0e57600080fd5b505af1158015613a22573d6000803e3d6000fd5b50505050506000613a618c604051602001613a4c91906001600160a01b0391909116815260200190565b6040516020818303038152906040528b612680565b9050613a8382613a748360400151613096565b613a7e9190615446565b6144f7565b60408201526001600160a01b038c1663090c415e8b6000613aa3856145cb565b6040518463ffffffff1660e01b8152600401613ac19392919061557c565b600060405180830381600087803b158015613adb57600080fd5b505af1158015613aef573d6000803e3d6000fd5b50505050896001600160a01b03168b6001600160a01b03168d6001600160a01b03167f589f74ba61521b98a96e2f65e02028ca5af0c5990e3d9536176b37ee6b62013785613b3c886144f7565b6040808801518151938452602084019290925282015260600160405180910390a4505050505050505050505050565b60606000836001600160a01b0316856001600160a01b031603613b9057613b906152d1565b6000613b9c8787613152565b90506000613baa88876131fe565b9050613bb7828287613c9c565b94509092509050613bc9888884613d93565b9750613bd688878361435b565b989297509195505050505050565b6000611ace613c08613bfa848660000151614676565b6020860151600f0b90614549565b8460400151614682565b60608073__SlotsBitmapLibrary____________________6306967a8c85856001600160801b6040518563ffffffff1660e01b8152600401613c5794939291906155a3565b600060405180830381865af4158015613c74573d6000803e3d6000fd5b505050506040513d6000823e601f3d908101601f191682016040526123f1919081019061596b565b6040805160608101825260008082526020820181905291810191909152613cc1614bc4565b6000613ccd858561468e565b9092509050613ce5613cde826146f0565b87906146fb565b925093509350939050565b60408051606081018252600080825260208201819052918101919091528151835160009163ffffffff908116911611613d2a578251613d2d565b83515b90506000613d3b858361473c565b90506000613d49858461473c565b63ffffffff8416855260408084015190820151919250613d6891614682565b604085015260208083015190820151613d8191906132e5565b600f0b60208501525091949350505050565b60606000613da18585612680565b905084806020019051810190613db79190615297565b6001600160a01b031663090c415e856000613ddb8786604001518760600151614782565b6040518463ffffffff1660e01b8152600401613df99392919061557c565b600060405180830381600087803b158015613e1357600080fd5b505af1158015613e27573d6000803e3d6000fd5b5096979650505050505050565b60606000856001600160a01b031663f851a4406040518163ffffffff1660e01b8152600401602060405180830381865afa158015613e76573d6000803e3d6000fd5b505050506040513d601f19601f82011682018060405250810190613e9a9190615297565b90506000613ea887836140e9565b90508515613ec157613ebe85610ea88a84613275565b94505b613ecf888884848989614841565b98975050505050505050565b60408051606081018252600080825260208201819052918101829052821580159250613f2b5760c083901c63ffffffff168152606083901c600b0b60208201526001600160601b03831660408201525b915091565b60408051600481526024810182526020810180516001600160e01b0316632c836c6b60e21b1790529051600091829182916001600160a01b03861691613f769190615a36565b600060405180830381855afa9150503d8060008114613fb1576040519150601f19603f3d011682016040523d82523d6000602084013e613fb6565b606091505b50915091508115613fd85780806020019051810190613fd59190615297565b92505b5050919050565b6040805160a081018252600080825260208201819052918101829052606081018290526080810182905260008360008151811061401e5761401e61541a565b602002602001015160001c90506000846001815181106140405761404061541a565b602002602001015160001c9050600082118061405c5750600081115b935083156140a45760a082901d600b0b8352608082811c63ffffffff1660208086019190915283901c6001600160601b03166040850152600180841614606085015283018190525b5050915091565b6040805180820190915260008082526020820152811580159190613f2b576001600160a01b038316815260a09290921c63ffffffff16602083015291565b604080514660208201526080918101829052601260a082015271706f6f6c41646a7573746d656e74466c6f7760701b60c08201526001600160a01b03808516606083015283169181019190915260009060e001612317565b6040805160608082018352600080835260208084018290528385018290528451928301855281835282018190529281019290925290614189614182846146f0565b86906146fb565b915061419584846146fb565b9050935093915050565b6141a7614bc4565b60405180604001604052806141bf84600001516148dd565b600f0b815260408051606080820183526000808352602080840182905292840152825180820184528783015163ffffffff16815287840151600b0b818401529601519186019190915201929092525090565b6000611ace8284615a52565b6000611ad182615a79565b604080516060810182526000808252602082018190529181019190915261424d614bc4565b60006142638561425d88876148f9565b90614927565b90925090506142846142748261421d565b61427e898761473c565b9061498a565b92509450945094915050565b6040805160608082018352600080835260208084018290528385018290528451808401865282815280820183905280860183905285518085018752838152808301849052808701849052865180860188528481528084018590528088018590528751958601885284865285840185905296850193909352908801519394909391929091614329896143208361421d565b8691908a6149c1565b50925061433a89614320838b6132e5565b9550915061434c826122958c86613cf0565b95505050505094509492505050565b60408051634a0d910160e01b81528251600f90810b6004830152602080850151805163ffffffff1660248501529081015190910b60448301529091015160648201526060906001600160a01b03841690634a0d9101906084016020604051808303816000875af11580156143d3573d6000803e3d6000fd5b505050506040513d601f19601f820116820180604052508101906143f791906152b4565b614403576144036152d1565b509192915050565b60606000878060200190518101906144239190615297565b905060006144318289612335565b915050816001600160a01b031663a1b2bf8b8961447f60405180606001604052804263ffffffff16815260200161446a8b600f0b6133bd565b600b0b8152602001866040015181525061456b565b6040518363ffffffff1660e01b815260040161449c929190615323565b600060405180830381600087803b1580156144b657600080fd5b505af11580156144ca573d6000803e3d6000fd5b5050505088925050505b9695505050505050565b60606144ee858560008686613e34565b95945050505050565b6000808212156131005760405162461bcd60e51b815260206004820181905260248201527f53616665436173743a2076616c7565206d75737420626520706f7369746976656044820152606401611b70565b6000611ace63ffffffff8316600f85900b6158ee565b6000611ace8284615a9f565b604080516001808252818301909252606091602080830190803683370190505090508160400151606083602001516001600160601b0316901b60c0846000015163ffffffff16901b171760001b81600081518110612a5657612a5661541a565b604080516002808252606080830184529260208301908036833701905050905081606001516145fb5760006145fe565b60015b60ff1660206146108460400151614a27565b6001600160601b0316901b6080846020015163ffffffff16901b60a08560000151600b0b901b17171760001b8160008151811061464f5761464f61541a565b602002602001018181525050816080015160001b81600181518110612a5657612a5661541a565b6000611ace8284615abf565b6000611ace8284615446565b614696614bc4565b60006146a184614a50565b8451909250600f0b156146e95783516146c4906146be8582614a77565b90614a87565b84519091506146e3906146d8908390614a77565b6020860151906146fb565b60208301525b9250929050565b6000611ad182615adb565b604080516060810182526000808252602082018190529181019190915261472183614a97565b9050614731816040015183614682565b604082015292915050565b604080516060810182526000808252602082018190529181019190915261476283614a97565b905061476e8383613be4565b604082015263ffffffff9091168152919050565b6040805160028082526060808301845292602083019080368337019050509050816147ae5760006147b1565b60015b60ff1660206147bf85614a27565b6001600160601b0316901b60806147d4875190565b63ffffffff16901b60a06147e9886020015190565b600f0b901b17171760001b816000815181106148075761480761541a565b602002602001018181525050836040015160001b8160018151811061482e5761482e61541a565b6020026020010181815250509392505050565b6060846001600160a01b0316866001600160a01b0316036148635750856144d4565b6000614878846148738a88613275565b6132bf565b905060006148868989613152565b905060006148948a89613152565b90506148a282828588614290565b90925090506148b28a8a84613d93565b99506148bf8a8983613d93565b99506148cf8a888b8b8a8861440b565b9a9950505050505050505050565b6000611ad16148f4836001600160801b0316613096565b614ad2565b614901614bc4565b61490a83614a50565b602081015190915061491c908361473c565b602082015292915050565b61492f614bc4565b600061493a84614a50565b8451909250600f0b156146e95783516149649061495b600f86900b82614b36565b600f0b90614211565b90506146e3614983856000015183600f0b614b3690919063ffffffff16565b6020840151905b60408051606081018252600080825260208201819052918101919091526149b083614a97565b600f9290920b602083015250919050565b6040805160608082018352600080835260208084018290528385018290528451928301855281835282018190529281019290925290614a0c614a028561421d565b61427e888661473c565b9150614a1c8461427e878661473c565b905094509492505050565b60006001600160601b038211156131005760405162461bcd60e51b8152600401611b70906158a8565b614a58614bc4565b8151600f0b81526020820151614a6d90614a97565b6020820152919050565b6000611ace600f83900b8461578e565b6000611ace600f83900b846158ee565b6040805160608101825260008082526020808301828152838501928352855163ffffffff16845290850151600f0b9052929091015190915290565b80600f81900b81146133e15760405162461bcd60e51b815260206004820152602760248201527f53616665436173743a2076616c756520646f65736e27742066697420696e20316044820152663238206269747360c81b6064820152608401611b70565b6000611ace8284615af7565b6040518060600160405280614b55614b69565b815260006020820181905260409091015290565b604080516101608101825260008082526020820181905291810182905260608082018390526080820183905260a082015260c0810182905260e081018290526101008101829052610120810182905261014081019190915290565b60405180604001604052806000600f0b8152602001614bfc604080516060810182526000808252602082018190529181019190915290565b905290565b6001600160a01b0381168114610cbd57600080fd5b600080600060608486031215614c2b57600080fd5b8335614c3681614c01565b92506020840135614c4681614c01565b91506040840135614c5681614c01565b809150509250925092565b634e487b7160e01b600052604160045260246000fd5b60405161016081016001600160401b0381118282101715614c9a57614c9a614c61565b60405290565b604051601f8201601f191681016001600160401b0381118282101715614cc857614cc8614c61565b604052919050565b8015158114610cbd57600080fd5b60008060008385036080811215614cf457600080fd5b8435614cff81614c01565b93506020850135614d0f81614c01565b92506040603f1982011215614d2357600080fd5b50604080519081016001600160401b0381118282101715614d4657614d46614c61565b6040908152850135614d5781614cd0565b81526060850135614d6781614cd0565b602082015292959194509192509050565b60008060408385031215614d8b57600080fd5b8235614d9681614c01565b91506020830135614da681614c01565b809150509250929050565b60008083601f840112614dc357600080fd5b5081356001600160401b03811115614dda57600080fd5b6020830191508360208285010111156146e957600080fd5b60008060008060608587031215614e0857600080fd5b8435614e1381614c01565b93506020850135614e2381614cd0565b925060408501356001600160401b03811115614e3e57600080fd5b614e4a87828801614db1565b95989497509550505050565b60005b83811015614e71578181015183820152602001614e59565b50506000910152565b60008151808452614e92816020860160208601614e56565b601f01601f19169290920160200192915050565b602081526000611ace6020830184614e7a565b600080600060408486031215614ece57600080fd5b8335614ed981614c01565b925060208401356001600160401b03811115614ef457600080fd5b614f0086828701614db1565b9497909650939450505050565b600060208284031215614f1f57600080fd5b813561059981614c01565b6001600160801b0381168114610cbd57600080fd5b600080600080600060808688031215614f5757600080fd5b8535614f6281614c01565b94506020860135614f7281614c01565b93506040860135614f8281614f2a565b925060608601356001600160401b03811115614f9d57600080fd5b614fa988828901614db1565b969995985093965092949392505050565b600080600060608486031215614fcf57600080fd5b8335614fda81614c01565b92506020840135614fea81614c01565b929592945050506040919091013590565b80600b0b8114610cbd57600080fd5b6000806000806080858703121561502057600080fd5b843561502b81614c01565b9350602085013561503b81614c01565b9250604085013561504b81614c01565b9150606085013561505b81614ffb565b939692955090935050565b60008060008060008060a0878903121561507f57600080fd5b863561508a81614c01565b9550602087013561509a81614c01565b945060408701356150aa81614c01565b935060608701356150ba81614ffb565b925060808701356001600160401b038111156150d557600080fd5b6150e189828a01614db1565b979a9699509497509295939492505050565b60008060008060008060a0878903121561510c57600080fd5b863561511781614c01565b9550602087013561512781614c01565b9450604087013561513781614c01565b93506060870135925060808701356001600160401b038111156150d557600080fd5b6000806000806060858703121561516f57600080fd5b843561517a81614c01565b93506020850135614e2381614c01565b600080600080608085870312156151a057600080fd5b84356151ab81614c01565b935060208501356151bb81614c01565b925060408501356151cb81614c01565b9396929550929360600135925050565b63ffffffff81168114610cbd57600080fd5b600080600083850360a081121561520357600080fd5b843561520e81614c01565b93506060601f198201121561522257600080fd5b50604051606081016001600160401b038111828210171561524557615245614c61565b6040526020850135615256816151db565b81526040850135600f81900b811461526d57600080fd5b60208201526060850135604082015291506080840135614c56816151db565b80516133e181614c01565b6000602082840312156152a957600080fd5b815161059981614c01565b6000602082840312156152c657600080fd5b815161059981614cd0565b634e487b7160e01b600052600160045260246000fd5b600081518084526020840193506020830160005b828110156153195781518652602095860195909101906001016152fb565b5093949350505050565b8281526040602082015260006105ad60408301846152e7565b82151581526040602082015260006105ad6040830184614e7a565b60008060006060848603121561536c57600080fd5b5050815160208301516040909301519094929350919050565b60006020828403121561539757600080fd5b5051919050565b6001600160a01b038881168252600b88810b602084015287810b604084015286810b6060840152908516608083015283900b60a082015260e060c0820181905260009061221090830184614e7a565b60018060a01b03851681528360208201528260408201526080606082015260006144d46080830184614e7a565b634e487b7160e01b600052603260045260246000fd5b634e487b7160e01b600052601160045260246000fd5b808201828112600083128015821682158216171561546657615466615430565b505092915050565b60006020828403121561548057600080fd5b815161059981614ffb565b600b81810b9083900b016b7fffffffffffffffffffffff81136b7fffffffffffffffffffffff1982121715611ad157611ad1615430565b60006001600160401b038211156154db576154db614c61565b5060051b60200190565b600082601f8301126154f657600080fd5b8151615509615504826154c2565b614ca0565b8082825260208201915060208360051b86010192508583111561552b57600080fd5b602085015b83811015610bf9578051835260209283019201615530565b60006020828403121561555a57600080fd5b81516001600160401b0381111561557057600080fd5b6105ad848285016154e5565b60018060a01b03841681528260208201526060604082015260006144ee60608301846152e7565b6001600160a01b0394851681529290931660208301526040820152606081019190915260800190565b805160ff811681146133e157600080fd5b80516001600160e01b0319811681146133e157600080fd5b600082601f83011261560657600080fd5b81516001600160401b0381111561561f5761561f614c61565b615632601f8201601f1916602001614ca0565b81815284602083860101111561564757600080fd5b6105ad826020830160208701614e56565b60006020828403121561566a57600080fd5b81516001600160401b0381111561568057600080fd5b8201610160818503121561569357600080fd5b61569b614c77565b6156a4826155cc565b81526156b2602083016155cc565b6020820152604082810151908201526156cd6060830161528c565b60608201526156de608083016155dd565b608082015260a08201516001600160401b038111156156fc57600080fd5b615708868285016155f5565b60a08301525060c0828101519082015260e08083015190820152610100808301519082015261573a610120830161528c565b61012082015261574d610140830161528c565b610140820152949350505050565b60006020828403121561576d57600080fd5b8151610599816151db565b634e487b7160e01b600052601260045260246000fd5b60008261579d5761579d615778565b600160ff1b8214600019841416156157b7576157b7615430565b500590565b81810381811115611ad157611ad1615430565b600060808284031280156157e257600080fd5b50604051608081016001600160401b038111828210171561580557615805614c61565b604052825161581381614f2a565b81526020830151615823816151db565b6020820152604083015161583681614ffb565b60408201526060928301519281019290925250919050565b600f82810b9082900b0360016001607f1b0319811260016001607f1b0382131715611ad157611ad1615430565b600f81810b9083900b0160016001607f1b03811360016001607f1b031982121715611ad157611ad1615430565b60208082526026908201527f53616665436173743a2076616c756520646f65736e27742066697420696e203960408201526536206269747360d01b606082015260800190565b80820260008212600160ff1b8414161561590a5761590a615430565b8181058314821517611ad157611ad1615430565b87815260e06020820152600061593760e0830189614e7a565b6001600160a01b03978816604084015295151560608301525092909416608083015260a082015260c0019190915292915050565b6000806040838503121561597e57600080fd5b82516001600160401b0381111561599457600080fd5b8301601f810185136159a557600080fd5b80516159b3615504826154c2565b8082825260208201915060208360051b8501019250878311156159d557600080fd5b6020840193505b82841015615a005783516159ef816151db565b8252602093840193909101906159dc565b8095505050505060208301516001600160401b03811115615a2057600080fd5b615a2c858286016154e5565b9150509250929050565b60008251615a48818460208701614e56565b9190910192915050565b600082600f0b82600f0b0280600f0b9150808214615a7257615a72615430565b5092915050565b600081600f0b60016001607f1b03198103615a9657615a96615430565b60000392915050565b8181036000831280158383131683831282161715615a7257615a72615430565b63ffffffff8281168282160390811115611ad157611ad1615430565b6000600160ff1b8201615af057615af0615430565b5060000390565b600081600f0b83600f0b80615b0e57615b0e615778565b60016001607f1b0319821460001982141615615b2c57615b2c615430565b9005939250505056fea2646970667358221220c9f08a3045e922dcbf2e613656010a8d75878bcbfd3b66386f76db588c3e299864736f6c634300081a0033",
  "immutableReferences": {
    "11218": [
      {
        "length": 32,
        "start": 3190
      },
      {
        "length": 32,
        "start": 3412
      },
      {
        "length": 32,
        "start": 3996
      },
      {
        "length": 32,
        "start": 13768
      },
      {
        "length": 32,
        "start": 14295
      },
      {
        "length": 32,
        "start": 14588
      }
    ],
    "19417": [
      {
        "length": 32,
        "start": 1035
      },
      {
        "length": 32,
        "start": 9316
      }
    ]
  },
  "source": "// SPDX-License-Identifier: AGPLv3\n// solhint-disable not-rely-on-time\npragma solidity ^0.8.23;\n\nimport { SafeCast } from \"@openzeppelin/contracts/utils/math/SafeCast.sol\";\n\nimport { ISuperfluid, ISuperfluidGovernance } from \"../../interfaces/superfluid/ISuperfluid.sol\";\nimport {\n    BasicParticle,\n    PDPoolIndex,\n    SemanticMoney,\n    Value,\n    Time,\n    FlowRate\n} from \"@superfluid-finance/solidity-semantic-money/src/SemanticMoney.sol\";\nimport { TokenMonad } from \"@superfluid-finance/solidity-semantic-money/src/TokenMonad.sol\";\nimport { poolIndexDataToPDPoolIndex, SuperfluidPool } from \"./SuperfluidPool.sol\";\nimport { SuperfluidPoolDeployerLibrary } from \"./SuperfluidPoolDeployerLibrary.sol\";\nimport {\n    IGeneralDistributionAgreementV1,\n    PoolConfig\n} from \"../../interfaces/agreements/gdav1/IGeneralDistributionAgreementV1.sol\";\nimport { SuperfluidUpgradeableBeacon } from \"../../upgradability/SuperfluidUpgradeableBeacon.sol\";\nimport { ISuperfluidToken } from \"../../interfaces/superfluid/ISuperfluidToken.sol\";\nimport { ISuperToken } from \"../../interfaces/superfluid/ISuperToken.sol\";\nimport { IPoolAdminNFT } from \"../../interfaces/agreements/gdav1/IPoolAdminNFT.sol\";\nimport { ISuperfluidPool } from \"../../interfaces/agreements/gdav1/ISuperfluidPool.sol\";\nimport { SlotsBitmapLibrary } from \"../../libs/SlotsBitmapLibrary.sol\";\nimport { SolvencyHelperLibrary } from \"../../libs/SolvencyHelperLibrary.sol\";\nimport { AgreementBase } from \"../AgreementBase.sol\";\nimport { AgreementLibrary } from \"../AgreementLibrary.sol\";\n\n\n/**\n * @title General Distribution Agreement\n * @author Superfluid\n * @notice\n *\n * Storage Layout Notes\n * Agreement State\n *\n * Universal Index Data\n * slotId           = _UNIVERSAL_INDEX_STATE_SLOT_ID or 0\n * msg.sender       = address of GDAv1\n * account          = context.msgSender\n * Universal Index Data stores a Basic Particle for an account as well as the total buffer and\n * whether the account is a pool or not.\n *\n * SlotsBitmap Data\n * slotId           = _POOL_SUBS_BITMAP_STATE_SLOT_ID or 1\n * msg.sender       = address of GDAv1\n * account          = context.msgSender\n * Slots Bitmap Data Slot stores a bitmap of the slots that are \"enabled\" for a pool member.\n *\n * Pool Connections Data Slot Id Start\n * slotId (start)   = _POOL_CONNECTIONS_DATA_STATE_SLOT_ID_START or 1 << 128 or 340282366920938463463374607431768211456\n * msg.sender       = address of GDAv1\n * account          = context.msgSender\n * Pool Connections Data Slot Id Start indicates the starting slot for where we begin to store the pools that a\n * pool member is a part of.\n *\n *\n * Agreement Data\n * NOTE The Agreement Data slot is calculated with the following function:\n * keccak256(abi.encode(\"AgreementData\", agreementClass, agreementId))\n * agreementClass       = address of GDAv1\n * agreementId          = DistributionFlowId | PoolMemberId\n *\n * DistributionFlowId   =\n * keccak256(abi.encode(block.chainid, \"distributionFlow\", from, pool))\n * DistributionFlowId stores FlowDistributionData between a sender (from) and pool.\n *\n * PoolMemberId         =\n * keccak256(abi.encode(block.chainid, \"poolMember\", member, pool))\n * PoolMemberId stores PoolMemberData for a member at a pool.\n */\ncontract GeneralDistributionAgreementV1 is AgreementBase, TokenMonad, IGeneralDistributionAgreementV1 {\n    using SafeCast for uint256;\n    using SafeCast for int256;\n    using SemanticMoney for BasicParticle;\n\n    struct UniversalIndexData {\n        int96 flowRate;\n        uint32 settledAt;\n        uint256 totalBuffer;\n        bool isPool;\n        int256 settledValue;\n    }\n\n    struct PoolMemberData {\n        address pool;\n        uint32 poolID; // the slot id in the pool's subs bitmap\n    }\n\n    struct FlowDistributionData {\n        uint32 lastUpdated;\n        int96 flowRate;\n        uint256 buffer; // stored as uint96\n    }\n\n    address public constant SLOTS_BITMAP_LIBRARY_ADDRESS = address(SlotsBitmapLibrary);\n\n    address public constant SUPERFLUID_POOL_DEPLOYER_ADDRESS = address(SuperfluidPoolDeployerLibrary);\n\n    /// @dev Universal Index state slot id for storing universal index data\n    uint256 private constant _UNIVERSAL_INDEX_STATE_SLOT_ID = 0;\n    /// @dev Pool member state slot id for storing subs bitmap\n    uint256 private constant _POOL_SUBS_BITMAP_STATE_SLOT_ID = 1;\n    /// @dev Pool member state slot id starting point for pool connections\n    uint256 private constant _POOL_CONNECTIONS_DATA_STATE_SLOT_ID_START = 1 << 128;\n    /// @dev SuperToken minimum deposit key\n    bytes32 private constant SUPERTOKEN_MINIMUM_DEPOSIT_KEY =\n        keccak256(\"org.superfluid-finance.superfluid.superTokenMinimumDeposit\");\n\n    SuperfluidUpgradeableBeacon public immutable superfluidPoolBeacon;\n\n    constructor(ISuperfluid host, SuperfluidUpgradeableBeacon superfluidPoolBeacon_) AgreementBase(address(host)) {\n        superfluidPoolBeacon = superfluidPoolBeacon_;\n    }\n\n    function realtimeBalanceOf(ISuperfluidToken token, address account, uint256 time)\n        public\n        view\n        override\n        returns (int256 rtb, uint256 buf, uint256 owedBuffer)\n    {\n        UniversalIndexData memory universalIndexData = _getUIndexData(abi.encode(token), account);\n\n        if (_isPool(token, account)) {\n            rtb = ISuperfluidPool(account).getDisconnectedBalance(uint32(time));\n        } else {\n            rtb = Value.unwrap(_getBasicParticleFromUIndex(universalIndexData).rtb(Time.wrap(uint32(time))));\n        }\n\n        int256 fromPools;\n        {\n            (uint32[] memory slotIds, bytes32[] memory pidList) = _listPoolConnectionIds(token, account);\n            for (uint256 i = 0; i < slotIds.length; ++i) {\n                address pool = address(uint160(uint256(pidList[i])));\n                (bool exist, PoolMemberData memory poolMemberData) =\n                    _getPoolMemberData(token, account, ISuperfluidPool(pool));\n                assert(exist);\n                assert(poolMemberData.pool == pool);\n                fromPools += ISuperfluidPool(pool).getClaimable(account, uint32(time));\n            }\n        }\n        rtb += fromPools;\n\n        buf = uint256(universalIndexData.totalBuffer.toInt256()); // upcasting to uint256 is safe\n        owedBuffer = 0;\n    }\n\n    /// @dev ISuperAgreement.realtimeBalanceOf implementation\n    function realtimeBalanceOfNow(ISuperfluidToken token, address account)\n        external\n        view\n        returns (int256 availableBalance, uint256 buffer, uint256 owedBuffer, uint256 timestamp)\n    {\n        (availableBalance, buffer, owedBuffer) = realtimeBalanceOf(token, account, block.timestamp);\n        timestamp = block.timestamp;\n    }\n\n    /// @inheritdoc IGeneralDistributionAgreementV1\n    function getNetFlow(ISuperfluidToken token, address account) external view override returns (int96 netFlowRate) {\n        netFlowRate = int256(FlowRate.unwrap(_getUIndex(abi.encode(token), account).flow_rate())).toInt96();\n\n        if (_isPool(token, account)) {\n            netFlowRate += ISuperfluidPool(account).getTotalDisconnectedFlowRate();\n        }\n\n        {\n            (uint32[] memory slotIds, bytes32[] memory pidList) = _listPoolConnectionIds(token, account);\n            for (uint256 i = 0; i < slotIds.length; ++i) {\n                ISuperfluidPool pool = ISuperfluidPool(address(uint160(uint256(pidList[i]))));\n                netFlowRate += pool.getMemberFlowRate(account);\n            }\n        }\n    }\n\n    /// @inheritdoc IGeneralDistributionAgreementV1\n    function getFlowRate(ISuperfluidToken token, address from, ISuperfluidPool to)\n        external\n        view\n        override\n        returns (int96)\n    {\n        (, FlowDistributionData memory data) = _getFlowDistributionData(token, _getFlowDistributionHash(from, to));\n        return data.flowRate;\n    }\n\n    /// @inheritdoc IGeneralDistributionAgreementV1\n    function getFlow(ISuperfluidToken token, address from, ISuperfluidPool to)\n        external\n        view\n        override\n        returns (uint256 lastUpdated, int96 flowRate, uint256 deposit)\n    {\n        (, FlowDistributionData memory data) = _getFlowDistributionData(token, _getFlowDistributionHash(from, to));\n        lastUpdated = data.lastUpdated;\n        flowRate = data.flowRate;\n        deposit = data.buffer;\n    }\n\n    /// @inheritdoc IGeneralDistributionAgreementV1\n    function getAccountFlowInfo(ISuperfluidToken token, address account)\n        external\n        view\n        override\n        returns (uint256 timestamp, int96 flowRate, uint256 deposit)\n    {\n        UniversalIndexData memory universalIndexData = _getUIndexData(abi.encode(token), account);\n        timestamp = universalIndexData.settledAt;\n        flowRate = universalIndexData.flowRate;\n        deposit = universalIndexData.totalBuffer;\n    }\n\n    /// @inheritdoc IGeneralDistributionAgreementV1\n    function estimateFlowDistributionActualFlowRate(\n        ISuperfluidToken token,\n        address from,\n        ISuperfluidPool to,\n        int96 requestedFlowRate\n    ) external view override returns (int96 actualFlowRate, int96 totalDistributionFlowRate) {\n        bytes memory eff = abi.encode(token);\n        bytes32 distributionFlowHash = _getFlowDistributionHash(from, to);\n\n        BasicParticle memory fromUIndexData = _getUIndex(eff, from);\n\n        PDPoolIndex memory pdpIndex = _getPDPIndex(\"\", address(to));\n\n        FlowRate oldFlowRate = _getFlowRate(eff, distributionFlowHash);\n        FlowRate newActualFlowRate;\n        FlowRate oldDistributionFlowRate = pdpIndex.flow_rate();\n        FlowRate newDistributionFlowRate;\n        FlowRate flowRateDelta = FlowRate.wrap(requestedFlowRate) - oldFlowRate;\n        FlowRate currentAdjustmentFlowRate = _getPoolAdjustmentFlowRate(eff, address(to));\n\n        Time t = Time.wrap(uint32(block.timestamp));\n        (fromUIndexData, pdpIndex, newDistributionFlowRate) =\n            fromUIndexData.shift_flow2b(pdpIndex, flowRateDelta + currentAdjustmentFlowRate, t);\n        newActualFlowRate =\n            oldFlowRate + (newDistributionFlowRate - oldDistributionFlowRate) - currentAdjustmentFlowRate;\n\n        actualFlowRate = int256(FlowRate.unwrap(newActualFlowRate)).toInt96();\n        totalDistributionFlowRate = int256(FlowRate.unwrap(newDistributionFlowRate)).toInt96();\n\n        if (actualFlowRate < 0) {\n            actualFlowRate = 0;\n        }\n    }\n\n    /// @inheritdoc IGeneralDistributionAgreementV1\n    function estimateDistributionActualAmount(\n        ISuperfluidToken token,\n        address from,\n        ISuperfluidPool to,\n        uint256 requestedAmount\n    ) external view override returns (uint256 actualAmount) {\n        bytes memory eff = abi.encode(token);\n\n        Value actualDistributionAmount;\n        (,, actualDistributionAmount) =\n            _getUIndex(eff, from).shift2b(_getPDPIndex(\"\", address(to)), Value.wrap(requestedAmount.toInt256()));\n\n        actualAmount = uint256(Value.unwrap(actualDistributionAmount));\n    }\n\n    function _createPool(ISuperfluidToken token, address admin, PoolConfig memory config)\n        internal\n        returns (ISuperfluidPool pool)\n    {\n        // @note ensure if token and admin are the same that nothing funky happens with echidna\n        if (admin == address(0)) revert GDA_NO_ZERO_ADDRESS_ADMIN();\n        if (_isPool(token, admin)) revert GDA_ADMIN_CANNOT_BE_POOL();\n\n        pool = ISuperfluidPool(\n            address(SuperfluidPoolDeployerLibrary.deploy(address(superfluidPoolBeacon), admin, token, config))\n        );\n\n        // @note We utilize the storage slot for Universal Index State\n        // to store whether an account is a pool or not\n        bytes32[] memory data = new bytes32[](1);\n        data[0] = bytes32(uint256(1));\n        token.updateAgreementStateSlot(address(pool), _UNIVERSAL_INDEX_STATE_SLOT_ID, data);\n\n        IPoolAdminNFT poolAdminNFT = IPoolAdminNFT(_getPoolAdminNFTAddress(token));\n\n        if (address(poolAdminNFT) != address(0)) {\n            poolAdminNFT.mint(address(pool));\n        }\n\n        emit PoolCreated(token, admin, pool);\n    }\n\n    /// @inheritdoc IGeneralDistributionAgreementV1\n    function createPool(ISuperfluidToken token, address admin, PoolConfig memory config)\n        external\n        override\n        returns (ISuperfluidPool pool)\n    {\n        return _createPool(token, admin, config);\n    }\n\n    /// @inheritdoc IGeneralDistributionAgreementV1\n    function updateMemberUnits(ISuperfluidPool pool, address memberAddress, uint128 newUnits, bytes calldata ctx)\n        external\n        override\n        returns (bytes memory newCtx)\n    {\n        // Only the admin can update member units here\n        if (AgreementLibrary.authorizeTokenAccess(pool.superToken(), ctx).msgSender != pool.admin()) {\n            revert GDA_NOT_POOL_ADMIN();\n        }\n        newCtx = ctx;\n\n        pool.updateMemberUnits(memberAddress, newUnits);\n    }\n\n    /// @inheritdoc IGeneralDistributionAgreementV1\n    function claimAll(ISuperfluidPool pool, address memberAddress, bytes calldata ctx)\n        external\n        override\n        returns (bytes memory newCtx)\n    {\n        AgreementLibrary.authorizeTokenAccess(pool.superToken(), ctx);\n        newCtx = ctx;\n\n        pool.claimAll(memberAddress);\n    }\n\n    /// @inheritdoc IGeneralDistributionAgreementV1\n    function connectPool(ISuperfluidPool pool, bytes calldata ctx) external override returns (bytes memory newCtx) {\n        return connectPool(pool, true, ctx);\n    }\n\n    /// @inheritdoc IGeneralDistributionAgreementV1\n    function disconnectPool(ISuperfluidPool pool, bytes calldata ctx) external override returns (bytes memory newCtx) {\n        return connectPool(pool, false, ctx);\n    }\n\n    // @note setPoolConnection function naming\n    function connectPool(ISuperfluidPool pool, bool doConnect, bytes calldata ctx)\n        public\n        returns (bytes memory newCtx)\n    {\n        ISuperfluidToken token = pool.superToken();\n        ISuperfluid.Context memory currentContext = AgreementLibrary.authorizeTokenAccess(token, ctx);\n        address msgSender = currentContext.msgSender;\n        newCtx = ctx;\n        bool isConnected = _isMemberConnected(token, address(pool), msgSender);\n        if (doConnect != isConnected) {\n            assert(\n                SuperfluidPool(address(pool)).operatorConnectMember(\n                    msgSender, doConnect, uint32(currentContext.timestamp)\n                )\n            );\n\n            if (doConnect) {\n                uint32 poolSlotID =\n                    _findAndFillPoolConnectionsBitmap(token, msgSender, bytes32(uint256(uint160(address(pool)))));\n\n                // malicious token can reenter here\n                // external call to untrusted contract\n                // what sort of boundary can we trust\n                token.createAgreement(\n                    _getPoolMemberHash(msgSender, pool),\n                    _encodePoolMemberData(PoolMemberData({ poolID: poolSlotID, pool: address(pool) }))\n                );\n            } else {\n                (, PoolMemberData memory poolMemberData) = _getPoolMemberData(token, msgSender, pool);\n                token.terminateAgreement(_getPoolMemberHash(msgSender, pool), 1);\n\n                _clearPoolConnectionsBitmap(token, msgSender, poolMemberData.poolID);\n            }\n\n            emit PoolConnectionUpdated(token, pool, msgSender, doConnect, currentContext.userData);\n        }\n    }\n\n    function _isMemberConnected(ISuperfluidToken token, address pool, address member) internal view returns (bool) {\n        (bool exist,) = _getPoolMemberData(token, member, ISuperfluidPool(pool));\n        return exist;\n    }\n\n    function isMemberConnected(ISuperfluidPool pool, address member) external view override returns (bool) {\n        return _isMemberConnected(pool.superToken(), address(pool), member);\n    }\n\n    function appendIndexUpdateByPool(ISuperfluidToken token, BasicParticle memory p, Time t) external returns (bool) {\n        if (_isPool(token, msg.sender) == false) {\n            revert GDA_ONLY_SUPER_TOKEN_POOL();\n        }\n        bytes memory eff = abi.encode(token);\n        _setUIndex(eff, msg.sender, _getUIndex(eff, msg.sender).mappend(p));\n        _setPoolAdjustmentFlowRate(eff, msg.sender, true, /* doShift? */ p.flow_rate(), t);\n        return true;\n    }\n\n    function poolSettleClaim(ISuperfluidToken superToken, address claimRecipient, int256 amount)\n        external\n        returns (bool)\n    {\n        if (_isPool(superToken, msg.sender) == false) {\n            revert GDA_ONLY_SUPER_TOKEN_POOL();\n        }\n\n        // _poolSettleClaim()\n        _doShift(abi.encode(superToken), msg.sender, claimRecipient, Value.wrap(amount));\n        return true;\n    }\n\n    /// @inheritdoc IGeneralDistributionAgreementV1\n    function distribute(\n        ISuperfluidToken token,\n        address from,\n        ISuperfluidPool pool,\n        uint256 requestedAmount,\n        bytes calldata ctx\n    ) external override returns (bytes memory newCtx) {\n        ISuperfluid.Context memory currentContext = AgreementLibrary.authorizeTokenAccess(token, ctx);\n\n        newCtx = ctx;\n\n        if (_isPool(token, address(pool)) == false ||\n            // Note: we do not support multi-tokens pools\n            pool.superToken() != token) {\n            revert GDA_ONLY_SUPER_TOKEN_POOL();\n        }\n\n        // you cannot distribute if admin is not equal to the ctx.msgSender\n        if (!pool.distributionFromAnyAddress()) {\n            if (pool.admin() != currentContext.msgSender) {\n                revert GDA_DISTRIBUTE_FROM_ANY_ADDRESS_NOT_ALLOWED();\n            }\n        }\n\n        // the from address must be the same as the ctx.msgSender\n        // there is no ACL support\n        if (from != currentContext.msgSender) {\n            revert GDA_DISTRIBUTE_FOR_OTHERS_NOT_ALLOWED();\n        }\n\n        (, Value actualAmount) = _doDistributeViaPool(\n            abi.encode(token), currentContext.msgSender, address(pool), Value.wrap(requestedAmount.toInt256())\n        );\n\n        if (token.isAccountCriticalNow(from)) {\n            revert GDA_INSUFFICIENT_BALANCE();\n        }\n\n        // TODO: tokens are moving from sender => pool, including a transfer event makes sense here\n        // trigger from the supertoken contract - @note this is possible since solc 0.8.21\n\n        emit InstantDistributionUpdated(\n            token,\n            pool,\n            from,\n            currentContext.msgSender,\n            requestedAmount,\n            uint256(Value.unwrap(actualAmount)), // upcast from int256 -> uint256 is safe\n            currentContext.userData\n        );\n    }\n\n    // solhint-disable-next-line contract-name-camelcase\n    struct _StackVars_DistributeFlow {\n        ISuperfluid.Context currentContext;\n        bytes32 distributionFlowHash;\n        FlowRate oldFlowRate;\n    }\n\n    // solhint-disable-next-line contract-name-camelcase\n    struct _StackVars_Liquidation {\n        ISuperfluidToken token;\n        int256 availableBalance;\n        address sender;\n        bytes32 distributionFlowHash;\n        int256 signedTotalGDADeposit;\n        address liquidator;\n    }\n\n    /// @inheritdoc IGeneralDistributionAgreementV1\n    function distributeFlow(\n        ISuperfluidToken token,\n        address from,\n        ISuperfluidPool pool,\n        int96 requestedFlowRate,\n        bytes calldata ctx\n    ) external override returns (bytes memory newCtx) {\n        if (_isPool(token, address(pool)) == false ||\n            // Note: we do not support multi-tokens pools\n            pool.superToken() != token) {\n            revert GDA_ONLY_SUPER_TOKEN_POOL();\n        }\n        if (requestedFlowRate < 0) {\n            revert GDA_NO_NEGATIVE_FLOW_RATE();\n        }\n\n        _StackVars_DistributeFlow memory flowVars;\n        {\n            flowVars.currentContext = AgreementLibrary.authorizeTokenAccess(token, ctx);\n            flowVars.distributionFlowHash = _getFlowDistributionHash(from, pool);\n            flowVars.oldFlowRate = _getFlowRate(abi.encode(token), flowVars.distributionFlowHash);\n        }\n\n        newCtx = ctx;\n\n        // we must check if the requestedFlowRate is greater than 0 here\n        // otherwise we will block liquidators from closing streams in pools\n        // where the pool config has distributionFromAnyAddress set to false\n        if (requestedFlowRate > 0 && !pool.distributionFromAnyAddress()) {\n            if (pool.admin() != flowVars.currentContext.msgSender) {\n                revert GDA_DISTRIBUTE_FROM_ANY_ADDRESS_NOT_ALLOWED();\n            }\n        }\n\n        (, FlowRate actualFlowRate, FlowRate newDistributionFlowRate) = _doDistributeFlowViaPool(\n            abi.encode(token),\n            from,\n            address(pool),\n            flowVars.distributionFlowHash,\n            FlowRate.wrap(requestedFlowRate),\n            Time.wrap(uint32(flowVars.currentContext.timestamp))\n        );\n\n        // handle distribute flow on behalf of someone else\n        // @note move to internal maybe\n        {\n            if (from != flowVars.currentContext.msgSender) {\n                if (requestedFlowRate > 0) {\n                    // @note no ACL support for now\n                    // revert if trying to distribute on behalf of others\n                    revert GDA_DISTRIBUTE_FOR_OTHERS_NOT_ALLOWED();\n                } else {\n                    // liquidation case, requestedFlowRate == 0\n                    (int256 availableBalance,,) = token.realtimeBalanceOf(from, flowVars.currentContext.timestamp);\n                    // StackVarsLiquidation used to handle good ol' stack too deep\n                    _StackVars_Liquidation memory liquidationData;\n                    {\n                        liquidationData.token = token;\n                        liquidationData.sender = from;\n                        liquidationData.liquidator = flowVars.currentContext.msgSender;\n                        liquidationData.distributionFlowHash = flowVars.distributionFlowHash;\n                        liquidationData.signedTotalGDADeposit =\n                            _getUIndexData(abi.encode(token), from).totalBuffer.toInt256();\n                        liquidationData.availableBalance = availableBalance;\n                    }\n                    // closing stream on behalf of someone else: liquidation case\n                    if (availableBalance < 0) {\n                        _makeLiquidationPayouts(liquidationData);\n                    } else {\n                        revert GDA_NON_CRITICAL_SENDER();\n                    }\n                }\n            }\n        }\n\n        {\n            _adjustBuffer(token, address(pool), from, flowVars.distributionFlowHash, actualFlowRate);\n        }\n\n        // ensure sender has enough balance to execute transaction\n        if (from == flowVars.currentContext.msgSender) {\n            (int256 availableBalance,,) = token.realtimeBalanceOf(from, flowVars.currentContext.timestamp);\n            // if from == msg.sender\n            if (requestedFlowRate > 0 && availableBalance < 0) {\n                revert GDA_INSUFFICIENT_BALANCE();\n            }\n        }\n\n        {\n            (address adjustmentFlowRecipient,, int96 adjustmentFlowRate) =\n                _getPoolAdjustmentFlowInfo(abi.encode(token), address(pool));\n\n            emit FlowDistributionUpdated(\n                token,\n                pool,\n                from,\n                flowVars.currentContext.msgSender,\n                int256(FlowRate.unwrap(flowVars.oldFlowRate)).toInt96(),\n                int256(FlowRate.unwrap(actualFlowRate)).toInt96(),\n                int256(FlowRate.unwrap(newDistributionFlowRate)).toInt96(),\n                adjustmentFlowRecipient,\n                adjustmentFlowRate,\n                flowVars.currentContext.userData\n            );\n        }\n    }\n\n    function _getPoolAdminNFTAddress(ISuperfluidToken token) internal view returns (address poolAdminNFTAddress) {\n        // solhint-disable-next-line avoid-low-level-calls\n        (bool success, bytes memory data) =\n            address(token).staticcall(abi.encodeWithSelector(ISuperToken.POOL_ADMIN_NFT.selector));\n\n        if (success) {\n            // @note We are aware this may revert if a Custom SuperToken's\n            // POOL_ADMIN_NFT does not return data that can be\n            // decoded to an address. This would mean it was intentionally\n            // done by the creator of the Custom SuperToken logic and is\n            // fully expected to revert in that case as the author desired.\n            poolAdminNFTAddress = abi.decode(data, (address));\n        }\n    }\n\n    function _makeLiquidationPayouts(_StackVars_Liquidation memory data) internal {\n        (, FlowDistributionData memory flowDistributionData) =\n            _getFlowDistributionData(ISuperfluidToken(data.token), data.distributionFlowHash);\n        int256 signedSingleDeposit = flowDistributionData.buffer.toInt256();\n\n        bool isCurrentlyPatricianPeriod;\n\n        {\n            (uint256 liquidationPeriod, uint256 patricianPeriod) =\n                SolvencyHelperLibrary.decode3PsData(ISuperfluid(_host), data.token);\n            isCurrentlyPatricianPeriod = SolvencyHelperLibrary.isPatricianPeriod(\n                data.availableBalance, data.signedTotalGDADeposit, liquidationPeriod, patricianPeriod\n            );\n        }\n\n        int256 totalRewardLeft = data.availableBalance + data.signedTotalGDADeposit;\n\n        // critical case\n        if (totalRewardLeft >= 0) {\n            int256 rewardAmount = (signedSingleDeposit * totalRewardLeft) / data.signedTotalGDADeposit;\n            data.token.makeLiquidationPayoutsV2(\n                data.distributionFlowHash,\n                abi.encode(2, isCurrentlyPatricianPeriod ? 0 : 1),\n                data.liquidator,\n                isCurrentlyPatricianPeriod,\n                data.sender,\n                rewardAmount.toUint256(),\n                rewardAmount * -1\n            );\n        } else {\n            int256 rewardAmount = signedSingleDeposit;\n            // bailout case\n            data.token.makeLiquidationPayoutsV2(\n                data.distributionFlowHash,\n                abi.encode(2, 2),\n                data.liquidator,\n                false,\n                data.sender,\n                rewardAmount.toUint256(),\n                totalRewardLeft * -1\n            );\n        }\n    }\n\n    function _adjustBuffer(ISuperfluidToken token, address pool, address from, bytes32 flowHash, FlowRate newFlowRate)\n        internal\n    {\n        // not using oldFlowRate in this model\n        // surprising effect: reducing flow rate may require more buffer when liquidation_period adjusted upward\n        ISuperfluidGovernance gov = ISuperfluidGovernance(ISuperfluid(_host).getGovernance());\n        uint256 minimumDeposit =\n            gov.getConfigAsUint256(ISuperfluid(msg.sender), ISuperfluidToken(token), SUPERTOKEN_MINIMUM_DEPOSIT_KEY);\n\n        (uint256 liquidationPeriod,) = SolvencyHelperLibrary.decode3PsData(ISuperfluid(_host), ISuperfluidToken(token));\n\n        (, FlowDistributionData memory flowDistributionData) =\n            _getFlowDistributionData(ISuperfluidToken(token), flowHash);\n\n        // @note downcasting from uint256 -> uint32 for liquidation period\n        Value newBufferAmount = newFlowRate.mul(Time.wrap(uint32(liquidationPeriod)));\n\n        if (Value.unwrap(newBufferAmount).toUint256() < minimumDeposit && FlowRate.unwrap(newFlowRate) > 0) {\n            newBufferAmount = Value.wrap(minimumDeposit.toInt256());\n        }\n\n        Value bufferDelta = newBufferAmount - Value.wrap(uint256(flowDistributionData.buffer).toInt256());\n\n        {\n            bytes32[] memory data = _encodeFlowDistributionData(\n                FlowDistributionData({\n                    lastUpdated: uint32(block.timestamp),\n                    flowRate: int256(FlowRate.unwrap(newFlowRate)).toInt96(),\n                    buffer: uint256(Value.unwrap(newBufferAmount)) // upcast to uint256 is safe\n                 })\n            );\n\n            ISuperfluidToken(token).updateAgreementData(flowHash, data);\n        }\n\n        UniversalIndexData memory universalIndexData = _getUIndexData(abi.encode(token), from);\n        universalIndexData.totalBuffer =\n        // new buffer\n         (universalIndexData.totalBuffer.toInt256() + Value.unwrap(bufferDelta)).toUint256();\n        ISuperfluidToken(token).updateAgreementStateSlot(\n            from, _UNIVERSAL_INDEX_STATE_SLOT_ID, _encodeUniversalIndexData(universalIndexData)\n        );\n\n        {\n            emit BufferAdjusted(\n                ISuperfluidToken(token),\n                ISuperfluidPool(pool),\n                from,\n                Value.unwrap(bufferDelta),\n                Value.unwrap(newBufferAmount).toUint256(),\n                universalIndexData.totalBuffer\n            );\n        }\n    }\n\n    // Solvency Related Getters\n    function isPatricianPeriodNow(ISuperfluidToken token, address account)\n        external\n        view\n        override\n        returns (bool isCurrentlyPatricianPeriod, uint256 timestamp)\n    {\n        timestamp = ISuperfluid(_host).getNow();\n        isCurrentlyPatricianPeriod = isPatricianPeriod(token, account, timestamp);\n    }\n\n    function isPatricianPeriod(ISuperfluidToken token, address account, uint256 timestamp)\n        public\n        view\n        override\n        returns (bool)\n    {\n        (int256 availableBalance,,) = token.realtimeBalanceOf(account, timestamp);\n        if (availableBalance >= 0) {\n            return true;\n        }\n\n        (uint256 liquidationPeriod, uint256 patricianPeriod) =\n            SolvencyHelperLibrary.decode3PsData(ISuperfluid(_host), token);\n\n        return SolvencyHelperLibrary.isPatricianPeriod(\n            availableBalance,\n            _getUIndexData(abi.encode(token), account).totalBuffer.toInt256(),\n            liquidationPeriod,\n            patricianPeriod\n        );\n    }\n\n    // Hash Getters\n\n    function _getPoolMemberHash(address poolMember, ISuperfluidPool pool) internal view returns (bytes32) {\n        return keccak256(abi.encode(block.chainid, \"poolMember\", poolMember, address(pool)));\n    }\n\n    function _getFlowDistributionHash(address from, ISuperfluidPool to) internal view returns (bytes32) {\n        return keccak256(abi.encode(block.chainid, \"distributionFlow\", from, to));\n    }\n\n    function _getPoolAdjustmentFlowHash(address from, address to) internal view returns (bytes32) {\n        // this will never be in conflict with other flow has types\n        return keccak256(abi.encode(block.chainid, \"poolAdjustmentFlow\", from, to));\n    }\n\n    // # Universal Index operations\n    //\n    // Universal Index packing:\n    // store buffer (96) and one bit to specify is pool in free\n    // -------- ------------------ ------------------ ------------------ ------------------\n    // WORD 1: |     flowRate     |     settledAt    |    totalBuffer   |      isPool      |\n    // -------- ------------------ ------------------ ------------------ ------------------\n    //         |        96b       |       32b        |       96b        |        32b       |\n    // -------- ------------------ ------------------ ------------------ ------------------\n    // WORD 2: |                                settledValue                               |\n    // -------- ------------------ ------------------ ------------------ ------------------\n    //         |                                    256b                                   |\n    // -------- ------------------ ------------------ ------------------ ------------------\n\n    function _encodeUniversalIndexData(BasicParticle memory p, uint256 buffer, bool isPool_)\n        internal\n        pure\n        returns (bytes32[] memory data)\n    {\n        data = new bytes32[](2);\n        data[0] = bytes32(\n            (uint256(int256(FlowRate.unwrap(p.flow_rate()))) << 160) | (uint256(Time.unwrap(p.settled_at())) << 128)\n                | (uint256(buffer.toUint96()) << 32) | (isPool_ ? 1 : 0)\n        );\n        data[1] = bytes32(uint256(Value.unwrap(p._settled_value)));\n    }\n\n    function _encodeUniversalIndexData(UniversalIndexData memory uIndexData)\n        internal\n        pure\n        returns (bytes32[] memory data)\n    {\n        data = new bytes32[](2);\n        data[0] = bytes32(\n            (uint256(int256(uIndexData.flowRate)) << 160) | (uint256(uIndexData.settledAt) << 128)\n                | (uint256(uIndexData.totalBuffer.toUint96()) << 32) | (uIndexData.isPool ? 1 : 0)\n        );\n        data[1] = bytes32(uint256(uIndexData.settledValue));\n    }\n\n    function _decodeUniversalIndexData(bytes32[] memory data)\n        internal\n        pure\n        returns (bool exists, UniversalIndexData memory universalIndexData)\n    {\n        uint256 a = uint256(data[0]);\n        uint256 b = uint256(data[1]);\n\n        exists = a > 0 || b > 0;\n\n        if (exists) {\n            universalIndexData.flowRate = int96(int256(a >> 160) & int256(uint256(type(uint96).max)));\n            universalIndexData.settledAt = uint32(uint256(a >> 128) & uint256(type(uint32).max));\n            universalIndexData.totalBuffer = uint256(a >> 32) & uint256(type(uint96).max);\n            universalIndexData.isPool = ((a << 224) >> 224) & 1 == 1;\n            universalIndexData.settledValue = int256(b);\n        }\n    }\n\n    function _getUIndexData(bytes memory eff, address owner)\n        internal\n        view\n        returns (UniversalIndexData memory universalIndexData)\n    {\n        (, universalIndexData) = _decodeUniversalIndexData(\n            ISuperfluidToken(abi.decode(eff, (address))).getAgreementStateSlot(\n                address(this), owner, _UNIVERSAL_INDEX_STATE_SLOT_ID, 2\n            )\n        );\n    }\n\n    function _getBasicParticleFromUIndex(UniversalIndexData memory universalIndexData)\n        internal\n        pure\n        returns (BasicParticle memory particle)\n    {\n        particle._flow_rate = FlowRate.wrap(universalIndexData.flowRate);\n        particle._settled_at = Time.wrap(universalIndexData.settledAt);\n        particle._settled_value = Value.wrap(universalIndexData.settledValue);\n    }\n\n    // TokenMonad virtual functions\n    function _getUIndex(bytes memory eff, address owner) internal view override returns (BasicParticle memory uIndex) {\n        (, UniversalIndexData memory universalIndexData) = _decodeUniversalIndexData(\n            ISuperfluidToken(abi.decode(eff, (address))).getAgreementStateSlot(\n                address(this), owner, _UNIVERSAL_INDEX_STATE_SLOT_ID, 2\n            )\n        );\n        uIndex = _getBasicParticleFromUIndex(universalIndexData);\n    }\n\n    function _setUIndex(bytes memory eff, address owner, BasicParticle memory p)\n        internal\n        override\n        returns (bytes memory)\n    {\n        UniversalIndexData memory universalIndexData = _getUIndexData(eff, owner);\n\n        ISuperfluidToken(abi.decode(eff, (address))).updateAgreementStateSlot(\n            owner,\n            _UNIVERSAL_INDEX_STATE_SLOT_ID,\n            _encodeUniversalIndexData(p, universalIndexData.totalBuffer, universalIndexData.isPool)\n        );\n\n        return eff;\n    }\n\n    function _getPDPIndex(\n        bytes memory, // eff,\n        address pool\n    ) internal view override returns (PDPoolIndex memory) {\n        SuperfluidPool.PoolIndexData memory data = SuperfluidPool(pool).poolOperatorGetIndex();\n        return poolIndexDataToPDPoolIndex(data);\n    }\n\n    function _setPDPIndex(bytes memory eff, address pool, PDPoolIndex memory p)\n        internal\n        override\n        returns (bytes memory)\n    {\n        assert(SuperfluidPool(pool).operatorSetIndex(p));\n\n        return eff;\n    }\n\n    function _getFlowRate(bytes memory eff, bytes32 distributionFlowHash) internal view override returns (FlowRate) {\n        (, FlowDistributionData memory data) =\n            _getFlowDistributionData(ISuperfluidToken(abi.decode(eff, (address))), distributionFlowHash);\n        return FlowRate.wrap(data.flowRate);\n    }\n\n    function _setFlowInfo(\n        bytes memory eff,\n        bytes32 flowHash,\n        address, // from,\n        address, // to,\n        FlowRate newFlowRate,\n        FlowRate // flowRateDelta\n    ) internal override returns (bytes memory) {\n        address token = abi.decode(eff, (address));\n        (, FlowDistributionData memory flowDistributionData) =\n            _getFlowDistributionData(ISuperfluidToken(token), flowHash);\n\n        ISuperfluidToken(token).updateAgreementData(\n            flowHash,\n            _encodeFlowDistributionData(\n                FlowDistributionData({\n                    lastUpdated: uint32(block.timestamp),\n                    flowRate: int256(FlowRate.unwrap(newFlowRate)).toInt96(),\n                    buffer: flowDistributionData.buffer\n                })\n            )\n        );\n\n        return eff;\n    }\n\n    /// @inheritdoc IGeneralDistributionAgreementV1\n    function getPoolAdjustmentFlowInfo(ISuperfluidPool pool)\n        external\n        view\n        override\n        returns (address recipient, bytes32 flowHash, int96 flowRate)\n    {\n        return _getPoolAdjustmentFlowInfo(abi.encode(pool.superToken()), address(pool));\n    }\n\n    function _getPoolAdjustmentFlowInfo(bytes memory eff, address pool)\n        internal\n        view\n        returns (address adjustmentRecipient, bytes32 flowHash, int96 flowRate)\n    {\n        // pool admin is always the adjustment recipient\n        adjustmentRecipient = ISuperfluidPool(pool).admin();\n        flowHash = _getPoolAdjustmentFlowHash(pool, adjustmentRecipient);\n        return (adjustmentRecipient, flowHash, int256(FlowRate.unwrap(_getFlowRate(eff, flowHash))).toInt96());\n    }\n\n    function _getPoolAdjustmentFlowRate(bytes memory eff, address pool)\n        internal\n        view\n        override\n        returns (FlowRate flowRate)\n    {\n        (,, int96 rawFlowRate) = _getPoolAdjustmentFlowInfo(eff, pool);\n        flowRate = FlowRate.wrap(int128(rawFlowRate)); // upcasting to int128 is safe\n    }\n\n    function getPoolAdjustmentFlowRate(address pool) external view override returns (int96) {\n        ISuperfluidToken token = ISuperfluidPool(pool).superToken();\n        return int256(FlowRate.unwrap(_getPoolAdjustmentFlowRate(abi.encode(token), pool))).toInt96();\n    }\n\n    function _setPoolAdjustmentFlowRate(bytes memory eff, address pool, FlowRate flowRate, Time t)\n        internal\n        override\n        returns (bytes memory)\n    {\n        return _setPoolAdjustmentFlowRate(eff, pool, false, /* doShift? */ flowRate, t);\n    }\n\n    function _setPoolAdjustmentFlowRate(bytes memory eff, address pool, bool doShiftFlow, FlowRate flowRate, Time t)\n        internal\n        returns (bytes memory)\n    {\n        // @note should this also always be\n        address adjustmentRecipient = ISuperfluidPool(pool).admin();\n        bytes32 adjustmentFlowHash = _getPoolAdjustmentFlowHash(pool, adjustmentRecipient);\n\n        if (doShiftFlow) {\n            flowRate = flowRate + _getFlowRate(eff, adjustmentFlowHash);\n        }\n        eff = _doFlow(eff, pool, adjustmentRecipient, adjustmentFlowHash, flowRate, t);\n        return eff;\n    }\n\n    /// @inheritdoc IGeneralDistributionAgreementV1\n    function isPool(ISuperfluidToken token, address account) external view override returns (bool) {\n        return _isPool(token, account);\n    }\n\n    function _isPool(ISuperfluidToken token, address account) internal view returns (bool exists) {\n        // @note see createPool, we retrieve the isPool bit from\n        // UniversalIndex for this pool to determine whether the account\n        // is a pool\n        exists = (\n            (uint256(token.getAgreementStateSlot(address(this), account, _UNIVERSAL_INDEX_STATE_SLOT_ID, 1)[0]) << 224)\n                >> 224\n        ) & 1 == 1;\n    }\n\n    // FlowDistributionData data packing:\n    // -------- ---------- ------------- ---------- --------\n    // WORD A: | reserved | lastUpdated | flowRate | buffer |\n    // -------- ---------- ------------- ---------- --------\n    //         |    32    |      32     |    96    |   96   |\n    // -------- ---------- ------------- ---------- --------\n\n    function _encodeFlowDistributionData(FlowDistributionData memory flowDistributionData)\n        internal\n        pure\n        returns (bytes32[] memory data)\n    {\n        data = new bytes32[](1);\n        data[0] = bytes32(\n            (uint256(uint32(flowDistributionData.lastUpdated)) << 192)\n                | (uint256(uint96(flowDistributionData.flowRate)) << 96) | uint256(flowDistributionData.buffer)\n        );\n    }\n\n    function _decodeFlowDistributionData(uint256 data)\n        internal\n        pure\n        returns (bool exist, FlowDistributionData memory flowDistributionData)\n    {\n        exist = data > 0;\n        if (exist) {\n            flowDistributionData.lastUpdated = uint32((data >> 192) & uint256(type(uint32).max));\n            flowDistributionData.flowRate = int96(int256(data >> 96));\n            flowDistributionData.buffer = uint96(data & uint256(type(uint96).max));\n        }\n    }\n\n    function _getFlowDistributionData(ISuperfluidToken token, bytes32 distributionFlowHash)\n        internal\n        view\n        returns (bool exist, FlowDistributionData memory flowDistributionData)\n    {\n        (exist, flowDistributionData) =\n            _decodeFlowDistributionData(uint256(token.getAgreementData(address(this), distributionFlowHash, 1)[0]));\n    }\n\n    // PoolMemberData data packing:\n    // -------- ---------- -------- -------------\n    // WORD A: | reserved | poolID | poolAddress |\n    // -------- ---------- -------- -------------\n    //         |    64    |   32   |     160     |\n    // -------- ---------- -------- -------------\n\n    function _encodePoolMemberData(PoolMemberData memory poolMemberData)\n        internal\n        pure\n        returns (bytes32[] memory data)\n    {\n        data = new bytes32[](1);\n        data[0] = bytes32((uint256(uint32(poolMemberData.poolID)) << 160) | uint256(uint160(poolMemberData.pool)));\n    }\n\n    function _decodePoolMemberData(uint256 data)\n        internal\n        pure\n        returns (bool exist, PoolMemberData memory poolMemberData)\n    {\n        exist = data > 0;\n        if (exist) {\n            poolMemberData.pool = address(uint160(data & uint256(type(uint160).max)));\n            poolMemberData.poolID = uint32(data >> 160);\n        }\n    }\n\n    function _getPoolMemberData(ISuperfluidToken token, address poolMember, ISuperfluidPool pool)\n        internal\n        view\n        returns (bool exist, PoolMemberData memory poolMemberData)\n    {\n        (exist, poolMemberData) = _decodePoolMemberData(\n            uint256(token.getAgreementData(address(this), _getPoolMemberHash(poolMember, pool), 1)[0])\n        );\n    }\n\n    // SlotsBitmap Pool Data:\n    function _findAndFillPoolConnectionsBitmap(ISuperfluidToken token, address poolMember, bytes32 poolID)\n        private\n        returns (uint32 slotId)\n    {\n        return SlotsBitmapLibrary.findEmptySlotAndFill(\n            token, poolMember, _POOL_SUBS_BITMAP_STATE_SLOT_ID, _POOL_CONNECTIONS_DATA_STATE_SLOT_ID_START, poolID\n        );\n    }\n\n    function _clearPoolConnectionsBitmap(ISuperfluidToken token, address poolMember, uint32 slotId) private {\n        SlotsBitmapLibrary.clearSlot(token, poolMember, _POOL_SUBS_BITMAP_STATE_SLOT_ID, slotId);\n    }\n\n    function _listPoolConnectionIds(ISuperfluidToken token, address subscriber)\n        private\n        view\n        returns (uint32[] memory slotIds, bytes32[] memory pidList)\n    {\n        (slotIds, pidList) = SlotsBitmapLibrary.listData(\n            token, subscriber, _POOL_SUBS_BITMAP_STATE_SLOT_ID, _POOL_CONNECTIONS_DATA_STATE_SLOT_ID_START\n        );\n    }\n}\n",
  "sourcePath": "/home/runner/work/protocol-monorepo/protocol-monorepo/packages/ethereum-contracts/contracts/agreements/gdav1/GeneralDistributionAgreementV1.sol",
  "compiler": {
    "name": "solc",
    "version": "0.8.26+commit.8a97fa7a.Linux.g++"
  },
  "schemaVersion": "3.4.16",
  "updatedAt": "2024-11-25T09:47:03.794Z",
  "devdoc": {
    "author": "Superfluid",
    "events": {
      "Initialized(uint8)": {
        "details": "Triggered when the contract has been initialized or reinitialized."
      }
    },
    "kind": "dev",
    "methods": {
      "agreementType()": {
        "details": "ISuperAgreement.agreementType implementation"
      },
      "connectPool(address,bytes)": {
        "details": "This is used to connect a pool to the GDA.",
        "params": {
          "ctx": "Context bytes (see ISuperfluid.sol for Context struct)",
          "pool": "The pool address"
        },
        "returns": {
          "newCtx": "the new context bytes"
        }
      },
      "createPool(address,address,(bool,bool))": {
        "params": {
          "admin": "The admin of the pool",
          "poolConfig": "The pool configuration (see PoolConfig struct)",
          "token": "The token address"
        }
      },
      "disconnectPool(address,bytes)": {
        "details": "This is used to disconnect a pool from the GDA.",
        "params": {
          "ctx": "Context bytes (see ISuperfluidPoolAdmin for Context struct)",
          "pool": "The pool address"
        },
        "returns": {
          "newCtx": "the new context bytes"
        }
      },
      "distribute(address,address,address,uint256,bytes)": {
        "details": "NOTE: The actual amount distributed may differ.",
        "params": {
          "ctx": "Context bytes (see ISuperfluidPool for Context struct)",
          "from": "The sender address",
          "pool": "The pool address",
          "requestedAmount": "The requested amount",
          "token": "The token address"
        },
        "returns": {
          "newCtx": "the new context bytes"
        }
      },
      "distributeFlow(address,address,address,int96,bytes)": {
        "details": "NOTE: The actual distribution flow rate may differ.",
        "params": {
          "ctx": "Context bytes (see ISuperfluidPool for Context struct)",
          "from": "The sender address",
          "pool": "The pool address",
          "requestedFlowRate": "The requested flow rate",
          "token": "The token address"
        },
        "returns": {
          "newCtx": "the new context bytes"
        }
      },
      "estimateDistributionActualAmount(address,address,address,uint256)": {
        "details": "The difference between the requested amount and the actual amount is the adjustment amount.",
        "params": {
          "from": "The sender address",
          "requestedAmount": "The requested amount",
          "to": "The pool address",
          "token": "The token address"
        },
        "returns": {
          "actualAmount": "actualAmount"
        }
      },
      "estimateFlowDistributionActualFlowRate(address,address,address,int96)": {
        "details": "The difference between the requested flow rate and the actual flow rate is the adjustment flow rate, this adjustment flow rate goes to the pool admin.",
        "params": {
          "from": "The sender address",
          "requestedFlowRate": "The requested flow rate",
          "to": "The pool address",
          "token": "The token address"
        },
        "returns": {
          "actualFlowRate": "and totalDistributionFlowRate"
        }
      },
      "getAccountFlowInfo(address,address)": {
        "details": "Gets the aggregated GDA flow info of `account` for `token`",
        "params": {
          "account": "The account address",
          "token": "The token address"
        },
        "returns": {
          "deposit": "The sum of all deposits for account's flows",
          "flowRate": "The net flow rate of token for account",
          "timestamp": "The timestamp of when the flow was last updated for account"
        }
      },
      "getCodeAddress()": {
        "details": "Get current implementation code address."
      },
      "getFlow(address,address,address)": {
        "details": "Gets the GDA flow data between `from` and `to` of `token`",
        "params": {
          "from": "The sender address",
          "to": "The receiver address",
          "token": "The token address"
        },
        "returns": {
          "deposit": "The amount of deposit the flow",
          "flowRate": "The flow rate",
          "lastUpdated": "The timestamp of when the flow was last updated"
        }
      },
      "getFlowRate(address,address,address)": {
        "details": "This is primarily used to get the flow distribution flow rate from a distributor to a pool or the adjustment flow rate of a pool.",
        "params": {
          "from": "The sender address",
          "to": "The receiver address (the pool)",
          "token": "The token address"
        },
        "returns": {
          "_0": "flow rate"
        }
      },
      "getNetFlow(address,address)": {
        "details": "Gets the GDA net flow rate of `account` for `token`.",
        "params": {
          "account": "The account address",
          "token": "The token address"
        },
        "returns": {
          "netFlowRate": "net flow rate"
        }
      },
      "getPoolAdjustmentFlowRate(address)": {
        "params": {
          "pool": "The pool address"
        },
        "returns": {
          "_0": "adjustment flow rate"
        }
      },
      "isPatricianPeriod(address,address,uint256)": {
        "details": "Returns whether it is the patrician period based on timestamp",
        "params": {
          "account": "The account we are interested in",
          "timestamp": "The timestamp we are interested in observing the result of isPatricianPeriod"
        },
        "returns": {
          "_0": "bool Whether it is currently the patrician period dictated by governance"
        }
      },
      "isPatricianPeriodNow(address,address)": {
        "details": "Returns whether it is the patrician period based on host.getNow()",
        "params": {
          "account": "The account we are interested in"
        },
        "returns": {
          "isCurrentlyPatricianPeriod": "Whether it is currently the patrician period dictated by governance",
          "timestamp": "The value of host.getNow()"
        }
      },
      "isPool(address,address)": {
        "params": {
          "account": "The account address",
          "token": "The token address"
        },
        "returns": {
          "_0": "true if `account` is a pool"
        }
      },
      "proxiableUUID()": {
        "details": "Proxiable UUID marker function, this would help to avoid wrong logic      contract to be used for upgrading. NOTE: The semantics of the UUID deviates from the actual UUPS standard,       where it is equivalent of _IMPLEMENTATION_SLOT."
      },
      "realtimeBalanceOf(address,address,uint256)": {
        "details": "Calculate the real-time balance for the account of this agreement class",
        "params": {
          "account": "Account the state belongs to",
          "time": "Time used for the calculation"
        },
        "returns": {
          "buf": "Account deposit amount of this agreement",
          "owedBuffer": "Account owed deposit amount of this agreement",
          "rtb": "Dynamic balance portion of real-time balance of this agreement"
        }
      },
      "realtimeBalanceOfNow(address,address)": {
        "details": "ISuperAgreement.realtimeBalanceOf implementation"
      }
    },
    "stateVariables": {
      "SUPERTOKEN_MINIMUM_DEPOSIT_KEY": {
        "details": "SuperToken minimum deposit key"
      },
      "_POOL_CONNECTIONS_DATA_STATE_SLOT_ID_START": {
        "details": "Pool member state slot id starting point for pool connections"
      },
      "_POOL_SUBS_BITMAP_STATE_SLOT_ID": {
        "details": "Pool member state slot id for storing subs bitmap"
      },
      "_UNIVERSAL_INDEX_STATE_SLOT_ID": {
        "details": "Universal Index state slot id for storing universal index data"
      }
    },
    "title": "General Distribution Agreement",
    "version": 1
  },
  "userdoc": {
    "kind": "user",
    "methods": {
      "connectPool(address,bytes)": {
        "notice": "Connects `msg.sender` to `pool`."
      },
      "createPool(address,address,(bool,bool))": {
        "notice": "Creates a new pool for `token` where the admin is `admin`."
      },
      "disconnectPool(address,bytes)": {
        "notice": "Disconnects `msg.sender` from `pool`."
      },
      "distribute(address,address,address,uint256,bytes)": {
        "notice": "Tries to distribute `requestedAmount` of `token` from `from` to `pool`."
      },
      "distributeFlow(address,address,address,int96,bytes)": {
        "notice": "Tries to distributeFlow `requestedFlowRate` of `token` from `from` to `pool`."
      },
      "estimateDistributionActualAmount(address,address,address,uint256)": {
        "notice": "Executes an optimistic estimation of what the actual amount distributed may be. The actual amount distributed is the amount that will be sent from `from`. NOTE: this is only precise in an atomic transaction. DO NOT rely on this if querying off-chain."
      },
      "estimateFlowDistributionActualFlowRate(address,address,address,int96)": {
        "notice": "Executes an optimistic estimation of what the actual flow distribution flow rate may be. The actual flow distribution flow rate is the flow rate that will be sent from `from`. NOTE: this is only precise in an atomic transaction. DO NOT rely on this if querying off-chain."
      },
      "getFlowRate(address,address,address)": {
        "notice": "Gets the GDA flow rate of `from` to `to` for `token`."
      },
      "getPoolAdjustmentFlowInfo(address)": {
        "notice": "Get pool adjustment flow information: (recipient, flowHash, flowRate)"
      },
      "getPoolAdjustmentFlowRate(address)": {
        "notice": "Gets the adjustment flow rate of `pool` for `token`."
      },
      "isPool(address,address)": {
        "notice": "Checks whether `account` is a pool."
      }
    },
    "notice": "Storage Layout Notes Agreement State Universal Index Data slotId           = _UNIVERSAL_INDEX_STATE_SLOT_ID or 0 msg.sender       = address of GDAv1 account          = context.msgSender Universal Index Data stores a Basic Particle for an account as well as the total buffer and whether the account is a pool or not. SlotsBitmap Data slotId           = _POOL_SUBS_BITMAP_STATE_SLOT_ID or 1 msg.sender       = address of GDAv1 account          = context.msgSender Slots Bitmap Data Slot stores a bitmap of the slots that are \"enabled\" for a pool member. Pool Connections Data Slot Id Start slotId (start)   = _POOL_CONNECTIONS_DATA_STATE_SLOT_ID_START or 1 << 128 or 340282366920938463463374607431768211456 msg.sender       = address of GDAv1 account          = context.msgSender Pool Connections Data Slot Id Start indicates the starting slot for where we begin to store the pools that a pool member is a part of. Agreement Data NOTE The Agreement Data slot is calculated with the following function: keccak256(abi.encode(\"AgreementData\", agreementClass, agreementId)) agreementClass       = address of GDAv1 agreementId          = DistributionFlowId | PoolMemberId DistributionFlowId   = keccak256(abi.encode(block.chainid, \"distributionFlow\", from, pool)) DistributionFlowId stores FlowDistributionData between a sender (from) and pool. PoolMemberId         = keccak256(abi.encode(block.chainid, \"poolMember\", member, pool)) PoolMemberId stores PoolMemberData for a member at a pool.",
    "version": 1
  }
}