{
  "contractName": "MacroForwarder",
  "abi": [
    {
      "inputs": [
        {
          "internalType": "contract ISuperfluid",
          "name": "host",
          "type": "address"
        }
      ],
      "stateMutability": "nonpayable",
      "type": "constructor"
    },
    {
      "inputs": [
        {
          "internalType": "contract IUserDefinedMacro",
          "name": "m",
          "type": "address"
        },
        {
          "internalType": "bytes",
          "name": "params",
          "type": "bytes"
        }
      ],
      "name": "buildBatchOperations",
      "outputs": [
        {
          "components": [
            {
              "internalType": "uint32",
              "name": "operationType",
              "type": "uint32"
            },
            {
              "internalType": "address",
              "name": "target",
              "type": "address"
            },
            {
              "internalType": "bytes",
              "name": "data",
              "type": "bytes"
            }
          ],
          "internalType": "struct ISuperfluid.Operation[]",
          "name": "operations",
          "type": "tuple[]"
        }
      ],
      "stateMutability": "view",
      "type": "function"
    },
    {
      "inputs": [
        {
          "internalType": "contract IUserDefinedMacro",
          "name": "m",
          "type": "address"
        },
        {
          "internalType": "bytes",
          "name": "params",
          "type": "bytes"
        }
      ],
      "name": "runMacro",
      "outputs": [
        {
          "internalType": "bool",
          "name": "",
          "type": "bool"
        }
      ],
      "stateMutability": "payable",
      "type": "function"
    }
  ],
  "bytecode": "0x60a0604052348015600f57600080fd5b50604051610929380380610929833981016040819052602c91603c565b6001600160a01b0316608052606a565b600060208284031215604d57600080fd5b81516001600160a01b0381168114606357600080fd5b9392505050565b6080516108906100996000396000818160c601528181610155015281816101d5015261024701526108906000f3fe6080604052600436106100295760003560e01c8063651aeb701461002e578063b54bbfa014610056575b600080fd5b61004161003c366004610426565b610083565b60405190151581526020015b60405180910390f35b34801561006257600080fd5b50610076610071366004610426565b61012e565b60405161004d91906104fd565b60008061009185858561012e565b9050600061009f82346101d0565b604051639989bef360e01b81529091506001600160a01b03871690639989bef3906100f4907f000000000000000000000000000000000000000000000000000000000000000090899089903390600401610592565b60006040518083038186803b15801561010c57600080fd5b505afa158015610120573d6000803e3d6000fd5b509298975050505050505050565b60405163d052b02360e01b81526060906001600160a01b0385169063d052b02390610183907f000000000000000000000000000000000000000000000000000000000000000090879087903390600401610592565b600060405180830381865afa1580156101a0573d6000803e3d6000fd5b505050506040513d6000823e601f3d908101601f191682016040526101c89190810190610655565b949350505050565b6000807f00000000000000000000000000000000000000000000000000000000000000006001600160a01b031663670e77e38560405160240161021391906104fd565b604051602081830303815290604052915060e01b6020820180516001600160e01b03838183161783525050505090506000807f00000000000000000000000000000000000000000000000000000000000000006001600160a01b03168584336040516020016102839291906107ed565b60408051601f198184030181529082905261029d91610824565b60006040518083038185875af1925050503d80600081146102da576040519150601f19603f3d011682016040523d82523d6000602084013e6102df565b606091505b5091509150816102f2576102f2816102fe565b50600195945050505050565b6004815110156103555760405162461bcd60e51b815260206004820152601a60248201527f43616c6c5574696c733a2074617267657420726576657274282900000000000060448201526064015b60405180910390fd5b602081015163b1b7848f60e01b6001600160e01b03198216016104055760408051808201825260208082527f43616c6c5574696c733a207461726765742070616e69636b65643a2030785f5f90820190815260248501517f43616c6c5574696c733a207461726765742070616e69636b65643a2030780000600482811c600f908116603090810160081b918516011791909117909252925162461bcd60e51b815291929161034c91849101610840565b81518060208401fd5b50565b6001600160a01b038116811461040e57600080fd5b60008060006040848603121561043b57600080fd5b833561044681610411565b9250602084013567ffffffffffffffff81111561046257600080fd5b8401601f8101861361047357600080fd5b803567ffffffffffffffff81111561048a57600080fd5b86602082840101111561049c57600080fd5b939660209190910195509293505050565b60005b838110156104c85781810151838201526020016104b0565b50506000910152565b600081518084526104e98160208601602086016104ad565b601f01601f19169290920160200192915050565b6000602082016020835280845180835260408501915060408160051b86010192506020860160005b8281101561058657868503603f190184528151805163ffffffff1686526020808201516001600160a01b031690870152604090810151606091870182905290610570908701826104d1565b9550506020938401939190910190600101610525565b50929695505050505050565b6001600160a01b038516815260606020820181905281018390528284608083013760008184016080908101919091526001600160a01b03929092166040820152601f909201601f19169091010192915050565b634e487b7160e01b600052604160045260246000fd5b6040516060810167ffffffffffffffff8111828210171561061e5761061e6105e5565b60405290565b604051601f8201601f1916810167ffffffffffffffff8111828210171561064d5761064d6105e5565b604052919050565b60006020828403121561066757600080fd5b815167ffffffffffffffff81111561067e57600080fd5b8201601f8101841361068f57600080fd5b805167ffffffffffffffff8111156106a9576106a96105e5565b8060051b6106b960208201610624565b918252602081840181019290810190878411156106d557600080fd5b6020850192505b838310156107e257825167ffffffffffffffff8111156106fb57600080fd5b85016060818a03601f1901121561071157600080fd5b6107196105fb565b602082015163ffffffff8116811461073057600080fd5b8152604082015161074081610411565b6020820152606082015167ffffffffffffffff81111561075f57600080fd5b60208184010192505089601f83011261077757600080fd5b815167ffffffffffffffff811115610791576107916105e5565b6107a4601f8201601f1916602001610624565b8181528b60208386010111156107b957600080fd5b6107ca8260208301602087016104ad565b604083015250835250602092830192909101906106dc565b979650505050505050565b600083516107ff8184602088016104ad565b60609390931b6bffffffffffffffffffffffff19169190920190815260140192915050565b600082516108368184602087016104ad565b9190910192915050565b60208152600061085360208301846104d1565b939250505056fea26469706673582212209589250208620d7ed4f999d8d208c5dd7695b9604dd98f1e60eb73b0ce42ec7364736f6c634300081a0033",
  "immutableReferences": {
    "55508": [
      {
        "length": 32,
        "start": 198
      },
      {
        "length": 32,
        "start": 341
      },
      {
        "length": 32,
        "start": 469
      },
      {
        "length": 32,
        "start": 583
      }
    ]
  },
  "source": "// SPDX-License-Identifier: AGPLv3\npragma solidity ^0.8.23;\n\nimport { IUserDefinedMacro } from \"../interfaces/utils/IUserDefinedMacro.sol\";\nimport { ISuperfluid } from \"../interfaces/superfluid/ISuperfluid.sol\";\nimport { ForwarderBase } from \"../utils/ForwarderBase.sol\";\n\n\n/**\n * @dev This is a minimal version of a trusted forwarder with high degree of extensibility\n * through permissionless and user-defined \"macro contracts\".\n */\ncontract MacroForwarder is ForwarderBase {\n    constructor(ISuperfluid host) ForwarderBase(host) {}\n\n    /**\n     * @dev A convenience view wrapper for building the batch operations using a macro.\n     * @param  m          Target macro.\n     * @param  params     Parameters to simulate the macro.\n     * @return operations Operations returned by the macro after the simulation.\n     */\n    function buildBatchOperations(IUserDefinedMacro m, bytes calldata params) public view\n        returns (ISuperfluid.Operation[] memory operations)\n    {\n        operations = m.buildBatchOperations(_host, params, msg.sender);\n    }\n\n    /**\n     * @dev Run the macro defined by the provided macro contract and params.\n     * @param  m      Target macro.\n     * @param  params Parameters to run the macro.\n     * If value (native coins) is provided, it is forwarded.\n     */\n    function runMacro(IUserDefinedMacro m, bytes calldata params) external payable returns (bool)\n    {\n        ISuperfluid.Operation[] memory operations = buildBatchOperations(m, params);\n        bool retVal = _forwardBatchCallWithValue(operations, msg.value);\n        m.postCheck(_host, params, msg.sender);\n        return retVal;\n    }\n}\n",
  "sourcePath": "/home/runner/work/protocol-monorepo/protocol-monorepo/packages/ethereum-contracts/contracts/utils/MacroForwarder.sol",
  "compiler": {
    "name": "solc",
    "version": "0.8.26+commit.8a97fa7a.Linux.g++"
  },
  "schemaVersion": "3.4.16",
  "updatedAt": "2024-11-25T09:47:04.392Z",
  "devdoc": {
    "details": "This is a minimal version of a trusted forwarder with high degree of extensibility through permissionless and user-defined \"macro contracts\".",
    "kind": "dev",
    "methods": {
      "buildBatchOperations(address,bytes)": {
        "details": "A convenience view wrapper for building the batch operations using a macro.",
        "params": {
          "m": "Target macro.",
          "params": "Parameters to simulate the macro."
        },
        "returns": {
          "operations": "Operations returned by the macro after the simulation."
        }
      },
      "runMacro(address,bytes)": {
        "details": "Run the macro defined by the provided macro contract and params.",
        "params": {
          "m": "Target macro.",
          "params": "Parameters to run the macro. If value (native coins) is provided, it is forwarded."
        }
      }
    },
    "version": 1
  },
  "userdoc": {
    "kind": "user",
    "methods": {},
    "version": 1
  }
}