{
  "contractName": "SETHProxy",
  "abi": [
    {
      "anonymous": false,
      "inputs": [
        {
          "indexed": true,
          "internalType": "address",
          "name": "account",
          "type": "address"
        },
        {
          "indexed": false,
          "internalType": "uint256",
          "name": "amount",
          "type": "uint256"
        }
      ],
      "name": "TokenDowngraded",
      "type": "event"
    },
    {
      "anonymous": false,
      "inputs": [
        {
          "indexed": true,
          "internalType": "address",
          "name": "account",
          "type": "address"
        },
        {
          "indexed": false,
          "internalType": "uint256",
          "name": "amount",
          "type": "uint256"
        }
      ],
      "name": "TokenUpgraded",
      "type": "event"
    },
    {
      "stateMutability": "payable",
      "type": "fallback"
    },
    {
      "inputs": [
        {
          "internalType": "address",
          "name": "initialAddress",
          "type": "address"
        }
      ],
      "name": "initializeProxy",
      "outputs": [],
      "stateMutability": "nonpayable",
      "type": "function"
    },
    {
      "stateMutability": "payable",
      "type": "receive"
    },
    {
      "inputs": [],
      "name": "upgradeByETH",
      "outputs": [],
      "stateMutability": "payable",
      "type": "function"
    },
    {
      "inputs": [
        {
          "internalType": "address",
          "name": "to",
          "type": "address"
        }
      ],
      "name": "upgradeByETHTo",
      "outputs": [],
      "stateMutability": "payable",
      "type": "function"
    },
    {
      "inputs": [
        {
          "internalType": "uint256",
          "name": "wad",
          "type": "uint256"
        }
      ],
      "name": "downgradeToETH",
      "outputs": [],
      "stateMutability": "nonpayable",
      "type": "function"
    }
  ],
  "bytecode": "0x6080604052348015600f57600080fd5b506105a38061001f6000396000f3fe6080604052600436106100435760003560e01c8063160e8be3146100ef5780634a0687ef1461010f5780637687d19b1461012f578063cf81464b14610142576100e5565b366100e5576040805160008152602081019182905263c68d428360e01b909152309063c68d42839061007c9033903490602481016104c0565b600060405180830381600087803b15801561009657600080fd5b505af11580156100aa573d6000803e3d6000fd5b50506040513481523392507f25ca84076773b0455db53621c459ddc84fe40840e4932a62706a032566f399df915060200160405180910390a2005b6100ed61014a565b005b3480156100fb57600080fd5b506100ed61010a366004610524565b61015c565b34801561011b57600080fd5b506100ed61012a36600461053d565b610229565b6100ed61013d36600461053d565b61032f565b6100ed6103d0565b61015a61015561046d565b61049c565b565b60408051600081526020810191829052639d87674160e01b9091523090639d876741906101909033908590602481016104c0565b600060405180830381600087803b1580156101aa57600080fd5b505af11580156101be573d6000803e3d6000fd5b505060405133925083156108fc02915083906000818181858888f193505050501580156101ef573d6000803e3d6000fd5b5060405181815233907f3bc27981aebbb57f9247dc00fde9d6cd91e4b230083fec3238fedbcba1f9ab3d906020015b60405180910390a250565b6001600160a01b0381166102845760405162461bcd60e51b815260206004820152601760248201527f5555505350726f78793a207a65726f206164647265737300000000000000000060448201526064015b60405180910390fd5b60006102ae7f360894a13ba1a3210667c828492db98dca3e2076cc3735a920a3ca505d382bbc5490565b6001600160a01b0316146103045760405162461bcd60e51b815260206004820152601e60248201527f5555505350726f78793a20616c726561647920696e697469616c697a65640000604482015260640161027b565b61032c817f360894a13ba1a3210667c828492db98dca3e2076cc3735a920a3ca505d382bbc55565b50565b6040805160008152602081019182905263c68d428360e01b909152309063c68d4283906103639084903490602481016104c0565b600060405180830381600087803b15801561037d57600080fd5b505af1158015610391573d6000803e3d6000fd5b50505050806001600160a01b03167f25ca84076773b0455db53621c459ddc84fe40840e4932a62706a032566f399df3460405161021e91815260200190565b6040805160008152602081019182905263c68d428360e01b909152309063c68d4283906104049033903490602481016104c0565b600060405180830381600087803b15801561041e57600080fd5b505af1158015610432573d6000803e3d6000fd5b50506040513481523392507f25ca84076773b0455db53621c459ddc84fe40840e4932a62706a032566f399df915060200160405180910390a2565b60006104977f360894a13ba1a3210667c828492db98dca3e2076cc3735a920a3ca505d382bbc5490565b905090565b3660008037600080366000845af43d6000803e8080156104bb573d6000f35b3d6000fd5b60018060a01b0384168152826020820152606060408201526000825180606084015260005b8181101561050257602081860181015160808684010152016104e5565b506000608082850101526080601f19601f830116840101915050949350505050565b60006020828403121561053657600080fd5b5035919050565b60006020828403121561054f57600080fd5b81356001600160a01b038116811461056657600080fd5b939250505056fea2646970667358221220f6e51d514c34604e112b97a5982802958c229899dda7fabd810a74309c70355864736f6c634300081a0033",
  "immutableReferences": {},
  "source": "// SPDX-License-Identifier: AGPLv3\npragma solidity ^0.8.23;\n\nimport {\n    ISuperToken,\n    CustomSuperTokenBase\n}\nfrom \"../interfaces/superfluid/CustomSuperTokenBase.sol\";\nimport { ISETHCustom } from \"../interfaces/tokens/ISETH.sol\";\nimport { UUPSProxy } from \"../upgradability/UUPSProxy.sol\";\n\n/**\n * @dev Super ETH (SETH) custom super token implementation\n * @author Superfluid\n *\n * It is also called a Native-Asset Super Token.\n */\ncontract SETHProxy is ISETHCustom, CustomSuperTokenBase, UUPSProxy {\n    event TokenUpgraded(address indexed account, uint256 amount);\n    event TokenDowngraded(address indexed account, uint256 amount);\n\n    /// fallback function which mints Super Tokens for received ETH\n    // solhint-disable-next-line no-complex-fallback\n    receive() external payable override {\n        ISuperToken(address(this)).selfMint(msg.sender, msg.value, new bytes(0));\n        emit TokenUpgraded(msg.sender, msg.value);\n    }\n\n    function upgradeByETH() external override payable {\n        ISuperToken(address(this)).selfMint(msg.sender, msg.value, new bytes(0));\n        emit TokenUpgraded(msg.sender, msg.value);\n    }\n\n    function upgradeByETHTo(address to) external override payable {\n        ISuperToken(address(this)).selfMint(to, msg.value, new bytes(0));\n        emit TokenUpgraded(to, msg.value);\n    }\n\n    function downgradeToETH(uint wad) external override {\n        ISuperToken(address(this)).selfBurn(msg.sender, wad, new bytes(0));\n        payable(msg.sender).transfer(wad);\n        emit TokenDowngraded(msg.sender, wad);\n    }\n}\n",
  "sourcePath": "/home/runner/work/protocol-monorepo/protocol-monorepo/packages/ethereum-contracts/contracts/tokens/SETH.sol",
  "compiler": {
    "name": "solc",
    "version": "0.8.26+commit.8a97fa7a.Linux.g++"
  },
  "schemaVersion": "3.4.16",
  "updatedAt": "2024-11-25T09:47:04.360Z",
  "devdoc": {
    "author": "Superfluid It is also called a Native-Asset Super Token.",
    "details": "Super ETH (SETH) custom super token implementation",
    "kind": "dev",
    "methods": {
      "initializeProxy(address)": {
        "details": "Proxy initialization function.      This should only be called once and it is permission-less.",
        "params": {
          "initialAddress": "Initial logic contract code address to be used."
        }
      }
    },
    "version": 1
  },
  "userdoc": {
    "kind": "user",
    "methods": {},
    "version": 1
  }
}