{
  "contractName": "Superfluid",
  "abi": [
    {
      "inputs": [
        {
          "internalType": "bool",
          "name": "nonUpgradable",
          "type": "bool"
        },
        {
          "internalType": "bool",
          "name": "appWhiteListingEnabled",
          "type": "bool"
        },
        {
          "internalType": "uint64",
          "name": "callbackGasLimit",
          "type": "uint64"
        },
        {
          "internalType": "address",
          "name": "erc2771ForwarderAddress",
          "type": "address"
        }
      ],
      "stateMutability": "nonpayable",
      "type": "constructor"
    },
    {
      "inputs": [
        {
          "internalType": "uint256",
          "name": "_code",
          "type": "uint256"
        }
      ],
      "name": "APP_RULE",
      "type": "error"
    },
    {
      "inputs": [],
      "name": "HOST_AGREEMENT_ALREADY_REGISTERED",
      "type": "error"
    },
    {
      "inputs": [],
      "name": "HOST_AGREEMENT_CALLBACK_IS_NOT_ACTION",
      "type": "error"
    },
    {
      "inputs": [],
      "name": "HOST_AGREEMENT_IS_NOT_REGISTERED",
      "type": "error"
    },
    {
      "inputs": [],
      "name": "HOST_CALL_AGREEMENT_WITH_CTX_FROM_WRONG_ADDRESS",
      "type": "error"
    },
    {
      "inputs": [],
      "name": "HOST_CALL_APP_ACTION_WITH_CTX_FROM_WRONG_ADDRESS",
      "type": "error"
    },
    {
      "inputs": [],
      "name": "HOST_CANNOT_DOWNGRADE_TO_NON_UPGRADEABLE",
      "type": "error"
    },
    {
      "inputs": [],
      "name": "HOST_INVALID_CONFIG_WORD",
      "type": "error"
    },
    {
      "inputs": [],
      "name": "HOST_MAX_256_AGREEMENTS",
      "type": "error"
    },
    {
      "inputs": [],
      "name": "HOST_MUST_BE_CONTRACT",
      "type": "error"
    },
    {
      "inputs": [],
      "name": "HOST_NEED_MORE_GAS",
      "type": "error"
    },
    {
      "inputs": [],
      "name": "HOST_NON_UPGRADEABLE",
      "type": "error"
    },
    {
      "inputs": [],
      "name": "HOST_NON_ZERO_LENGTH_PLACEHOLDER_CTX",
      "type": "error"
    },
    {
      "inputs": [],
      "name": "HOST_NOT_A_SUPER_APP",
      "type": "error"
    },
    {
      "inputs": [],
      "name": "HOST_NO_APP_REGISTRATION_PERMISSION",
      "type": "error"
    },
    {
      "inputs": [],
      "name": "HOST_ONLY_GOVERNANCE",
      "type": "error"
    },
    {
      "inputs": [],
      "name": "HOST_ONLY_LISTED_AGREEMENT",
      "type": "error"
    },
    {
      "inputs": [],
      "name": "HOST_RECEIVER_IS_NOT_SUPER_APP",
      "type": "error"
    },
    {
      "inputs": [],
      "name": "HOST_SENDER_IS_NOT_SUPER_APP",
      "type": "error"
    },
    {
      "inputs": [],
      "name": "HOST_SOURCE_APP_NEEDS_HIGHER_APP_LEVEL",
      "type": "error"
    },
    {
      "inputs": [],
      "name": "HOST_SUPER_APP_ALREADY_REGISTERED",
      "type": "error"
    },
    {
      "inputs": [],
      "name": "HOST_SUPER_APP_IS_JAILED",
      "type": "error"
    },
    {
      "inputs": [],
      "name": "HOST_UNKNOWN_BATCH_CALL_OPERATION_TYPE",
      "type": "error"
    },
    {
      "anonymous": false,
      "inputs": [
        {
          "indexed": false,
          "internalType": "bytes32",
          "name": "agreementType",
          "type": "bytes32"
        },
        {
          "indexed": false,
          "internalType": "address",
          "name": "code",
          "type": "address"
        }
      ],
      "name": "AgreementClassRegistered",
      "type": "event"
    },
    {
      "anonymous": false,
      "inputs": [
        {
          "indexed": false,
          "internalType": "bytes32",
          "name": "agreementType",
          "type": "bytes32"
        },
        {
          "indexed": false,
          "internalType": "address",
          "name": "code",
          "type": "address"
        }
      ],
      "name": "AgreementClassUpdated",
      "type": "event"
    },
    {
      "anonymous": false,
      "inputs": [
        {
          "indexed": true,
          "internalType": "contract ISuperApp",
          "name": "app",
          "type": "address"
        }
      ],
      "name": "AppRegistered",
      "type": "event"
    },
    {
      "anonymous": false,
      "inputs": [
        {
          "indexed": false,
          "internalType": "bytes32",
          "name": "uuid",
          "type": "bytes32"
        },
        {
          "indexed": false,
          "internalType": "address",
          "name": "codeAddress",
          "type": "address"
        }
      ],
      "name": "CodeUpdated",
      "type": "event"
    },
    {
      "anonymous": false,
      "inputs": [
        {
          "indexed": false,
          "internalType": "contract ISuperfluidGovernance",
          "name": "oldGov",
          "type": "address"
        },
        {
          "indexed": false,
          "internalType": "contract ISuperfluidGovernance",
          "name": "newGov",
          "type": "address"
        }
      ],
      "name": "GovernanceReplaced",
      "type": "event"
    },
    {
      "anonymous": false,
      "inputs": [
        {
          "indexed": false,
          "internalType": "uint8",
          "name": "version",
          "type": "uint8"
        }
      ],
      "name": "Initialized",
      "type": "event"
    },
    {
      "anonymous": false,
      "inputs": [
        {
          "indexed": true,
          "internalType": "contract ISuperApp",
          "name": "app",
          "type": "address"
        },
        {
          "indexed": false,
          "internalType": "uint256",
          "name": "reason",
          "type": "uint256"
        }
      ],
      "name": "Jail",
      "type": "event"
    },
    {
      "anonymous": false,
      "inputs": [
        {
          "indexed": true,
          "internalType": "address",
          "name": "beaconProxy",
          "type": "address"
        },
        {
          "indexed": false,
          "internalType": "address",
          "name": "newBeaconLogic",
          "type": "address"
        }
      ],
      "name": "PoolBeaconLogicUpdated",
      "type": "event"
    },
    {
      "anonymous": false,
      "inputs": [
        {
          "indexed": false,
          "internalType": "contract ISuperTokenFactory",
          "name": "newFactory",
          "type": "address"
        }
      ],
      "name": "SuperTokenFactoryUpdated",
      "type": "event"
    },
    {
      "anonymous": false,
      "inputs": [
        {
          "indexed": true,
          "internalType": "contract ISuperToken",
          "name": "token",
          "type": "address"
        },
        {
          "indexed": false,
          "internalType": "address",
          "name": "code",
          "type": "address"
        }
      ],
      "name": "SuperTokenLogicUpdated",
      "type": "event"
    },
    {
      "inputs": [],
      "name": "APP_WHITE_LISTING_ENABLED",
      "outputs": [
        {
          "internalType": "bool",
          "name": "",
          "type": "bool"
        }
      ],
      "stateMutability": "view",
      "type": "function"
    },
    {
      "inputs": [],
      "name": "CALLBACK_GAS_LIMIT",
      "outputs": [
        {
          "internalType": "uint64",
          "name": "",
          "type": "uint64"
        }
      ],
      "stateMutability": "view",
      "type": "function"
    },
    {
      "inputs": [],
      "name": "MAX_APP_CALLBACK_LEVEL",
      "outputs": [
        {
          "internalType": "uint256",
          "name": "",
          "type": "uint256"
        }
      ],
      "stateMutability": "view",
      "type": "function"
    },
    {
      "inputs": [],
      "name": "MAX_NUM_AGREEMENTS",
      "outputs": [
        {
          "internalType": "uint32",
          "name": "",
          "type": "uint32"
        }
      ],
      "stateMutability": "view",
      "type": "function"
    },
    {
      "inputs": [],
      "name": "NON_UPGRADABLE_DEPLOYMENT",
      "outputs": [
        {
          "internalType": "bool",
          "name": "",
          "type": "bool"
        }
      ],
      "stateMutability": "view",
      "type": "function"
    },
    {
      "inputs": [],
      "name": "SIMPLE_FORWARDER",
      "outputs": [
        {
          "internalType": "contract SimpleForwarder",
          "name": "",
          "type": "address"
        }
      ],
      "stateMutability": "view",
      "type": "function"
    },
    {
      "inputs": [],
      "name": "castrate",
      "outputs": [],
      "stateMutability": "nonpayable",
      "type": "function"
    },
    {
      "inputs": [],
      "name": "getCodeAddress",
      "outputs": [
        {
          "internalType": "address",
          "name": "codeAddress",
          "type": "address"
        }
      ],
      "stateMutability": "view",
      "type": "function"
    },
    {
      "inputs": [
        {
          "internalType": "contract ISuperfluidGovernance",
          "name": "gov",
          "type": "address"
        }
      ],
      "name": "initialize",
      "outputs": [],
      "stateMutability": "nonpayable",
      "type": "function"
    },
    {
      "inputs": [],
      "name": "proxiableUUID",
      "outputs": [
        {
          "internalType": "bytes32",
          "name": "",
          "type": "bytes32"
        }
      ],
      "stateMutability": "pure",
      "type": "function"
    },
    {
      "inputs": [
        {
          "internalType": "address",
          "name": "newAddress",
          "type": "address"
        }
      ],
      "name": "updateCode",
      "outputs": [],
      "stateMutability": "nonpayable",
      "type": "function"
    },
    {
      "inputs": [],
      "name": "getNow",
      "outputs": [
        {
          "internalType": "uint256",
          "name": "",
          "type": "uint256"
        }
      ],
      "stateMutability": "view",
      "type": "function"
    },
    {
      "inputs": [],
      "name": "getGovernance",
      "outputs": [
        {
          "internalType": "contract ISuperfluidGovernance",
          "name": "",
          "type": "address"
        }
      ],
      "stateMutability": "view",
      "type": "function"
    },
    {
      "inputs": [
        {
          "internalType": "contract ISuperfluidGovernance",
          "name": "newGov",
          "type": "address"
        }
      ],
      "name": "replaceGovernance",
      "outputs": [],
      "stateMutability": "nonpayable",
      "type": "function"
    },
    {
      "inputs": [
        {
          "internalType": "contract ISuperAgreement",
          "name": "agreementClassLogic",
          "type": "address"
        }
      ],
      "name": "registerAgreementClass",
      "outputs": [],
      "stateMutability": "nonpayable",
      "type": "function"
    },
    {
      "inputs": [
        {
          "internalType": "contract ISuperAgreement",
          "name": "agreementClassLogic",
          "type": "address"
        }
      ],
      "name": "updateAgreementClass",
      "outputs": [],
      "stateMutability": "nonpayable",
      "type": "function"
    },
    {
      "inputs": [
        {
          "internalType": "bytes32",
          "name": "agreementType",
          "type": "bytes32"
        }
      ],
      "name": "isAgreementTypeListed",
      "outputs": [
        {
          "internalType": "bool",
          "name": "yes",
          "type": "bool"
        }
      ],
      "stateMutability": "view",
      "type": "function"
    },
    {
      "inputs": [
        {
          "internalType": "contract ISuperAgreement",
          "name": "agreementClass",
          "type": "address"
        }
      ],
      "name": "isAgreementClassListed",
      "outputs": [
        {
          "internalType": "bool",
          "name": "yes",
          "type": "bool"
        }
      ],
      "stateMutability": "view",
      "type": "function"
    },
    {
      "inputs": [
        {
          "internalType": "bytes32",
          "name": "agreementType",
          "type": "bytes32"
        }
      ],
      "name": "getAgreementClass",
      "outputs": [
        {
          "internalType": "contract ISuperAgreement",
          "name": "agreementClass",
          "type": "address"
        }
      ],
      "stateMutability": "view",
      "type": "function"
    },
    {
      "inputs": [
        {
          "internalType": "uint256",
          "name": "bitmap",
          "type": "uint256"
        }
      ],
      "name": "mapAgreementClasses",
      "outputs": [
        {
          "internalType": "contract ISuperAgreement[]",
          "name": "agreementClasses",
          "type": "address[]"
        }
      ],
      "stateMutability": "view",
      "type": "function"
    },
    {
      "inputs": [
        {
          "internalType": "uint256",
          "name": "bitmap",
          "type": "uint256"
        },
        {
          "internalType": "bytes32",
          "name": "agreementType",
          "type": "bytes32"
        }
      ],
      "name": "addToAgreementClassesBitmap",
      "outputs": [
        {
          "internalType": "uint256",
          "name": "newBitmap",
          "type": "uint256"
        }
      ],
      "stateMutability": "view",
      "type": "function"
    },
    {
      "inputs": [
        {
          "internalType": "uint256",
          "name": "bitmap",
          "type": "uint256"
        },
        {
          "internalType": "bytes32",
          "name": "agreementType",
          "type": "bytes32"
        }
      ],
      "name": "removeFromAgreementClassesBitmap",
      "outputs": [
        {
          "internalType": "uint256",
          "name": "newBitmap",
          "type": "uint256"
        }
      ],
      "stateMutability": "view",
      "type": "function"
    },
    {
      "inputs": [],
      "name": "getSuperTokenFactory",
      "outputs": [
        {
          "internalType": "contract ISuperTokenFactory",
          "name": "factory",
          "type": "address"
        }
      ],
      "stateMutability": "view",
      "type": "function"
    },
    {
      "inputs": [],
      "name": "getSuperTokenFactoryLogic",
      "outputs": [
        {
          "internalType": "address",
          "name": "logic",
          "type": "address"
        }
      ],
      "stateMutability": "view",
      "type": "function"
    },
    {
      "inputs": [
        {
          "internalType": "contract ISuperTokenFactory",
          "name": "newFactory",
          "type": "address"
        }
      ],
      "name": "updateSuperTokenFactory",
      "outputs": [],
      "stateMutability": "nonpayable",
      "type": "function"
    },
    {
      "inputs": [
        {
          "internalType": "contract ISuperToken",
          "name": "token",
          "type": "address"
        },
        {
          "internalType": "address",
          "name": "newLogicOverride",
          "type": "address"
        }
      ],
      "name": "updateSuperTokenLogic",
      "outputs": [],
      "stateMutability": "nonpayable",
      "type": "function"
    },
    {
      "inputs": [
        {
          "internalType": "contract ISuperToken",
          "name": "token",
          "type": "address"
        },
        {
          "internalType": "address",
          "name": "newAdmin",
          "type": "address"
        }
      ],
      "name": "changeSuperTokenAdmin",
      "outputs": [],
      "stateMutability": "nonpayable",
      "type": "function"
    },
    {
      "inputs": [
        {
          "internalType": "address",
          "name": "newLogic",
          "type": "address"
        }
      ],
      "name": "updatePoolBeaconLogic",
      "outputs": [],
      "stateMutability": "nonpayable",
      "type": "function"
    },
    {
      "inputs": [
        {
          "internalType": "uint256",
          "name": "configWord",
          "type": "uint256"
        }
      ],
      "name": "registerApp",
      "outputs": [],
      "stateMutability": "nonpayable",
      "type": "function"
    },
    {
      "inputs": [
        {
          "internalType": "contract ISuperApp",
          "name": "app",
          "type": "address"
        },
        {
          "internalType": "uint256",
          "name": "configWord",
          "type": "uint256"
        }
      ],
      "name": "registerApp",
      "outputs": [],
      "stateMutability": "nonpayable",
      "type": "function"
    },
    {
      "inputs": [
        {
          "internalType": "uint256",
          "name": "configWord",
          "type": "uint256"
        },
        {
          "internalType": "string",
          "name": "registrationKey",
          "type": "string"
        }
      ],
      "name": "registerAppWithKey",
      "outputs": [],
      "stateMutability": "nonpayable",
      "type": "function"
    },
    {
      "inputs": [
        {
          "internalType": "contract ISuperApp",
          "name": "app",
          "type": "address"
        },
        {
          "internalType": "uint256",
          "name": "configWord",
          "type": "uint256"
        }
      ],
      "name": "registerAppByFactory",
      "outputs": [],
      "stateMutability": "nonpayable",
      "type": "function"
    },
    {
      "inputs": [
        {
          "internalType": "contract ISuperApp",
          "name": "app",
          "type": "address"
        }
      ],
      "name": "isApp",
      "outputs": [
        {
          "internalType": "bool",
          "name": "",
          "type": "bool"
        }
      ],
      "stateMutability": "view",
      "type": "function"
    },
    {
      "inputs": [
        {
          "internalType": "contract ISuperApp",
          "name": "appAddr",
          "type": "address"
        }
      ],
      "name": "getAppCallbackLevel",
      "outputs": [
        {
          "internalType": "uint8",
          "name": "",
          "type": "uint8"
        }
      ],
      "stateMutability": "view",
      "type": "function"
    },
    {
      "inputs": [
        {
          "internalType": "contract ISuperApp",
          "name": "app",
          "type": "address"
        }
      ],
      "name": "getAppManifest",
      "outputs": [
        {
          "internalType": "bool",
          "name": "isSuperApp",
          "type": "bool"
        },
        {
          "internalType": "bool",
          "name": "isJailed",
          "type": "bool"
        },
        {
          "internalType": "uint256",
          "name": "noopMask",
          "type": "uint256"
        }
      ],
      "stateMutability": "view",
      "type": "function"
    },
    {
      "inputs": [
        {
          "internalType": "contract ISuperApp",
          "name": "app",
          "type": "address"
        }
      ],
      "name": "isAppJailed",
      "outputs": [
        {
          "internalType": "bool",
          "name": "",
          "type": "bool"
        }
      ],
      "stateMutability": "view",
      "type": "function"
    },
    {
      "inputs": [
        {
          "internalType": "contract ISuperApp",
          "name": "targetApp",
          "type": "address"
        }
      ],
      "name": "allowCompositeApp",
      "outputs": [],
      "stateMutability": "nonpayable",
      "type": "function"
    },
    {
      "inputs": [
        {
          "internalType": "contract ISuperApp",
          "name": "app",
          "type": "address"
        },
        {
          "internalType": "contract ISuperApp",
          "name": "targetApp",
          "type": "address"
        }
      ],
      "name": "isCompositeAppAllowed",
      "outputs": [
        {
          "internalType": "bool",
          "name": "",
          "type": "bool"
        }
      ],
      "stateMutability": "view",
      "type": "function"
    },
    {
      "inputs": [
        {
          "internalType": "contract ISuperApp",
          "name": "app",
          "type": "address"
        },
        {
          "internalType": "bytes",
          "name": "callData",
          "type": "bytes"
        },
        {
          "internalType": "bool",
          "name": "isTermination",
          "type": "bool"
        },
        {
          "internalType": "bytes",
          "name": "ctx",
          "type": "bytes"
        }
      ],
      "name": "callAppBeforeCallback",
      "outputs": [
        {
          "internalType": "bytes",
          "name": "cbdata",
          "type": "bytes"
        }
      ],
      "stateMutability": "nonpayable",
      "type": "function"
    },
    {
      "inputs": [
        {
          "internalType": "contract ISuperApp",
          "name": "app",
          "type": "address"
        },
        {
          "internalType": "bytes",
          "name": "callData",
          "type": "bytes"
        },
        {
          "internalType": "bool",
          "name": "isTermination",
          "type": "bool"
        },
        {
          "internalType": "bytes",
          "name": "ctx",
          "type": "bytes"
        }
      ],
      "name": "callAppAfterCallback",
      "outputs": [
        {
          "internalType": "bytes",
          "name": "newCtx",
          "type": "bytes"
        }
      ],
      "stateMutability": "nonpayable",
      "type": "function"
    },
    {
      "inputs": [
        {
          "internalType": "bytes",
          "name": "ctx",
          "type": "bytes"
        },
        {
          "internalType": "contract ISuperApp",
          "name": "app",
          "type": "address"
        },
        {
          "internalType": "uint256",
          "name": "appCreditGranted",
          "type": "uint256"
        },
        {
          "internalType": "int256",
          "name": "appCreditUsed",
          "type": "int256"
        },
        {
          "internalType": "contract ISuperfluidToken",
          "name": "appCreditToken",
          "type": "address"
        }
      ],
      "name": "appCallbackPush",
      "outputs": [
        {
          "internalType": "bytes",
          "name": "appCtx",
          "type": "bytes"
        }
      ],
      "stateMutability": "nonpayable",
      "type": "function"
    },
    {
      "inputs": [
        {
          "internalType": "bytes",
          "name": "ctx",
          "type": "bytes"
        },
        {
          "internalType": "int256",
          "name": "appCreditUsedDelta",
          "type": "int256"
        }
      ],
      "name": "appCallbackPop",
      "outputs": [
        {
          "internalType": "bytes",
          "name": "newCtx",
          "type": "bytes"
        }
      ],
      "stateMutability": "nonpayable",
      "type": "function"
    },
    {
      "inputs": [
        {
          "internalType": "bytes",
          "name": "ctx",
          "type": "bytes"
        },
        {
          "internalType": "int256",
          "name": "appCreditUsedMore",
          "type": "int256"
        }
      ],
      "name": "ctxUseCredit",
      "outputs": [
        {
          "internalType": "bytes",
          "name": "newCtx",
          "type": "bytes"
        }
      ],
      "stateMutability": "nonpayable",
      "type": "function"
    },
    {
      "inputs": [
        {
          "internalType": "bytes",
          "name": "ctx",
          "type": "bytes"
        },
        {
          "internalType": "contract ISuperApp",
          "name": "app",
          "type": "address"
        },
        {
          "internalType": "uint256",
          "name": "reason",
          "type": "uint256"
        }
      ],
      "name": "jailApp",
      "outputs": [
        {
          "internalType": "bytes",
          "name": "newCtx",
          "type": "bytes"
        }
      ],
      "stateMutability": "nonpayable",
      "type": "function"
    },
    {
      "inputs": [
        {
          "internalType": "contract ISuperAgreement",
          "name": "agreementClass",
          "type": "address"
        },
        {
          "internalType": "bytes",
          "name": "callData",
          "type": "bytes"
        },
        {
          "internalType": "bytes",
          "name": "userData",
          "type": "bytes"
        }
      ],
      "name": "callAgreement",
      "outputs": [
        {
          "internalType": "bytes",
          "name": "returnedData",
          "type": "bytes"
        }
      ],
      "stateMutability": "nonpayable",
      "type": "function"
    },
    {
      "inputs": [
        {
          "internalType": "contract ISuperApp",
          "name": "app",
          "type": "address"
        },
        {
          "internalType": "bytes",
          "name": "callData",
          "type": "bytes"
        }
      ],
      "name": "callAppAction",
      "outputs": [
        {
          "internalType": "bytes",
          "name": "returnedData",
          "type": "bytes"
        }
      ],
      "stateMutability": "nonpayable",
      "type": "function"
    },
    {
      "inputs": [
        {
          "internalType": "contract ISuperAgreement",
          "name": "agreementClass",
          "type": "address"
        },
        {
          "internalType": "bytes",
          "name": "callData",
          "type": "bytes"
        },
        {
          "internalType": "bytes",
          "name": "userData",
          "type": "bytes"
        },
        {
          "internalType": "bytes",
          "name": "ctx",
          "type": "bytes"
        }
      ],
      "name": "callAgreementWithContext",
      "outputs": [
        {
          "internalType": "bytes",
          "name": "newCtx",
          "type": "bytes"
        },
        {
          "internalType": "bytes",
          "name": "returnedData",
          "type": "bytes"
        }
      ],
      "stateMutability": "nonpayable",
      "type": "function"
    },
    {
      "inputs": [
        {
          "internalType": "contract ISuperApp",
          "name": "app",
          "type": "address"
        },
        {
          "internalType": "bytes",
          "name": "callData",
          "type": "bytes"
        },
        {
          "internalType": "bytes",
          "name": "ctx",
          "type": "bytes"
        }
      ],
      "name": "callAppActionWithContext",
      "outputs": [
        {
          "internalType": "bytes",
          "name": "newCtx",
          "type": "bytes"
        }
      ],
      "stateMutability": "nonpayable",
      "type": "function"
    },
    {
      "inputs": [
        {
          "internalType": "bytes",
          "name": "ctx",
          "type": "bytes"
        }
      ],
      "name": "decodeCtx",
      "outputs": [
        {
          "components": [
            {
              "internalType": "uint8",
              "name": "appCallbackLevel",
              "type": "uint8"
            },
            {
              "internalType": "uint8",
              "name": "callType",
              "type": "uint8"
            },
            {
              "internalType": "uint256",
              "name": "timestamp",
              "type": "uint256"
            },
            {
              "internalType": "address",
              "name": "msgSender",
              "type": "address"
            },
            {
              "internalType": "bytes4",
              "name": "agreementSelector",
              "type": "bytes4"
            },
            {
              "internalType": "bytes",
              "name": "userData",
              "type": "bytes"
            },
            {
              "internalType": "uint256",
              "name": "appCreditGranted",
              "type": "uint256"
            },
            {
              "internalType": "uint256",
              "name": "appCreditWantedDeprecated",
              "type": "uint256"
            },
            {
              "internalType": "int256",
              "name": "appCreditUsed",
              "type": "int256"
            },
            {
              "internalType": "address",
              "name": "appAddress",
              "type": "address"
            },
            {
              "internalType": "contract ISuperfluidToken",
              "name": "appCreditToken",
              "type": "address"
            }
          ],
          "internalType": "struct ISuperfluid.Context",
          "name": "context",
          "type": "tuple"
        }
      ],
      "stateMutability": "pure",
      "type": "function"
    },
    {
      "inputs": [
        {
          "internalType": "bytes",
          "name": "ctx",
          "type": "bytes"
        }
      ],
      "name": "isCtxValid",
      "outputs": [
        {
          "internalType": "bool",
          "name": "",
          "type": "bool"
        }
      ],
      "stateMutability": "view",
      "type": "function"
    },
    {
      "inputs": [
        {
          "components": [
            {
              "internalType": "uint32",
              "name": "operationType",
              "type": "uint32"
            },
            {
              "internalType": "address",
              "name": "target",
              "type": "address"
            },
            {
              "internalType": "bytes",
              "name": "data",
              "type": "bytes"
            }
          ],
          "internalType": "struct ISuperfluid.Operation[]",
          "name": "operations",
          "type": "tuple[]"
        }
      ],
      "name": "batchCall",
      "outputs": [],
      "stateMutability": "payable",
      "type": "function"
    },
    {
      "inputs": [
        {
          "components": [
            {
              "internalType": "uint32",
              "name": "operationType",
              "type": "uint32"
            },
            {
              "internalType": "address",
              "name": "target",
              "type": "address"
            },
            {
              "internalType": "bytes",
              "name": "data",
              "type": "bytes"
            }
          ],
          "internalType": "struct ISuperfluid.Operation[]",
          "name": "operations",
          "type": "tuple[]"
        }
      ],
      "name": "forwardBatchCall",
      "outputs": [],
      "stateMutability": "payable",
      "type": "function"
    },
    {
      "inputs": [
        {
          "internalType": "address",
          "name": "forwarder",
          "type": "address"
        }
      ],
      "name": "isTrustedForwarder",
      "outputs": [
        {
          "internalType": "bool",
          "name": "",
          "type": "bool"
        }
      ],
      "stateMutability": "view",
      "type": "function"
    },
    {
      "inputs": [],
      "name": "versionRecipient",
      "outputs": [
        {
          "internalType": "string",
          "name": "",
          "type": "string"
        }
      ],
      "stateMutability": "pure",
      "type": "function"
    },
    {
      "inputs": [],
      "name": "getERC2771Forwarder",
      "outputs": [
        {
          "internalType": "address",
          "name": "",
          "type": "address"
        }
      ],
      "stateMutability": "view",
      "type": "function"
    }
  ],
  "bytecode": "0x61012060405234801561001157600080fd5b506040516162b43803806162b4833981016040819052610030916100b8565b83151560805282151560a0526001600160401b03821660c0526001600160a01b0381166101005260405161006390610096565b604051809103906000f08015801561007f573d6000803e3d6000fd5b506001600160a01b031660e0525061012a92505050565b6104c280615df283390190565b805180151581146100b357600080fd5b919050565b600080600080608085870312156100ce57600080fd5b6100d7856100a3565b93506100e5602086016100a3565b60408601519093506001600160401b038116811461010257600080fd5b60608601519092506001600160a01b038116811461011f57600080fd5b939692955090935050565b60805160a05160c05160e05161010051615c296101c96000396000818161045401526143dd015260008181610af601526142b50152600081816104aa0152612e6401526000818161084c015281816122be0152818161279a01528181612a450152612b8c015260008181610a5e01528181610ba801528181610ec9015281816116b1015281816117ec0152818161194b0152612ab40152615c296000f3fe6080604052600436106103505760003560e01c8063768fabb0116101c6578063bced3ddc116100f7578063cd312ec411610095578063f37330521161006f578063f373305214610ac4578063f85263b914610ae4578063f9f522f414610b18578063fa6e0cfe14610b5557600080fd5b8063cd312ec414610a4c578063e8dccb7d14610a80578063f2e55caf14610aaf57600080fd5b8063bf428734116100d1578063bf428734146109bf578063c4d66de8146109df578063c56a069d146109ff578063c60944a614610a2c57600080fd5b8063bced3ddc1461096a578063bd1c448b1461098a578063bd3252c8146109aa57600080fd5b8063a5dbbbcd11610164578063b724211e1161013e578063b724211e146108ce578063ba48b5f8146108ee578063bb84cfa11461090e578063bbe4fd501461095757600080fd5b8063a5dbbbcd1461086e578063ad3915c81461088e578063b6d200de146108ae57600080fd5b80639378fa13116101a05780639378fa13146107d3578063989b0c3e146108055780639903ad38146108255780639d297e301461083a57600080fd5b8063768fabb0146107685780638ca48484146107885780638ceddd7a146107a857600080fd5b806346951954116102a057806359a291411161023e5780636b4f3335116102185780636b4f3335146106ea5780637283100c1461070a578063731aed6e1461072a57806374041e021461074857600080fd5b806359a29141146106a4578063670e77e3146106c45780636ad3ca7d146106d757600080fd5b806352d1902d1161027a57806352d1902d1461060757806354fbc4931461064457806357121e0c14610664578063572b6c051461068457600080fd5b806346951954146105a7578063486ff0cd146105c757806350d75d25146105f257600080fd5b80632ecfbda21161030d57806339255d5b116102e757806339255d5b146104e45780633ca3ad4e146105045780633f6c923a1461054c5780634329d2931461057957600080fd5b80632ecfbda2146104455780632f89bf891461047857806333d608f11461049857600080fd5b806306cecba8146103555780630c5650751461037757806315a024e1146103975780631e6d0a84146103b75780631e855cf3146103ed578063289b3c0d1461040d575b600080fd5b34801561036157600080fd5b50610375610370366004614a41565b610b75565b005b34801561038357600080fd5b50610375610392366004614a65565b610d4c565b3480156103a357600080fd5b506103756103b2366004614a41565b610ddc565b3480156103c357600080fd5b506103d76103d2366004614af4565b61102c565b6040516103e49190614bdc565b60405180910390f35b3480156103f957600080fd5b506103d7610408366004614cb2565b611278565b34801561041957600080fd5b506000546201000090046001600160a01b03165b6040516001600160a01b0390911681526020016103e4565b34801561045157600080fd5b507f000000000000000000000000000000000000000000000000000000000000000061042d565b34801561048457600080fd5b50610375610493366004614a41565b611290565b3480156104a457600080fd5b506104cc7f000000000000000000000000000000000000000000000000000000000000000081565b6040516001600160401b0390911681526020016103e4565b3480156104f057600080fd5b506103d76104ff366004614d01565b61144e565b34801561051057600080fd5b5061053c61051f366004614a41565b6001600160a01b0316600090815260046020526040902054151590565b60405190151581526020016103e4565b34801561055857600080fd5b5061056c610567366004614d7a565b611464565b6040516103e49190614dae565b34801561058557600080fd5b50610599610594366004614e8d565b611475565b6040516103e4929190614f43565b3480156105b357600080fd5b506103756105c2366004614a41565b61167e565b3480156105d357600080fd5b50604080518082019091526002815261763160f01b60208201526103d7565b3480156105fe57600080fd5b5061042d61177a565b34801561061357600080fd5b507fcd355cae2c435f8c5e0c626c4691d22fd85aa7422a424c6f0bced6e64c7aba745b6040519081526020016103e4565b34801561065057600080fd5b5061037561065f366004614a41565b6117a9565b34801561067057600080fd5b5061037561067f366004614a41565b611a2c565b34801561069057600080fd5b5061053c61069f366004614a41565b611afa565b3480156106b057600080fd5b506103d76106bf366004614f68565b611b84565b6103756106d2366004614fb3565b611c66565b6103756106e5366004614fb3565b611c7c565b3480156106f657600080fd5b5061053c610705366004614a41565b611c87565b34801561071657600080fd5b50610375610725366004614a41565b611cab565b34801561073657600080fd5b506003546001600160a01b031661042d565b34801561075457600080fd5b506103d7610763366004614af4565b611d53565b34801561077457600080fd5b506103d7610783366004615028565b611ea2565b34801561079457600080fd5b5061053c6107a3366004614a41565b61203e565b3480156107b457600080fd5b506107be61010081565b60405163ffffffff90911681526020016103e4565b3480156107df57600080fd5b506107f36107ee366004614a41565b612103565b60405160ff90911681526020016103e4565b34801561081157600080fd5b506103d7610820366004614f68565b612124565b34801561083157600080fd5b506103756121b7565b34801561084657600080fd5b5061053c7f000000000000000000000000000000000000000000000000000000000000000081565b34801561087a57600080fd5b506106366108893660046150a3565b612272565b34801561089a57600080fd5b506103756108a93660046150c5565b6122bc565b3480156108ba57600080fd5b5061042d6108c93660046150c5565b612310565b3480156108da57600080fd5b506103d76108e93660046150de565b612377565b3480156108fa57600080fd5b506103d761090936600461513a565b612438565b34801561091a57600080fd5b5061053c610929366004614a65565b6001600160a01b03918216600090815260056020908152604080832093909416825291909152205460ff1690565b34801561096357600080fd5b5042610636565b34801561097657600080fd5b506106366109853660046150a3565b61274f565b34801561099657600080fd5b506103756109a53660046151c0565b612798565b3480156109b657600080fd5b50610636600181565b3480156109cb57600080fd5b5061053c6109da36600461520b565b61280e565b3480156109eb57600080fd5b506103756109fa366004614a41565b61284f565b348015610a0b57600080fd5b50610a1f610a1a3660046150c5565b612933565b6040516103e4919061524c565b348015610a3857600080fd5b50610375610a47366004615298565b612a18565b348015610a5857600080fd5b5061053c7f000000000000000000000000000000000000000000000000000000000000000081565b348015610a8c57600080fd5b5061053c610a9b3660046150c5565b600090815260026020526040902054151590565b348015610abb57600080fd5b5061042d612a97565b348015610ad057600080fd5b50610375610adf366004615298565b612b5f565b348015610af057600080fd5b5061042d7f000000000000000000000000000000000000000000000000000000000000000081565b348015610b2457600080fd5b50610b38610b33366004614a41565b612c6a565b6040805193151584529115156020840152908201526060016103e4565b348015610b6157600080fd5b50610375610b70366004614a65565b612cb9565b6000546201000090046001600160a01b03163314610ba6576040516362e9152760e11b815260040160405180910390fd5b7f000000000000000000000000000000000000000000000000000000000000000015610be5576040516314f72c9f60e01b815260040160405180910390fd5b6000816001600160a01b0316637730599e6040518163ffffffff1660e01b8152600401602060405180830381865afa158015610c25573d6000803e3d6000fd5b505050506040513d601f19601f82011682018060405250810190610c4991906152c4565b600081815260026020526040812054919250819003610c7b57604051630e4f4df560e11b815260040160405180910390fd5b60006001610c8981846152f3565b81548110610c9957610c99615306565b6000918252602090912001546040516311a5465560e21b81526001600160a01b03868116600483015290911691508190634695195490602401600060405180830381600087803b158015610cec57600080fd5b505af1158015610d00573d6000803e3d6000fd5b5050604080518681526001600160a01b03881660208201527f9279aa773f2b588996032d8de89911555039f28b13a11a7c17074330bc082d9a935001905060405180910390a150505050565b6000546201000090046001600160a01b03163314610d7d576040516362e9152760e11b815260040160405180910390fd5b6040516308f2839760e41b81526001600160a01b038281166004830152831690638f28397090602401600060405180830381600087803b158015610dc057600080fd5b505af1158015610dd4573d6000803e3d6000fd5b505050505050565b6000546201000090046001600160a01b03163314610e0d576040516362e9152760e11b815260040160405180910390fd5b6000816001600160a01b0316637730599e6040518163ffffffff1660e01b8152600401602060405180830381865afa158015610e4d573d6000803e3d6000fd5b505050506040513d601f19601f82011682018060405250810190610e7191906152c4565b60008181526002602052604090205490915015610ea157604051631b93bb7560e31b815260040160405180910390fd5b60015461010011610ec557604051630f85034f60e31b815260040160405180910390fd5b60007f0000000000000000000000000000000000000000000000000000000000000000610f7f576000604051610efa906149c4565b604051809103906000f080158015610f16573d6000803e3d6000fd5b50604051634a0687ef60e01b81526001600160a01b03868116600483015291925090821690634a0687ef90602401600060405180830381600087803b158015610f5e57600080fd5b505af1158015610f72573d6000803e3d6000fd5b5050505080915050610f82565b50815b6001805480820182557fb10e2d527612073b26eecdfd717e6a320cf44b4afac2b0732d9fcbe2b7fa0cf60180546001600160a01b0384166001600160a01b0319909116179055546000838152600260205260409081902091909155517f878135063a6cfb3bc333e534b1fdc83f4f12221cad6705c31c0567048a8bd3d19061101f90849086909182526001600160a01b0316602082015260400190565b60405180910390a1505050565b60606110373361203e565b6110545760405163619c535960e01b815260040160405180910390fd5b82828080601f0160208091040260200160405190810160405280939291908181526020018383808284376000920191909152506110969250839150612e149050565b6110a2576110a261531c565b60008061111c8a6000898c8c8080601f01602080910402602001604051908101604052809392919081815260200183838082843760009201919091525050604080516020601f8f018190048102820181019092528d815292508d91508c9081908401838280828437600092019190915250612e3492505050565b9150915081156112315761112f81612efb565b156111c957808060200190518101906111489190615377565b935061115384612e14565b6111c4578661117d5760405163a85ba64f60e01b8152601460048201526024015b60405180910390fd5b85858080601f0160208091040260200160405190810160405280939291908181526020018383808284376000920191909152509296506111c492508c915060149050612f4f565b61126b565b866111ea5760405163a85ba64f60e01b815260166004820152602401611174565b85858080601f0160208091040260200160405190810160405280939291908181526020018383808284376000920191909152509296506111c492508c915060169050612f4f565b85858080601f0160208091040260200160405190810160405280939291908181526020018383808284376000920191909152509296505050505b5050509695505050505050565b60606112873384600085612fd0565b90505b92915050565b6000546201000090046001600160a01b031633146112c1576040516362e9152760e11b815260040160405180910390fd5b604051635b69006f60e11b81527fdfd8ece9bfbcb8c5c540edb935641f63d67686490a1ab97f000288759f30a9466004820152600090309063b6d200de90602401602060405180830381865afa15801561131f573d6000803e3d6000fd5b505050506040513d601f19601f8201168201806040525081019061134391906153ab565b90506000816001600160a01b0316635437dd976040518163ffffffff1660e01b8152600401602060405180830381865afa158015611385573d6000803e3d6000fd5b505050506040513d601f19601f820116820180604052508101906113a991906153ab565b604051631b2ce7f360e11b81526001600160a01b03858116600483015291925090821690633659cfe690602401600060405180830381600087803b1580156113f057600080fd5b505af1158015611404573d6000803e3d6000fd5b50506040516001600160a01b038681168252841692507f052cea8931962dd445ef48b0b998d3056bd0705f437087d60fe3c46a3fa09e1f91506020015b60405180910390a2505050565b606061145c3385858561320d565b949350505050565b61146c6149d1565b61128a8261331e565b60608083838080601f0160208091040260200160405190810160405280939291908181526020018383808284376000920191909152506114ba9250839150612e149050565b6114da5760405163a85ba64f60e01b815260146004820152602401611174565b896114e48161203e565b6115015760405163619c535960e01b815260040160405180910390fd5b600061154287878080601f01602080910402602001604051908101604052809392919081815260200183838082843760009201919091525061146492505050565b6101208101519091506001600160a01b031633146115735760405163066875e160e11b815260040160405180910390fd5b60608101805133909152604080516020601f8c018190048102820181019092528a8152908b908b908190840183828082843760009201919091525050505060a08301526115bf826133e9565b955060006116058e8e8e8080601f016020809104026020016040519081016040528093929190818152602001838380828437600092018290525092508c915061351d9050565b96509050801561166457858060200190518101906116239190615377565b965061162e87612e14565b61163a5761163a61531c565b61164387611464565b6001600160a01b0383166060820152925061165d836133e9565b965061166d565b61166d866135d8565b505050505097509795505050505050565b6000546201000090046001600160a01b031633146116af576040516362e9152760e11b815260040160405180910390fd5b7f0000000000000000000000000000000000000000000000000000000000000000156116ee576040516314f72c9f60e01b815260040160405180910390fd5b806001600160a01b031663cd312ec46040518163ffffffff1660e01b8152600401602060405180830381865afa15801561172c573d6000803e3d6000fd5b505050506040513d601f19601f8201168201806040525081019061175091906153c8565b1561176e5760405163474e764160e01b815260040160405180910390fd5b611777816136e3565b50565b60006117a47f360894a13ba1a3210667c828492db98dca3e2076cc3735a920a3ca505d382bbc5490565b905090565b6000546201000090046001600160a01b031633146117da576040516362e9152760e11b815260040160405180910390fd5b6003546001600160a01b0316611949577f00000000000000000000000000000000000000000000000000000000000000006118c057600060405161181d906149c4565b604051809103906000f080158015611839573d6000803e3d6000fd5b50604051634a0687ef60e01b81526001600160a01b03848116600483015291925090821690634a0687ef90602401600060405180830381600087803b15801561188157600080fd5b505af1158015611895573d6000803e3d6000fd5b5050600380546001600160a01b0319166001600160a01b039490941693909317909255506118dc9050565b600380546001600160a01b0319166001600160a01b0383161790555b600360009054906101000a90046001600160a01b03166001600160a01b0316638129fc1c6040518163ffffffff1660e01b8152600401600060405180830381600087803b15801561192c57600080fd5b505af1158015611940573d6000803e3d6000fd5b505050506119e8565b7f000000000000000000000000000000000000000000000000000000000000000015611988576040516314f72c9f60e01b815260040160405180910390fd5b6003546040516311a5465560e21b81526001600160a01b03838116600483015290911690634695195490602401600060405180830381600087803b1580156119cf57600080fd5b505af11580156119e3573d6000803e3d6000fd5b505050505b6003546040516001600160a01b0390911681527fce13a9895a1719ad4493b2ac1a9bfb36070566161abab408e7ecbe586da8d499906020015b60405180910390a150565b33600081815260046020526040902054611a59576040516302eb3f7160e61b815260040160405180910390fd5b6001600160a01b038216600090815260046020526040902054611a8f57604051634b5518af60e11b815260040160405180910390fd5b611a9882612103565b60ff16611aa482612103565b60ff1611611ac557604051630447252760e41b815260040160405180910390fd5b6001600160a01b039081166000908152600560209081526040808320949093168252929092529020805460ff19166001179055565b600080546201000090046001600160a01b03166380f70cba3083611b1d8661391d565b6040518463ffffffff1660e01b8152600401611b3b939291906153e5565b602060405180830381865afa158015611b58573d6000803e3d6000fd5b505050506040513d601f19601f82011682018060405250810190611b7c91906152c4565b151592915050565b6060611b8f3361203e565b611bac5760405163619c535960e01b815260040160405180910390fd5b83838080601f016020809104026020016040519081016040528093929190818152602001838380828437600092019190915250611bee9250839150612e149050565b611bfa57611bfa61531c565b6000611c3b86868080601f01602080910402602001604051908101604052809392919081815260200183838082843760009201919091525061146492505050565b9050838161010001818151611c509190615409565b905250611c5c816133e9565b9695505050505050565b611c78611c716139a5565b8383613a0d565b5050565b611c78338383613a0d565b6001600160a01b03811660009081526004602052604081205461800016151561128a565b6000546201000090046001600160a01b03163314611cdc576040516362e9152760e11b815260040160405180910390fd5b600054604080516001600160a01b03620100009093048316815291831660208301527f13abda02e63c790d0e2818b251282cfe5cbe0a8abd69c54bf5d2260c0907bd2e910160405180910390a1600080546001600160a01b03909216620100000262010000600160b01b0319909216919091179055565b6060611d5e3361203e565b611d7b5760405163619c535960e01b815260040160405180910390fd5b82828080601f016020809104026020016040519081016040528093929190818152602001838380828437600092019190915250611dbd9250839150612e149050565b611dc957611dc961531c565b600080611e438a6001898c8c8080601f01602080910402602001604051908101604052809392919081815260200183838082843760009201919091525050604080516020601f8f018190048102820181019092528d815292508d91508c9081908401838280828437600092019190915250612e3492505050565b91509150811561126b57611e5681612efb565b15611e765780806020019051810190611e6f9190615377565b935061126b565b86611e975760405163a85ba64f60e01b815260166004820152602401611174565b61126b8a6016612f4f565b6060611ead3361203e565b611eca5760405163619c535960e01b815260040160405180910390fd5b86868080601f016020809104026020016040519081016040528093929190818152602001838380828437600092019190915250611f0c9250839150612e149050565b611f1857611f1861531c565b6000611f5989898080601f01602080910402602001604051908101604052809392919081815260200183838082843760009201919091525061146492505050565b9050611f8081606001516001600160a01b0316600090815260046020526040902054151590565b8015611f9457506001816000015160ff1610155b15611fe75760608101516001600160a01b039081166000908152600560209081526040808320938b168352929052205460ff16611fe75760405163a85ba64f60e01b8152601e6004820152602401611174565b805181611ff382615431565b60ff169052506003602082015260c0810186905261010081018590526001600160a01b038088166101208301528416610140820152612031816133e9565b9998505050505050505050565b600080826001600160a01b0316637730599e6040518163ffffffff1660e01b8152600401602060405180830381865afa15801561207f573d6000803e3d6000fd5b505050506040513d601f19601f820116820180604052508101906120a391906152c4565b600081815260026020526040902054909150801580159061145c57506001600160a01b03841660016120d581846152f3565b815481106120e5576120e5615306565b6000918252602090912001546001600160a01b031614949350505050565b6001600160a01b03811660009081526004602052604081205460ff1661128a565b606061212f3361203e565b61214c5760405163619c535960e01b815260040160405180910390fd5b600061218d85858080601f01602080910402602001604051908101604052809392919081815260200183838082843760009201919091525061146492505050565b90508281610100018181516121a29190615409565b9052506121ae816133e9565b95945050505050565b600054610100900460ff16158080156121d75750600054600160ff909116105b806121f15750303b1580156121f1575060005460ff166001145b61220d5760405162461bcd60e51b815260040161117490615450565b6000805460ff191660011790558015612230576000805461ff0019166101001790555b8015611777576000805461ff0019169055604051600181527f7f26b83ff96e1f2b6a682f133852f6798a09c465da95921460cefb384740249890602001611a21565b6000818152600260205260408120548082036122a157604051630e4f4df560e11b815260040160405180910390fd5b6122ac6001826152f3565b6001901b19841691505092915050565b7f00000000000000000000000000000000000000000000000000000000000000001561230657612306604051806040016040528060028152602001616b3160f01b815250326144f6565b611777338261459f565b60008181526002602052604081205480820361233f57604051630e4f4df560e11b815260040160405180910390fd5b600161234b81836152f3565b8154811061235b5761235b615306565b6000918252602090912001546001600160a01b03169392505050565b60606123823361203e565b61239f5760405163619c535960e01b815260040160405180910390fd5b84848080601f0160208091040260200160405190810160405280939291908181526020018383808284376000920191909152506123e19250839150612e149050565b6123ed576123ed61531c565b6123f78484612f4f565b85858080601f016020809104026020016040519081016040528093929190818152602001838380828437600092019190915250929998505050505050505050565b606082828080601f01602080910402602001604051908101604052809392919081815260200183838082843760009201919091525061247c9250839150612e149050565b61249c5760405163a85ba64f60e01b815260146004820152602401611174565b6001600160a01b03871660009081526004602052604081205488918190036124d75760405163163cbe4360e01b815260040160405180910390fd5b6180008116156124f957604051628e12d960e21b815260040160405180910390fd5b87878080601f0160208091040260200160405190810160405280939291908181526020018383808284376000920182905250925061253a915083905061466e565b90506001600160e01b031981166330d9c91560e01b148061256b57506001600160e01b0319811663d86ed3e560e01b145b8061258657506001600160e01b03198116630221347d60e61b145b806125a157506001600160e01b0319811663230dbd2960e01b145b806125bc57506001600160e01b03198116635f9e7d7760e01b145b806125d757506001600160e01b031981166353c11f9960e01b145b156125f5576040516377a14afb60e11b815260040160405180910390fd5b600061263689898080601f01602080910402602001604051908101604052809392919081815260200183838082843760009201919091525061146492505050565b6101208101519091506001600160a01b03163314612667576040516311cfdef560e21b815260040160405180910390fd5b6060810180513390915261267a826133e9565b97506000806126c18f8f8f8080601f016020809104026020016040519081016040528093929190818152602001838380828437600092018290525092508f915061351d9050565b91509150811561273457808060200190518101906126df9190615377565b99506126ea8a612e14565b61270a5760405163a85ba64f60e01b815260146004820152602401611174565b6127138a611464565b6001600160a01b0384166060820152935061272d846133e9565b995061273d565b61273d816135d8565b50505050505050505095945050505050565b60008181526002602052604081205480820361277e57604051630e4f4df560e11b815260040160405180910390fd5b6127896001826152f3565b6001901b841791505092915050565b7f0000000000000000000000000000000000000000000000000000000000000000156127ff576127ff82828080601f0160208091040260200160405190810160405280939291908181526020018383808284376000920191909152503292506144f6915050565b612809338461459f565b505050565b600061128783838080601f016020809104026020016040519081016040528093929190818152602001838380828437600092019190915250612e1492505050565b600054610100900460ff161580801561286f5750600054600160ff909116105b806128895750303b158015612889575060005460ff166001145b6128a55760405162461bcd60e51b815260040161117490615450565b6000805460ff1916600117905580156128c8576000805461ff0019166101001790555b6000805462010000600160b01b031916620100006001600160a01b038516021790558015611c78576000805461ff0019169055604051600181527f7f26b83ff96e1f2b6a682f133852f6798a09c465da95921460cefb38474024989060200160405180910390a15050565b60606000806001805490506001600160401b0381111561295557612955614bef565b60405190808252806020026020018201604052801561297e578160200160208202803683370190505b50925060009050600091505b600154821015612a10576001821b841615612a0557600182815481106129b2576129b2615306565b6000918252602090912001546001600160a01b031683826129d28161549e565b9350815181106129e4576129e4615306565b60200260200101906001600160a01b031690816001600160a01b0316815250505b81600101915061298a565b825250919050565b816001600160a01b03163b600003612a435760405163353dacc360e21b815260040160405180910390fd5b7f000000000000000000000000000000000000000000000000000000000000000015612a8d57612a8d604051806040016040528060028152602001616b3160f01b815250336144f6565b611c78828261459f565b6003546000906001600160a01b0316612ab257612ab261531c565b7f000000000000000000000000000000000000000000000000000000000000000015612ae857506003546001600160a01b031690565b600360009054906101000a90046001600160a01b03166001600160a01b03166350d75d256040518163ffffffff1660e01b8152600401602060405180830381865afa158015612b3b573d6000803e3d6000fd5b505050506040513d601f19601f820116820180604052508101906117a491906153ab565b816001600160a01b03163b600003612b8a5760405163353dacc360e21b815260040160405180910390fd5b7f000000000000000000000000000000000000000000000000000000000000000015612a8d576000612bbb336146ca565b6000805460405163407b865d60e11b81529293509091620100009091046001600160a01b0316906380f70cba90612bfa903090859087906004016153e5565b602060405180830381865afa158015612c17573d6000803e3d6000fd5b505050506040513d601f19601f82011682018060405250810190612c3b91906152c4565b600114905080612c5e57604051630b56455f60e41b815260040160405180910390fd5b5050611c78828261459f565b6001600160a01b038116600090815260046020908152604080832081519283019091525480825215801592918291612cb157805161800081161515935064ff000000001691505b509193909250565b6000546201000090046001600160a01b03163314612cea576040516362e9152760e11b815260040160405180910390fd5b60006001600160a01b038216612d7657600360009054906101000a90046001600160a01b03166001600160a01b0316639470a5b26040518163ffffffff1660e01b8152600401602060405180830381865afa158015612d4d573d6000803e3d6000fd5b505050506040513d601f19601f82011682018060405250810190612d7191906153ab565b612d78565b815b6040516311a5465560e21b81526001600160a01b03808316600483015291925090841690634695195490602401600060405180830381600087803b158015612dbf57600080fd5b505af1158015612dd3573d6000803e3d6000fd5b50506040516001600160a01b038481168252861692507f840acbd291b38534819f47f875839277e502f40e1c7bfea2c5fc2c8017442cd39150602001611441565b6000815160001415801561128a5750600654825160208401201492915050565b600060606001600160a01b038716612e4e57612e4e61531c565b612e588484614744565b93506001600160401b037f000000000000000000000000000000000000000000000000000000000000000016600087612e9b57612e968987846147fb565b612ea6565b612ea689878461488c565b919550909350905083612eef5780612ed65786612ecb57612ec6836135d8565b612eef565b612ec689600a612f4f565b604051636a7aea4b60e11b815260040160405180910390fd5b50509550959350505050565b6000604082511015612f0f57506000919050565b602082810151906000908214612f29575060009392505050565b506040830151612f38816148eb565b612f439060406154b7565b84511492505050919050565b6001600160a01b038216600090815260046020526040812054618000169003611c78576001600160a01b038216600081815260046020526040908190208054618000179055517fbe3aa33bd245135e4e26b223d79d14ea479a47bff09f2b03c53838af1edbb14b90612fc49084815260200190565b60405180910390a25050565b60065460609015612ff75760405163a85ba64f60e01b815260156004820152602401611174565b6001600160a01b03841660009081526004602052604081205485918190036130325760405163163cbe4360e01b815260040160405180910390fd5b61800081161561305457604051628e12d960e21b815260040160405180910390fd5b8360006130608261466e565b90506001600160e01b031981166330d9c91560e01b148061309157506001600160e01b0319811663d86ed3e560e01b145b806130ac57506001600160e01b03198116630221347d60e61b145b806130c757506001600160e01b0319811663230dbd2960e01b145b806130e257506001600160e01b03198116635f9e7d7760e01b145b806130fd57506001600160e01b031981166353c11f9960e01b145b1561311b576040516377a14afb60e11b815260040160405180910390fd5b60408051610160810182526000808252600260208084019190915242838501526001600160a01b03808e16606085015260808401839052845191820190945281815260a083015260c0820181905260e082018190526101008201819052918a166101208201526101408101829052613192906133e9565b905060006131a28a898b8561351d565b9750905080156131f057868060200190518101906131c09190615377565b91506131cb82612e14565b6131eb5760405163a85ba64f60e01b815260146004820152602401611174565b6131f9565b6131f9876135d8565b505060006006555092979650505050505050565b600654606090156132345760405163a85ba64f60e01b815260156004820152602401611174565b8361323e8161203e565b61325b5760405163619c535960e01b815260040160405180910390fd5b60006132668561466e565b60408051610160810182526000808252600160208301529293506132e99181014281526020018a6001600160a01b03168152602001846001600160e01b031916815260200187815260200160008152602001600081526020016000815260200160006001600160a01b0316815260200160006001600160a01b03168152506133e9565b905060006132fa888860008561351d565b955090508061330c5761330c856135d8565b50506000600655509095945050505050565b6133266149d1565b6060808380602001905181019061333d91906154ca565b8151919350915060009061335a9084016020908101908501615527565b60a08901526001600160e01b03191660808801526001600160a01b031660608701526040860152602081811c600f168187015260ff90911685528251600092506133ab9190840181019084016155ac565b6001600160a01b03908116610140890152166101208701526101008601526001600160801b03811660c086015260801c60e085015250919392505050565b60606001826000015160ff1611156134175760405163a85ba64f60e01b815260286004820152602401611174565b815160208084015160009260ff1664ff000000009190921b16179050600060806134448560e00151614924565b6001600160801b0316901b61345c8560c00151614924565b6001600160801b0316179050818460400151856060015186608001518760a001516040516020016134919594939291906155f8565b60408051601f1981840301815282825261010087015161012088015161014089015160208601879052938501919091526001600160a01b03908116606085015290911660808301529060a00160408051601f19818403018152908290526134fb9291602001614f43565b60408051601f1981840301815291905280516020820120600655949350505050565b600060606001600160a01b0386166135375761353761531c565b6135418584614744565b9450856001600160a01b0316848660405161355c9190615644565b60006040518083038185875af1925050503d8060008114613599576040519150601f19603f3d011682016040523d82523d6000602084013e61359e565b606091505b50909250905081156135cf5780516000036135cf5760405163a85ba64f60e01b815260166004820152602401611174565b94509492505050565b60048151101561362a5760405162461bcd60e51b815260206004820152601a60248201527f43616c6c5574696c733a207461726765742072657665727428290000000000006044820152606401611174565b602081015163b1b7848f60e01b6001600160e01b03198216016136da5760408051808201825260208082527f43616c6c5574696c733a207461726765742070616e69636b65643a2030785f5f90820190815260248501517f43616c6c5574696c733a207461726765742070616e69636b65643a2030780000600482811c600f908116603090810160081b918516011791909117909252925162461bcd60e51b815291929161117491849101614bdc565b81518060208401fd5b600061370d7f360894a13ba1a3210667c828492db98dca3e2076cc3735a920a3ca505d382bbc5490565b6001600160a01b0316036137635760405162461bcd60e51b815260206004820152601d60248201527f5555505350726f786961626c653a206e6f742075706772616461626c650000006044820152606401611174565b806001600160a01b03166352d1902d6040518163ffffffff1660e01b8152600401602060405180830381865afa1580156137a1573d6000803e3d6000fd5b505050506040513d601f19601f820116820180604052508101906137c591906152c4565b7fcd355cae2c435f8c5e0c626c4691d22fd85aa7422a424c6f0bced6e64c7aba741461383f5760405162461bcd60e51b815260206004820152602360248201527f5555505350726f786961626c653a206e6f7420636f6d70617469626c65206c6f60448201526267696360e81b6064820152608401611174565b6001600160a01b03811630036138975760405162461bcd60e51b815260206004820152601960248201527f5555505350726f786961626c653a2070726f7879206c6f6f70000000000000006044820152606401611174565b6138bf817f360894a13ba1a3210667c828492db98dca3e2076cc3735a920a3ca505d382bbc55565b7fe011bc04c286c344a8fcbb8de77f953da762c3e25d8cdea984147fc4168a5dcc7fcd355cae2c435f8c5e0c626c4691d22fd85aa7422a424c6f0bced6e64c7aba74604080519182526001600160a01b038416602083015201611a21565b6040805160208101829052603260608201527f6f72672e7375706572666c7569642d66696e616e63652e7375706572666c756960808201527132173a393ab9ba32b22337b93bb0b93232b960711b60a08201526001600160a01b0383169181019190915260009060c0015b604051602081830303815290604052805190602001209050919050565b6000601836108015906139bc57506139bc33611afa565b613a005760405162461bcd60e51b81526020600482015260156024820152742737ba103a393ab9ba32b2103337b93bb0b93232b960591b6044820152606401611174565b5060131936013560601c90565b60005b818110156144b4576000838383818110613a2c57613a2c615306565b9050602002810190613a3e9190615660565b613a4c906020810190615676565b905060001963ffffffff821601613b4057600080858585818110613a7257613a72615306565b9050602002810190613a849190615660565b613a9290604081019061569c565b810190613a9f9190615298565b91509150858585818110613ab557613ab5615306565b9050602002810190613ac79190615660565b613ad8906040810190602001614a41565b6001600160a01b03166362aa52878884846040518463ffffffff1660e01b8152600401613b07939291906153e5565b600060405180830381600087803b158015613b2157600080fd5b505af1158015613b35573d6000803e3d6000fd5b5050505050506144ab565b60011963ffffffff821601613c4b576000806000868686818110613b6657613b66615306565b9050602002810190613b789190615660565b613b8690604081019061569c565b810190613b9391906156e2565b925092509250868686818110613bab57613bab615306565b9050602002810190613bbd9190615660565b613bce906040810190602001614a41565b604051630b682aeb60e11b81526001600160a01b038a81166004830152858116602483015284811660448301526064820184905291909116906316d055d6906084015b600060405180830381600087803b158015613c2b57600080fd5b505af1158015613c3f573d6000803e3d6000fd5b505050505050506144ab565b60021963ffffffff821601613d0a576000806000868686818110613c7157613c71615306565b9050602002810190613c839190615660565b613c9190604081019061569c565b810190613c9e9190615723565b925092509250868686818110613cb657613cb6615306565b9050602002810190613cc89190615660565b613cd9906040810190602001614a41565b6001600160a01b031663ca0c1e7f898585856040518563ffffffff1660e01b8152600401613c119493929190615765565b60031963ffffffff821601613dc357600080858585818110613d2e57613d2e615306565b9050602002810190613d409190615660565b613d4e90604081019061569c565b810190613d5b9190615298565b91509150858585818110613d7157613d71615306565b9050602002810190613d839190615660565b613d94906040810190602001614a41565b6001600160a01b0316634b2763b38884846040518463ffffffff1660e01b8152600401613b07939291906153e5565b60041963ffffffff821601613e7c57600080858585818110613de757613de7615306565b9050602002810190613df99190615660565b613e0790604081019061569c565b810190613e149190615298565b91509150858585818110613e2a57613e2a615306565b9050602002810190613e3c9190615660565b613e4d906040810190602001614a41565b6001600160a01b031663c780fd828884846040518463ffffffff1660e01b8152600401613b07939291906153e5565b60641963ffffffff821601613f7157838383818110613e9d57613e9d615306565b9050602002810190613eaf9190615660565b613ec0906040810190602001614a41565b6001600160a01b031663ca78946486868686818110613ee157613ee1615306565b9050602002810190613ef39190615660565b613f0190604081019061569c565b810190613f0e91906150c5565b6040516001600160e01b031960e085901b1681526001600160a01b0390921660048301526024820152604401600060405180830381600087803b158015613f5457600080fd5b505af1158015613f68573d6000803e3d6000fd5b505050506144ab565b60651963ffffffff821601613fd657838383818110613f9257613f92615306565b9050602002810190613fa49190615660565b613fb5906040810190602001614a41565b6001600160a01b031663245887fc86868686818110613ee157613ee1615306565b60661963ffffffff82160161408f57600080858585818110613ffa57613ffa615306565b905060200281019061400c9190615660565b61401a90604081019061569c565b8101906140279190615298565b9150915085858581811061403d5761403d615306565b905060200281019061404f9190615660565b614060906040810190602001614a41565b6001600160a01b0316631ae88ffc8884846040518463ffffffff1660e01b8152600401613b07939291906153e5565b60671963ffffffff821601614148576000808585858181106140b3576140b3615306565b90506020028101906140c59190615660565b6140d390604081019061569c565b8101906140e09190615298565b915091508585858181106140f6576140f6615306565b90506020028101906141089190615660565b614119906040810190602001614a41565b6001600160a01b03166347ba7ad18884846040518463ffffffff1660e01b8152600401613b07939291906153e5565b60c81963ffffffff8216016141e55760008085858581811061416c5761416c615306565b905060200281019061417e9190615660565b61418c90604081019061569c565b8101906141999190615798565b915091506141dd878787878181106141b3576141b3615306565b90506020028101906141c59190615660565b6141d6906040810190602001614a41565b848461320d565b5050506144ab565b60c91963ffffffff8216016142a05761429a8585858581811061420a5761420a615306565b905060200281019061421c9190615660565b61422d906040810190602001614a41565b4787878781811061424057614240615306565b90506020028101906142529190615660565b61426090604081019061569c565b8080601f016020809104026020016040519081016040528093929190818152602001838380828437600092019190915250612fd092505050565b506144ab565b61012c1963ffffffff8216016143c8576000807f00000000000000000000000000000000000000000000000000000000000000006001600160a01b03166322bee494478888888181106142f5576142f5615306565b90506020028101906143079190615660565b614318906040810190602001614a41565b89898981811061432a5761432a615306565b905060200281019061433c9190615660565b61434a90604081019061569c565b6040518563ffffffff1660e01b815260040161436893929190615812565b60006040518083038185885af1158015614386573d6000803e3d6000fd5b50505050506040513d6000823e601f3d908101601f191682016040526143af9190810190615837565b91509150816143c1576143c1816135d8565b50506144ab565b61012d1963ffffffff821601614492576000807f00000000000000000000000000000000000000000000000000000000000000006001600160a01b031663177ec5944788888881811061441d5761441d615306565b905060200281019061442f9190615660565b614440906040810190602001614a41565b8a8a8a8a81811061445357614453615306565b90506020028101906144659190615660565b61447390604081019061569c565b6040518663ffffffff1660e01b81526004016143689493929190615871565b60405163b477011560e01b815260040160405180910390fd5b50600101613a10565b504715612809576040516001600160a01b038416904780156108fc02916000818181858888f193505050501580156144f0573d6000803e3d6000fd5b50505050565b60006145028284614991565b6000805460405163407b865d60e11b81529293504292620100009091046001600160a01b0316916380f70cba9161453f91309187906004016153e5565b602060405180830381865afa15801561455c573d6000803e3d6000fd5b505050506040513d601f19601f8201168201806040525081019061458091906152c4565b101561280957604051630b56455f60e41b815260040160405180910390fd5b64ff000080ff1981161515806145b6575060ff8116155b806145c45750618000811615155b156145e257604051633d3200a960e21b815260040160405180910390fd5b6001600160a01b03821660009081526004602052604090205415614619576040516301b0a93560e01b815260040160405180910390fd5b60408051602080820183528382526001600160a01b038516600081815260049092528382209251909255915190917f0d540ad8f39e07d19909687352b9fa017405d93c91a6760981fbae9cf28bfef791a25050565b60006004825110156146c25760405162461bcd60e51b815260206004820152601b60248201527f43616c6c5574696c733a20696e76616c69642063616c6c4461746100000000006044820152606401611174565b506020015190565b6040805160208101829052603960608201527f6f72672e7375706572666c7569642d66696e616e63652e7375706572666c756960808201527f642e61707057686974654c697374696e672e666163746f72790000000000000060a08201526001600160a01b0383169181019190915260009060c001613988565b81518083015160609190801561476d576040516367e9985b60e01b815260040160405180910390fd5b50601f1981018452825184908481614784816148eb565b61478e91906152f3565b6001600160401b038111156147a5576147a5614bef565b6040519080825280601f01601f1916602001820160405280156147cf576020820181803683370190505b506040516020016147e3949392919061589e565b60405160208183030381529060405291505092915050565b600080606060005a9050866001600160a01b0316858760405161481e9190615644565b60006040518083038160008787f1925050503d806000811461485c576040519150601f19603f3d011682016040523d82523d6000602084013e614861565b606091505b50909450915083614882576148776040826158ec565b5a1161488257600192505b5093509350939050565b600080606060005a9050866001600160a01b031685876040516148af9190615644565b6000604051808303818686fa925050503d806000811461485c576040519150601f19603f3d011682016040523d82523d6000602084013e614861565b60008082601f16116148fe576000614901565b60015b60ff1661490f6020846158ec565b61491991906154b7565b61128a90602061590e565b60006001600160801b0382111561498d5760405162461bcd60e51b815260206004820152602760248201527f53616665436173743a2076616c756520646f65736e27742066697420696e20316044820152663238206269747360c81b6064820152608401611174565b5090565b600082826040516020016149a6929190615925565b60405160208183030381529060405280519060200120905092915050565b610249806159ab83390190565b604080516101608101825260008082526020820181905291810182905260608082018390526080820183905260a082015260c0810182905260e081018290526101008101829052610120810182905261014081019190915290565b6001600160a01b038116811461177757600080fd5b600060208284031215614a5357600080fd5b8135614a5e81614a2c565b9392505050565b60008060408385031215614a7857600080fd5b8235614a8381614a2c565b91506020830135614a9381614a2c565b809150509250929050565b60008083601f840112614ab057600080fd5b5081356001600160401b03811115614ac757600080fd5b602083019150836020828501011115614adf57600080fd5b9250929050565b801515811461177757600080fd5b60008060008060008060808789031215614b0d57600080fd5b8635614b1881614a2c565b955060208701356001600160401b03811115614b3357600080fd5b614b3f89828a01614a9e565b9096509450506040870135614b5381614ae6565b925060608701356001600160401b03811115614b6e57600080fd5b614b7a89828a01614a9e565b979a9699509497509295939492505050565b60005b83811015614ba7578181015183820152602001614b8f565b50506000910152565b60008151808452614bc8816020860160208601614b8c565b601f01601f19169290920160200192915050565b6020815260006112876020830184614bb0565b634e487b7160e01b600052604160045260246000fd5b604051601f8201601f191681016001600160401b0381118282101715614c2d57614c2d614bef565b604052919050565b60006001600160401b03821115614c4e57614c4e614bef565b50601f01601f191660200190565b600082601f830112614c6d57600080fd5b8135614c80614c7b82614c35565b614c05565b818152846020838601011115614c9557600080fd5b816020850160208301376000918101602001919091529392505050565b60008060408385031215614cc557600080fd5b8235614cd081614a2c565b915060208301356001600160401b03811115614ceb57600080fd5b614cf785828601614c5c565b9150509250929050565b600080600060608486031215614d1657600080fd5b8335614d2181614a2c565b925060208401356001600160401b03811115614d3c57600080fd5b614d4886828701614c5c565b92505060408401356001600160401b03811115614d6457600080fd5b614d7086828701614c5c565b9150509250925092565b600060208284031215614d8c57600080fd5b81356001600160401b03811115614da257600080fd5b61145c84828501614c5c565b60208152614dc260208201835160ff169052565b60006020830151614dd8604084018260ff169052565b50604083015160608301526060830151614dfd60808401826001600160a01b03169052565b5060808301516001600160e01b0319811660a08401525060a083015161016060c0840152614e2f610180840182614bb0565b905060c084015160e084015260e0840151610100840152610100840151610120840152610120840151614e6e6101408501826001600160a01b03169052565b506101408401516001600160a01b038116610160850152509392505050565b60008060008060008060006080888a031215614ea857600080fd5b8735614eb381614a2c565b965060208801356001600160401b03811115614ece57600080fd5b614eda8a828b01614a9e565b90975095505060408801356001600160401b03811115614ef957600080fd5b614f058a828b01614a9e565b90955093505060608801356001600160401b03811115614f2457600080fd5b614f308a828b01614a9e565b989b979a50959850939692959293505050565b604081526000614f566040830185614bb0565b82810360208401526121ae8185614bb0565b600080600060408486031215614f7d57600080fd5b83356001600160401b03811115614f9357600080fd5b614f9f86828701614a9e565b909790965060209590950135949350505050565b60008060208385031215614fc657600080fd5b82356001600160401b03811115614fdc57600080fd5b8301601f81018513614fed57600080fd5b80356001600160401b0381111561500357600080fd5b8560208260051b840101111561501857600080fd5b6020919091019590945092505050565b60008060008060008060a0878903121561504157600080fd5b86356001600160401b0381111561505757600080fd5b61506389828a01614a9e565b909750955050602087013561507781614a2c565b93506040870135925060608701359150608087013561509581614a2c565b809150509295509295509295565b600080604083850312156150b657600080fd5b50508035926020909101359150565b6000602082840312156150d757600080fd5b5035919050565b600080600080606085870312156150f457600080fd5b84356001600160401b0381111561510a57600080fd5b61511687828801614a9e565b909550935050602085013561512a81614a2c565b9396929550929360400135925050565b60008060008060006060868803121561515257600080fd5b853561515d81614a2c565b945060208601356001600160401b0381111561517857600080fd5b61518488828901614a9e565b90955093505060408601356001600160401b038111156151a357600080fd5b6151af88828901614a9e565b969995985093965092949392505050565b6000806000604084860312156151d557600080fd5b8335925060208401356001600160401b038111156151f257600080fd5b6151fe86828701614a9e565b9497909650939450505050565b6000806020838503121561521e57600080fd5b82356001600160401b0381111561523457600080fd5b61524085828601614a9e565b90969095509350505050565b602080825282518282018190526000918401906040840190835b8181101561528d5783516001600160a01b0316835260209384019390920191600101615266565b509095945050505050565b600080604083850312156152ab57600080fd5b82356152b681614a2c565b946020939093013593505050565b6000602082840312156152d657600080fd5b5051919050565b634e487b7160e01b600052601160045260246000fd5b8181038181111561128a5761128a6152dd565b634e487b7160e01b600052603260045260246000fd5b634e487b7160e01b600052600160045260246000fd5b600082601f83011261534357600080fd5b8151615351614c7b82614c35565b81815284602083860101111561536657600080fd5b61145c826020830160208701614b8c565b60006020828403121561538957600080fd5b81516001600160401b0381111561539f57600080fd5b61145c84828501615332565b6000602082840312156153bd57600080fd5b8151614a5e81614a2c565b6000602082840312156153da57600080fd5b8151614a5e81614ae6565b6001600160a01b039384168152919092166020820152604081019190915260600190565b8082018281126000831280158216821582161715615429576154296152dd565b505092915050565b600060ff821660ff8103615447576154476152dd565b60010192915050565b6020808252602e908201527f496e697469616c697a61626c653a20636f6e747261637420697320616c72656160408201526d191e481a5b9a5d1a585b1a5e995960921b606082015260800190565b6000600182016154b0576154b06152dd565b5060010190565b8082018082111561128a5761128a6152dd565b600080604083850312156154dd57600080fd5b82516001600160401b038111156154f357600080fd5b6154ff85828601615332565b92505060208301516001600160401b0381111561551b57600080fd5b614cf785828601615332565b600080600080600060a0868803121561553f57600080fd5b855160208701516040880151919650945061555981614a2c565b60608701519093506001600160e01b03198116811461557757600080fd5b60808701519092506001600160401b0381111561559357600080fd5b61559f88828901615332565b9150509295509295909350565b600080600080608085870312156155c257600080fd5b84516020860151604087015191955093506155dc81614a2c565b60608601519092506155ed81614a2c565b939692955090935050565b858152602081018590526001600160a01b03841660408201526001600160e01b03198316606082015260a06080820181905260009061563990830184614bb0565b979650505050505050565b60008251615656818460208701614b8c565b9190910192915050565b60008235605e1983360301811261565657600080fd5b60006020828403121561568857600080fd5b813563ffffffff81168114614a5e57600080fd5b6000808335601e198436030181126156b357600080fd5b8301803591506001600160401b038211156156cd57600080fd5b602001915036819003821315614adf57600080fd5b6000806000606084860312156156f757600080fd5b833561570281614a2c565b9250602084013561571281614a2c565b929592945050506040919091013590565b60008060006060848603121561573857600080fd5b833561574381614a2c565b92506020840135915060408401356001600160401b03811115614d6457600080fd5b6001600160a01b0385811682528416602082015260408101839052608060608201819052600090611c5c90830184614bb0565b600080604083850312156157ab57600080fd5b82356001600160401b038111156157c157600080fd5b6157cd85828601614c5c565b92505060208301356001600160401b03811115614ceb57600080fd5b81835281816020850137506000828201602090810191909152601f909101601f19169091010190565b6001600160a01b03841681526040602082018190526000906121ae90830184866157e9565b6000806040838503121561584a57600080fd5b825161585581614ae6565b60208401519092506001600160401b0381111561551b57600080fd5b6001600160a01b03858116825284166020820152606060408201819052600090611c5c90830184866157e9565b600085516158b0818460208a01614b8c565b820185815284516158c8816020808501908901614b8c565b84519101906158de816020808501908801614b8c565b016020019695505050505050565b60008261590957634e487b7160e01b600052601260045260246000fd5b500490565b808202811582820484141761128a5761128a6152dd565b60608152604160608201527f6f72672e7375706572666c7569642d66696e616e63652e7375706572666c756960808201527f642e61707057686974654c697374696e672e726567697374726174696f6e4b6560a0820152607960f81b60c082015260018060a01b038316602082015260e06040820152600061145c60e0830184614bb056fe6080604052348015600f57600080fd5b5061022a8061001f6000396000f3fe6080604052600436106100225760003560e01c80634a0687ef1461003957610031565b366100315761002f610059565b005b61002f610059565b34801561004557600080fd5b5061002f6100543660046101c4565b61006b565b610069610064610171565b6101a0565b565b6001600160a01b0381166100c65760405162461bcd60e51b815260206004820152601760248201527f5555505350726f78793a207a65726f206164647265737300000000000000000060448201526064015b60405180910390fd5b60006100f07f360894a13ba1a3210667c828492db98dca3e2076cc3735a920a3ca505d382bbc5490565b6001600160a01b0316146101465760405162461bcd60e51b815260206004820152601e60248201527f5555505350726f78793a20616c726561647920696e697469616c697a6564000060448201526064016100bd565b61016e817f360894a13ba1a3210667c828492db98dca3e2076cc3735a920a3ca505d382bbc55565b50565b600061019b7f360894a13ba1a3210667c828492db98dca3e2076cc3735a920a3ca505d382bbc5490565b905090565b3660008037600080366000845af43d6000803e8080156101bf573d6000f35b3d6000fd5b6000602082840312156101d657600080fd5b81356001600160a01b03811681146101ed57600080fd5b939250505056fea2646970667358221220fae816317186d33a564ddff3a944af220df3c9025c6f9ffcae9cd4a4a7a4b19164736f6c634300081a0033a26469706673582212206f737aace4f2d166608eea718cf4538b84a1b10957fce689341d57920dee3ad364736f6c634300081a00336080604052348015600f57600080fd5b50601733601b565b606b565b600080546001600160a01b038381166001600160a01b0319831681178455604051919092169283917f8be0079c531659141344cd1fd0a4f28419497f9722a3daafe3b4186f6b6457e09190a35050565b6104488061007a6000396000f3fe60806040526004361061004a5760003560e01c806322bee4941461004f578063715018a6146100795780638da5cb5b14610090578063a2852784146100b8578063f2fde38b146100d8575b600080fd5b61006261005d366004610300565b6100f8565b604051610070929190610387565b60405180910390f35b34801561008557600080fd5b5061008e61016e565b005b34801561009c57600080fd5b506000546040516001600160a01b039091168152602001610070565b3480156100c457600080fd5b5061008e6100d33660046103de565b610182565b3480156100e457600080fd5b5061008e6100f33660046103de565b6101c3565b60006060610104610241565b846001600160a01b031634858560405161011f929190610402565b60006040518083038185875af1925050503d806000811461015c576040519150601f19603f3d011682016040523d82523d6000602084013e610161565b606091505b5090969095509350505050565b610176610241565b610180600061029b565b565b61018a610241565b6040516001600160a01b038216904780156108fc02916000818181858888f193505050501580156101bf573d6000803e3d6000fd5b5050565b6101cb610241565b6001600160a01b0381166102355760405162461bcd60e51b815260206004820152602660248201527f4f776e61626c653a206e6577206f776e657220697320746865207a65726f206160448201526564647265737360d01b60648201526084015b60405180910390fd5b61023e8161029b565b50565b6000546001600160a01b031633146101805760405162461bcd60e51b815260206004820181905260248201527f4f776e61626c653a2063616c6c6572206973206e6f7420746865206f776e6572604482015260640161022c565b600080546001600160a01b038381166001600160a01b0319831681178455604051919092169283917f8be0079c531659141344cd1fd0a4f28419497f9722a3daafe3b4186f6b6457e09190a35050565b6001600160a01b038116811461023e57600080fd5b60008060006040848603121561031557600080fd5b8335610320816102eb565b9250602084013567ffffffffffffffff81111561033c57600080fd5b8401601f8101861361034d57600080fd5b803567ffffffffffffffff81111561036457600080fd5b86602082840101111561037657600080fd5b939660209190910195509293505050565b8215158152604060208201526000825180604084015260005b818110156103bd57602081860181015160608684010152016103a0565b506000606082850101526060601f19601f8301168401019150509392505050565b6000602082840312156103f057600080fd5b81356103fb816102eb565b9392505050565b818382376000910190815291905056fea2646970667358221220cef1d80bfc05214f813663c6b7c68eb2ad43314df6c45a1b06ae908ab19b0d3164736f6c634300081a0033",
  "immutableReferences": {
    "49701": [
      {
        "length": 32,
        "start": 2654
      },
      {
        "length": 32,
        "start": 2984
      },
      {
        "length": 32,
        "start": 3785
      },
      {
        "length": 32,
        "start": 5809
      },
      {
        "length": 32,
        "start": 6124
      },
      {
        "length": 32,
        "start": 6475
      },
      {
        "length": 32,
        "start": 10932
      }
    ],
    "49703": [
      {
        "length": 32,
        "start": 2124
      },
      {
        "length": 32,
        "start": 8894
      },
      {
        "length": 32,
        "start": 10138
      },
      {
        "length": 32,
        "start": 10821
      },
      {
        "length": 32,
        "start": 11148
      }
    ],
    "49705": [
      {
        "length": 32,
        "start": 1194
      },
      {
        "length": 32,
        "start": 11876
      }
    ],
    "49708": [
      {
        "length": 32,
        "start": 2806
      },
      {
        "length": 32,
        "start": 17077
      }
    ],
    "49711": [
      {
        "length": 32,
        "start": 1108
      },
      {
        "length": 32,
        "start": 17373
      }
    ]
  },
  "source": "// SPDX-License-Identifier: AGPLv3\npragma solidity ^0.8.23;\n\nimport { SafeCast } from \"@openzeppelin/contracts/utils/math/SafeCast.sol\";\nimport { UUPSProxiable } from \"../upgradability/UUPSProxiable.sol\";\nimport { UUPSProxy } from \"../upgradability/UUPSProxy.sol\";\n\nimport {\n    ISuperfluid,\n    ISuperfluidGovernance,\n    ISuperAgreement,\n    ISuperApp,\n    SuperAppDefinitions,\n    ContextDefinitions,\n    BatchOperation,\n    SuperfluidGovernanceConfigs,\n    ISuperfluidToken,\n    ISuperToken,\n    ISuperTokenFactory\n} from \"../interfaces/superfluid/ISuperfluid.sol\";\nimport { GeneralDistributionAgreementV1 } from \"../agreements/gdav1/GeneralDistributionAgreementV1.sol\";\nimport { SuperfluidUpgradeableBeacon } from \"../upgradability/SuperfluidUpgradeableBeacon.sol\";\nimport { CallUtils } from \"../libs/CallUtils.sol\";\nimport { CallbackUtils } from \"../libs/CallbackUtils.sol\";\nimport { BaseRelayRecipient } from \"../libs/BaseRelayRecipient.sol\";\nimport { SimpleForwarder } from \"../utils/SimpleForwarder.sol\";\nimport { ERC2771Forwarder } from \"../utils/ERC2771Forwarder.sol\";\n\n/**\n * @dev The Superfluid host implementation.\n *\n * NOTE:\n * - Please read ISuperfluid for implementation notes.\n * - For some deeper technical notes, please visit protocol-monorepo wiki area.\n *\n * @author Superfluid\n */\ncontract Superfluid is\n    UUPSProxiable,\n    ISuperfluid,\n    BaseRelayRecipient\n{\n\n    using SafeCast for uint256;\n\n    struct AppManifest {\n        uint256 configWord;\n    }\n\n    // solhint-disable-next-line var-name-mixedcase\n    bool immutable public NON_UPGRADABLE_DEPLOYMENT;\n\n    // solhint-disable-next-line var-name-mixedcase\n    bool immutable public APP_WHITE_LISTING_ENABLED;\n\n    uint64 immutable public CALLBACK_GAS_LIMIT;\n\n    // simple forwarder contract used to relay arbitrary calls for batch operations\n    // Note: address will change with every contract upgrade\n    SimpleForwarder immutable public SIMPLE_FORWARDER;\n    ERC2771Forwarder immutable internal _ERC2771_FORWARDER;\n\n    /**\n     * @dev Maximum number of level of apps can be composed together\n     *\n     * NOTE:\n     * - TODO Composite app feature is currently disabled. Hence app cannot\n     *   will not be able to call other app.\n     */\n    // solhint-disable-next-line var-name-mixedcase\n    uint constant public MAX_APP_CALLBACK_LEVEL = 1;\n\n    uint32 constant public MAX_NUM_AGREEMENTS = 256;\n\n    /* WARNING: NEVER RE-ORDER VARIABLES! Always double-check that new\n       variables are added APPEND-ONLY. Re-ordering variables can\n       permanently BREAK the deployed proxy contract. */\n\n    /// @dev Governance contract\n    ISuperfluidGovernance internal _gov;\n\n    /// @dev Agreement list indexed by agreement index minus one\n    ISuperAgreement[] internal _agreementClasses;\n    /// @dev Mapping between agreement type to agreement index (starting from 1)\n    mapping (bytes32 => uint) internal _agreementClassIndices;\n\n    /// @dev Super token\n    ISuperTokenFactory internal _superTokenFactory;\n\n    /// @dev App manifests\n    mapping(ISuperApp => AppManifest) internal _appManifests;\n    /// @dev Composite app white-listing: source app => (target app => isAllowed)\n    mapping(ISuperApp => mapping(ISuperApp => bool)) internal _compositeApps;\n    /// @dev Ctx stamp of the current transaction, it should always be cleared to\n    ///      zero before transaction finishes\n    bytes32 internal _ctxStamp;\n    /// @dev if app whitelisting is enabled, this is to make sure the keys are used only once\n    mapping(bytes32 => bool) internal _appKeysUsedDeprecated;\n\n    /// NOTE: Whenever modifying the storage layout here it is important to update the validateStorageLayout\n    /// function in its respective mock contract to ensure that it doesn't break anything or lead to unexpected\n    /// behaviors/layout when upgrading\n\n    constructor(\n        bool nonUpgradable,\n        bool appWhiteListingEnabled,\n        uint64 callbackGasLimit,\n        address erc2771ForwarderAddress\n    ) {\n        NON_UPGRADABLE_DEPLOYMENT = nonUpgradable;\n        APP_WHITE_LISTING_ENABLED = appWhiteListingEnabled;\n        CALLBACK_GAS_LIMIT = callbackGasLimit;\n        _ERC2771_FORWARDER = ERC2771Forwarder(erc2771ForwarderAddress);\n        SIMPLE_FORWARDER = new SimpleForwarder();\n    }\n\n    ////////////////////////////////////////////////////////////////////////////////////////////////////////////////////\n    // UUPSProxiable\n    ////////////////////////////////////////////////////////////////////////////////////////////////////////////////////\n\n    function initialize(\n        ISuperfluidGovernance gov\n    )\n        external\n        initializer // OpenZeppelin Initializable\n    {\n        _gov = gov;\n    }\n\n    function proxiableUUID() public pure override returns (bytes32) {\n        return keccak256(\"org.superfluid-finance.contracts.Superfluid.implementation\");\n    }\n\n    function updateCode(address newAddress) external override onlyGovernance {\n        if (NON_UPGRADABLE_DEPLOYMENT) revert HOST_NON_UPGRADEABLE();\n        if (Superfluid(newAddress).NON_UPGRADABLE_DEPLOYMENT()) revert HOST_CANNOT_DOWNGRADE_TO_NON_UPGRADEABLE();\n        _updateCodeAddress(newAddress);\n    }\n\n    ////////////////////////////////////////////////////////////////////////////////////////////////////////////////////\n    // Time\n    ////////////////////////////////////////////////////////////////////////////////////////////////////////////////////\n\n    function getNow() public view  returns (uint256) {\n        // solhint-disable-next-line not-rely-on-time\n        return block.timestamp;\n    }\n\n    ////////////////////////////////////////////////////////////////////////////////////////////////////////////////////\n    // Governance\n    ////////////////////////////////////////////////////////////////////////////////////////////////////////////////////\n\n    function getGovernance() external view override returns (ISuperfluidGovernance) {\n        return _gov;\n    }\n\n    function replaceGovernance(ISuperfluidGovernance newGov) external override onlyGovernance {\n        emit GovernanceReplaced(_gov, newGov);\n        _gov = newGov;\n    }\n\n    /**************************************************************************\n     * Agreement Whitelisting\n     *************************************************************************/\n\n    function registerAgreementClass(ISuperAgreement agreementClassLogic) external onlyGovernance override {\n        bytes32 agreementType = agreementClassLogic.agreementType();\n        if (_agreementClassIndices[agreementType] != 0) {\n            revert HOST_AGREEMENT_ALREADY_REGISTERED();\n        }\n        if (_agreementClasses.length >= MAX_NUM_AGREEMENTS) revert HOST_MAX_256_AGREEMENTS();\n        ISuperAgreement agreementClass;\n        if (!NON_UPGRADABLE_DEPLOYMENT) {\n            // initialize the proxy\n            UUPSProxy proxy = new UUPSProxy();\n            proxy.initializeProxy(address(agreementClassLogic));\n            agreementClass = ISuperAgreement(address(proxy));\n        } else {\n            agreementClass = ISuperAgreement(address(agreementClassLogic));\n        }\n        // register the agreement proxy\n        _agreementClasses.push((agreementClass));\n        _agreementClassIndices[agreementType] = _agreementClasses.length;\n        emit AgreementClassRegistered(agreementType, address(agreementClassLogic));\n    }\n\n    function updateAgreementClass(ISuperAgreement agreementClassLogic) external onlyGovernance override {\n        if (NON_UPGRADABLE_DEPLOYMENT) revert HOST_NON_UPGRADEABLE();\n        bytes32 agreementType = agreementClassLogic.agreementType();\n        uint idx = _agreementClassIndices[agreementType];\n        if (idx == 0) {\n            revert HOST_AGREEMENT_IS_NOT_REGISTERED();\n        }\n        UUPSProxiable proxiable = UUPSProxiable(address(_agreementClasses[idx - 1]));\n        proxiable.updateCode(address(agreementClassLogic));\n        emit AgreementClassUpdated(agreementType, address(agreementClassLogic));\n    }\n\n    function isAgreementTypeListed(bytes32 agreementType)\n        external view override\n        returns (bool yes)\n    {\n        uint idx = _agreementClassIndices[agreementType];\n        return idx != 0;\n    }\n\n    function isAgreementClassListed(ISuperAgreement agreementClass)\n        public view override\n        returns (bool yes)\n    {\n        bytes32 agreementType = agreementClass.agreementType();\n        uint idx = _agreementClassIndices[agreementType];\n        // it should also be the same agreement class proxy address\n        return idx != 0 && _agreementClasses[idx - 1] == agreementClass;\n    }\n\n    function getAgreementClass(bytes32 agreementType)\n        external view override\n        returns(ISuperAgreement agreementClass)\n    {\n        uint idx = _agreementClassIndices[agreementType];\n        if (idx == 0) {\n            revert HOST_AGREEMENT_IS_NOT_REGISTERED();\n        }\n        return ISuperAgreement(_agreementClasses[idx - 1]);\n    }\n\n    function mapAgreementClasses(uint256 bitmap)\n        external view override\n        returns (ISuperAgreement[] memory agreementClasses) {\n        uint i;\n        uint n;\n        // create memory output using the counted size\n        agreementClasses = new ISuperAgreement[](_agreementClasses.length);\n        // add to the output\n        n = 0;\n        for (i = 0; i < _agreementClasses.length; ++i) {\n            if ((bitmap & (1 << i)) > 0) {\n                agreementClasses[n++] = _agreementClasses[i];\n            }\n        }\n        // resize memory arrays\n        assembly { mstore(agreementClasses, n) }\n    }\n\n    function addToAgreementClassesBitmap(uint256 bitmap, bytes32 agreementType)\n        external view override\n        returns (uint256 newBitmap)\n    {\n        uint idx = _agreementClassIndices[agreementType];\n        if (idx == 0) {\n            revert HOST_AGREEMENT_IS_NOT_REGISTERED();\n        }\n        return bitmap | (1 << (idx - 1));\n    }\n\n    function removeFromAgreementClassesBitmap(uint256 bitmap, bytes32 agreementType)\n        external view override\n        returns (uint256 newBitmap)\n    {\n        uint idx = _agreementClassIndices[agreementType];\n        if (idx == 0) {\n            revert HOST_AGREEMENT_IS_NOT_REGISTERED();\n        }\n        return bitmap & ~(1 << (idx - 1));\n    }\n\n    ////////////////////////////////////////////////////////////////////////////////////////////////////////////////////\n    // Super Token Factory\n    ////////////////////////////////////////////////////////////////////////////////////////////////////////////////////\n\n    function getSuperTokenFactory()\n        external view override\n        returns (ISuperTokenFactory factory)\n    {\n        return _superTokenFactory;\n    }\n\n    function getSuperTokenFactoryLogic()\n        external view override\n        returns (address logic)\n    {\n        assert(address(_superTokenFactory) != address(0));\n        if (NON_UPGRADABLE_DEPLOYMENT) return address(_superTokenFactory);\n        else return UUPSProxiable(address(_superTokenFactory)).getCodeAddress();\n    }\n\n    function updateSuperTokenFactory(ISuperTokenFactory newFactory)\n        external override\n        onlyGovernance\n    {\n        if (address(_superTokenFactory) == address(0)) {\n            if (!NON_UPGRADABLE_DEPLOYMENT) {\n                // initialize the proxy\n                UUPSProxy proxy = new UUPSProxy();\n                proxy.initializeProxy(address(newFactory));\n                _superTokenFactory = ISuperTokenFactory(address(proxy));\n            } else {\n                _superTokenFactory = newFactory;\n            }\n            _superTokenFactory.initialize();\n        } else {\n            if (NON_UPGRADABLE_DEPLOYMENT) revert HOST_NON_UPGRADEABLE();\n            UUPSProxiable(address(_superTokenFactory)).updateCode(address(newFactory));\n        }\n        emit SuperTokenFactoryUpdated(_superTokenFactory);\n    }\n\n    function updateSuperTokenLogic(ISuperToken token, address newLogicOverride)\n        external override\n        onlyGovernance\n    {\n        address newLogic = newLogicOverride != address(0) ?\n            newLogicOverride :\n            address(_superTokenFactory.getSuperTokenLogic());\n\n        // assuming it's uups proxiable\n        UUPSProxiable(address(token)).updateCode(newLogic);\n        emit SuperTokenLogicUpdated(token, newLogic);\n    }\n\n    function changeSuperTokenAdmin(ISuperToken token, address newAdmin) external onlyGovernance {\n        token.changeAdmin(newAdmin);\n    }\n\n    ////////////////////////////////////////////////////////////////////////////////////////////////////////////////////\n    // Superfluid Upgradeable Beacon\n    ////////////////////////////////////////////////////////////////////////////////////////////////////////////////////\n\n    /// @inheritdoc ISuperfluid\n    function updatePoolBeaconLogic(address newLogic) external override onlyGovernance {\n        GeneralDistributionAgreementV1 gda = GeneralDistributionAgreementV1(\n            address(\n                this.getAgreementClass(keccak256(\"org.superfluid-finance.agreements.GeneralDistributionAgreement.v1\"))\n            )\n        );\n        SuperfluidUpgradeableBeacon beacon = SuperfluidUpgradeableBeacon(address(gda.superfluidPoolBeacon()));\n        beacon.upgradeTo(newLogic);\n\n        emit PoolBeaconLogicUpdated(address(beacon), newLogic);\n    }\n\n    ////////////////////////////////////////////////////////////////////////////////////////////////////////////////////\n    // App Registry\n    ////////////////////////////////////////////////////////////////////////////////////////////////////////////////////\n\n    /// @inheritdoc ISuperfluid\n    function registerApp(uint256 configWord) external override {\n        if (APP_WHITE_LISTING_ENABLED) {\n            // for historical reasons, we internal use \"k1\" as default registration key\n            // solhint-disable-next-line avoid-tx-origin\n            _enforceAppRegistrationPermissioning(\"k1\", tx.origin);\n        }\n        _registerApp(ISuperApp(msg.sender), configWord);\n    }\n\n    /// @inheritdoc ISuperfluid\n    function registerApp(ISuperApp app, uint256 configWord) external override {\n        // Cannot register an EOA as SuperApp\n        if ((address(app)).code.length == 0) revert HOST_MUST_BE_CONTRACT();\n        if (APP_WHITE_LISTING_ENABLED) {\n            _enforceAppRegistrationPermissioning(\"k1\", msg.sender);\n        }\n        _registerApp(app, configWord);\n    }\n\n    /// @custom:deprecated\n    function registerAppWithKey(uint256 configWord, string calldata registrationKey)\n        external override\n    {\n        if (APP_WHITE_LISTING_ENABLED) {\n            // solhint-disable-next-line avoid-tx-origin\n            _enforceAppRegistrationPermissioning(registrationKey, tx.origin);\n        }\n        _registerApp(ISuperApp(msg.sender), configWord);\n    }\n\n    // internally we keep using the gov config method with key\n    function _enforceAppRegistrationPermissioning(string memory registrationKey, address deployer) internal view {\n        bytes32 configKey = SuperfluidGovernanceConfigs.getAppRegistrationConfigKey(\n            // solhint-disable-next-line avoid-tx-origin\n            deployer,\n            registrationKey\n        );\n        // check if the key is valid and not expired\n        if (\n            _gov.getConfigAsUint256(\n                this,\n                ISuperfluidToken(address(0)),\n                configKey\n            // solhint-disable-next-line not-rely-on-time\n            ) < block.timestamp)\n        {\n            revert HOST_NO_APP_REGISTRATION_PERMISSION();\n        }\n    }\n\n    /// @custom:deprecated\n    function registerAppByFactory(ISuperApp app, uint256 configWord) external override {\n        // Cannot register an EOA as SuperApp\n        if ((address(app)).code.length == 0) revert HOST_MUST_BE_CONTRACT();\n        if (APP_WHITE_LISTING_ENABLED) {\n            // enforce permissiniong with legacy gov config key for app factory\n            bytes32 configKey = SuperfluidGovernanceConfigs.getAppFactoryConfigKey(msg.sender);\n            bool isAuthorizedAppFactory = _gov.getConfigAsUint256(this, ISuperfluidToken(address(0)), configKey) == 1;\n            if (!isAuthorizedAppFactory) revert HOST_NO_APP_REGISTRATION_PERMISSION();\n            // We do not enforce any assumptions about what a \"factory\" is. It is whatever gov decided to.\n        }\n        _registerApp(app, configWord);\n    }\n\n    function _registerApp(ISuperApp app, uint256 configWord) private {\n        // validate configWord\n        if (\n            !SuperAppDefinitions.isConfigWordClean(configWord) ||\n            SuperAppDefinitions.getAppCallbackLevel(configWord) == 0 ||\n            (configWord & SuperAppDefinitions.APP_JAIL_BIT) != 0\n        ) {\n            revert HOST_INVALID_CONFIG_WORD();\n        }\n\n        if (_appManifests[ISuperApp(app)].configWord != 0) revert HOST_SUPER_APP_ALREADY_REGISTERED();\n        _appManifests[ISuperApp(app)] = AppManifest(configWord);\n        emit AppRegistered(app);\n    }\n\n    function isApp(ISuperApp app) public view override returns(bool) {\n        return _appManifests[app].configWord > 0;\n    }\n\n    function getAppCallbackLevel(ISuperApp appAddr) public override view returns(uint8) {\n        return SuperAppDefinitions.getAppCallbackLevel(_appManifests[appAddr].configWord);\n    }\n\n    function getAppManifest(\n        ISuperApp app\n    )\n        external view override\n        returns (\n            bool isSuperApp,\n            bool isJailed,\n            uint256 noopMask\n        )\n    {\n        AppManifest memory manifest = _appManifests[app];\n        isSuperApp = (manifest.configWord > 0);\n        if (isSuperApp) {\n            isJailed = SuperAppDefinitions.isAppJailed(manifest.configWord);\n            noopMask = manifest.configWord & SuperAppDefinitions.AGREEMENT_CALLBACK_NOOP_BITMASKS;\n        }\n    }\n\n    function isAppJailed(\n        ISuperApp app\n    )\n        external view override\n        returns(bool)\n    {\n        return SuperAppDefinitions.isAppJailed(_appManifests[app].configWord);\n    }\n\n    function allowCompositeApp(\n        ISuperApp targetApp\n    )\n        external override\n    {\n        ISuperApp sourceApp = ISuperApp(msg.sender);\n        if (!isApp(sourceApp)) revert HOST_SENDER_IS_NOT_SUPER_APP();\n        if (!isApp(targetApp)) revert HOST_RECEIVER_IS_NOT_SUPER_APP();\n        if (getAppCallbackLevel(sourceApp) <= getAppCallbackLevel(targetApp)) {\n            revert HOST_SOURCE_APP_NEEDS_HIGHER_APP_LEVEL();\n        }\n        _compositeApps[sourceApp][targetApp] = true;\n    }\n\n    function isCompositeAppAllowed(\n        ISuperApp app,\n        ISuperApp targetApp\n    )\n        external view override\n        returns (bool)\n    {\n        return _compositeApps[app][targetApp];\n    }\n\n    /**************************************************************************\n     * Agreement Framework\n     *************************************************************************/\n\n    function callAppBeforeCallback(\n        ISuperApp app,\n        bytes calldata callData,\n        bool isTermination,\n        bytes calldata ctx\n    )\n        external override\n        onlyAgreement\n        assertValidCtx(ctx)\n        returns(bytes memory cbdata)\n    {\n        (bool success, bytes memory returnedData) = _callCallback(app, true, isTermination, callData, ctx);\n        if (success) {\n            if (CallUtils.isValidAbiEncodedBytes(returnedData)) {\n                cbdata = abi.decode(returnedData, (bytes));\n            } else {\n                if (!isTermination) {\n                    revert APP_RULE(SuperAppDefinitions.APP_RULE_CTX_IS_MALFORMATED);\n                } else {\n                    _jailApp(app, SuperAppDefinitions.APP_RULE_CTX_IS_MALFORMATED);\n                }\n            }\n        }\n    }\n\n    function callAppAfterCallback(\n        ISuperApp app,\n        bytes calldata callData,\n        bool isTermination,\n        bytes calldata ctx\n    )\n        external override\n        onlyAgreement\n        assertValidCtx(ctx)\n        returns(bytes memory newCtx)\n    {\n        (bool success, bytes memory returnedData) = _callCallback(app, false, isTermination, callData, ctx);\n        if (success) {\n            // the non static callback should not return empty ctx\n            if (CallUtils.isValidAbiEncodedBytes(returnedData)) {\n                newCtx = abi.decode(returnedData, (bytes));\n                if (!_isCtxValid(newCtx)) {\n                    if (!isTermination) {\n                        revert APP_RULE(SuperAppDefinitions.APP_RULE_CTX_IS_READONLY);\n                    } else {\n                        newCtx = ctx;\n                        _jailApp(app, SuperAppDefinitions.APP_RULE_CTX_IS_READONLY);\n                    }\n                }\n            } else {\n                if (!isTermination) {\n                    revert APP_RULE(SuperAppDefinitions.APP_RULE_CTX_IS_MALFORMATED);\n                } else {\n                    newCtx = ctx;\n                    _jailApp(app, SuperAppDefinitions.APP_RULE_CTX_IS_MALFORMATED);\n                }\n            }\n        } else {\n            newCtx = ctx;\n        }\n    }\n\n    function appCallbackPush(\n        bytes calldata ctx,\n        ISuperApp app,\n        uint256 appCreditGranted,\n        int256 appCreditUsed,\n        ISuperfluidToken appCreditToken\n    )\n        external override\n        onlyAgreement\n        assertValidCtx(ctx)\n        returns (bytes memory appCtx)\n    {\n        Context memory context = decodeCtx(ctx);\n        // NOTE: we use 1 as a magic number here as we want to do this check once we are in a callback\n        // we use 1 instead of MAX_APP_CALLBACK_LEVEL because 1 captures what we are trying to enforce\n        if (isApp(ISuperApp(context.msgSender)) && context.appCallbackLevel >= 1) {\n            if (!_compositeApps[ISuperApp(context.msgSender)][app]) {\n                revert APP_RULE(SuperAppDefinitions.APP_RULE_COMPOSITE_APP_IS_NOT_WHITELISTED);\n            }\n        }\n        context.appCallbackLevel++;\n        context.callType = ContextDefinitions.CALL_INFO_CALL_TYPE_APP_CALLBACK;\n        context.appCreditGranted = appCreditGranted;\n        context.appCreditUsed = appCreditUsed;\n        context.appAddress = address(app);\n        context.appCreditToken = appCreditToken;\n        appCtx = _updateContext(context);\n    }\n\n    function appCallbackPop(\n        bytes calldata ctx,\n        int256 appCreditUsedDelta\n    )\n        external override\n        onlyAgreement\n        returns (bytes memory newCtx)\n    {\n        Context memory context = decodeCtx(ctx);\n        context.appCreditUsed += appCreditUsedDelta;\n        newCtx = _updateContext(context);\n    }\n\n    function ctxUseCredit(\n        bytes calldata ctx,\n        int256 appCreditUsedMore\n    )\n        external override\n        onlyAgreement\n        assertValidCtx(ctx)\n        returns (bytes memory newCtx)\n    {\n        Context memory context = decodeCtx(ctx);\n        context.appCreditUsed += appCreditUsedMore;\n\n        newCtx = _updateContext(context);\n    }\n\n    function jailApp(\n        bytes calldata ctx,\n        ISuperApp app,\n        uint256 reason\n    )\n        external override\n        onlyAgreement\n        assertValidCtx(ctx)\n        returns (bytes memory newCtx)\n    {\n        _jailApp(app, reason);\n        return ctx;\n    }\n\n    /**************************************************************************\n    * Contextless Call Proxies\n    *************************************************************************/\n\n    function _callAgreement(\n        address msgSender,\n        ISuperAgreement agreementClass,\n        bytes memory callData,\n        bytes memory userData\n    )\n        internal\n        cleanCtx\n        isAgreement(agreementClass)\n        returns(bytes memory returnedData)\n    {\n        // beware of the endianness\n        bytes4 agreementSelector = CallUtils.parseSelector(callData);\n\n        //Build context data\n        bytes memory ctx = _updateContext(Context({\n            appCallbackLevel: 0,\n            callType: ContextDefinitions.CALL_INFO_CALL_TYPE_AGREEMENT,\n            timestamp: getNow(),\n            msgSender: msgSender,\n            agreementSelector: agreementSelector,\n            userData: userData,\n            appCreditGranted: 0,\n            appCreditWantedDeprecated: 0,\n            appCreditUsed: 0,\n            appAddress: address(0),\n            appCreditToken: ISuperfluidToken(address(0))\n        }));\n        bool success;\n        (success, returnedData) = _callExternalWithReplacedCtx(address(agreementClass), callData, 0, ctx);\n        if (!success) {\n            CallUtils.revertFromReturnedData(returnedData);\n        }\n        // clear the stamp\n        _ctxStamp = 0;\n    }\n\n    function callAgreement(\n        ISuperAgreement agreementClass,\n        bytes memory callData,\n        bytes memory userData\n    )\n        external override\n        returns(bytes memory returnedData)\n    {\n        return _callAgreement(msg.sender, agreementClass, callData, userData);\n    }\n\n    function _callAppAction(\n        address msgSender,\n        ISuperApp app,\n        uint256 value,\n        bytes memory callData\n    )\n        internal\n        cleanCtx\n        isAppActive(app)\n        isValidAppAction(callData)\n        returns(bytes memory returnedData)\n    {\n        // Build context data\n        bytes memory ctx = _updateContext(Context({\n            appCallbackLevel: 0,\n            callType: ContextDefinitions.CALL_INFO_CALL_TYPE_APP_ACTION,\n            timestamp: getNow(),\n            msgSender: msgSender,\n            agreementSelector: 0,\n            userData: \"\",\n            appCreditGranted: 0,\n            appCreditWantedDeprecated: 0,\n            appCreditUsed: 0,\n            appAddress: address(app),\n            appCreditToken: ISuperfluidToken(address(0))\n        }));\n        bool success;\n        (success, returnedData) = _callExternalWithReplacedCtx(address(app), callData, value, ctx);\n        if (success) {\n            ctx = abi.decode(returnedData, (bytes));\n            if (!_isCtxValid(ctx)) revert APP_RULE(SuperAppDefinitions.APP_RULE_CTX_IS_READONLY);\n        } else {\n            CallUtils.revertFromReturnedData(returnedData);\n        }\n        // clear the stamp\n        _ctxStamp = 0;\n    }\n\n    function callAppAction(\n        ISuperApp app,\n        bytes memory callData\n    )\n        external override // NOTE: modifiers are called in _callAppAction\n        returns(bytes memory returnedData)\n    {\n        return _callAppAction(msg.sender, app, 0, callData);\n    }\n\n    /**************************************************************************\n     * Contextual Call Proxies\n     *************************************************************************/\n\n    function callAgreementWithContext(\n        ISuperAgreement agreementClass,\n        bytes calldata callData,\n        bytes calldata userData,\n        bytes calldata ctx\n    )\n        external override\n        requireValidCtx(ctx)\n        isAgreement(agreementClass)\n        returns (bytes memory newCtx, bytes memory returnedData)\n    {\n        Context memory context = decodeCtx(ctx);\n        if (context.appAddress != msg.sender) revert HOST_CALL_AGREEMENT_WITH_CTX_FROM_WRONG_ADDRESS();\n\n        address oldSender = context.msgSender;\n        context.msgSender = msg.sender;\n        //context.agreementSelector =;\n        context.userData = userData;\n        newCtx = _updateContext(context);\n\n        bool success;\n        (success, returnedData) = _callExternalWithReplacedCtx(address(agreementClass), callData, 0, newCtx);\n        if (success) {\n            (newCtx) = abi.decode(returnedData, (bytes));\n            assert(_isCtxValid(newCtx));\n            // back to old msg.sender\n            context = decodeCtx(newCtx);\n            context.msgSender = oldSender;\n            newCtx = _updateContext(context);\n        } else {\n            CallUtils.revertFromReturnedData(returnedData);\n        }\n    }\n\n    function callAppActionWithContext(\n        ISuperApp app,\n        bytes calldata callData,\n        bytes calldata ctx\n    )\n        external override\n        requireValidCtx(ctx)\n        isAppActive(app)\n        isValidAppAction(callData)\n        returns(bytes memory newCtx)\n    {\n        Context memory context = decodeCtx(ctx);\n        if (context.appAddress != msg.sender) revert HOST_CALL_APP_ACTION_WITH_CTX_FROM_WRONG_ADDRESS();\n\n        address oldSender = context.msgSender;\n        context.msgSender = msg.sender;\n        newCtx = _updateContext(context);\n\n        (bool success, bytes memory returnedData) = _callExternalWithReplacedCtx(address(app), callData, 0, newCtx);\n        if (success) {\n            (newCtx) = abi.decode(returnedData, (bytes));\n            if (!_isCtxValid(newCtx)) revert APP_RULE(SuperAppDefinitions.APP_RULE_CTX_IS_READONLY);\n            // back to old msg.sender\n            context = decodeCtx(newCtx);\n            context.msgSender = oldSender;\n            newCtx = _updateContext(context);\n        } else {\n            CallUtils.revertFromReturnedData(returnedData);\n        }\n    }\n\n    function decodeCtx(bytes memory ctx)\n        public pure override\n        returns (Context memory context)\n    {\n        return _decodeCtx(ctx);\n    }\n\n    function isCtxValid(bytes calldata ctx)\n        external view override\n        returns (bool)\n    {\n        return _isCtxValid(ctx);\n    }\n\n    /**************************************************************************\n    * Batch call\n    **************************************************************************/\n\n    function _batchCall(\n        address payable msgSender,\n        Operation[] calldata operations\n    )\n       internal\n    {\n        for (uint256 i = 0; i < operations.length; ++i) {\n            uint32 operationType = operations[i].operationType;\n            if (operationType == BatchOperation.OPERATION_TYPE_ERC20_APPROVE) {\n                (address spender, uint256 amount) =\n                    abi.decode(operations[i].data, (address, uint256));\n                ISuperToken(operations[i].target).operationApprove(\n                    msgSender,\n                    spender,\n                    amount);\n            } else if (operationType == BatchOperation.OPERATION_TYPE_ERC20_TRANSFER_FROM) {\n                (address sender, address receiver, uint256 amount) =\n                    abi.decode(operations[i].data, (address, address, uint256));\n                ISuperToken(operations[i].target).operationTransferFrom(\n                    msgSender,\n                    sender,\n                    receiver,\n                    amount);\n            } else if (operationType == BatchOperation.OPERATION_TYPE_ERC777_SEND) {\n                (address recipient, uint256 amount, bytes memory userData) =\n                    abi.decode(operations[i].data, (address, uint256, bytes));\n                ISuperToken(operations[i].target).operationSend(\n                    msgSender,\n                    recipient,\n                    amount,\n                    userData);\n            } else if (operationType == BatchOperation.OPERATION_TYPE_ERC20_INCREASE_ALLOWANCE) {\n                (address spender, uint256 addedValue) =\n                    abi.decode(operations[i].data, (address, uint256));\n                ISuperToken(operations[i].target).operationIncreaseAllowance(\n                    msgSender,\n                    spender,\n                    addedValue);\n            } else if (operationType == BatchOperation.OPERATION_TYPE_ERC20_DECREASE_ALLOWANCE) {\n                (address spender, uint256 subtractedValue) =\n                    abi.decode(operations[i].data, (address, uint256));\n                ISuperToken(operations[i].target).operationDecreaseAllowance(\n                    msgSender,\n                    spender,\n                    subtractedValue);\n            } else if (operationType == BatchOperation.OPERATION_TYPE_SUPERTOKEN_UPGRADE) {\n                ISuperToken(operations[i].target).operationUpgrade(\n                    msgSender,\n                    abi.decode(operations[i].data, (uint256))); // amount\n            } else if (operationType == BatchOperation.OPERATION_TYPE_SUPERTOKEN_DOWNGRADE) {\n                ISuperToken(operations[i].target).operationDowngrade(\n                    msgSender,\n                    abi.decode(operations[i].data, (uint256))); // amount\n            } else if (operationType == BatchOperation.OPERATION_TYPE_SUPERTOKEN_UPGRADE_TO) {\n                (address to, uint256 amount) = abi.decode(operations[i].data, (address, uint256));\n                ISuperToken(operations[i].target).operationUpgradeTo(\n                    msgSender,\n                    to,\n                    amount);\n            } else if (operationType == BatchOperation.OPERATION_TYPE_SUPERTOKEN_DOWNGRADE_TO) {\n                (address to, uint256 amount) = abi.decode(operations[i].data, (address, uint256));\n                ISuperToken(operations[i].target).operationDowngradeTo(\n                    msgSender,\n                    to,\n                    amount);\n            } else if (operationType == BatchOperation.OPERATION_TYPE_SUPERFLUID_CALL_AGREEMENT) {\n                (bytes memory callData, bytes memory userData) = abi.decode(operations[i].data, (bytes, bytes));\n                _callAgreement(\n                    msgSender,\n                    ISuperAgreement(operations[i].target),\n                    callData,\n                    userData);\n            }\n            // The following operations for call proxies allow forwarding of native tokens.\n            // we use `address(this).balance` instead of `msg.value`, because the latter ist not\n            // updated after forwarding to the first operation, while `balance` is.\n            // The initial balance is equal to `msg.value` because there's no other path\n            // for the contract to receive native tokens.\n            else if (operationType == BatchOperation.OPERATION_TYPE_SUPERFLUID_CALL_APP_ACTION) {\n                _callAppAction(\n                    msgSender,\n                    ISuperApp(operations[i].target),\n                    address(this).balance,\n                    operations[i].data);\n            } else if (operationType == BatchOperation.OPERATION_TYPE_SIMPLE_FORWARD_CALL) {\n                (bool success, bytes memory returnData) =\n                    SIMPLE_FORWARDER.forwardCall{value: address(this).balance}(\n                        operations[i].target,\n                        operations[i].data);\n                if (!success) {\n                    CallUtils.revertFromReturnedData(returnData);\n                }\n            } else if (operationType == BatchOperation.OPERATION_TYPE_ERC2771_FORWARD_CALL) {\n                (bool success, bytes memory returnData) =\n                    _ERC2771_FORWARDER.forward2771Call{value: address(this).balance}(\n                        operations[i].target,\n                        msgSender,\n                        operations[i].data);\n                if (!success) {\n                    CallUtils.revertFromReturnedData(returnData);\n                }\n            } else {\n               revert HOST_UNKNOWN_BATCH_CALL_OPERATION_TYPE();\n            }\n        }\n        if (address(this).balance != 0) {\n            // return any native tokens left to the sender.\n            msgSender.transfer(address(this).balance);\n        }\n    }\n\n    /// @dev ISuperfluid.batchCall implementation\n    function batchCall(\n       Operation[] calldata operations\n    )\n       external override payable\n    {\n        _batchCall(payable(msg.sender), operations);\n    }\n\n    /// @dev ISuperfluid.forwardBatchCall implementation\n    function forwardBatchCall(Operation[] calldata operations)\n        external override payable\n    {\n        _batchCall(_getTransactionSigner(), operations);\n    }\n\n    /// @dev BaseRelayRecipient.isTrustedForwarder implementation\n    function isTrustedForwarder(address forwarder)\n        public view override\n        returns(bool)\n    {\n        return _gov.getConfigAsUint256(\n            this,\n            ISuperfluidToken(address(0)),\n            SuperfluidGovernanceConfigs.getTrustedForwarderConfigKey(forwarder)\n        ) != 0;\n    }\n\n    /// @dev IRelayRecipient.versionRecipient implementation\n    function versionRecipient()\n        external override pure\n        returns (string memory)\n    {\n        return \"v1\";\n    }\n\n    function getERC2771Forwarder() external view override returns(address) {\n        return address(_ERC2771_FORWARDER);\n    }\n\n    /**************************************************************************\n    * Internal\n    **************************************************************************/\n\n    function _jailApp(ISuperApp app, uint256 reason)\n        internal\n    {\n        if ((_appManifests[app].configWord & SuperAppDefinitions.APP_JAIL_BIT) == 0) {\n            _appManifests[app].configWord |= SuperAppDefinitions.APP_JAIL_BIT;\n            emit Jail(app, reason);\n        }\n    }\n\n    function _updateContext(Context memory context)\n        private\n        returns (bytes memory ctx)\n    {\n        if (context.appCallbackLevel > MAX_APP_CALLBACK_LEVEL) {\n            revert APP_RULE(SuperAppDefinitions.APP_RULE_MAX_APP_LEVEL_REACHED);\n        }\n        uint256 callInfo = ContextDefinitions.encodeCallInfo(context.appCallbackLevel, context.callType);\n        uint256 creditIO =\n            context.appCreditGranted.toUint128() |\n            (uint256(context.appCreditWantedDeprecated.toUint128()) << 128);\n        // NOTE: nested encoding done due to stack too deep error when decoding in _decodeCtx\n        ctx = abi.encode(\n            abi.encode(\n                callInfo,\n                context.timestamp,\n                context.msgSender,\n                context.agreementSelector,\n                context.userData\n            ),\n            abi.encode(\n                creditIO,\n                context.appCreditUsed,\n                context.appAddress,\n                context.appCreditToken\n            )\n        );\n        _ctxStamp = keccak256(ctx);\n    }\n\n    function _decodeCtx(bytes memory ctx)\n        private pure\n        returns (Context memory context)\n    {\n        bytes memory ctx1;\n        bytes memory ctx2;\n        (ctx1, ctx2) = abi.decode(ctx, (bytes, bytes));\n        {\n            uint256 callInfo;\n            (\n                callInfo,\n                context.timestamp,\n                context.msgSender,\n                context.agreementSelector,\n                context.userData\n            ) = abi.decode(ctx1, (\n                uint256,\n                uint256,\n                address,\n                bytes4,\n                bytes));\n            (context.appCallbackLevel, context.callType) = ContextDefinitions.decodeCallInfo(callInfo);\n        }\n        {\n            uint256 creditIO;\n            (\n                creditIO,\n                context.appCreditUsed,\n                context.appAddress,\n                context.appCreditToken\n            ) = abi.decode(ctx2, (\n                uint256,\n                int256,\n                address,\n                ISuperfluidToken));\n            context.appCreditGranted = creditIO & type(uint128).max;\n            context.appCreditWantedDeprecated = creditIO >> 128;\n        }\n    }\n\n    function _isCtxValid(bytes memory ctx) private view returns (bool) {\n        return ctx.length != 0 && keccak256(ctx) == _ctxStamp;\n    }\n\n    function _callExternalWithReplacedCtx(\n        address target,\n        bytes memory callData,\n        uint256 value,\n        bytes memory ctx\n    )\n        private\n        returns(bool success, bytes memory returnedData)\n    {\n        assert(target != address(0));\n\n        // STEP 1 : replace placeholder ctx with actual ctx\n        callData = _replacePlaceholderCtx(callData, ctx);\n\n        // STEP 2: Call external with replaced context\n        /* solhint-disable-next-line avoid-low-level-calls */\n        (success, returnedData) = target.call{value: value}(callData);\n        // if target is not a contract or some arbitrary address,\n        // success will be true and returnedData will be 0x (length = 0)\n        // this leads to unintended behaviors, so we want to check to ensure\n        // that the length of returnedData is greater than 0\n\n        if (success) {\n            if (returnedData.length == 0) {\n                revert APP_RULE(SuperAppDefinitions.APP_RULE_CTX_IS_MALFORMATED);\n            }\n        }\n    }\n\n    function _callCallback(\n        ISuperApp app,\n        bool isStaticall,\n        bool isTermination,\n        bytes memory callData,\n        bytes memory ctx\n    )\n        private\n        returns(bool success, bytes memory returnedData)\n    {\n        assert(address(app) != address(0));\n\n        callData = _replacePlaceholderCtx(callData, ctx);\n\n        uint256 callbackGasLimit = CALLBACK_GAS_LIMIT;\n        bool insufficientCallbackGasProvided;\n        (success, insufficientCallbackGasProvided, returnedData) = isStaticall ?\n            CallbackUtils.staticCall(address(app), callData, callbackGasLimit) :\n            CallbackUtils.externalCall(address(app), callData, callbackGasLimit);\n\n        if (!success) {\n            if (!insufficientCallbackGasProvided) {\n                if (!isTermination) {\n                    CallUtils.revertFromReturnedData(returnedData);\n                } else {\n                    _jailApp(app, SuperAppDefinitions.APP_RULE_NO_REVERT_ON_TERMINATION_CALLBACK);\n                }\n            } else {\n                // For legit out of gas issue, the call may still fail if more gas is provided\n                // and this is okay, because there can be incentive to jail the app by providing\n                // more gas.\n                revert HOST_NEED_MORE_GAS();\n            }\n        }\n    }\n\n    /**\n     * @dev Replace the placeholder ctx with the actual ctx\n     */\n    function _replacePlaceholderCtx(bytes memory data, bytes memory ctx)\n        internal pure\n        returns (bytes memory dataWithCtx)\n    {\n        // 1.a ctx needs to be padded to align with 32 bytes boundary\n        uint256 dataLen = data.length;\n\n        // Double check if the ctx is a placeholder ctx\n        //\n        // NOTE: This can't check all cases - user can still put nonzero length of zero data\n        // developer experience check. So this is more like a sanity check for clumsy app developers.\n        //\n        // So, agreements MUST NOT TRUST the ctx passed to it, and always use the isCtxValid first.\n        {\n            uint256 placeHolderCtxLength;\n            // NOTE: len(data) is data.length + 32 https://docs.soliditylang.org/en/latest/abi-spec.html\n            // solhint-disable-next-line no-inline-assembly\n            assembly { placeHolderCtxLength := mload(add(data, dataLen)) }\n            if (placeHolderCtxLength != 0) revert HOST_NON_ZERO_LENGTH_PLACEHOLDER_CTX();\n        }\n\n        // 1.b remove the placeholder ctx\n        // solhint-disable-next-line no-inline-assembly\n        assembly { mstore(data, sub(dataLen, 0x20)) }\n\n        // 1.c pack data with the replacement ctx\n        return abi.encodePacked(\n            data,\n            // bytes with padded length\n            uint256(ctx.length),\n            ctx, new bytes(CallUtils.padLength32(ctx.length) - ctx.length) // ctx padding\n        );\n        // NOTE: the alternative placeholderCtx is passing extra calldata to the agreements\n        // agreements would use assembly code to read the ctx\n        // Because selector is part of calldata, we do the padding internally, instead of\n        // outside\n    }\n\n    modifier requireValidCtx(bytes memory ctx) {\n        if (!_isCtxValid(ctx)) revert APP_RULE(SuperAppDefinitions.APP_RULE_CTX_IS_READONLY);\n        _;\n    }\n\n    modifier assertValidCtx(bytes memory ctx) {\n        assert(_isCtxValid(ctx));\n        _;\n    }\n\n    modifier cleanCtx() {\n        if (_ctxStamp != 0) revert APP_RULE(SuperAppDefinitions.APP_RULE_CTX_IS_NOT_CLEAN);\n        _;\n    }\n\n    modifier isAgreement(ISuperAgreement agreementClass) {\n        if (!isAgreementClassListed(agreementClass)) {\n            revert HOST_ONLY_LISTED_AGREEMENT();\n        }\n        _;\n    }\n\n    modifier onlyGovernance() {\n        if (msg.sender != address(_gov)) revert HOST_ONLY_GOVERNANCE();\n        _;\n    }\n\n    modifier onlyAgreement() {\n        if (!isAgreementClassListed(ISuperAgreement(msg.sender))) {\n            revert HOST_ONLY_LISTED_AGREEMENT();\n        }\n        _;\n    }\n\n    modifier isAppActive(ISuperApp app) {\n        uint256 configWord = _appManifests[app].configWord;\n        if (configWord == 0) revert HOST_NOT_A_SUPER_APP();\n        if (SuperAppDefinitions.isAppJailed(configWord)) revert HOST_SUPER_APP_IS_JAILED();\n        _;\n    }\n\n    modifier isValidAppAction(bytes memory callData) {\n        bytes4 actionSelector = CallUtils.parseSelector(callData);\n        if (actionSelector == ISuperApp.beforeAgreementCreated.selector ||\n            actionSelector == ISuperApp.afterAgreementCreated.selector ||\n            actionSelector == ISuperApp.beforeAgreementUpdated.selector ||\n            actionSelector == ISuperApp.afterAgreementUpdated.selector ||\n            actionSelector == ISuperApp.beforeAgreementTerminated.selector ||\n            actionSelector == ISuperApp.afterAgreementTerminated.selector) {\n            revert HOST_AGREEMENT_CALLBACK_IS_NOT_ACTION();\n        }\n        _;\n    }\n}\n",
  "sourcePath": "/home/runner/work/protocol-monorepo/protocol-monorepo/packages/ethereum-contracts/contracts/superfluid/Superfluid.sol",
  "compiler": {
    "name": "solc",
    "version": "0.8.26+commit.8a97fa7a.Linux.g++"
  },
  "schemaVersion": "3.4.16",
  "updatedAt": "2024-11-25T09:47:04.324Z",
  "devdoc": {
    "author": "Superfluid",
    "details": "The Superfluid host implementation. NOTE: - Please read ISuperfluid for implementation notes. - For some deeper technical notes, please visit protocol-monorepo wiki area.",
    "events": {
      "AgreementClassRegistered(bytes32,address)": {
        "details": "agreementType is the keccak256 hash of: \"org.superfluid-finance.agreements.<AGREEMENT_NAME>.<VERSION>\"",
        "params": {
          "agreementType": "The agreement type registered",
          "code": "Address of the new agreement"
        }
      },
      "AgreementClassUpdated(bytes32,address)": {
        "details": "agreementType is the keccak256 hash of: \"org.superfluid-finance.agreements.<AGREEMENT_NAME>.<VERSION>\"",
        "params": {
          "agreementType": "The agreement type updated",
          "code": "Address of the new agreement"
        }
      },
      "AppRegistered(address)": {
        "details": "App registered event",
        "params": {
          "app": "Address of jailed app"
        }
      },
      "GovernanceReplaced(address,address)": {
        "details": "Governance replaced event",
        "params": {
          "newGov": "Address of the new governance contract",
          "oldGov": "Address of the old governance contract"
        }
      },
      "Initialized(uint8)": {
        "details": "Triggered when the contract has been initialized or reinitialized."
      },
      "Jail(address,uint256)": {
        "details": "Jail event for the app",
        "params": {
          "app": "Address of jailed app",
          "reason": "Reason the app is jailed (see Definitions.sol for the full list)"
        }
      },
      "PoolBeaconLogicUpdated(address,address)": {
        "details": "Pool Beacon logic updated event",
        "params": {
          "beaconProxy": "addrss of the beacon proxy",
          "newBeaconLogic": "address of the new beacon logic"
        }
      },
      "SuperTokenFactoryUpdated(address)": {
        "details": "SuperToken factory updated event",
        "params": {
          "newFactory": "Address of the new factory"
        }
      },
      "SuperTokenLogicUpdated(address,address)": {
        "details": "newLogic must implement UUPSProxiable with matching proxiableUUID"
      }
    },
    "kind": "dev",
    "methods": {
      "addToAgreementClassesBitmap(uint256,bytes32)": {
        "details": "agreementType is the keccak256 hash of: \"org.superfluid-finance.agreements.<AGREEMENT_NAME>.<VERSION>\"",
        "params": {
          "bitmap": "Agreement class bitmap"
        }
      },
      "allowCompositeApp(address)": {
        "details": "Whitelist the target app for app composition for the source app (msg.sender)",
        "params": {
          "targetApp": "The target super app address"
        }
      },
      "appCallbackPop(bytes,int256)": {
        "details": "(For agreements) Pop from the current app callback stack",
        "params": {
          "appCreditUsedDelta": "App credit used by the app.",
          "ctx": "The ctx that was pushed before the callback stack."
        },
        "returns": {
          "newCtx": "                 The current context of the transaction."
        }
      },
      "appCallbackPush(bytes,address,uint256,int256,address)": {
        "details": "(For agreements) Create a new callback stack",
        "params": {
          "app": "The super app.",
          "appCreditGranted": "App credit granted so far.",
          "appCreditUsed": "App credit used so far.",
          "ctx": "The current ctx, it will be validated."
        },
        "returns": {
          "appCtx": "                 The current context of the transaction."
        }
      },
      "batchCall((uint32,address,bytes)[])": {
        "details": "ISuperfluid.batchCall implementation"
      },
      "callAgreement(address,bytes,bytes)": {
        "details": "Call agreement function",
        "params": {
          "agreementClass": "The agreement address you are calling",
          "callData": "The contextual call data with placeholder ctx",
          "userData": "Extra user data being sent to the super app callbacks"
        }
      },
      "callAppAction(address,bytes)": {
        "details": "Main use case is calling app action in a batch call via the host",
        "params": {
          "callData": "The contextual call data"
        }
      },
      "callAppAfterCallback(address,bytes,bool,bytes)": {
        "details": "(For agreements) Call the app after callback",
        "params": {
          "app": "The super app.",
          "callData": "The call data sending to the super app.",
          "ctx": "Current ctx, it will be validated.",
          "isTermination": "Is it a termination callback?"
        },
        "returns": {
          "newCtx": "           The current context of the transaction."
        }
      },
      "callAppBeforeCallback(address,bytes,bool,bytes)": {
        "details": "(For agreements) StaticCall the app before callback",
        "params": {
          "app": "The super app.",
          "callData": "The call data sending to the super app.",
          "ctx": "Current ctx, it will be validated.",
          "isTermination": "Is it a termination callback?"
        },
        "returns": {
          "cbdata": "           Data returned from the callback."
        }
      },
      "changeSuperTokenAdmin(address,address)": {
        "details": "The admin is the only account allowed to update the token logic For backward compatibility, the \"host\" is the default \"admin\" if unset (address(0))."
      },
      "ctxUseCredit(bytes,int256)": {
        "details": "(For agreements) Use app credit.",
        "params": {
          "appCreditUsedMore": "See app credit for more details.",
          "ctx": "The current ctx, it will be validated."
        },
        "returns": {
          "newCtx": "                  The current context of the transaction."
        }
      },
      "forwardBatchCall((uint32,address,bytes)[])": {
        "details": "ISuperfluid.forwardBatchCall implementation"
      },
      "getAgreementClass(bytes32)": {
        "details": "agreementType is the keccak256 hash of: \"org.superfluid-finance.agreements.<AGREEMENT_NAME>.<VERSION>\""
      },
      "getAppManifest(address)": {
        "details": "Get the manifest of the super app",
        "params": {
          "app": "Super app address"
        }
      },
      "getCodeAddress()": {
        "details": "Get current implementation code address."
      },
      "getERC2771Forwarder()": {
        "details": "returns the address of the forwarder contract used to route batch operations of type OPERATION_TYPE_ERC2771_FORWARD_CALL. Needs to be set as _trusted forwarder_ by the call targets of such operations."
      },
      "getGovernance()": {
        "details": "Get the current governance address of the Superfluid host"
      },
      "getSuperTokenFactory()": {
        "details": "Get the super token factory",
        "returns": {
          "factory": "The factory"
        }
      },
      "getSuperTokenFactoryLogic()": {
        "details": "Get the super token factory logic (applicable to upgradable deployment)",
        "returns": {
          "logic": "The factory logic"
        }
      },
      "isAgreementClassListed(address)": {
        "details": "Check if the agreement class is whitelisted"
      },
      "isAgreementTypeListed(bytes32)": {
        "details": "agreementType is the keccak256 hash of: \"org.superfluid-finance.agreements.<AGREEMENT_NAME>.<VERSION>\""
      },
      "isApp(address)": {
        "details": "Query if the app is registered",
        "params": {
          "app": "Super app address"
        }
      },
      "isAppJailed(address)": {
        "details": "Query if the app has been jailed",
        "params": {
          "app": "Super app address"
        }
      },
      "isCompositeAppAllowed(address,address)": {
        "details": "Query if source app is allowed to call the target app as downstream app",
        "params": {
          "app": "Super app address",
          "targetApp": "The target super app address"
        }
      },
      "isTrustedForwarder(address)": {
        "details": "BaseRelayRecipient.isTrustedForwarder implementation"
      },
      "jailApp(bytes,address,uint256)": {
        "details": "(For agreements) Jail the app.",
        "params": {
          "app": "The super app.",
          "reason": "Jail reason code."
        },
        "returns": {
          "newCtx": "                 The current context of the transaction."
        }
      },
      "mapAgreementClasses(uint256)": {
        "details": "Map list of the agreement classes using a bitmap",
        "params": {
          "bitmap": "Agreement class bitmap"
        }
      },
      "proxiableUUID()": {
        "details": "Proxiable UUID marker function, this would help to avoid wrong logic      contract to be used for upgrading. NOTE: The semantics of the UUID deviates from the actual UUPS standard,       where it is equivalent of _IMPLEMENTATION_SLOT."
      },
      "registerAgreementClass(address)": {
        "details": "Register a new agreement class to the system",
        "params": {
          "agreementClassLogic": "Initial agreement class code"
        }
      },
      "registerApp(address,uint256)": {
        "details": "Registers an app (must be a contract) as a super app.",
        "params": {
          "app": "The super app address",
          "configWord": "The super app manifest configuration, flags are defined in `SuperAppDefinitions`"
        }
      },
      "registerApp(uint256)": {
        "details": "Message sender (must be a contract) registers itself as a super app.",
        "params": {
          "configWord": "The super app manifest configuration, flags are defined in `SuperAppDefinitions`"
        }
      },
      "registerAppByFactory(address,uint256)": {
        "custom:deprecated": ""
      },
      "registerAppWithKey(uint256,string)": {
        "custom:deprecated": ""
      },
      "removeFromAgreementClassesBitmap(uint256,bytes32)": {
        "details": "agreementType is the keccak256 hash of: \"org.superfluid-finance.agreements.<AGREEMENT_NAME>.<VERSION>\"",
        "params": {
          "bitmap": "Agreement class bitmap"
        }
      },
      "replaceGovernance(address)": {
        "details": "Replace the current governance with a new one"
      },
      "updateAgreementClass(address)": {
        "details": "Update code of an agreement class",
        "params": {
          "agreementClassLogic": "New code for the agreement class"
        }
      },
      "updatePoolBeaconLogic(address)": {
        "details": "Updating the logic the beacon points to will update the logic of all the Pool BeaconProxy instances"
      },
      "updateSuperTokenFactory(address)": {
        "details": "Update super token factory",
        "params": {
          "newFactory": "New factory logic"
        }
      },
      "updateSuperTokenLogic(address,address)": {
        "details": "Refer to ISuperTokenFactory.Upgradability for expected behaviours"
      },
      "versionRecipient()": {
        "details": "IRelayRecipient.versionRecipient implementation"
      }
    },
    "stateVariables": {
      "MAX_APP_CALLBACK_LEVEL": {
        "details": "Maximum number of level of apps can be composed together NOTE: - TODO Composite app feature is currently disabled. Hence app cannot   will not be able to call other app."
      },
      "_agreementClassIndices": {
        "details": "Mapping between agreement type to agreement index (starting from 1)"
      },
      "_agreementClasses": {
        "details": "Agreement list indexed by agreement index minus one"
      },
      "_appKeysUsedDeprecated": {
        "details": "if app whitelisting is enabled, this is to make sure the keys are used only once"
      },
      "_appManifests": {
        "details": "App manifests"
      },
      "_compositeApps": {
        "details": "Composite app white-listing: source app => (target app => isAllowed)"
      },
      "_ctxStamp": {
        "details": "Ctx stamp of the current transaction, it should always be cleared to      zero before transaction finishes"
      },
      "_gov": {
        "details": "Governance contract"
      },
      "_superTokenFactory": {
        "details": "Super token"
      }
    },
    "version": 1
  },
  "userdoc": {
    "events": {
      "AgreementClassRegistered(bytes32,address)": {
        "notice": "Agreement class registered event"
      },
      "AgreementClassUpdated(bytes32,address)": {
        "notice": "Agreement class updated event"
      },
      "SuperTokenLogicUpdated(address,address)": {
        "notice": "Update the super token logic to the provided one"
      }
    },
    "kind": "user",
    "methods": {
      "addToAgreementClassesBitmap(uint256,bytes32)": {
        "notice": "Create a new bitmask by adding a agreement class to it"
      },
      "callAppAction(address,bytes)": {
        "notice": "Call app action"
      },
      "changeSuperTokenAdmin(address,address)": {
        "notice": "Change the SuperToken admin address"
      },
      "constructor": {
        "notice": "NOTE: Whenever modifying the storage layout here it is important to update the validateStorageLayout function in its respective mock contract to ensure that it doesn't break anything or lead to unexpected behaviors/layout when upgrading"
      },
      "getAgreementClass(bytes32)": {
        "notice": "Get agreement class"
      },
      "isAgreementTypeListed(bytes32)": {
        "notice": "Check if the agreement type is whitelisted"
      },
      "registerApp(address,uint256)": {
        "notice": "On some mainnet deployments, pre-authorization by governance may be needed for this to succeed. See https://github.com/superfluid-finance/protocol-monorepo/wiki/Super-App-White-listing-Guide"
      },
      "registerApp(uint256)": {
        "notice": "On some mainnet deployments, pre-authorization by governance may be needed for this to succeed. See https://github.com/superfluid-finance/protocol-monorepo/wiki/Super-App-White-listing-Guide"
      },
      "removeFromAgreementClassesBitmap(uint256,bytes32)": {
        "notice": "Create a new bitmask by removing a agreement class from it"
      },
      "updatePoolBeaconLogic(address)": {
        "notice": "Change the implementation address the pool beacon points to"
      },
      "updateSuperTokenLogic(address,address)": {
        "notice": "Update the super token logic to the latest (canonical) implementation if `newLogicOverride` is zero, or to `newLogicOverride` otherwise. or to the provided implementation `."
      }
    },
    "version": 1
  }
}