{
  "contractName": "SuperfluidLoaderLibrary",
  "abi": [
    {
      "inputs": [],
      "name": "UnsupportedNetwork",
      "type": "error"
    },
    {
      "inputs": [],
      "name": "getHost",
      "outputs": [
        {
          "internalType": "address",
          "name": "",
          "type": "address"
        }
      ],
      "stateMutability": "view",
      "type": "function"
    }
  ],
  "bytecode": "0x6102d1610039600b82828239805160001a607314602c57634e487b7160e01b600052600060045260246000fd5b30600052607381538281f3fe73000000000000000000000000000000000000000030146080604052600436106100355760003560e01c806320bc44251461003a575b600080fd5b61004261005e565b6040516001600160a01b03909116815260200160405180910390f35b6000600146036100815750734e583d9390082b65bef884b629dfa426114ced6d90565b600a46036100a2575073567c4b141ed61923967ca25ef4906c8781069a1090565b603846036100c3575073d1e2cfb6441680002eb7a44223160ab9b67d7e6e90565b606446036100e45750732dfe937cd98ab92e59cf3139138f18c823a4efe790565b608946036101055750733e14dc1b13c488a8d5d310918780c983bd5982e790565b61210546036101275750734c073b3bab6d8826b8c5b229f3cfdc1ec6e47e7490565b61a4b14603610149575073cf8acb4ef033eff16e8080aed4c7d5b9285d219290565b61a4ec460361016b575073a4ff07cf81c02cfd356184879d953970ca95758590565b61a86a460361018d57507360377c7016e4cdb03c87ef474896c11cb560752c90565b6208275046036101b05750730f86a21f6216c061b222c224e315d9fc34520bb790565b6327bc86aa46036101d4575073c1314edcd7e478c831a7a24169f7deadb2646ed290565b61a86946036101f657507385fe79b998509b77bf10a8bd4001d58475d2938690565b6208274f460361021957507342b05a6016b9eed232e13fd56a8f0725693dbf8e90565b62aa36a7460361023c575073109412e3c84f0539b43d39db691b08c90f58dc7c90565b62aa37dc460361025f575073d399e2fb5f4cf3722a11f65b88fab6b2b862100590565b62014a344603610282575073109412e3c84f0539b43d39db691b08c90f58dc7c90565b604051633732a25760e11b815260040160405180910390fdfea2646970667358221220a39b7e1b2387b448a2486d493022101262043875832e75a6431da160cc0cd7fc64736f6c634300081a0033",
  "immutableReferences": {},
  "source": "// SPDX-License-Identifier: MIT\npragma solidity >= 0.8.11;\n\nlibrary SuperfluidLoaderLibrary {\n    error UnsupportedNetwork();\n\n    // mainnet\n    uint256 private constant ETH_MAINNET = 1;\n    uint256 private constant OPTIMISM_MAINNET = 10;\n    uint256 private constant BSC_MAINNET = 56;\n    uint256 private constant XDAI_MAINNET = 100;\n    uint256 private constant POLYGON_MAINNET = 137;\n    uint256 private constant BASE_MAINNET = 8453;\n    uint256 private constant ARBITRUM_ONE = 42161;\n    uint256 private constant CELO_MAINNET = 42220;\n    uint256 private constant AVALANCHE_C = 43114;\n    uint256 private constant SCROLL_MAINNET = 534352;\n    uint256 private constant DEGENCHAIN = 666666666;\n\n\n    // testnets\n    uint256 private constant AVALANCHE_FUJI = 43113;\n    uint256 private constant SCROLL_SEPOLIA = 534351;\n    uint256 private constant ETH_SEPOLIA = 11155111;\n    uint256 private constant OPTIMISM_SEPOLIA = 11155420;\n    uint256 private constant BASE_SEPOLIA = 84532;\n\n\n    function getHost() public view returns (address) {\n        // mainnets\n        if (block.chainid == ETH_MAINNET) {\n            return 0x4E583d9390082B65Bef884b629DFA426114CED6d;\n        } else if (block.chainid == OPTIMISM_MAINNET) {\n            return 0x567c4B141ED61923967cA25Ef4906C8781069a10;\n        } else if (block.chainid == BSC_MAINNET) {\n            return 0xd1e2cFb6441680002Eb7A44223160aB9B67d7E6E;\n        } else if (block.chainid == XDAI_MAINNET) {\n            return 0x2dFe937cD98Ab92e59cF3139138f18c823a4efE7;\n        } else if (block.chainid == POLYGON_MAINNET) {\n            return 0x3E14dC1b13c488a8d5D310918780c983bD5982E7;\n        } else if (block.chainid == BASE_MAINNET) {\n            return 0x4C073B3baB6d8826b8C5b229f3cfdC1eC6E47E74;\n        } else if (block.chainid == ARBITRUM_ONE) {\n            return 0xCf8Acb4eF033efF16E8080aed4c7D5B9285D2192;\n        } else if (block.chainid == CELO_MAINNET) {\n            return 0xA4Ff07cF81C02CFD356184879D953970cA957585;\n        } else if (block.chainid == AVALANCHE_C) {\n            return 0x60377C7016E4cdB03C87EF474896C11cB560752C;\n        } else if (block.chainid == SCROLL_MAINNET) {\n            return 0x0F86a21F6216c061B222c224e315d9FC34520bb7;\n        } else if (block.chainid == DEGENCHAIN) {\n            return 0xc1314EdcD7e478C831a7a24169F7dEADB2646eD2;\n        // testnets\n        } else if (block.chainid == AVALANCHE_FUJI) {\n            return 0x85Fe79b998509B77BF10A8BD4001D58475D29386;\n        } else if (block.chainid == SCROLL_SEPOLIA) {\n            return 0x42b05a6016B9eED232E13fd56a8F0725693DBF8e;\n        } else if (block.chainid == ETH_SEPOLIA) {\n            return 0x109412E3C84f0539b43d39dB691B08c90f58dC7c;\n        } else if (block.chainid == OPTIMISM_SEPOLIA) {\n            return 0xd399e2Fb5f4cf3722a11F65b88FAB6B2B8621005;\n        } else if (block.chainid == BASE_SEPOLIA) {\n            return 0x109412E3C84f0539b43d39dB691B08c90f58dC7c;\n        } else {\n            revert UnsupportedNetwork();\n        }\n    }\n}\n",
  "sourcePath": "/home/runner/work/protocol-monorepo/protocol-monorepo/packages/ethereum-contracts/contracts/apps/SuperfluidLoaderLibrary.sol",
  "compiler": {
    "name": "solc",
    "version": "0.8.26+commit.8a97fa7a.Linux.g++"
  },
  "schemaVersion": "3.4.16",
  "updatedAt": "2024-11-25T09:47:03.888Z",
  "devdoc": {
    "kind": "dev",
    "methods": {},
    "version": 1
  },
  "userdoc": {
    "kind": "user",
    "methods": {},
    "version": 1
  }
}