{
  "contractName": "SuperfluidLoader",
  "abi": [
    {
      "inputs": [
        {
          "internalType": "contract IResolver",
          "name": "resolver",
          "type": "address"
        }
      ],
      "stateMutability": "nonpayable",
      "type": "constructor"
    },
    {
      "inputs": [
        {
          "internalType": "string",
          "name": "releaseVersion",
          "type": "string"
        }
      ],
      "name": "loadFramework",
      "outputs": [
        {
          "components": [
            {
              "internalType": "contract ISuperfluid",
              "name": "superfluid",
              "type": "address"
            },
            {
              "internalType": "contract ISuperTokenFactory",
              "name": "superTokenFactory",
              "type": "address"
            },
            {
              "internalType": "contract ISuperAgreement",
              "name": "agreementCFAv1",
              "type": "address"
            },
            {
              "internalType": "contract ISuperAgreement",
              "name": "agreementIDAv1",
              "type": "address"
            },
            {
              "internalType": "contract ISuperAgreement",
              "name": "agreementGDAv1",
              "type": "address"
            }
          ],
          "internalType": "struct SuperfluidLoader.Framework",
          "name": "result",
          "type": "tuple"
        }
      ],
      "stateMutability": "view",
      "type": "function"
    }
  ],
  "bytecode": "0x60a0604052348015600f57600080fd5b5060405161058b38038061058b833981016040819052602c91603c565b6001600160a01b0316608052606a565b600060208284031215604d57600080fd5b81516001600160a01b0381168114606357600080fd5b9392505050565b608051610507610084600039600060c801526105076000f3fe608060405234801561001057600080fd5b506004361061002b5760003560e01c8063f490e2f014610030575b600080fd5b61004361003e3660046103ac565b61009b565b604051610092919081516001600160a01b039081168252602080840151821690830152604080840151821690830152606080840151821690830152608092830151169181019190915260a00190565b60405180910390f35b6040805160a0810182526000808252602082018190529181018290526060810182905260808101919091527f00000000000000000000000000000000000000000000000000000000000000006001600160a01b031663693ec85e8484604051602001610108929190610420565b6040516020818303038152906040526040518263ffffffff1660e01b81526004016101339190610447565b602060405180830381865afa158015610150573d6000803e3d6000fd5b505050506040513d601f19601f8201168201806040525081019061017491906104ad565b6001600160a01b03168082526040805163398d76b760e11b8152905163731aed6e916004808201926020929091908290030181865afa1580156101bb573d6000803e3d6000fd5b505050506040513d601f19601f820116820180604052508101906101df91906104ad565b6001600160a01b0390811660208301528151604051635b69006f60e11b81527fa9214cc96615e0085d3bb077758db69497dc2dce3b2b1e97bc93c3d18d83efd3600482015291169063b6d200de90602401602060405180830381865afa15801561024d573d6000803e3d6000fd5b505050506040513d601f19601f8201168201806040525081019061027191906104ad565b6001600160a01b0390811660408381019190915282519051635b69006f60e11b81527f8aedc3b5d4bf031e11a7e2940f7251c005698405d58e02e1c247fed3b1b3a674600482015291169063b6d200de90602401602060405180830381865afa1580156102e2573d6000803e3d6000fd5b505050506040513d601f19601f8201168201806040525081019061030691906104ad565b6001600160a01b0390811660608301528151604051635b69006f60e11b81527fdfd8ece9bfbcb8c5c540edb935641f63d67686490a1ab97f000288759f30a946600482015291169063b6d200de90602401602060405180830381865afa158015610374573d6000803e3d6000fd5b505050506040513d601f19601f8201168201806040525081019061039891906104ad565b6001600160a01b0316608082015292915050565b600080602083850312156103bf57600080fd5b823567ffffffffffffffff8111156103d657600080fd5b8301601f810185136103e757600080fd5b803567ffffffffffffffff8111156103fe57600080fd5b85602082840101111561041057600080fd5b6020919091019590945092505050565b6a29bab832b933363ab4b21760a91b81528183600b83013760009101600b01908152919050565b602081526000825180602084015260005b818110156104755760208186018101516040868401015201610458565b506000604082850101526040601f19601f83011684010191505092915050565b6001600160a01b03811681146104aa57600080fd5b50565b6000602082840312156104bf57600080fd5b81516104ca81610495565b939250505056fea2646970667358221220799792bc4dd97876e802290082282b63e64ab3cf42964b7db9071cdcbc454f4664736f6c634300081a0033",
  "immutableReferences": {
    "58383": [
      {
        "length": 32,
        "start": 200
      }
    ]
  },
  "source": "// SPDX-License-Identifier: MIT\npragma solidity >=0.8.11;\n\nimport { IResolver } from \"../interfaces/utils/IResolver.sol\";\nimport {\n    ISuperfluid,\n    ISuperTokenFactory,\n    ISuperAgreement\n} from \"../interfaces/superfluid/ISuperfluid.sol\";\n\n/**\n * @title Superfluid loader contract\n * @author Superfluid\n * @dev A on-chain utility contract for loading framework objects in one view function.\n *\n * NOTE:\n * Q: Why don't we just use https://www.npmjs.com/package/ethereum-multicall?\n * A: Well, no strong reason other than also allowing on-chain one view function loading.\n */\ncontract SuperfluidLoader {\n\n    IResolver private immutable _resolver;\n\n    struct Framework {\n        ISuperfluid superfluid;\n        ISuperTokenFactory superTokenFactory;\n        ISuperAgreement agreementCFAv1;\n        ISuperAgreement agreementIDAv1;\n        ISuperAgreement agreementGDAv1;\n    }\n\n    constructor(IResolver resolver) {\n        _resolver = resolver;\n    }\n\n    /**\n     * @dev Load framework objects\n     * @param releaseVersion Protocol release version of the deployment\n     */\n    function loadFramework(string calldata releaseVersion)\n        external view\n        returns (Framework memory result)\n    {\n        // load superfluid host contract\n        result.superfluid = ISuperfluid(_resolver.get(\n            string.concat(\"Superfluid.\", releaseVersion)\n        ));\n        result.superTokenFactory = result.superfluid.getSuperTokenFactory();\n        result.agreementCFAv1 = result.superfluid.getAgreementClass(\n            keccak256(\"org.superfluid-finance.agreements.ConstantFlowAgreement.v1\")\n        );\n        result.agreementIDAv1 = result.superfluid.getAgreementClass(\n            keccak256(\"org.superfluid-finance.agreements.InstantDistributionAgreement.v1\")\n        );\n        result.agreementGDAv1 = result.superfluid.getAgreementClass(\n            keccak256(\"org.superfluid-finance.agreements.GeneralDistributionAgreement.v1\")\n        );\n    }\n}\n",
  "sourcePath": "/home/runner/work/protocol-monorepo/protocol-monorepo/packages/ethereum-contracts/contracts/utils/SuperfluidLoader.sol",
  "compiler": {
    "name": "solc",
    "version": "0.8.26+commit.8a97fa7a.Linux.g++"
  },
  "schemaVersion": "3.4.16",
  "updatedAt": "2024-11-25T09:47:04.543Z",
  "devdoc": {
    "author": "Superfluid",
    "details": "A on-chain utility contract for loading framework objects in one view function. NOTE: Q: Why don't we just use https://www.npmjs.com/package/ethereum-multicall? A: Well, no strong reason other than also allowing on-chain one view function loading.",
    "kind": "dev",
    "methods": {
      "loadFramework(string)": {
        "details": "Load framework objects",
        "params": {
          "releaseVersion": "Protocol release version of the deployment"
        }
      }
    },
    "title": "Superfluid loader contract",
    "version": 1
  },
  "userdoc": {
    "kind": "user",
    "methods": {},
    "version": 1
  }
}