{
  "contractName": "SuperToken",
  "abi": [
    {
      "inputs": [
        {
          "internalType": "contract ISuperfluid",
          "name": "host",
          "type": "address"
        },
        {
          "internalType": "contract IConstantOutflowNFT",
          "name": "constantOutflowNFT",
          "type": "address"
        },
        {
          "internalType": "contract IConstantInflowNFT",
          "name": "constantInflowNFT",
          "type": "address"
        },
        {
          "internalType": "contract IPoolAdminNFT",
          "name": "poolAdminNFT",
          "type": "address"
        },
        {
          "internalType": "contract IPoolMemberNFT",
          "name": "poolMemberNFT",
          "type": "address"
        }
      ],
      "stateMutability": "nonpayable",
      "type": "constructor"
    },
    {
      "inputs": [],
      "name": "SF_TOKEN_AGREEMENT_ALREADY_EXISTS",
      "type": "error"
    },
    {
      "inputs": [],
      "name": "SF_TOKEN_AGREEMENT_DOES_NOT_EXIST",
      "type": "error"
    },
    {
      "inputs": [],
      "name": "SF_TOKEN_BURN_INSUFFICIENT_BALANCE",
      "type": "error"
    },
    {
      "inputs": [],
      "name": "SF_TOKEN_MOVE_INSUFFICIENT_BALANCE",
      "type": "error"
    },
    {
      "inputs": [],
      "name": "SF_TOKEN_ONLY_HOST",
      "type": "error"
    },
    {
      "inputs": [],
      "name": "SF_TOKEN_ONLY_LISTED_AGREEMENT",
      "type": "error"
    },
    {
      "inputs": [],
      "name": "SUPER_TOKEN_APPROVE_FROM_ZERO_ADDRESS",
      "type": "error"
    },
    {
      "inputs": [],
      "name": "SUPER_TOKEN_APPROVE_TO_ZERO_ADDRESS",
      "type": "error"
    },
    {
      "inputs": [],
      "name": "SUPER_TOKEN_BURN_FROM_ZERO_ADDRESS",
      "type": "error"
    },
    {
      "inputs": [],
      "name": "SUPER_TOKEN_CALLER_IS_NOT_OPERATOR_FOR_HOLDER",
      "type": "error"
    },
    {
      "inputs": [],
      "name": "SUPER_TOKEN_INFLATIONARY_DEFLATIONARY_NOT_SUPPORTED",
      "type": "error"
    },
    {
      "inputs": [],
      "name": "SUPER_TOKEN_MINT_TO_ZERO_ADDRESS",
      "type": "error"
    },
    {
      "inputs": [],
      "name": "SUPER_TOKEN_NFT_PROXY_ADDRESS_CHANGED",
      "type": "error"
    },
    {
      "inputs": [],
      "name": "SUPER_TOKEN_NOT_ERC777_TOKENS_RECIPIENT",
      "type": "error"
    },
    {
      "inputs": [],
      "name": "SUPER_TOKEN_NO_UNDERLYING_TOKEN",
      "type": "error"
    },
    {
      "inputs": [],
      "name": "SUPER_TOKEN_ONLY_ADMIN",
      "type": "error"
    },
    {
      "inputs": [],
      "name": "SUPER_TOKEN_ONLY_GOV_OWNER",
      "type": "error"
    },
    {
      "inputs": [],
      "name": "SUPER_TOKEN_ONLY_SELF",
      "type": "error"
    },
    {
      "inputs": [],
      "name": "SUPER_TOKEN_TRANSFER_FROM_ZERO_ADDRESS",
      "type": "error"
    },
    {
      "inputs": [],
      "name": "SUPER_TOKEN_TRANSFER_TO_ZERO_ADDRESS",
      "type": "error"
    },
    {
      "anonymous": false,
      "inputs": [
        {
          "indexed": true,
          "internalType": "address",
          "name": "oldAdmin",
          "type": "address"
        },
        {
          "indexed": true,
          "internalType": "address",
          "name": "newAdmin",
          "type": "address"
        }
      ],
      "name": "AdminChanged",
      "type": "event"
    },
    {
      "anonymous": false,
      "inputs": [
        {
          "indexed": true,
          "internalType": "address",
          "name": "agreementClass",
          "type": "address"
        },
        {
          "indexed": false,
          "internalType": "bytes32",
          "name": "id",
          "type": "bytes32"
        },
        {
          "indexed": false,
          "internalType": "bytes32[]",
          "name": "data",
          "type": "bytes32[]"
        }
      ],
      "name": "AgreementCreated",
      "type": "event"
    },
    {
      "anonymous": false,
      "inputs": [
        {
          "indexed": true,
          "internalType": "address",
          "name": "agreementClass",
          "type": "address"
        },
        {
          "indexed": false,
          "internalType": "bytes32",
          "name": "id",
          "type": "bytes32"
        },
        {
          "indexed": true,
          "internalType": "address",
          "name": "penaltyAccount",
          "type": "address"
        },
        {
          "indexed": true,
          "internalType": "address",
          "name": "rewardAccount",
          "type": "address"
        },
        {
          "indexed": false,
          "internalType": "uint256",
          "name": "rewardAmount",
          "type": "uint256"
        }
      ],
      "name": "AgreementLiquidated",
      "type": "event"
    },
    {
      "anonymous": false,
      "inputs": [
        {
          "indexed": false,
          "internalType": "address",
          "name": "liquidatorAccount",
          "type": "address"
        },
        {
          "indexed": true,
          "internalType": "address",
          "name": "agreementClass",
          "type": "address"
        },
        {
          "indexed": false,
          "internalType": "bytes32",
          "name": "id",
          "type": "bytes32"
        },
        {
          "indexed": true,
          "internalType": "address",
          "name": "penaltyAccount",
          "type": "address"
        },
        {
          "indexed": true,
          "internalType": "address",
          "name": "bondAccount",
          "type": "address"
        },
        {
          "indexed": false,
          "internalType": "uint256",
          "name": "rewardAmount",
          "type": "uint256"
        },
        {
          "indexed": false,
          "internalType": "uint256",
          "name": "bailoutAmount",
          "type": "uint256"
        }
      ],
      "name": "AgreementLiquidatedBy",
      "type": "event"
    },
    {
      "anonymous": false,
      "inputs": [
        {
          "indexed": true,
          "internalType": "address",
          "name": "agreementClass",
          "type": "address"
        },
        {
          "indexed": false,
          "internalType": "bytes32",
          "name": "id",
          "type": "bytes32"
        },
        {
          "indexed": true,
          "internalType": "address",
          "name": "liquidatorAccount",
          "type": "address"
        },
        {
          "indexed": true,
          "internalType": "address",
          "name": "targetAccount",
          "type": "address"
        },
        {
          "indexed": false,
          "internalType": "address",
          "name": "rewardAmountReceiver",
          "type": "address"
        },
        {
          "indexed": false,
          "internalType": "uint256",
          "name": "rewardAmount",
          "type": "uint256"
        },
        {
          "indexed": false,
          "internalType": "int256",
          "name": "targetAccountBalanceDelta",
          "type": "int256"
        },
        {
          "indexed": false,
          "internalType": "bytes",
          "name": "liquidationTypeData",
          "type": "bytes"
        }
      ],
      "name": "AgreementLiquidatedV2",
      "type": "event"
    },
    {
      "anonymous": false,
      "inputs": [
        {
          "indexed": true,
          "internalType": "address",
          "name": "agreementClass",
          "type": "address"
        },
        {
          "indexed": true,
          "internalType": "address",
          "name": "account",
          "type": "address"
        },
        {
          "indexed": false,
          "internalType": "uint256",
          "name": "slotId",
          "type": "uint256"
        }
      ],
      "name": "AgreementStateUpdated",
      "type": "event"
    },
    {
      "anonymous": false,
      "inputs": [
        {
          "indexed": true,
          "internalType": "address",
          "name": "agreementClass",
          "type": "address"
        },
        {
          "indexed": false,
          "internalType": "bytes32",
          "name": "id",
          "type": "bytes32"
        }
      ],
      "name": "AgreementTerminated",
      "type": "event"
    },
    {
      "anonymous": false,
      "inputs": [
        {
          "indexed": true,
          "internalType": "address",
          "name": "agreementClass",
          "type": "address"
        },
        {
          "indexed": false,
          "internalType": "bytes32",
          "name": "id",
          "type": "bytes32"
        },
        {
          "indexed": false,
          "internalType": "bytes32[]",
          "name": "data",
          "type": "bytes32[]"
        }
      ],
      "name": "AgreementUpdated",
      "type": "event"
    },
    {
      "anonymous": false,
      "inputs": [
        {
          "indexed": true,
          "internalType": "address",
          "name": "owner",
          "type": "address"
        },
        {
          "indexed": true,
          "internalType": "address",
          "name": "spender",
          "type": "address"
        },
        {
          "indexed": false,
          "internalType": "uint256",
          "name": "value",
          "type": "uint256"
        }
      ],
      "name": "Approval",
      "type": "event"
    },
    {
      "anonymous": false,
      "inputs": [
        {
          "indexed": true,
          "internalType": "address",
          "name": "operator",
          "type": "address"
        },
        {
          "indexed": true,
          "internalType": "address",
          "name": "tokenHolder",
          "type": "address"
        }
      ],
      "name": "AuthorizedOperator",
      "type": "event"
    },
    {
      "anonymous": false,
      "inputs": [
        {
          "indexed": true,
          "internalType": "address",
          "name": "bailoutAccount",
          "type": "address"
        },
        {
          "indexed": false,
          "internalType": "uint256",
          "name": "bailoutAmount",
          "type": "uint256"
        }
      ],
      "name": "Bailout",
      "type": "event"
    },
    {
      "anonymous": false,
      "inputs": [
        {
          "indexed": true,
          "internalType": "address",
          "name": "operator",
          "type": "address"
        },
        {
          "indexed": true,
          "internalType": "address",
          "name": "from",
          "type": "address"
        },
        {
          "indexed": false,
          "internalType": "uint256",
          "name": "amount",
          "type": "uint256"
        },
        {
          "indexed": false,
          "internalType": "bytes",
          "name": "data",
          "type": "bytes"
        },
        {
          "indexed": false,
          "internalType": "bytes",
          "name": "operatorData",
          "type": "bytes"
        }
      ],
      "name": "Burned",
      "type": "event"
    },
    {
      "anonymous": false,
      "inputs": [
        {
          "indexed": false,
          "internalType": "bytes32",
          "name": "uuid",
          "type": "bytes32"
        },
        {
          "indexed": false,
          "internalType": "address",
          "name": "codeAddress",
          "type": "address"
        }
      ],
      "name": "CodeUpdated",
      "type": "event"
    },
    {
      "anonymous": false,
      "inputs": [
        {
          "indexed": false,
          "internalType": "uint8",
          "name": "version",
          "type": "uint8"
        }
      ],
      "name": "Initialized",
      "type": "event"
    },
    {
      "anonymous": false,
      "inputs": [
        {
          "indexed": true,
          "internalType": "address",
          "name": "operator",
          "type": "address"
        },
        {
          "indexed": true,
          "internalType": "address",
          "name": "to",
          "type": "address"
        },
        {
          "indexed": false,
          "internalType": "uint256",
          "name": "amount",
          "type": "uint256"
        },
        {
          "indexed": false,
          "internalType": "bytes",
          "name": "data",
          "type": "bytes"
        },
        {
          "indexed": false,
          "internalType": "bytes",
          "name": "operatorData",
          "type": "bytes"
        }
      ],
      "name": "Minted",
      "type": "event"
    },
    {
      "anonymous": false,
      "inputs": [
        {
          "indexed": true,
          "internalType": "contract IPoolAdminNFT",
          "name": "poolAdminNFT",
          "type": "address"
        }
      ],
      "name": "PoolAdminNFTCreated",
      "type": "event"
    },
    {
      "anonymous": false,
      "inputs": [
        {
          "indexed": true,
          "internalType": "contract IPoolMemberNFT",
          "name": "poolMemberNFT",
          "type": "address"
        }
      ],
      "name": "PoolMemberNFTCreated",
      "type": "event"
    },
    {
      "anonymous": false,
      "inputs": [
        {
          "indexed": true,
          "internalType": "address",
          "name": "operator",
          "type": "address"
        },
        {
          "indexed": true,
          "internalType": "address",
          "name": "tokenHolder",
          "type": "address"
        }
      ],
      "name": "RevokedOperator",
      "type": "event"
    },
    {
      "anonymous": false,
      "inputs": [
        {
          "indexed": true,
          "internalType": "address",
          "name": "operator",
          "type": "address"
        },
        {
          "indexed": true,
          "internalType": "address",
          "name": "from",
          "type": "address"
        },
        {
          "indexed": true,
          "internalType": "address",
          "name": "to",
          "type": "address"
        },
        {
          "indexed": false,
          "internalType": "uint256",
          "name": "amount",
          "type": "uint256"
        },
        {
          "indexed": false,
          "internalType": "bytes",
          "name": "data",
          "type": "bytes"
        },
        {
          "indexed": false,
          "internalType": "bytes",
          "name": "operatorData",
          "type": "bytes"
        }
      ],
      "name": "Sent",
      "type": "event"
    },
    {
      "anonymous": false,
      "inputs": [
        {
          "indexed": true,
          "internalType": "address",
          "name": "account",
          "type": "address"
        },
        {
          "indexed": false,
          "internalType": "uint256",
          "name": "amount",
          "type": "uint256"
        }
      ],
      "name": "TokenDowngraded",
      "type": "event"
    },
    {
      "anonymous": false,
      "inputs": [
        {
          "indexed": true,
          "internalType": "address",
          "name": "account",
          "type": "address"
        },
        {
          "indexed": false,
          "internalType": "uint256",
          "name": "amount",
          "type": "uint256"
        }
      ],
      "name": "TokenUpgraded",
      "type": "event"
    },
    {
      "anonymous": false,
      "inputs": [
        {
          "indexed": true,
          "internalType": "address",
          "name": "from",
          "type": "address"
        },
        {
          "indexed": true,
          "internalType": "address",
          "name": "to",
          "type": "address"
        },
        {
          "indexed": false,
          "internalType": "uint256",
          "name": "value",
          "type": "uint256"
        }
      ],
      "name": "Transfer",
      "type": "event"
    },
    {
      "inputs": [],
      "name": "CONSTANT_INFLOW_NFT",
      "outputs": [
        {
          "internalType": "contract IConstantInflowNFT",
          "name": "",
          "type": "address"
        }
      ],
      "stateMutability": "view",
      "type": "function"
    },
    {
      "inputs": [],
      "name": "CONSTANT_OUTFLOW_NFT",
      "outputs": [
        {
          "internalType": "contract IConstantOutflowNFT",
          "name": "",
          "type": "address"
        }
      ],
      "stateMutability": "view",
      "type": "function"
    },
    {
      "inputs": [],
      "name": "POOL_ADMIN_NFT",
      "outputs": [
        {
          "internalType": "contract IPoolAdminNFT",
          "name": "",
          "type": "address"
        }
      ],
      "stateMutability": "view",
      "type": "function"
    },
    {
      "inputs": [],
      "name": "POOL_MEMBER_NFT",
      "outputs": [
        {
          "internalType": "contract IPoolMemberNFT",
          "name": "",
          "type": "address"
        }
      ],
      "stateMutability": "view",
      "type": "function"
    },
    {
      "inputs": [],
      "name": "castrate",
      "outputs": [],
      "stateMutability": "nonpayable",
      "type": "function"
    },
    {
      "inputs": [
        {
          "internalType": "bytes32",
          "name": "id",
          "type": "bytes32"
        },
        {
          "internalType": "bytes32[]",
          "name": "data",
          "type": "bytes32[]"
        }
      ],
      "name": "createAgreement",
      "outputs": [],
      "stateMutability": "nonpayable",
      "type": "function"
    },
    {
      "inputs": [
        {
          "internalType": "address",
          "name": "account",
          "type": "address"
        }
      ],
      "name": "getAccountActiveAgreements",
      "outputs": [
        {
          "internalType": "contract ISuperAgreement[]",
          "name": "",
          "type": "address[]"
        }
      ],
      "stateMutability": "view",
      "type": "function"
    },
    {
      "inputs": [
        {
          "internalType": "address",
          "name": "agreementClass",
          "type": "address"
        },
        {
          "internalType": "bytes32",
          "name": "id",
          "type": "bytes32"
        },
        {
          "internalType": "uint256",
          "name": "dataLength",
          "type": "uint256"
        }
      ],
      "name": "getAgreementData",
      "outputs": [
        {
          "internalType": "bytes32[]",
          "name": "data",
          "type": "bytes32[]"
        }
      ],
      "stateMutability": "view",
      "type": "function"
    },
    {
      "inputs": [
        {
          "internalType": "address",
          "name": "agreementClass",
          "type": "address"
        },
        {
          "internalType": "address",
          "name": "account",
          "type": "address"
        },
        {
          "internalType": "uint256",
          "name": "slotId",
          "type": "uint256"
        },
        {
          "internalType": "uint256",
          "name": "dataLength",
          "type": "uint256"
        }
      ],
      "name": "getAgreementStateSlot",
      "outputs": [
        {
          "internalType": "bytes32[]",
          "name": "slotData",
          "type": "bytes32[]"
        }
      ],
      "stateMutability": "view",
      "type": "function"
    },
    {
      "inputs": [],
      "name": "getCodeAddress",
      "outputs": [
        {
          "internalType": "address",
          "name": "codeAddress",
          "type": "address"
        }
      ],
      "stateMutability": "view",
      "type": "function"
    },
    {
      "inputs": [],
      "name": "getHost",
      "outputs": [
        {
          "internalType": "address",
          "name": "host",
          "type": "address"
        }
      ],
      "stateMutability": "view",
      "type": "function"
    },
    {
      "inputs": [
        {
          "internalType": "address",
          "name": "account",
          "type": "address"
        },
        {
          "internalType": "uint256",
          "name": "timestamp",
          "type": "uint256"
        }
      ],
      "name": "isAccountCritical",
      "outputs": [
        {
          "internalType": "bool",
          "name": "isCritical",
          "type": "bool"
        }
      ],
      "stateMutability": "view",
      "type": "function"
    },
    {
      "inputs": [
        {
          "internalType": "address",
          "name": "account",
          "type": "address"
        }
      ],
      "name": "isAccountCriticalNow",
      "outputs": [
        {
          "internalType": "bool",
          "name": "isCritical",
          "type": "bool"
        }
      ],
      "stateMutability": "view",
      "type": "function"
    },
    {
      "inputs": [
        {
          "internalType": "address",
          "name": "account",
          "type": "address"
        },
        {
          "internalType": "uint256",
          "name": "timestamp",
          "type": "uint256"
        }
      ],
      "name": "isAccountSolvent",
      "outputs": [
        {
          "internalType": "bool",
          "name": "isSolvent",
          "type": "bool"
        }
      ],
      "stateMutability": "view",
      "type": "function"
    },
    {
      "inputs": [
        {
          "internalType": "address",
          "name": "account",
          "type": "address"
        }
      ],
      "name": "isAccountSolventNow",
      "outputs": [
        {
          "internalType": "bool",
          "name": "isSolvent",
          "type": "bool"
        }
      ],
      "stateMutability": "view",
      "type": "function"
    },
    {
      "inputs": [
        {
          "internalType": "bytes32",
          "name": "id",
          "type": "bytes32"
        },
        {
          "internalType": "bytes",
          "name": "liquidationTypeData",
          "type": "bytes"
        },
        {
          "internalType": "address",
          "name": "liquidatorAccount",
          "type": "address"
        },
        {
          "internalType": "bool",
          "name": "useDefaultRewardAccount",
          "type": "bool"
        },
        {
          "internalType": "address",
          "name": "targetAccount",
          "type": "address"
        },
        {
          "internalType": "uint256",
          "name": "rewardAmount",
          "type": "uint256"
        },
        {
          "internalType": "int256",
          "name": "targetAccountBalanceDelta",
          "type": "int256"
        }
      ],
      "name": "makeLiquidationPayoutsV2",
      "outputs": [],
      "stateMutability": "nonpayable",
      "type": "function"
    },
    {
      "inputs": [
        {
          "internalType": "address",
          "name": "account",
          "type": "address"
        },
        {
          "internalType": "uint256",
          "name": "timestamp",
          "type": "uint256"
        }
      ],
      "name": "realtimeBalanceOf",
      "outputs": [
        {
          "internalType": "int256",
          "name": "availableBalance",
          "type": "int256"
        },
        {
          "internalType": "uint256",
          "name": "deposit",
          "type": "uint256"
        },
        {
          "internalType": "uint256",
          "name": "owedDeposit",
          "type": "uint256"
        }
      ],
      "stateMutability": "view",
      "type": "function"
    },
    {
      "inputs": [
        {
          "internalType": "address",
          "name": "account",
          "type": "address"
        }
      ],
      "name": "realtimeBalanceOfNow",
      "outputs": [
        {
          "internalType": "int256",
          "name": "availableBalance",
          "type": "int256"
        },
        {
          "internalType": "uint256",
          "name": "deposit",
          "type": "uint256"
        },
        {
          "internalType": "uint256",
          "name": "owedDeposit",
          "type": "uint256"
        },
        {
          "internalType": "uint256",
          "name": "timestamp",
          "type": "uint256"
        }
      ],
      "stateMutability": "view",
      "type": "function"
    },
    {
      "inputs": [
        {
          "internalType": "address",
          "name": "account",
          "type": "address"
        },
        {
          "internalType": "int256",
          "name": "delta",
          "type": "int256"
        }
      ],
      "name": "settleBalance",
      "outputs": [],
      "stateMutability": "nonpayable",
      "type": "function"
    },
    {
      "inputs": [
        {
          "internalType": "bytes32",
          "name": "id",
          "type": "bytes32"
        },
        {
          "internalType": "uint256",
          "name": "dataLength",
          "type": "uint256"
        }
      ],
      "name": "terminateAgreement",
      "outputs": [],
      "stateMutability": "nonpayable",
      "type": "function"
    },
    {
      "inputs": [
        {
          "internalType": "bytes32",
          "name": "id",
          "type": "bytes32"
        },
        {
          "internalType": "bytes32[]",
          "name": "data",
          "type": "bytes32[]"
        }
      ],
      "name": "updateAgreementData",
      "outputs": [],
      "stateMutability": "nonpayable",
      "type": "function"
    },
    {
      "inputs": [
        {
          "internalType": "address",
          "name": "account",
          "type": "address"
        },
        {
          "internalType": "uint256",
          "name": "slotId",
          "type": "uint256"
        },
        {
          "internalType": "bytes32[]",
          "name": "slotData",
          "type": "bytes32[]"
        }
      ],
      "name": "updateAgreementStateSlot",
      "outputs": [],
      "stateMutability": "nonpayable",
      "type": "function"
    },
    {
      "inputs": [
        {
          "internalType": "contract IERC20",
          "name": "underlyingToken",
          "type": "address"
        },
        {
          "internalType": "uint8",
          "name": "underlyingDecimals",
          "type": "uint8"
        },
        {
          "internalType": "string",
          "name": "n",
          "type": "string"
        },
        {
          "internalType": "string",
          "name": "s",
          "type": "string"
        }
      ],
      "name": "initialize",
      "outputs": [],
      "stateMutability": "nonpayable",
      "type": "function"
    },
    {
      "inputs": [
        {
          "internalType": "contract IERC20",
          "name": "underlyingToken",
          "type": "address"
        },
        {
          "internalType": "uint8",
          "name": "underlyingDecimals",
          "type": "uint8"
        },
        {
          "internalType": "string",
          "name": "n",
          "type": "string"
        },
        {
          "internalType": "string",
          "name": "s",
          "type": "string"
        },
        {
          "internalType": "address",
          "name": "admin",
          "type": "address"
        }
      ],
      "name": "initializeWithAdmin",
      "outputs": [],
      "stateMutability": "nonpayable",
      "type": "function"
    },
    {
      "inputs": [],
      "name": "proxiableUUID",
      "outputs": [
        {
          "internalType": "bytes32",
          "name": "",
          "type": "bytes32"
        }
      ],
      "stateMutability": "pure",
      "type": "function"
    },
    {
      "inputs": [
        {
          "internalType": "address",
          "name": "newAddress",
          "type": "address"
        }
      ],
      "name": "updateCode",
      "outputs": [],
      "stateMutability": "nonpayable",
      "type": "function"
    },
    {
      "inputs": [
        {
          "internalType": "address",
          "name": "newAdmin",
          "type": "address"
        }
      ],
      "name": "changeAdmin",
      "outputs": [],
      "stateMutability": "nonpayable",
      "type": "function"
    },
    {
      "inputs": [],
      "name": "getAdmin",
      "outputs": [
        {
          "internalType": "address",
          "name": "",
          "type": "address"
        }
      ],
      "stateMutability": "view",
      "type": "function"
    },
    {
      "inputs": [],
      "name": "name",
      "outputs": [
        {
          "internalType": "string",
          "name": "",
          "type": "string"
        }
      ],
      "stateMutability": "view",
      "type": "function"
    },
    {
      "inputs": [],
      "name": "symbol",
      "outputs": [
        {
          "internalType": "string",
          "name": "",
          "type": "string"
        }
      ],
      "stateMutability": "view",
      "type": "function"
    },
    {
      "inputs": [],
      "name": "decimals",
      "outputs": [
        {
          "internalType": "uint8",
          "name": "",
          "type": "uint8"
        }
      ],
      "stateMutability": "pure",
      "type": "function"
    },
    {
      "inputs": [],
      "name": "totalSupply",
      "outputs": [
        {
          "internalType": "uint256",
          "name": "",
          "type": "uint256"
        }
      ],
      "stateMutability": "view",
      "type": "function"
    },
    {
      "inputs": [
        {
          "internalType": "address",
          "name": "account",
          "type": "address"
        }
      ],
      "name": "balanceOf",
      "outputs": [
        {
          "internalType": "uint256",
          "name": "balance",
          "type": "uint256"
        }
      ],
      "stateMutability": "view",
      "type": "function"
    },
    {
      "inputs": [
        {
          "internalType": "address",
          "name": "recipient",
          "type": "address"
        },
        {
          "internalType": "uint256",
          "name": "amount",
          "type": "uint256"
        }
      ],
      "name": "transfer",
      "outputs": [
        {
          "internalType": "bool",
          "name": "",
          "type": "bool"
        }
      ],
      "stateMutability": "nonpayable",
      "type": "function"
    },
    {
      "inputs": [
        {
          "internalType": "address",
          "name": "account",
          "type": "address"
        },
        {
          "internalType": "address",
          "name": "spender",
          "type": "address"
        }
      ],
      "name": "allowance",
      "outputs": [
        {
          "internalType": "uint256",
          "name": "",
          "type": "uint256"
        }
      ],
      "stateMutability": "view",
      "type": "function"
    },
    {
      "inputs": [
        {
          "internalType": "address",
          "name": "spender",
          "type": "address"
        },
        {
          "internalType": "uint256",
          "name": "amount",
          "type": "uint256"
        }
      ],
      "name": "approve",
      "outputs": [
        {
          "internalType": "bool",
          "name": "",
          "type": "bool"
        }
      ],
      "stateMutability": "nonpayable",
      "type": "function"
    },
    {
      "inputs": [
        {
          "internalType": "address",
          "name": "holder",
          "type": "address"
        },
        {
          "internalType": "address",
          "name": "recipient",
          "type": "address"
        },
        {
          "internalType": "uint256",
          "name": "amount",
          "type": "uint256"
        }
      ],
      "name": "transferFrom",
      "outputs": [
        {
          "internalType": "bool",
          "name": "",
          "type": "bool"
        }
      ],
      "stateMutability": "nonpayable",
      "type": "function"
    },
    {
      "inputs": [
        {
          "internalType": "address",
          "name": "spender",
          "type": "address"
        },
        {
          "internalType": "uint256",
          "name": "addedValue",
          "type": "uint256"
        }
      ],
      "name": "increaseAllowance",
      "outputs": [
        {
          "internalType": "bool",
          "name": "",
          "type": "bool"
        }
      ],
      "stateMutability": "nonpayable",
      "type": "function"
    },
    {
      "inputs": [
        {
          "internalType": "address",
          "name": "spender",
          "type": "address"
        },
        {
          "internalType": "uint256",
          "name": "subtractedValue",
          "type": "uint256"
        }
      ],
      "name": "decreaseAllowance",
      "outputs": [
        {
          "internalType": "bool",
          "name": "",
          "type": "bool"
        }
      ],
      "stateMutability": "nonpayable",
      "type": "function"
    },
    {
      "inputs": [],
      "name": "granularity",
      "outputs": [
        {
          "internalType": "uint256",
          "name": "",
          "type": "uint256"
        }
      ],
      "stateMutability": "pure",
      "type": "function"
    },
    {
      "inputs": [
        {
          "internalType": "address",
          "name": "recipient",
          "type": "address"
        },
        {
          "internalType": "uint256",
          "name": "amount",
          "type": "uint256"
        },
        {
          "internalType": "bytes",
          "name": "userData",
          "type": "bytes"
        }
      ],
      "name": "send",
      "outputs": [],
      "stateMutability": "nonpayable",
      "type": "function"
    },
    {
      "inputs": [
        {
          "internalType": "uint256",
          "name": "amount",
          "type": "uint256"
        },
        {
          "internalType": "bytes",
          "name": "userData",
          "type": "bytes"
        }
      ],
      "name": "burn",
      "outputs": [],
      "stateMutability": "nonpayable",
      "type": "function"
    },
    {
      "inputs": [
        {
          "internalType": "address",
          "name": "operator",
          "type": "address"
        },
        {
          "internalType": "address",
          "name": "tokenHolder",
          "type": "address"
        }
      ],
      "name": "isOperatorFor",
      "outputs": [
        {
          "internalType": "bool",
          "name": "",
          "type": "bool"
        }
      ],
      "stateMutability": "view",
      "type": "function"
    },
    {
      "inputs": [
        {
          "internalType": "address",
          "name": "operator",
          "type": "address"
        }
      ],
      "name": "authorizeOperator",
      "outputs": [],
      "stateMutability": "nonpayable",
      "type": "function"
    },
    {
      "inputs": [
        {
          "internalType": "address",
          "name": "operator",
          "type": "address"
        }
      ],
      "name": "revokeOperator",
      "outputs": [],
      "stateMutability": "nonpayable",
      "type": "function"
    },
    {
      "inputs": [],
      "name": "defaultOperators",
      "outputs": [
        {
          "internalType": "address[]",
          "name": "",
          "type": "address[]"
        }
      ],
      "stateMutability": "view",
      "type": "function"
    },
    {
      "inputs": [
        {
          "internalType": "address",
          "name": "sender",
          "type": "address"
        },
        {
          "internalType": "address",
          "name": "recipient",
          "type": "address"
        },
        {
          "internalType": "uint256",
          "name": "amount",
          "type": "uint256"
        },
        {
          "internalType": "bytes",
          "name": "userData",
          "type": "bytes"
        },
        {
          "internalType": "bytes",
          "name": "operatorData",
          "type": "bytes"
        }
      ],
      "name": "operatorSend",
      "outputs": [],
      "stateMutability": "nonpayable",
      "type": "function"
    },
    {
      "inputs": [
        {
          "internalType": "address",
          "name": "account",
          "type": "address"
        },
        {
          "internalType": "uint256",
          "name": "amount",
          "type": "uint256"
        },
        {
          "internalType": "bytes",
          "name": "userData",
          "type": "bytes"
        },
        {
          "internalType": "bytes",
          "name": "operatorData",
          "type": "bytes"
        }
      ],
      "name": "operatorBurn",
      "outputs": [],
      "stateMutability": "nonpayable",
      "type": "function"
    },
    {
      "inputs": [
        {
          "internalType": "address",
          "name": "account",
          "type": "address"
        },
        {
          "internalType": "uint256",
          "name": "amount",
          "type": "uint256"
        },
        {
          "internalType": "bytes",
          "name": "userData",
          "type": "bytes"
        }
      ],
      "name": "selfMint",
      "outputs": [],
      "stateMutability": "nonpayable",
      "type": "function"
    },
    {
      "inputs": [
        {
          "internalType": "address",
          "name": "account",
          "type": "address"
        },
        {
          "internalType": "uint256",
          "name": "amount",
          "type": "uint256"
        },
        {
          "internalType": "bytes",
          "name": "userData",
          "type": "bytes"
        }
      ],
      "name": "selfBurn",
      "outputs": [],
      "stateMutability": "nonpayable",
      "type": "function"
    },
    {
      "inputs": [
        {
          "internalType": "address",
          "name": "account",
          "type": "address"
        },
        {
          "internalType": "address",
          "name": "spender",
          "type": "address"
        },
        {
          "internalType": "uint256",
          "name": "amount",
          "type": "uint256"
        }
      ],
      "name": "selfApproveFor",
      "outputs": [],
      "stateMutability": "nonpayable",
      "type": "function"
    },
    {
      "inputs": [
        {
          "internalType": "address",
          "name": "holder",
          "type": "address"
        },
        {
          "internalType": "address",
          "name": "spender",
          "type": "address"
        },
        {
          "internalType": "address",
          "name": "recipient",
          "type": "address"
        },
        {
          "internalType": "uint256",
          "name": "amount",
          "type": "uint256"
        }
      ],
      "name": "selfTransferFrom",
      "outputs": [],
      "stateMutability": "nonpayable",
      "type": "function"
    },
    {
      "inputs": [
        {
          "internalType": "address",
          "name": "recipient",
          "type": "address"
        }
      ],
      "name": "transferAll",
      "outputs": [],
      "stateMutability": "nonpayable",
      "type": "function"
    },
    {
      "inputs": [],
      "name": "getUnderlyingToken",
      "outputs": [
        {
          "internalType": "address",
          "name": "",
          "type": "address"
        }
      ],
      "stateMutability": "view",
      "type": "function"
    },
    {
      "inputs": [],
      "name": "getUnderlyingDecimals",
      "outputs": [
        {
          "internalType": "uint8",
          "name": "",
          "type": "uint8"
        }
      ],
      "stateMutability": "view",
      "type": "function"
    },
    {
      "inputs": [
        {
          "internalType": "uint256",
          "name": "amount",
          "type": "uint256"
        }
      ],
      "name": "toUnderlyingAmount",
      "outputs": [
        {
          "internalType": "uint256",
          "name": "underlyingAmount",
          "type": "uint256"
        },
        {
          "internalType": "uint256",
          "name": "adjustedAmount",
          "type": "uint256"
        }
      ],
      "stateMutability": "view",
      "type": "function"
    },
    {
      "inputs": [
        {
          "internalType": "uint256",
          "name": "amount",
          "type": "uint256"
        }
      ],
      "name": "upgrade",
      "outputs": [],
      "stateMutability": "nonpayable",
      "type": "function"
    },
    {
      "inputs": [
        {
          "internalType": "address",
          "name": "to",
          "type": "address"
        },
        {
          "internalType": "uint256",
          "name": "amount",
          "type": "uint256"
        },
        {
          "internalType": "bytes",
          "name": "userData",
          "type": "bytes"
        }
      ],
      "name": "upgradeTo",
      "outputs": [],
      "stateMutability": "nonpayable",
      "type": "function"
    },
    {
      "inputs": [
        {
          "internalType": "uint256",
          "name": "amount",
          "type": "uint256"
        }
      ],
      "name": "downgrade",
      "outputs": [],
      "stateMutability": "nonpayable",
      "type": "function"
    },
    {
      "inputs": [
        {
          "internalType": "address",
          "name": "to",
          "type": "address"
        },
        {
          "internalType": "uint256",
          "name": "amount",
          "type": "uint256"
        }
      ],
      "name": "downgradeTo",
      "outputs": [],
      "stateMutability": "nonpayable",
      "type": "function"
    },
    {
      "inputs": [
        {
          "internalType": "address",
          "name": "account",
          "type": "address"
        },
        {
          "internalType": "address",
          "name": "spender",
          "type": "address"
        },
        {
          "internalType": "uint256",
          "name": "amount",
          "type": "uint256"
        }
      ],
      "name": "operationApprove",
      "outputs": [],
      "stateMutability": "nonpayable",
      "type": "function"
    },
    {
      "inputs": [
        {
          "internalType": "address",
          "name": "account",
          "type": "address"
        },
        {
          "internalType": "address",
          "name": "spender",
          "type": "address"
        },
        {
          "internalType": "uint256",
          "name": "addedValue",
          "type": "uint256"
        }
      ],
      "name": "operationIncreaseAllowance",
      "outputs": [],
      "stateMutability": "nonpayable",
      "type": "function"
    },
    {
      "inputs": [
        {
          "internalType": "address",
          "name": "account",
          "type": "address"
        },
        {
          "internalType": "address",
          "name": "spender",
          "type": "address"
        },
        {
          "internalType": "uint256",
          "name": "subtractedValue",
          "type": "uint256"
        }
      ],
      "name": "operationDecreaseAllowance",
      "outputs": [],
      "stateMutability": "nonpayable",
      "type": "function"
    },
    {
      "inputs": [
        {
          "internalType": "address",
          "name": "account",
          "type": "address"
        },
        {
          "internalType": "address",
          "name": "spender",
          "type": "address"
        },
        {
          "internalType": "address",
          "name": "recipient",
          "type": "address"
        },
        {
          "internalType": "uint256",
          "name": "amount",
          "type": "uint256"
        }
      ],
      "name": "operationTransferFrom",
      "outputs": [],
      "stateMutability": "nonpayable",
      "type": "function"
    },
    {
      "inputs": [
        {
          "internalType": "address",
          "name": "spender",
          "type": "address"
        },
        {
          "internalType": "address",
          "name": "recipient",
          "type": "address"
        },
        {
          "internalType": "uint256",
          "name": "amount",
          "type": "uint256"
        },
        {
          "internalType": "bytes",
          "name": "userData",
          "type": "bytes"
        }
      ],
      "name": "operationSend",
      "outputs": [],
      "stateMutability": "nonpayable",
      "type": "function"
    },
    {
      "inputs": [
        {
          "internalType": "address",
          "name": "account",
          "type": "address"
        },
        {
          "internalType": "uint256",
          "name": "amount",
          "type": "uint256"
        }
      ],
      "name": "operationUpgrade",
      "outputs": [],
      "stateMutability": "nonpayable",
      "type": "function"
    },
    {
      "inputs": [
        {
          "internalType": "address",
          "name": "account",
          "type": "address"
        },
        {
          "internalType": "uint256",
          "name": "amount",
          "type": "uint256"
        }
      ],
      "name": "operationDowngrade",
      "outputs": [],
      "stateMutability": "nonpayable",
      "type": "function"
    },
    {
      "inputs": [
        {
          "internalType": "address",
          "name": "account",
          "type": "address"
        },
        {
          "internalType": "address",
          "name": "to",
          "type": "address"
        },
        {
          "internalType": "uint256",
          "name": "amount",
          "type": "uint256"
        }
      ],
      "name": "operationUpgradeTo",
      "outputs": [],
      "stateMutability": "nonpayable",
      "type": "function"
    },
    {
      "inputs": [
        {
          "internalType": "address",
          "name": "account",
          "type": "address"
        },
        {
          "internalType": "address",
          "name": "to",
          "type": "address"
        },
        {
          "internalType": "uint256",
          "name": "amount",
          "type": "uint256"
        }
      ],
      "name": "operationDowngradeTo",
      "outputs": [],
      "stateMutability": "nonpayable",
      "type": "function"
    }
  ],
  "bytecode": "0x61012060405234801561001157600080fd5b5060405161507d38038061507d833981016040819052610030916100d8565b6001600160a01b0380861660805284811660a05283811660c05282811661010081905290821660e0526040517feb87fb34067547f3dc0b85096c3da73c99d4fbb08ff41212b8d7c0b5008b42e690600090a26040516001600160a01b038216907fc1050c54a299c837fe281a2623c29ec8e34b455daef48760b6a29f4b6cc9906090600090a2505050505061014d565b6001600160a01b03811681146100d557600080fd5b50565b600080600080600060a086880312156100f057600080fd5b85516100fb816100c0565b602087015190955061010c816100c0565b604087015190945061011d816100c0565b606087015190935061012e816100c0565b608087015190925061013f816100c0565b809150509295509295909350565b60805160a05160c05160e05161010051614e59610224600039600061083e015260006109c2015260006106880152600061099b0152600081816104ea01528181610c9e01528181610d0d0152818161102d015281816110bd015281816111ed015281816112bc015281816114d3015281816115290152818161159e015281816116e6015281816118910152818161197001528181611d6101528181611e2b01528181611ec301528181611f2b01528181611fb301528181612863015281816128fa015281816139ee0152613c2d0152614e596000f3fe608060405234801561001057600080fd5b50600436106104075760003560e01c80636c2d9f2f11610220578063b84cdd4a11610130578063dd62ed3e116100b8578063ef43d2c611610087578063ef43d2c614610996578063f5a8b4dd146109bd578063fad8b32a146109e4578063fc673c4f146109f7578063fe9d930314610a0a57600080fd5b8063dd62ed3e1461090b578063eb3537cc14610944578063ec0d634314610972578063ee719bc81461098557600080fd5b8063ca0c1e7f116100ff578063ca0c1e7f146108ac578063ca789464146108bf578063cf97256d146108d2578063d95b6371146108e5578063d9d078d6146108f857600080fd5b8063b84cdd4a14610860578063bb0d196e14610873578063c68d428314610886578063c780fd821461089957600080fd5b806395d89b41116101b3578063a1b2bf8b11610182578063a1b2bf8b146107ed578063a3a7e7f314610800578063a457c2d714610813578063a9059cbb14610826578063b20db1ac1461083957600080fd5b806395d89b41146107b75780639903ad38146107bf5780639bd9bbc6146107c75780639d876741146107da57600080fd5b806383ba2525116101ef57806383ba25251461076c5780638f2839701461077f57806392081a4714610792578063959b8c3f146107a457600080fd5b80636c2d9f2f1461072b5780636e9960c31461073e57806370a082311461074657806379359f6f1461075957600080fd5b8063386fa2211161031b5780634b61cc33116102ae578063556f0dc71161027d578063556f0dc7146106d85780635b9d09cc146106df57806362aa5287146106f257806362ad1b831461070557806366a12fb61461071857600080fd5b80634b61cc33146106635780634c5c0c851461068357806350d75d25146106aa57806352d1902d146106b257600080fd5b806345977d03116102ea57806345977d0314610617578063469519541461062a57806347ba7ad11461063d5780634b2763b31461065057600080fd5b8063386fa221146105cb57806339509351146105de57806341b706be146105f157806342fe09801461060457600080fd5b80631863e8091161039e578063245887fc1161036d578063245887fc146105355780632704839714610548578063282a050b1461055b5780632ec8eec714610583578063313ce567146105b657600080fd5b80631863e809146104c25780631ae88ffc146104d557806320bc4425146104e857806323b872dd1461052257600080fd5b806311bcc81e116103da57806311bcc81e1461047757806312a6a3f81461048a57806316d055d61461049d57806318160ddd146104b057600080fd5b806306e485381461040c57806306fdde031461042a578063090c415e1461043f578063095ea7b314610454575b600080fd5b610414610a1d565b6040516104219190613e47565b60405180910390f35b610432610a2e565b6040516104219190613ee3565b61045261044d366004613f56565b610ac0565b005b610467610462366004613fb1565b610b73565b6040519015158152602001610421565b610452610485366004613fdd565b610b8a565b610452610498366004613ff6565b610bb9565b6104526104ab366004614041565b610c9c565b6003545b604051908152602001610421565b6104526104d0366004614155565b610cf8565b6104526104e33660046141e7565b61102b565b7f00000000000000000000000000000000000000000000000000000000000000005b6040516001600160a01b039091168152602001610421565b6104676105303660046141e7565b6110a5565b610452610543366004613fb1565b6110bb565b610452610556366004614228565b611134565b61056e610569366004613fdd565b6111d0565b60408051928352602083019190915201610421565b61059661059136600461424a565b6111e5565b604080519485526020850193909352918301526060820152608001610421565b60125b60405160ff9091168152602001610421565b6104146105d936600461424a565b611288565b6104676105ec366004613fb1565b61132b565b6104526105ff366004614041565b611367565b6104526106123660046142be565b611393565b610452610625366004613fdd565b611474565b61045261063836600461424a565b6114a0565b61045261064b3660046141e7565b611527565b61045261065e3660046141e7565b61159c565b610676610671366004614354565b61161e565b604051610421919061439a565b61050a7f000000000000000000000000000000000000000000000000000000000000000081565b61050a611663565b7f6bfbb132610e56cb96575dba244667b9d6dbfeffe22b68a79fa16f2d18eb00196104b4565b60016104b4565b6104526106ed3660046143d2565b61168d565b6104526107003660046141e7565b6116e4565b610452610713366004614421565b611738565b6104526107263660046141e7565b6117e6565b6106766107393660046144c3565b611806565b61050a611848565b6104b461075436600461424a565b611860565b61046761076736600461424a565b611889565b61045261077a366004613fb1565b611911565b61045261078d36600461424a565b61193d565b600e54600160a01b900460ff166105b9565b6104526107b236600461424a565b611a31565b610432611a82565b610452611a91565b6104526107d53660046143d2565b611b53565b6104526107e83660046144f8565b611ba7565b6104526107fb366004613ff6565b611bed565b61045261080e36600461424a565b611c97565b610467610821366004613fb1565b611cab565b610467610834366004613fb1565b611cfa565b61050a7f000000000000000000000000000000000000000000000000000000000000000081565b61046761086e366004613fb1565b611d08565b61046761088136600461424a565b611d59565b6104526108943660046144f8565b611de1565b6104526108a73660046141e7565b611e29565b6104526108ba366004614550565b611ec1565b6104526108cd366004613fb1565b611f29565b6104526108e0366004613fb1565b611f9e565b6104676108f33660046145bb565b612087565b610467610906366004613fb1565b612095565b6104b46109193660046145bb565b6001600160a01b03918216600090815260116020908152604080832093909416825291909152205490565b610957610952366004613fb1565b6120af565b60408051938452602084019290925290820152606001610421565b6104526109803660046145f4565b6121e3565b600e546001600160a01b031661050a565b61050a7f000000000000000000000000000000000000000000000000000000000000000081565b61050a7f000000000000000000000000000000000000000000000000000000000000000081565b6104526109f236600461424a565b6122ba565b610452610a0536600461469e565b61230b565b610452610a183660046146e4565b6123ac565b6060610a2960126123fd565b905090565b6060600f8054610a3d90614722565b80601f0160208091040260200160405190810160405280929190818152602001828054610a6990614722565b8015610ab65780601f10610a8b57610100808354040283529160200191610ab6565b820191906000526020600020905b815481529060010190602001808311610a9957829003601f168201915b5050505050905090565b6000338585604051602001610ad79392919061475c565b604051602081830303815290604052805190602001209050610b2c8184848080602002602001604051908101604052809392919081815260200183836020028082843760009201919091525061246392505050565b6040518481526001600160a01b0386169033907f30f416fa68fca014a0f334464c64b000ba53e99b6d2afdea9d5ca756372d59859060200160405180910390a35050505050565b6000610b8033848461249b565b5060015b92915050565b610bb633333384604051806020016040528060008152506040518060200160405280600081525061254a565b50565b6040513390600090610bd190839087906020016147a5565b60408051601f1981840301815291905280516020909101209050610bf5818461270a565b15610c135760405163782a90fb60e11b815260040160405180910390fd5b610c508185858080602002602001604051908101604052809392919081815260200183836020028082843760009201919091525061246392505050565b816001600160a01b03167f770ea40a13a4644573ed785e5c7116890709947918747febc5add46feb531e2d868686604051610c8d939291906147e2565b60405180910390a25050505050565b7f00000000000000000000000000000000000000000000000000000000000000006001600160a01b03163314610ce55760405163c51efddd60e01b815260040160405180910390fd5b610cf18484848461273e565b5050505050565b604051632329212160e21b81523360048201527f00000000000000000000000000000000000000000000000000000000000000006001600160a01b031690638ca4848490602401602060405180830381865afa158015610d5c573d6000803e3d6000fd5b505050506040513d601f19601f82011682018060405250810190610d809190614823565b610d9d5760405163327fd99160e21b815260040160405180910390fd5b6000610da761285e565b90506001600160a01b038116610dba5750845b600085610dc75786610dc9565b815b905060008313610e9757610ddc83614856565b610de5856129a3565b14610df257610df2614872565b610dfb846129a3565b6001600160a01b03821660009081526002602052604081208054909190610e23908490614888565b90915550506001600160a01b03851660009081526002602052604081208054859290610e50908490614888565b92505081905550806001600160a01b0316856001600160a01b0316600080516020614dd783398151915286604051610e8a91815260200190565b60405180910390a3610fc3565b8515610ea557610ea5614872565b82610eaf856129a3565b610eb99190614888565b6001600160a01b03831660009081526002602052604081208054909190610ee19084906148b0565b90915550610ef09050846129a3565b6001600160a01b03881660009081526002602052604081208054909190610f18908490614888565b90915550506001600160a01b03851660009081526002602052604081208054859290610f45908490614888565b92505081905550866001600160a01b0316826001600160a01b0316600080516020614dd783398151915286604051610f7f91815260200190565b60405180910390a3846001600160a01b0316826001600160a01b0316600080516020614dd783398151915285604051610fba91815260200190565b60405180910390a35b846001600160a01b0316876001600160a01b0316336001600160a01b03167fb8381a3ce157650e06186e3e8f4dd4dc29236f2688b6eed1893d0a60d7c6386f8c8589898f6040516110189594939291906148d0565b60405180910390a4505050505050505050565b7f00000000000000000000000000000000000000000000000000000000000000006001600160a01b031633146110745760405163c51efddd60e01b815260040160405180910390fd5b6110a0338484846040518060200160405280600081525060405180602001604052806000815250612a11565b505050565b60006110b33385858561273e565b949350505050565b7f00000000000000000000000000000000000000000000000000000000000000006001600160a01b031633146111045760405163c51efddd60e01b815260040160405180910390fd5b61113033838484604051806020016040528060008152506040518060200160405280600081525061254a565b5050565b604051339060009061114c90839086906020016147a5565b60405160208183030381529060405280519060200120905061116e818461270a565b61118b5760405163dae1880960e01b815260040160405180910390fd5b6111958184612bc4565b60405184815233907f71a63dc095de07aa5512ad57a7596a39516317e316981a1cd71000057be1537b9060200160405180910390a250505050565b6000806111dc83612bdd565b91509150915091565b6000806000807f00000000000000000000000000000000000000000000000000000000000000006001600160a01b031663bbe4fd506040518163ffffffff1660e01b8152600401602060405180830381865afa158015611249573d6000803e3d6000fd5b505050506040513d601f19601f8201168201806040525081019061126d9190614903565b905061127985826120af565b91979096509094509092509050565b6001600160a01b038181166000908152600160205260409081902054905163c56a069d60e01b8152901960048201526060917f0000000000000000000000000000000000000000000000000000000000000000169063c56a069d90602401600060405180830381865afa158015611303573d6000803e3d6000fd5b505050506040513d6000823e601f3d908101601f19168201604052610b84919081019061491c565b3360008181526011602090815260408083206001600160a01b03871684529091528120549091610b809185906113629086906149c8565b61249b565b33301461138757604051630fff4cc960e31b815260040160405180910390fd5b610cf18385848461273e565b600054610100900460ff16158080156113b35750600054600160ff909116105b806113cd5750303b1580156113cd575060005460ff166001145b6113f25760405162461bcd60e51b81526004016113e9906149db565b60405180910390fd5b6000805460ff191660011790558015611415576000805461ff0019166101001790555b6114258787878787876000612c99565b801561146b576000805461ff0019169055604051600181527f7f26b83ff96e1f2b6a682f133852f6798a09c465da95921460cefb38474024989060200160405180910390a15b50505050505050565b610bb6333333846040518060200160405280600081525060405180602001604052806000815250612a11565b60006114b8600080516020614d8d8339815191525490565b905060006001600160a01b038216156114d157816114f3565b7f00000000000000000000000000000000000000000000000000000000000000005b9050336001600160a01b0382161461151e57604051630484acab60e01b815260040160405180910390fd5b6110a083612d61565b7f00000000000000000000000000000000000000000000000000000000000000006001600160a01b031633146115705760405163c51efddd60e01b815260040160405180910390fd5b6110a033848484604051806020016040528060008152506040518060200160405280600081525061254a565b7f00000000000000000000000000000000000000000000000000000000000000006001600160a01b031633146115e55760405163c51efddd60e01b815260040160405180910390fd5b6001600160a01b038084166000908152601160209081526040808320938616835292905220546110a090849084906113629085906149c8565b606060008585856040516020016116379392919061475c565b6040516020818303038152906040528051906020012090506116598184612f9b565b9695505050505050565b6000610a297f360894a13ba1a3210667c828492db98dca3e2076cc3735a920a3ca505d382bbc5490565b6116de3333868686868080601f016020809104026020016040519081016040528093929190818152602001838380828437600092018290525060408051602081019091529081529250612a11915050565b50505050565b7f00000000000000000000000000000000000000000000000000000000000000006001600160a01b0316331461172d5760405163c51efddd60e01b815260040160405180910390fd5b6110a083838361249b565b336117456012828a613022565b6117625760405163f7f0222760e01b815260040160405180910390fd5b6117dc8189898989898080601f01602080910402602001604051908101604052809392919081815260200183838082843760009201919091525050604080516020601f8d018190048102820181019092528b815292508b91508a9081908401838280828437600092019190915250600192506130cb915050565b5050505050505050565b33301461172d57604051630fff4cc960e31b815260040160405180910390fd5b60606000848460405160200161181d9291906147a5565b60405160208183030381529060405280519060200120905061183f8184612f9b565b95945050505050565b6000610a29600080516020614d8d8339815191525490565b60008061186c836111e5565b50505090506000811261187f5780611882565b60005b9392505050565b6000610b84827f00000000000000000000000000000000000000000000000000000000000000006001600160a01b031663bbe4fd506040518163ffffffff1660e01b8152600401602060405180830381865afa1580156118ed573d6000803e3d6000fd5b505050506040513d601f19601f820116820180604052508101906109069190614903565b61113033338484604051806020016040528060008152506040518060200160405280600081525061254a565b6000611955600080516020614d8d8339815191525490565b905060006001600160a01b0382161561196e5781611990565b7f00000000000000000000000000000000000000000000000000000000000000005b9050336001600160a01b038216146119bb57604051630484acab60e01b815260040160405180910390fd5b60006119d3600080516020614d8d8339815191525490565b90506119eb84600080516020614d8d83398151915255565b836001600160a01b0316816001600160a01b03167f7e644d79422f17c01e4894b5f4f588d331ebfa28653d42ae832dc59e38c9798f60405160405180910390a350505050565b33611a3e60128284613144565b806001600160a01b0316826001600160a01b03167ff4caeb2d6ca8932a215a353d0703c326ec2d81fc68170f320eb2ab49e9df61f960405160405180910390a35050565b606060108054610a3d90614722565b600054610100900460ff1615808015611ab15750600054600160ff909116105b80611acb5750303b158015611acb575060005460ff166001145b611ae75760405162461bcd60e51b81526004016113e9906149db565b6000805460ff191660011790558015611b0a576000805461ff0019166101001790555b8015610bb6576000805461ff0019169055604051600181527f7f26b83ff96e1f2b6a682f133852f6798a09c465da95921460cefb3847402498906020015b60405180910390a150565b6116de3333868686868080601f016020809104026020016040519081016040528093929190818152602001838380828437600092018290525060408051602081019091529081529250600191506130cb9050565b333014611bc757604051630fff4cc960e31b815260040160405180910390fd5b80516040805160008152602081019091526110a091339186918691901515908690613248565b6040513390600090611c0590839087906020016147a5565b604051602081830303815290604052805190602001209050611c5a8185858080602002602001604051908101604052809392919081815260200183836020028082843760009201919091525061246392505050565b336001600160a01b03167f0c4c547b3a4fcaa5be8353b3111472b124155bccc86de811d4a481c9e6e9faca868686604051610c8d939291906147e2565b611130333383611ca633611860565b61273e565b6000610b803384611362856040518060600160405280602a8152602001614dad602a91393360009081526011602090815260408083206001600160a01b038d1684529091529020549190613315565b60006118823333858561273e565b600080600080611d1886866120af565b9250925092506000611d40828411611d315760006129a3565b611d3b8385614a29565b6129a3565b611d4a9085614888565b60001315979650505050505050565b6000610b84827f00000000000000000000000000000000000000000000000000000000000000006001600160a01b031663bbe4fd506040518163ffffffff1660e01b8152600401602060405180830381865afa158015611dbd573d6000803e3d6000fd5b505050506040513d601f19601f8201168201806040525081019061086e9190614903565b333014611e0157604051630fff4cc960e31b815260040160405180910390fd5b80516040805160008152602081019091526110a0913391869186919015159081908790613341565b7f00000000000000000000000000000000000000000000000000000000000000006001600160a01b03163314611e725760405163c51efddd60e01b815260040160405180910390fd5b6110a08383611362846040518060600160405280602a8152602001614dad602a91396001600160a01b03808a166000908152601160209081526040808320938c16835292905220549190613315565b7f00000000000000000000000000000000000000000000000000000000000000006001600160a01b03163314611f0a5760405163c51efddd60e01b815260040160405180910390fd5b6116de33858585856040518060200160405280600081525060016130cb565b7f00000000000000000000000000000000000000000000000000000000000000006001600160a01b03163314611f725760405163c51efddd60e01b815260040160405180910390fd5b611130338384846040518060200160405280600081525060405180602001604052806000815250612a11565b604051632329212160e21b81523360048201527f00000000000000000000000000000000000000000000000000000000000000006001600160a01b031690638ca4848490602401602060405180830381865afa158015612002573d6000803e3d6000fd5b505050506040513d601f19601f820116820180604052508101906120269190614823565b6120435760405163327fd99160e21b815260040160405180910390fd5b6001600160a01b038216600090815260026020526040902054612067908290614888565b6001600160a01b0390921660009081526002602052604090209190915550565b600061188260128484613022565b6000806120a284846120af565b5050600013949350505050565b6001600160a01b0382166000908152600260205260408120549080806120d486611288565b905060005b81518110156121da5760008060008484815181106120f9576120f9614a3c565b60209081029190910101516040516326cb922f60e21b81523060048201526001600160a01b038c81166024830152604482018c905290911690639b2e48bc90606401606060405180830381865afa158015612158573d6000803e3d6000fd5b505050506040513d601f19601f8201168201806040525081019061217c9190614a52565b9194509250905061218d82886149c8565b965061219981876149c8565b95506121b68183116121ac5760006129a3565b611d3b8284614a29565b6121c0848a614888565b6121ca91906148b0565b97505050508060010190506120d9565b50509250925092565b600054610100900460ff16158080156122035750600054600160ff909116105b8061221d5750303b15801561221d575060005460ff166001145b6122395760405162461bcd60e51b81526004016113e9906149db565b6000805460ff19166001179055801561225c576000805461ff0019166101001790555b61226b88888888888888612c99565b80156117dc576000805461ff0019169055604051600181527f7f26b83ff96e1f2b6a682f133852f6798a09c465da95921460cefb38474024989060200160405180910390a15050505050505050565b336122c76012828461340f565b806001600160a01b0316826001600160a01b03167f50546e66e5f44d728365dc3908c63bc5cfeeab470722c1677e3073a6ac294aa160405160405180910390a35050565b3361231860128289613022565b6123355760405163f7f0222760e01b815260040160405180910390fd5b61146b8188898989898080601f01602080910402602001604051908101604052809392919081815260200183838082843760009201919091525050604080516020601f8d018190048102820181019092528b815292508b91508a908190840183828082843760009201919091525061254a92505050565b6110a03333338686868080601f01602080910402602001604051908101604052809392919081815260200183838082843760009201829052506040805160208101909152908152925061254a915050565b60608160000180548060200260200160405190810160405280929190818152602001828054801561245757602002820191906000526020600020905b81546001600160a01b03168152600190910190602001808311612439575b50505050509050919050565b60005b81518110156110a057600082828151811061248357612483614a3c565b60209081029190910101518483015550600101612466565b6001600160a01b0383166124c257604051638163862760e01b815260040160405180910390fd5b6001600160a01b0382166124e9576040516337c1c09d60e21b815260040160405180910390fd5b6001600160a01b0383811660008181526011602090815260408083209487168084529482529182902085905590518481527f8c5be1e5ebec7d5bd14f71427d1e84f3dd0314c0f7b2291e5b200ac8c7c3b925910160405180910390a3505050565b600e546001600160a01b031661257357604051637bce7b2b60e11b815260040160405180910390fd5b60008061257f85612bdd565b915091506125968888838751600014158888613248565b600e546040516370a0823160e01b81523060048201526000916001600160a01b0316906370a0823190602401602060405180830381865afa1580156125df573d6000803e3d6000fd5b505050506040513d601f19601f820116820180604052508101906126039190614903565b600e5490915061261d906001600160a01b03168885613507565b600e546040516370a0823160e01b81523060048201526000916001600160a01b0316906370a0823190602401602060405180830381865afa158015612666573d6000803e3d6000fd5b505050506040513d601f19601f8201168201806040525081019061268a9190614903565b905060006126988284614a29565b90508085146126ba57604051631c7c26d360e31b815260040160405180910390fd5b896001600160a01b03167f3bc27981aebbb57f9247dc00fde9d6cd91e4b230083fec3238fedbcba1f9ab3d856040516126f591815260200190565b60405180910390a25050505050505050505050565b6000805b828110156127345783810154801561272b57600192505050610b84565b5060010161270e565b5060009392505050565b60006001600160a01b0384166127675760405163eecd6c9b60e01b815260040160405180910390fd5b6001600160a01b03831661278e5760405163e219bd3960e01b815260040160405180910390fd5b60003390506127bf81868686604051806020016040528060008152506040518060200160405280600081525061356a565b846001600160a01b0316866001600160a01b031614612852576128528587611362866040518060600160405280602d8152602001614df7602d9139601160008c6001600160a01b03166001600160a01b0316815260200190815260200160002060008d6001600160a01b03166001600160a01b03168152602001908152602001600020546133159092919063ffffffff16565b50600195945050505050565b6000807f00000000000000000000000000000000000000000000000000000000000000006001600160a01b031663289b3c0d6040518163ffffffff1660e01b8152600401602060405180830381865afa1580156128bf573d6000803e3d6000fd5b505050506040513d601f19601f820116820180604052508101906128e39190614a80565b604051638369a0f160e01b81526001600160a01b037f0000000000000000000000000000000000000000000000000000000000000000811660048301523060248301527f9f60ae461adf056670e03ae602566409933242392cb06744f5747c9f38b05d09604483015291925090821690638369a0f190606401602060405180830381865afa158015612979573d6000803e3d6000fd5b505050506040513d601f19601f8201168201806040525081019061299d9190614a80565b91505090565b60006001600160ff1b03821115612a0d5760405162461bcd60e51b815260206004820152602860248201527f53616665436173743a2076616c756520646f65736e27742066697420696e2061604482015267371034b73a191a9b60c11b60648201526084016113e9565b5090565b600e546001600160a01b0316612a3a57604051637bce7b2b60e11b815260040160405180910390fd5b600080612a4685612bdd565b600e546040516370a0823160e01b81523060048201529294509092506000916001600160a01b03909116906370a0823190602401602060405180830381865afa158015612a97573d6000803e3d6000fd5b505050506040513d601f19601f82011682018060405250810190612abb9190614903565b600e54909150612ad6906001600160a01b0316893086613609565b600e546040516370a0823160e01b81523060048201526000916001600160a01b0316906370a0823190602401602060405180830381865afa158015612b1f573d6000803e3d6000fd5b505050506040513d601f19601f82011682018060405250810190612b439190614903565b90506000612b518383614a29565b9050808514612b7357604051631c7c26d360e31b815260040160405180910390fd5b8651612b89908c908b9087901515808c8c613341565b886001600160a01b03167f25ca84076773b0455db53621c459ddc84fe40840e4932a62706a032566f399df856040516126f591815260200190565b60005b818110156110a057600083820155600101612bc7565b600e54600090819081906012600160a01b90910460ff161015612c3c57600e54612c1290600160a01b900460ff166012614a9d565b612c1d90600a614b9d565b9050612c298185614bac565b9250612c358184614bce565b9150612c93565b600e546012600160a01b90910460ff161115612c8c57600e54612c6b90601290600160a01b900460ff16614a9d565b612c7690600a614b9d565b9050612c828185614bce565b9250839150612c93565b8391508192505b50915091565b600e805460ff8816600160a01b026001600160a81b03199091166001600160a01b038a1617179055600f612cce858783614c2c565b506010612cdc838583614c2c565b50612cf381600080516020614d8d83398151915255565b612cfc30613641565b6040516000808252908190600080516020614dd78339815191529060200160405180910390a36040516001600160a01b038216906000907f7e644d79422f17c01e4894b5f4f588d331ebfa28653d42ae832dc59e38c9798f908290a350505050505050565b6000612d8b7f360894a13ba1a3210667c828492db98dca3e2076cc3735a920a3ca505d382bbc5490565b6001600160a01b031603612de15760405162461bcd60e51b815260206004820152601d60248201527f5555505350726f786961626c653a206e6f742075706772616461626c6500000060448201526064016113e9565b806001600160a01b03166352d1902d6040518163ffffffff1660e01b8152600401602060405180830381865afa158015612e1f573d6000803e3d6000fd5b505050506040513d601f19601f82011682018060405250810190612e439190614903565b7f6bfbb132610e56cb96575dba244667b9d6dbfeffe22b68a79fa16f2d18eb001914612ebd5760405162461bcd60e51b815260206004820152602360248201527f5555505350726f786961626c653a206e6f7420636f6d70617469626c65206c6f60448201526267696360e81b60648201526084016113e9565b6001600160a01b0381163003612f155760405162461bcd60e51b815260206004820152601960248201527f5555505350726f786961626c653a2070726f7879206c6f6f700000000000000060448201526064016113e9565b612f3d817f360894a13ba1a3210667c828492db98dca3e2076cc3735a920a3ca505d382bbc55565b7fe011bc04c286c344a8fcbb8de77f953da762c3e25d8cdea984147fc4168a5dcc7f6bfbb132610e56cb96575dba244667b9d6dbfeffe22b68a79fa16f2d18eb0019604080519182526001600160a01b038416602083015201611b48565b6060816001600160401b03811115612fb557612fb5614092565b604051908082528060200260200182016040528015612fde578160200160208202803683370190505b50905060005b8281101561301b5760008185015490508083838151811061300757613007614a3c565b602090810291909101015250600101612fe4565b5092915050565b6000816001600160a01b0316836001600160a01b0316148061309157506001600160a01b038316600090815260018501602052604090205460ff16801561309157506001600160a01b03808316600090815260038601602090815260408083209387168352929052205460ff16155b806110b357506001600160a01b03808316600090815260028601602090815260408083209387168352929052205460ff1690509392505050565b6001600160a01b0386166130f25760405163eecd6c9b60e01b815260040160405180910390fd5b6001600160a01b0385166131195760405163e219bd3960e01b815260040160405180910390fd5b61312787878787878761376f565b61313587878787878761356a565b61146b87878787878787613896565b806001600160a01b0316826001600160a01b0316036131bb5760405162461bcd60e51b815260206004820152602d60248201527f4552433737374f70657261746f72733a20617574686f72697a696e672073656c60448201526c331030b99037b832b930ba37b960991b60648201526084016113e9565b6001600160a01b038116600090815260018401602052604090205460ff1615613211576001600160a01b03918216600090815260039390930160209081526040808520929093168452529020805460ff19169055565b6001600160a01b0380831660009081526002850160209081526040808320938516835292905220805460ff19166001179055505050565b6001600160a01b03851661326f57604051632e8aac6160e21b815260040160405180910390fd5b8215613284576132848686600087868661376f565b61328e85856139e6565b846001600160a01b0316866001600160a01b03167fa78a9be3a7b862d26933ad85fb11d80ef66b8f972d7cbba06621d583943a40988685856040516132d593929190614ceb565b60405180910390a36040518481526000906001600160a01b03871690600080516020614dd7833981519152906020015b60405180910390a3505050505050565b600081848411156133395760405162461bcd60e51b81526004016113e99190613ee3565b505050900390565b6001600160a01b03861661336857604051630d24315760e01b815260040160405180910390fd5b6133728686613af6565b8315613388576133888760008888868689613896565b856001600160a01b0316876001600160a01b03167f2fe5be0146f74c5bce36c0b80911af6c7d86ff27e89d5cfa61fc681327954e5d8785856040516133cf93929190614ceb565b60405180910390a36040518581526001600160a01b03871690600090600080516020614dd78339815191529060200160405180910390a350505050505050565b336001600160a01b0382160361347a5760405162461bcd60e51b815260206004820152602a60248201527f4552433737374f70657261746f72733a207265766f6b696e672073656c662061604482015269399037b832b930ba37b960b11b60648201526084016113e9565b6001600160a01b038116600090815260018401602052604090205460ff16156134d4576001600160a01b0380831660009081526003850160209081526040808320938516835292905220805460ff19166001179055505050565b6001600160a01b03918216600090815260029390930160209081526040808520929093168452529020805460ff19169055565b6040516001600160a01b0383166024820152604481018290526110a090849063a9059cbb60e01b906064015b60408051601f198184030181529190526020810180516001600160e01b03166001600160e01b031990931692909217909152613b50565b61357d8585613578866129a3565b613c25565b836001600160a01b0316856001600160a01b0316876001600160a01b03167f06b541ddaa720db2b10a4d0cdac39b8d360425fc073085fac19bc826146779878686866040516135ce93929190614ceb565b60405180910390a4836001600160a01b0316856001600160a01b0316600080516020614dd78339815191528560405161330591815260200190565b6040516001600160a01b03808516602483015283166044820152606481018290526116de9085906323b872dd60e01b90608401613533565b6040516329965a1d60e01b81526001600160a01b03821660048201527fac7fbab5f54a3ca8194167523c6753bfeb96a445279294b6125b68cce21770546024820152306044820152731820a4b7618bde71dce8cdc73aab6c95905fad24906329965a1d90606401600060405180830381600087803b1580156136c257600080fd5b505af11580156136d6573d6000803e3d6000fd5b50506040516329965a1d60e01b81526001600160a01b03841660048201527faea199e31a596269b42cdafd93407f14436db6e4cad65417994c2eb37381e05a6024820152306044820152731820a4b7618bde71dce8cdc73aab6c95905fad2492506329965a1d9150606401600060405180830381600087803b15801561375b57600080fd5b505af1158015610cf1573d6000803e3d6000fd5b60405163555ddc6560e11b81526001600160a01b03861660048201527f29ddb589b1fb5fc7cf394961c1adf5f8c6454761adf795e67fe149f658abe8956024820152600090731820a4b7618bde71dce8cdc73aab6c95905fad249063aabbb8ca90604401602060405180830381865afa1580156137f0573d6000803e3d6000fd5b505050506040513d601f19601f820116820180604052508101906138149190614a80565b90506001600160a01b0381161561146b57604051633ad5cbc160e11b81526001600160a01b038216906375ab97829061385b908a908a908a908a908a908a90600401614d16565b600060405180830381600087803b15801561387557600080fd5b505af1158015613889573d6000803e3d6000fd5b5050505050505050505050565b60405163555ddc6560e11b81526001600160a01b03861660048201527fb281fc8c12954d22544db45de3159a39272895b169a852b314f9cc762e44c53b6024820152600090731820a4b7618bde71dce8cdc73aab6c95905fad249063aabbb8ca90604401602060405180830381865afa158015613917573d6000803e3d6000fd5b505050506040513d601f19601f8201168201806040525081019061393b9190614a80565b90506001600160a01b038116156139b7576040516223de2960e01b81526001600160a01b038216906223de2990613980908b908b908b908b908b908b90600401614d16565b600060405180830381600087803b15801561399a57600080fd5b505af11580156139ae573d6000803e3d6000fd5b505050506117dc565b81156117dc576001600160a01b0386163b156117dc5760405163fe737d0560e01b815260040160405180910390fd5b6000613a6e837f00000000000000000000000000000000000000000000000000000000000000006001600160a01b031663bbe4fd506040518163ffffffff1660e01b8152600401602060405180830381865afa158015613a4a573d6000803e3d6000fd5b505050506040513d601f19601f820116820180604052508101906109529190614903565b50509050613a7b826129a3565b811215613a9b5760405163043b37d160e21b815260040160405180910390fd5b613aa4826129a3565b6001600160a01b038416600090815260026020526040902054613ac791906148b0565b6001600160a01b038416600090815260026020526040902055600354613aee908390614a29565b600355505050565b613aff816129a3565b6001600160a01b038316600090815260026020526040902054613b229190614888565b6001600160a01b038316600090815260026020526040902055600354613b499082906149c8565b6003555050565b6000613ba5826040518060400160405280602081526020017f5361666545524332303a206c6f772d6c6576656c2063616c6c206661696c6564815250856001600160a01b0316613d249092919063ffffffff16565b9050805160001480613bc6575080806020019051810190613bc69190614823565b6110a05760405162461bcd60e51b815260206004820152602a60248201527f5361666545524332303a204552433230206f7065726174696f6e20646964206e6044820152691bdd081cdd58d8d9595960b21b60648201526084016113e9565b6000613c89847f00000000000000000000000000000000000000000000000000000000000000006001600160a01b031663bbe4fd506040518163ffffffff1660e01b8152600401602060405180830381865afa158015613a4a573d6000803e3d6000fd5b5050905081811215613cae57604051632f4cb94160e01b815260040160405180910390fd5b6001600160a01b038416600090815260026020526040902054613cd29083906148b0565b6001600160a01b038086166000908152600260205260408082209390935590851681522054613d02908390614888565b6001600160a01b03909316600090815260026020526040902092909255505050565b60606110b3848460008585600080866001600160a01b03168587604051613d4b9190614d70565b60006040518083038185875af1925050503d8060008114613d88576040519150601f19603f3d011682016040523d82523d6000602084013e613d8d565b606091505b5091509150613d9e87838387613da9565b979650505050505050565b60608315613e18578251600003613e11576001600160a01b0385163b613e115760405162461bcd60e51b815260206004820152601d60248201527f416464726573733a2063616c6c20746f206e6f6e2d636f6e747261637400000060448201526064016113e9565b50816110b3565b6110b38383815115613e2d5781518083602001fd5b8060405162461bcd60e51b81526004016113e99190613ee3565b602080825282518282018190526000918401906040840190835b81811015613e885783516001600160a01b0316835260209384019390920191600101613e61565b509095945050505050565b60005b83811015613eae578181015183820152602001613e96565b50506000910152565b60008151808452613ecf816020860160208601613e93565b601f01601f19169290920160200192915050565b6020815260006118826020830184613eb7565b6001600160a01b0381168114610bb657600080fd5b60008083601f840112613f1d57600080fd5b5081356001600160401b03811115613f3457600080fd5b6020830191508360208260051b8501011115613f4f57600080fd5b9250929050565b60008060008060608587031215613f6c57600080fd5b8435613f7781613ef6565b93506020850135925060408501356001600160401b03811115613f9957600080fd5b613fa587828801613f0b565b95989497509550505050565b60008060408385031215613fc457600080fd5b8235613fcf81613ef6565b946020939093013593505050565b600060208284031215613fef57600080fd5b5035919050565b60008060006040848603121561400b57600080fd5b8335925060208401356001600160401b0381111561402857600080fd5b61403486828701613f0b565b9497909650939450505050565b6000806000806080858703121561405757600080fd5b843561406281613ef6565b9350602085013561407281613ef6565b9250604085013561408281613ef6565b9396929550929360600135925050565b634e487b7160e01b600052604160045260246000fd5b604051601f8201601f191681016001600160401b03811182821017156140d0576140d0614092565b604052919050565b600082601f8301126140e957600080fd5b81356001600160401b0381111561410257614102614092565b614115601f8201601f19166020016140a8565b81815284602083860101111561412a57600080fd5b816020850160208301376000918101602001919091529392505050565b8015158114610bb657600080fd5b600080600080600080600060e0888a03121561417057600080fd5b8735965060208801356001600160401b0381111561418d57600080fd5b6141998a828b016140d8565b96505060408801356141aa81613ef6565b945060608801356141ba81614147565b935060808801356141ca81613ef6565b9699959850939692959460a0840135945060c09093013592915050565b6000806000606084860312156141fc57600080fd5b833561420781613ef6565b9250602084013561421781613ef6565b929592945050506040919091013590565b6000806040838503121561423b57600080fd5b50508035926020909101359150565b60006020828403121561425c57600080fd5b813561188281613ef6565b803560ff8116811461427857600080fd5b919050565b60008083601f84011261428f57600080fd5b5081356001600160401b038111156142a657600080fd5b602083019150836020828501011115613f4f57600080fd5b600080600080600080608087890312156142d757600080fd5b86356142e281613ef6565b95506142f060208801614267565b945060408701356001600160401b0381111561430b57600080fd5b61431789828a0161427d565b90955093505060608701356001600160401b0381111561433657600080fd5b61434289828a0161427d565b979a9699509497509295939492505050565b6000806000806080858703121561436a57600080fd5b843561437581613ef6565b9350602085013561438581613ef6565b93969395505050506040820135916060013590565b602080825282518282018190526000918401906040840190835b81811015613e885783518352602093840193909201916001016143b4565b600080600080606085870312156143e857600080fd5b84356143f381613ef6565b93506020850135925060408501356001600160401b0381111561441557600080fd5b613fa58782880161427d565b600080600080600080600060a0888a03121561443c57600080fd5b873561444781613ef6565b9650602088013561445781613ef6565b95506040880135945060608801356001600160401b0381111561447957600080fd5b6144858a828b0161427d565b90955093505060808801356001600160401b038111156144a457600080fd5b6144b08a828b0161427d565b989b979a50959850939692959293505050565b6000806000606084860312156144d857600080fd5b83356144e381613ef6565b95602085013595506040909401359392505050565b60008060006060848603121561450d57600080fd5b833561451881613ef6565b92506020840135915060408401356001600160401b0381111561453a57600080fd5b614546868287016140d8565b9150509250925092565b6000806000806080858703121561456657600080fd5b843561457181613ef6565b9350602085013561458181613ef6565b92506040850135915060608501356001600160401b038111156145a357600080fd5b6145af878288016140d8565b91505092959194509250565b600080604083850312156145ce57600080fd5b82356145d981613ef6565b915060208301356145e981613ef6565b809150509250929050565b600080600080600080600060a0888a03121561460f57600080fd5b873561461a81613ef6565b965061462860208901614267565b955060408801356001600160401b0381111561464357600080fd5b61464f8a828b0161427d565b90965094505060608801356001600160401b0381111561466e57600080fd5b61467a8a828b0161427d565b909450925050608088013561468e81613ef6565b8091505092959891949750929550565b600080600080600080608087890312156146b757600080fd5b86356146c281613ef6565b95506020870135945060408701356001600160401b0381111561430b57600080fd5b6000806000604084860312156146f957600080fd5b8335925060208401356001600160401b0381111561471657600080fd5b6140348682870161427d565b600181811c9082168061473657607f821691505b60208210810361475657634e487b7160e01b600052602260045260246000fd5b50919050565b6080808252600e908201526d41677265656d656e74537461746560901b60a08201526001600160a01b039384166020820152919092166040820152606081019190915260c00190565b6060808252600d908201526c41677265656d656e744461746160981b60808201526001600160a01b03929092166020830152604082015260a00190565b838152604060208201819052810182905260006001600160fb1b0383111561480957600080fd5b8260051b8085606085013791909101606001949350505050565b60006020828403121561483557600080fd5b815161188281614147565b634e487b7160e01b600052601160045260246000fd5b6000600160ff1b820161486b5761486b614840565b5060000390565b634e487b7160e01b600052600160045260246000fd5b80820182811260008312801582168215821617156148a8576148a8614840565b505092915050565b818103600083128015838313168383128216171561301b5761301b614840565b85815260018060a01b038516602082015283604082015282606082015260a060808201526000613d9e60a0830184613eb7565b60006020828403121561491557600080fd5b5051919050565b60006020828403121561492e57600080fd5b81516001600160401b0381111561494457600080fd5b8201601f8101841361495557600080fd5b80516001600160401b0381111561496e5761496e614092565b8060051b61497e602082016140a8565b9182526020818401810192908101908784111561499a57600080fd5b6020850194505b83851015613d9e57845192506149b683613ef6565b828252602094850194909101906149a1565b80820180821115610b8457610b84614840565b6020808252602e908201527f496e697469616c697a61626c653a20636f6e747261637420697320616c72656160408201526d191e481a5b9a5d1a585b1a5e995960921b606082015260800190565b81810381811115610b8457610b84614840565b634e487b7160e01b600052603260045260246000fd5b600080600060608486031215614a6757600080fd5b5050815160208301516040909301519094929350919050565b600060208284031215614a9257600080fd5b815161188281613ef6565b60ff8281168282160390811115610b8457610b84614840565b6001815b6001841115614af157808504811115614ad557614ad5614840565b6001841615614ae357908102905b60019390931c928002614aba565b935093915050565b600082614b0857506001610b84565b81614b1557506000610b84565b8160018114614b2b5760028114614b3557614b51565b6001915050610b84565b60ff841115614b4657614b46614840565b50506001821b610b84565b5060208310610133831016604e8410600b8410161715614b74575081810a610b84565b614b816000198484614ab6565b8060001904821115614b9557614b95614840565b029392505050565b600061188260ff841683614af9565b600082614bc957634e487b7160e01b600052601260045260246000fd5b500490565b8082028115828204841417610b8457610b84614840565b601f8211156110a057806000526020600020601f840160051c81016020851015614c0c5750805b601f840160051c820191505b81811015610cf15760008155600101614c18565b6001600160401b03831115614c4357614c43614092565b614c5783614c518354614722565b83614be5565b6000601f841160018114614c8b5760008515614c735750838201355b600019600387901b1c1916600186901b178355610cf1565b600083815260209020601f19861690835b82811015614cbc5786850135825560209485019460019092019101614c9c565b5086821015614cd95760001960f88860031b161c19848701351681555b505060018560011b0183555050505050565b838152606060208201526000614d046060830185613eb7565b82810360408401526116598185613eb7565b6001600160a01b0387811682528681166020830152851660408201526060810184905260c060808201819052600090614d5190830185613eb7565b82810360a0840152614d638185613eb7565b9998505050505050505050565b60008251614d82818460208701613e93565b919091019291505056feb53127684a568b3173ae13b9f8a6016e243e63b6e8ee1178d6a717850b5d61035375706572546f6b656e3a2064656372656173656420616c6c6f77616e63652062656c6f77207a65726fddf252ad1be2c89b69c2b068fc378daa952ba7f163c4a11628f55a4df523b3ef5375706572546f6b656e3a207472616e7366657220616d6f756e74206578636565647320616c6c6f77616e6365a264697066735822122080b554a9b21f5b3a37c5bc62f8146e8b65121d70b3e08d9762f80b633df75b9464736f6c634300081a0033",
  "immutableReferences": {
    "46855": [
      {
        "length": 32,
        "start": 2459
      }
    ],
    "46858": [
      {
        "length": 32,
        "start": 1672
      }
    ],
    "46861": [
      {
        "length": 32,
        "start": 2498
      }
    ],
    "46864": [
      {
        "length": 32,
        "start": 2110
      }
    ],
    "53052": [
      {
        "length": 32,
        "start": 1258
      },
      {
        "length": 32,
        "start": 3230
      },
      {
        "length": 32,
        "start": 3341
      },
      {
        "length": 32,
        "start": 4141
      },
      {
        "length": 32,
        "start": 4285
      },
      {
        "length": 32,
        "start": 4589
      },
      {
        "length": 32,
        "start": 4796
      },
      {
        "length": 32,
        "start": 5331
      },
      {
        "length": 32,
        "start": 5417
      },
      {
        "length": 32,
        "start": 5534
      },
      {
        "length": 32,
        "start": 5862
      },
      {
        "length": 32,
        "start": 6289
      },
      {
        "length": 32,
        "start": 6512
      },
      {
        "length": 32,
        "start": 7521
      },
      {
        "length": 32,
        "start": 7723
      },
      {
        "length": 32,
        "start": 7875
      },
      {
        "length": 32,
        "start": 7979
      },
      {
        "length": 32,
        "start": 8115
      },
      {
        "length": 32,
        "start": 10339
      },
      {
        "length": 32,
        "start": 10490
      },
      {
        "length": 32,
        "start": 14830
      },
      {
        "length": 32,
        "start": 15405
      }
    ]
  },
  "source": "// SPDX-License-Identifier: AGPLv3\npragma solidity ^0.8.23;\n\n// solhint-disable max-states-count\n// Notes: SuperToken is rich with states, disable this default rule here.\n\nimport { UUPSProxiable } from \"../upgradability/UUPSProxiable.sol\";\nimport {\n    ISuperfluid,\n    ISuperToken,\n    IERC20,\n    IPoolAdminNFT,\n    IPoolMemberNFT\n} from \"../interfaces/superfluid/ISuperfluid.sol\";\nimport { SuperfluidToken } from \"./SuperfluidToken.sol\";\nimport { ERC777Helper } from \"../libs/ERC777Helper.sol\";\nimport { SafeERC20 } from \"@openzeppelin/contracts/token/ERC20/utils/SafeERC20.sol\";\nimport { SafeMath } from \"@openzeppelin/contracts/utils/math/SafeMath.sol\";\nimport { SafeCast } from \"@openzeppelin/contracts/utils/math/SafeCast.sol\";\nimport { IERC777Recipient } from \"@openzeppelin/contracts/token/ERC777/IERC777Recipient.sol\";\nimport { IERC777Sender } from \"@openzeppelin/contracts/token/ERC777/IERC777Sender.sol\";\nimport { Address } from \"@openzeppelin/contracts/utils/Address.sol\";\n\n// placeholder types needed as an intermediate step before complete removal of FlowNFTs\n// solhint-disable-next-line no-empty-blocks\ninterface IConstantOutflowNFT {}\n// solhint-disable-next-line no-empty-blocks\ninterface IConstantInflowNFT {}\n\n/**\n * @title Superfluid's super token implementation\n *\n * @author Superfluid\n */\ncontract SuperToken is\n    UUPSProxiable,\n    SuperfluidToken,\n    ISuperToken\n{\n\n    using SafeMath for uint256;\n    using SafeCast for uint256;\n    using Address for address;\n    using ERC777Helper for ERC777Helper.Operators;\n    using SafeERC20 for IERC20;\n\n    // See: https://eips.ethereum.org/EIPS/eip-1967#admin-address\n    bytes32 constant private _ADMIN_SLOT = 0xb53127684a568b3173ae13b9f8a6016e243e63b6e8ee1178d6a717850b5d6103;\n\n    uint8 constant private _STANDARD_DECIMALS = 18;\n\n    // solhint-disable-next-line var-name-mixedcase\n    IConstantOutflowNFT immutable public CONSTANT_OUTFLOW_NFT;\n\n    // solhint-disable-next-line var-name-mixedcase\n    IConstantInflowNFT immutable public CONSTANT_INFLOW_NFT;\n\n    // solhint-disable-next-line var-name-mixedcase\n    IPoolMemberNFT immutable public POOL_MEMBER_NFT;\n\n    // solhint-disable-next-line var-name-mixedcase\n    IPoolAdminNFT immutable public POOL_ADMIN_NFT;\n\n    /* WARNING: NEVER RE-ORDER VARIABLES! Including the base contracts.\n       Always double-check that new\n       variables are added APPEND-ONLY. Re-ordering variables can\n       permanently BREAK the deployed proxy contract. */\n\n    /// @dev The underlying ERC20 token\n    IERC20 internal _underlyingToken;\n\n    /// @dev Decimals of the underlying token\n    uint8 internal _underlyingDecimals;\n\n    /// @dev IERC20Metadata Name property\n    string internal _name;\n\n    /// @dev IERC20Metadata Symbol property\n    string internal _symbol;\n\n    /// @dev ERC20 Allowances Storage\n    mapping(address => mapping (address => uint256)) internal _allowances;\n\n    /// @dev ERC777 operators support data\n    ERC777Helper.Operators internal _operators;\n\n    // NOTE: for future compatibility, these are reserved solidity slots\n    // The sub-class of SuperToken solidity slot will start after _reserve22\n\n    // NOTE: Whenever modifying the storage layout here it is important to update the validateStorageLayout\n    // function in its respective mock contract to ensure that it doesn't break anything or lead to unexpected\n    // behaviors/layout when upgrading\n\n    uint256 internal _reserve22;\n    uint256 private _reserve23;\n    uint256 private _reserve24;\n    uint256 private _reserve25;\n    uint256 private _reserve26;\n    uint256 private _reserve27;\n    uint256 private _reserve28;\n    uint256 private _reserve29;\n    uint256 private _reserve30;\n    uint256 internal _reserve31;\n\n    // NOTE: You cannot add more storage here. Refer to CustomSuperTokenBase.sol\n    // to see the hard-coded storage padding used by SETH and PureSuperToken\n\n    constructor(\n        ISuperfluid host,\n        IConstantOutflowNFT constantOutflowNFT,\n        IConstantInflowNFT constantInflowNFT,\n        IPoolAdminNFT poolAdminNFT,\n        IPoolMemberNFT poolMemberNFT\n    )\n        SuperfluidToken(host)\n        // solhint-disable-next-line no-empty-blocks\n    {\n        // @note This constructor is only run for the initial\n        // deployment of the logic contract.\n\n        // set the immutable canonical NFT proxy addresses\n        CONSTANT_OUTFLOW_NFT = constantOutflowNFT;\n        CONSTANT_INFLOW_NFT = constantInflowNFT;\n\n        POOL_ADMIN_NFT = poolAdminNFT;\n        POOL_MEMBER_NFT = poolMemberNFT;\n\n        emit PoolAdminNFTCreated(poolAdminNFT);\n        emit PoolMemberNFTCreated(poolMemberNFT);\n    }\n\n    /// @dev Initialize the Super Token proxy\n    function initialize(\n        IERC20 underlyingToken,\n        uint8 underlyingDecimals,\n        string calldata n,\n        string calldata s\n    )\n        external\n        virtual\n        override\n        initializer // OpenZeppelin Initializable\n    {\n        // @note This function is only run once during the initial\n        // deployment of the proxy contract.\n\n        // initialize the Super Token\n        _initialize(underlyingToken, underlyingDecimals, n, s, address(0));\n    }\n\n    /// @dev Initialize the Super Token proxy with an admin\n    function initializeWithAdmin(\n        IERC20 underlyingToken,\n        uint8 underlyingDecimals,\n        string calldata n,\n        string calldata s,\n        address admin\n    )\n        external\n        virtual\n        override\n        initializer // OpenZeppelin Initializable\n    {\n        // @note This function is only run once during the initial\n        // deployment of the proxy contract.\n\n        // initialize the Super Token\n        _initialize(underlyingToken, underlyingDecimals, n, s, admin);\n    }\n\n    function proxiableUUID() public pure virtual override returns (bytes32) {\n        return keccak256(\"org.superfluid-finance.contracts.SuperToken.implementation\");\n    }\n\n    /**\n     * @notice Updates the logic contract the proxy is pointing at\n     * @dev Only the admin can call this function (host if admin == address(0))\n     * @param newAddress Address of the new logic contract\n     */\n    function updateCode(address newAddress) external virtual override onlyAdmin {\n        UUPSProxiable._updateCodeAddress(newAddress);\n    }\n\n    function changeAdmin(address newAdmin) external override onlyAdmin {\n        address oldAdmin = _getAdmin();\n        _setAdmin(newAdmin);\n\n        emit AdminChanged(oldAdmin, newAdmin);\n    }\n\n    function getAdmin() external view override returns (address) {\n        return _getAdmin();\n    }\n\n    function _getAdmin() internal view returns (address admin) {\n        assembly {\n            // solium-disable-line\n            admin := sload(_ADMIN_SLOT)\n        }\n    }\n\n    function _setAdmin(address newAdmin) internal {\n        assembly {\n            // solium-disable-line\n            sstore(_ADMIN_SLOT, newAdmin)\n        }\n    }\n\n\n    /**************************************************************************\n     * ERC20 Token Info\n     *************************************************************************/\n\n    function name() external view virtual override returns (string memory) {\n        return _name;\n    }\n\n    function symbol() external view virtual override returns (string memory) {\n        return _symbol;\n    }\n\n    function decimals() external pure virtual override returns (uint8) {\n        return _STANDARD_DECIMALS;\n    }\n\n    /**************************************************************************\n     * (private) Token Logics\n     *************************************************************************/\n\n    function _initialize(\n        IERC20 underlyingToken,\n        uint8 underlyingDecimals,\n        string calldata n,\n        string calldata s,\n        address admin\n    ) internal {\n        _underlyingToken = underlyingToken;\n        _underlyingDecimals = underlyingDecimals;\n\n        _name = n;\n        _symbol = s;\n\n        _setAdmin(admin);\n\n        // register interfaces\n        ERC777Helper.register(address(this));\n\n        // help tools like explorers detect the token contract\n        emit Transfer(address(0), address(0), 0);\n\n        // previous admin will always be the zero address in an uninitialized contract\n        emit AdminChanged(address(0), admin);\n    }\n\n    /**\n     * @notice in the original openzeppelin implementation, transfer() and transferFrom()\n     * did invoke the send and receive hooks, as required by ERC777.\n     * This hooks were removed from super tokens for ERC20 transfers in order to protect\n     * interfacing contracts which don't expect invocations of ERC20 transfers to potentially reenter.\n     * Interactions relying on ERC777 hooks need to use the ERC777 interface.\n     * For more context, see https://github.com/superfluid-finance/protocol-monorepo/wiki/About-ERC-777\n     */\n    function _transferFrom(address spender, address holder, address recipient, uint amount)\n        internal returns (bool)\n    {\n        if (holder == address(0)) {\n            revert SUPER_TOKEN_TRANSFER_FROM_ZERO_ADDRESS();\n        }\n        if (recipient == address(0)) {\n            revert SUPER_TOKEN_TRANSFER_TO_ZERO_ADDRESS();\n        }\n        address operator = msg.sender;\n\n        _move(operator, holder, recipient, amount, \"\", \"\");\n\n        if (spender != holder) {\n            _approve(\n                holder,\n                spender,\n                _allowances[holder][spender].sub(amount, \"SuperToken: transfer amount exceeds allowance\"));\n        }\n\n        return true;\n    }\n\n    /**\n     * @dev Send tokens\n     * @param operator address operator address\n     * @param from address token holder address\n     * @param to address recipient address\n     * @param amount uint256 amount of tokens to transfer\n     * @param userData bytes extra information provided by the token holder (if any)\n     * @param operatorData bytes extra information provided by the operator (if any)\n     * @param requireReceptionAck if true, contract recipients are required to implement ERC777TokensRecipient\n     */\n    function _send(\n        address operator,\n        address from,\n        address to,\n        uint256 amount,\n        bytes memory userData,\n        bytes memory operatorData,\n        bool requireReceptionAck\n    )\n        internal\n    {\n        if (from == address(0)) {\n            revert SUPER_TOKEN_TRANSFER_FROM_ZERO_ADDRESS();\n        }\n        if (to == address(0)) {\n            revert SUPER_TOKEN_TRANSFER_TO_ZERO_ADDRESS();\n        }\n\n        _callTokensToSend(operator, from, to, amount, userData, operatorData);\n\n        _move(operator, from, to, amount, userData, operatorData);\n\n        _callTokensReceived(operator, from, to, amount, userData, operatorData, requireReceptionAck);\n    }\n\n    function _move(\n        address operator,\n        address from,\n        address to,\n        uint256 amount,\n        bytes memory userData,\n        bytes memory operatorData\n    )\n        private\n    {\n        SuperfluidToken._move(from, to, amount.toInt256());\n\n        emit Sent(operator, from, to, amount, userData, operatorData);\n        emit Transfer(from, to, amount);\n    }\n\n    /**\n     * @dev Creates `amount` tokens and assigns them to `account`, increasing\n     * the total supply.\n     *\n     * If invokeHook is true and a send hook is registered for `account`,\n     * the corresponding function will be called with `operator`, `userData` and `operatorData`.\n     *\n     * See {IERC777Sender} and {IERC777Recipient}.\n     *\n     * Emits {Minted} and {IERC20.Transfer} events.\n     *\n     * Requirements\n     *\n     * - `account` cannot be the zero address.\n     * - if `invokeHook` and `requireReceptionAck` are set and `account` is a contract,\n     *   it must implement the {IERC777Recipient}\n     * interface.\n     */\n    function _mint(\n        address operator,\n        address account,\n        uint256 amount,\n        bool invokeHook,\n        bool requireReceptionAck,\n        bytes memory userData,\n        bytes memory operatorData\n    )\n        internal\n    {\n        if (account == address(0)) {\n            revert SUPER_TOKEN_MINT_TO_ZERO_ADDRESS();\n        }\n\n        SuperfluidToken._mint(account, amount);\n\n        if (invokeHook) {\n            _callTokensReceived(operator, address(0), account, amount, userData, operatorData, requireReceptionAck);\n        }\n\n        emit Minted(operator, account, amount, userData, operatorData);\n        emit Transfer(address(0), account, amount);\n    }\n\n    /**\n     * @dev Burn tokens\n     * @param from address token holder address\n     * @param amount uint256 amount of tokens to burn\n     * @param userData bytes extra information provided by the token holder\n     * @param operatorData bytes extra information provided by the operator (if any)\n     */\n    function _burn(\n        address operator,\n        address from,\n        uint256 amount,\n        bool invokeHook,\n        bytes memory userData,\n        bytes memory operatorData\n    )\n        internal\n    {\n        if (from == address(0)) {\n            revert SUPER_TOKEN_BURN_FROM_ZERO_ADDRESS();\n        }\n\n        if (invokeHook) {\n            _callTokensToSend(operator, from, address(0), amount, userData, operatorData);\n        }\n\n        SuperfluidToken._burn(from, amount);\n\n        emit Burned(operator, from, amount, userData, operatorData);\n        emit Transfer(from, address(0), amount);\n    }\n\n    /**\n     * @notice Sets `amount` as the allowance of `spender` over the `account`s tokens.\n     *\n     * This is internal function is equivalent to `approve`, and can be used to\n     * e.g. set automatic allowances for certain subsystems, etc.\n     *\n     * Emits an {Approval} event.\n     *\n     * Requirements:\n     *\n     * - `account` cannot be the zero address.\n     * - `spender` cannot be the zero address.\n     */\n    function _approve(address account, address spender, uint256 amount)\n        internal\n    {\n        if (account == address(0)) {\n            revert SUPER_TOKEN_APPROVE_FROM_ZERO_ADDRESS();\n        }\n        if (spender == address(0)) {\n            revert SUPER_TOKEN_APPROVE_TO_ZERO_ADDRESS();\n        }\n\n        _allowances[account][spender] = amount;\n        emit Approval(account, spender, amount);\n    }\n\n    /**\n     * @dev Call from.tokensToSend() if the interface is registered\n     * @param operator address operator requesting the transfer\n     * @param from address token holder address\n     * @param to address recipient address\n     * @param amount uint256 amount of tokens to transfer\n     * @param userData bytes extra information provided by the token holder (if any)\n     * @param operatorData bytes extra information provided by the operator (if any)\n     */\n    function _callTokensToSend(\n        address operator,\n        address from,\n        address to,\n        uint256 amount,\n        bytes memory userData,\n        bytes memory operatorData\n    )\n        private\n    {\n        address implementer = ERC777Helper._ERC1820_REGISTRY.getInterfaceImplementer(\n            from, ERC777Helper._TOKENS_SENDER_INTERFACE_HASH);\n        if (implementer != address(0)) {\n            IERC777Sender(implementer).tokensToSend(operator, from, to, amount, userData, operatorData);\n        }\n    }\n\n    /**\n     * @dev Call to.tokensReceived() if the interface is registered. Reverts if the recipient is a contract but\n     * tokensReceived() was not registered for the recipient\n     * @param operator address operator requesting the transfer\n     * @param from address token holder address\n     * @param to address recipient address\n     * @param amount uint256 amount of tokens to transfer\n     * @param userData bytes extra information provided by the token holder (if any)\n     * @param operatorData bytes extra information provided by the operator (if any)\n     * @param requireReceptionAck if true, contract recipients are required to implement ERC777TokensRecipient\n     */\n    function _callTokensReceived(\n        address operator,\n        address from,\n        address to,\n        uint256 amount,\n        bytes memory userData,\n        bytes memory operatorData,\n        bool requireReceptionAck\n    )\n        private\n    {\n        address implementer = ERC777Helper._ERC1820_REGISTRY.getInterfaceImplementer(\n            to, ERC777Helper._TOKENS_RECIPIENT_INTERFACE_HASH);\n        if (implementer != address(0)) {\n            IERC777Recipient(implementer).tokensReceived(operator, from, to, amount, userData, operatorData);\n        } else if (requireReceptionAck) {\n            if (to.isContract()) revert SUPER_TOKEN_NOT_ERC777_TOKENS_RECIPIENT();\n        }\n    }\n\n    /**************************************************************************\n     * ERC20 Implementations\n     *************************************************************************/\n\n    function totalSupply()\n        public view virtual override returns (uint256)\n    {\n        return _totalSupply;\n    }\n\n    function balanceOf(\n        address account\n    )\n        public\n        view\n        virtual\n        override\n        returns(uint256 balance)\n    {\n        // solhint-disable-next-line not-rely-on-time\n        (int256 availableBalance, , ,) = super.realtimeBalanceOfNow(account);\n        return availableBalance < 0 ? 0 : uint256(availableBalance);\n    }\n\n    function transfer(address recipient, uint256 amount)\n        public virtual override returns (bool)\n    {\n        return _transferFrom(msg.sender, msg.sender, recipient, amount);\n    }\n\n    function allowance(address account, address spender)\n        public view virtual override returns (uint256)\n    {\n        return _allowances[account][spender];\n    }\n\n    function approve(address spender, uint256 amount)\n        public virtual override\n        returns (bool)\n    {\n        _approve(msg.sender, spender, amount);\n        return true;\n    }\n\n    function transferFrom(address holder, address recipient, uint256 amount)\n        public virtual override returns (bool)\n    {\n        return _transferFrom(msg.sender, holder, recipient, amount);\n    }\n\n    function increaseAllowance(address spender, uint256 addedValue)\n        public virtual override returns (bool) {\n        _approve(msg.sender, spender, _allowances[msg.sender][spender] + addedValue);\n        return true;\n    }\n\n    function decreaseAllowance(address spender, uint256 subtractedValue)\n        public virtual override returns (bool) {\n        _approve(msg.sender, spender, _allowances[msg.sender][spender].sub(subtractedValue,\n            \"SuperToken: decreased allowance below zero\"));\n        return true;\n    }\n\n    /**************************************************************************\n     * ERC-777 functions\n     *************************************************************************/\n\n    function granularity() external pure virtual override returns (uint256) { return 1; }\n\n    function send(address recipient, uint256 amount, bytes calldata userData) external virtual override {\n        _send(msg.sender, msg.sender, recipient, amount, userData, \"\", true);\n    }\n\n    function burn(uint256 amount, bytes calldata userData) external virtual override {\n        _downgrade(msg.sender, msg.sender, msg.sender, amount, userData, \"\");\n    }\n\n    function isOperatorFor(address operator, address tokenHolder) external virtual override view returns (bool) {\n        return _operators.isOperatorFor(operator, tokenHolder);\n    }\n\n    function authorizeOperator(address operator) external virtual override {\n        address holder = msg.sender;\n        _operators.authorizeOperator(holder, operator);\n        emit AuthorizedOperator(operator, holder);\n    }\n\n    function revokeOperator(address operator) external virtual override {\n        address holder = msg.sender;\n        _operators.revokeOperator(holder, operator);\n        emit RevokedOperator(operator, holder);\n    }\n\n    function defaultOperators() external virtual override view returns (address[] memory) {\n        return ERC777Helper.defaultOperators(_operators);\n    }\n\n    function operatorSend(\n        address sender,\n        address recipient,\n        uint256 amount,\n        bytes calldata userData,\n        bytes calldata operatorData\n    ) external virtual override {\n        address operator = msg.sender;\n        if (!_operators.isOperatorFor(operator, sender)) revert SUPER_TOKEN_CALLER_IS_NOT_OPERATOR_FOR_HOLDER();\n        _send(operator, sender, recipient, amount, userData, operatorData, true);\n    }\n\n    function operatorBurn(\n        address account,\n        uint256 amount,\n        bytes calldata userData,\n        bytes calldata operatorData\n    ) external virtual override {\n        address operator = msg.sender;\n        if (!_operators.isOperatorFor(operator, account)) revert SUPER_TOKEN_CALLER_IS_NOT_OPERATOR_FOR_HOLDER();\n        _downgrade(operator, account, account, amount, userData, operatorData);\n    }\n\n    function _setupDefaultOperators(address[] memory operators) internal {\n        _operators.setupDefaultOperators(operators);\n    }\n\n    /**************************************************************************\n     * SuperToken custom token functions\n     *************************************************************************/\n\n    function selfMint(\n        address account,\n        uint256 amount,\n        bytes memory userData\n    )\n        external virtual override\n        onlySelf\n    {\n        _mint(msg.sender, account, amount, userData.length != 0 /* invokeHook */,\n            userData.length != 0 /* requireReceptionAck */, userData, new bytes(0));\n    }\n\n    function selfBurn(\n       address account,\n       uint256 amount,\n       bytes memory userData\n    )\n       external virtual override\n       onlySelf\n    {\n       _burn(msg.sender, account, amount, userData.length != 0 /* invokeHook */, userData, new bytes(0));\n    }\n\n    function selfApproveFor(\n        address account,\n        address spender,\n        uint256 amount\n    )\n        external virtual override\n        onlySelf\n    {\n        _approve(account, spender, amount);\n    }\n\n    function selfTransferFrom(\n        address holder,\n        address spender,\n        address recipient,\n        uint256 amount\n    )\n        external virtual override\n        onlySelf\n    {\n        _transferFrom(spender, holder, recipient, amount);\n    }\n\n    /**************************************************************************\n     * SuperToken extra functions\n     *************************************************************************/\n\n    function transferAll(address recipient)\n        external virtual override\n    {\n        _transferFrom(msg.sender, msg.sender, recipient, balanceOf(msg.sender));\n    }\n\n    /**************************************************************************\n     * ERC20 wrapping\n     *************************************************************************/\n\n    /// @inheritdoc ISuperToken\n    function getUnderlyingToken() external view virtual override returns(address) {\n        return address(_underlyingToken);\n    }\n\n    /// @inheritdoc ISuperToken\n    function getUnderlyingDecimals() external view virtual override returns (uint8) {\n        return _underlyingDecimals;\n    }\n\n    /// @inheritdoc ISuperToken\n    function toUnderlyingAmount(uint256 amount)\n        external\n        view\n        virtual\n        override\n        returns (uint256 underlyingAmount, uint256 adjustedAmount)\n    {\n        return _toUnderlyingAmount(amount);\n    }\n\n    /// @inheritdoc ISuperToken\n    function upgrade(uint256 amount) external virtual override {\n        _upgrade(msg.sender, msg.sender, msg.sender, amount, \"\", \"\");\n    }\n\n    /// @inheritdoc ISuperToken\n    function upgradeTo(address to, uint256 amount, bytes calldata userData) external virtual override {\n        _upgrade(msg.sender, msg.sender, to, amount, userData, \"\");\n    }\n\n    /// @inheritdoc ISuperToken\n    function downgrade(uint256 amount) external virtual override {\n        _downgrade(msg.sender, msg.sender, msg.sender, amount, \"\", \"\");\n    }\n\n    /// @inheritdoc ISuperToken\n    function downgradeTo(address to, uint256 amount) external virtual override {\n        _downgrade(msg.sender, msg.sender, to, amount, \"\", \"\");\n    }\n\n    function _upgrade(\n        address operator,\n        address account,\n        address to,\n        uint256 amount,\n        bytes memory userData,\n        bytes memory operatorData\n    ) internal {\n        if (address(_underlyingToken) == address(0)) revert SUPER_TOKEN_NO_UNDERLYING_TOKEN();\n\n        (uint256 underlyingAmount, uint256 adjustedAmount) = _toUnderlyingAmount(amount);\n\n        uint256 amountBefore = _underlyingToken.balanceOf(address(this));\n        _underlyingToken.safeTransferFrom(account, address(this), underlyingAmount);\n        uint256 amountAfter = _underlyingToken.balanceOf(address(this));\n        uint256 actualUpgradedAmount = amountAfter - amountBefore;\n        if (underlyingAmount != actualUpgradedAmount) revert SUPER_TOKEN_INFLATIONARY_DEFLATIONARY_NOT_SUPPORTED();\n\n        _mint(operator, to, adjustedAmount,\n            // if `userData.length` is greater than 0, we set invokeHook and requireReceptionAck true\n            userData.length != 0, userData.length != 0, userData, operatorData);\n\n        emit TokenUpgraded(to, adjustedAmount);\n    }\n\n    function _downgrade(\n        address operator, // the account executing the transaction\n        address account,  // the account whose super tokens we are burning\n        address to,       // the account receiving the underlying tokens\n        uint256 amount,\n        bytes memory userData,\n        bytes memory operatorData\n    ) internal {\n        if (address(_underlyingToken) == address(0)) revert SUPER_TOKEN_NO_UNDERLYING_TOKEN();\n\n        (uint256 underlyingAmount, uint256 adjustedAmount) = _toUnderlyingAmount(amount);\n\n         // _burn will check the (actual) amount availability again\n         _burn(operator, account, adjustedAmount, userData.length != 0, userData, operatorData);\n\n        uint256 amountBefore = _underlyingToken.balanceOf(address(this));\n        _underlyingToken.safeTransfer(to, underlyingAmount);\n        uint256 amountAfter = _underlyingToken.balanceOf(address(this));\n        uint256 actualDowngradedAmount = amountBefore - amountAfter;\n        if (underlyingAmount != actualDowngradedAmount) revert SUPER_TOKEN_INFLATIONARY_DEFLATIONARY_NOT_SUPPORTED();\n\n        emit TokenDowngraded(account, adjustedAmount);\n    }\n\n    /**\n     * @dev Handle decimal differences between underlying token and super token\n     */\n    function _toUnderlyingAmount(uint256 amount)\n        private view\n        returns (uint256 underlyingAmount, uint256 adjustedAmount)\n    {\n        uint256 factor;\n        if (_underlyingDecimals < _STANDARD_DECIMALS) {\n            // if underlying has less decimals\n            // one can upgrade less \"granualar\" amount of tokens\n            factor = 10 ** (_STANDARD_DECIMALS - _underlyingDecimals);\n            underlyingAmount = amount / factor;\n            // remove precision errors\n            adjustedAmount = underlyingAmount * factor;\n        } else if (_underlyingDecimals > _STANDARD_DECIMALS) {\n            // if underlying has more decimals\n            // one can upgrade more \"granualar\" amount of tokens\n            factor = 10 ** (_underlyingDecimals - _STANDARD_DECIMALS);\n            underlyingAmount = amount * factor;\n            adjustedAmount = amount;\n        } else {\n            underlyingAmount = adjustedAmount = amount;\n        }\n    }\n\n    /**************************************************************************\n     * Superfluid Batch Operations\n     *************************************************************************/\n\n    function operationApprove(\n        address account,\n        address spender,\n        uint256 amount\n    )\n        external virtual override\n        onlyHost\n    {\n        _approve(account, spender, amount);\n    }\n\n    function operationIncreaseAllowance(\n        address account,\n        address spender,\n        uint256 addedValue\n    )\n        external virtual override\n        onlyHost\n    {\n        _approve(account, spender, _allowances[account][spender] + addedValue);\n    }\n\n    function operationDecreaseAllowance(\n        address account,\n        address spender,\n        uint256 subtractedValue\n    )\n        external virtual override\n        onlyHost\n    {\n        _approve(account, spender, _allowances[account][spender].sub(subtractedValue,\n            \"SuperToken: decreased allowance below zero\"));\n    }\n\n    function operationTransferFrom(\n        address account,\n        address spender,\n        address recipient,\n        uint256 amount\n    )\n        external virtual override\n        onlyHost\n    {\n        _transferFrom(account, spender, recipient, amount);\n    }\n\n    function operationSend(\n        address spender,\n        address recipient,\n        uint256 amount,\n        bytes memory userData\n    )\n        external virtual override\n        onlyHost\n    {\n        _send(msg.sender, spender, recipient, amount, userData, \"\", true);\n    }\n\n    function operationUpgrade(address account, uint256 amount)\n        external virtual override\n        onlyHost\n    {\n        _upgrade(msg.sender, account, account, amount, \"\", \"\");\n    }\n\n    function operationDowngrade(address account, uint256 amount)\n        external virtual override\n        onlyHost\n    {\n        _downgrade(msg.sender, account, account, amount, \"\", \"\");\n    }\n\n    function operationUpgradeTo(address account, address to, uint256 amount)\n        external virtual override\n        onlyHost\n    {\n        _upgrade(msg.sender, account, to, amount, \"\", \"\");\n    }\n\n    function operationDowngradeTo(address account, address to, uint256 amount)\n        external virtual override\n        onlyHost\n    {\n        _downgrade(msg.sender, account, to, amount, \"\", \"\");\n    }\n\n    /**************************************************************************\n    * Modifiers\n    *************************************************************************/\n\n    modifier onlySelf() {\n        if (msg.sender != address(this)) revert SUPER_TOKEN_ONLY_SELF();\n        _;\n    }\n\n    /**\n     * @dev The host contract is implicitly the admin if admin is address(0) else it is the explicitly set admin\n     * override address\n     */\n    modifier onlyAdmin() {\n        address adminSlotAdmin = _getAdmin();\n        address admin = adminSlotAdmin == address(0) ? address(_host) : adminSlotAdmin;\n        if (msg.sender != admin) revert SUPER_TOKEN_ONLY_ADMIN();\n        _;\n    }\n\n}\n",
  "sourcePath": "/home/runner/work/protocol-monorepo/protocol-monorepo/packages/ethereum-contracts/contracts/superfluid/SuperToken.sol",
  "compiler": {
    "name": "solc",
    "version": "0.8.26+commit.8a97fa7a.Linux.g++"
  },
  "schemaVersion": "3.4.16",
  "updatedAt": "2024-11-25T09:47:04.291Z",
  "devdoc": {
    "author": "Superfluid",
    "events": {
      "AgreementCreated(address,bytes32,bytes32[])": {
        "details": "Agreement created event",
        "params": {
          "agreementClass": "Contract address of the agreement",
          "data": "Agreement data",
          "id": "Agreement ID"
        }
      },
      "AgreementLiquidated(address,bytes32,address,address,uint256)": {
        "custom:deprecated": "Use AgreementLiquidatedV2 instead",
        "details": "Agreement liquidation event (DEPRECATED BY AgreementLiquidatedBy)",
        "params": {
          "agreementClass": "Contract address of the agreement",
          "id": "Agreement ID",
          "penaltyAccount": "Account of the agreement to be penalized",
          "rewardAccount": "Account that collect the reward",
          "rewardAmount": "Amount of liquidation reward"
        }
      },
      "AgreementLiquidatedBy(address,address,bytes32,address,address,uint256,uint256)": {
        "custom:deprecated": "Use AgreementLiquidatedV2 instead",
        "custom:note": " Reward account rule: - if bailout is equal to 0, then   - the bondAccount will get the rewardAmount,   - the penaltyAccount will pay for the rewardAmount. - if bailout is larger than 0, then   - the liquidatorAccount will get the rewardAmouont,   - the bondAccount will pay for both the rewardAmount and bailoutAmount,   - the penaltyAccount will pay for the rewardAmount while get the bailoutAmount.",
        "details": "Agreement liquidation event (DEPRECATED BY AgreementLiquidatedV2)",
        "params": {
          "agreementClass": "Contract address of the agreement",
          "bailoutAmount": "Amount of liquidation bailouot",
          "bondAccount": "Account that collect the reward or bailout accounts",
          "id": "Agreement ID",
          "liquidatorAccount": "Account of the agent that performed the liquidation.",
          "penaltyAccount": "Account of the agreement to be penalized",
          "rewardAmount": "Amount of liquidation reward"
        }
      },
      "AgreementLiquidatedV2(address,bytes32,address,address,address,uint256,int256,bytes)": {
        "custom:note": " Reward account rule: - if the agreement is liquidated during the PIC period   - the rewardAmountReceiver will get the rewardAmount (remaining deposit), regardless of the liquidatorAccount   - the targetAccount will pay for the rewardAmount - if the agreement is liquidated after the PIC period AND the targetAccount is solvent   - the rewardAmountReceiver will get the rewardAmount (remaining deposit)   - the targetAccount will pay for the rewardAmount - if the targetAccount is insolvent   - the liquidatorAccount will get the rewardAmount (single deposit)   - the default reward account (governance) will pay for both the rewardAmount and bailoutAmount   - the targetAccount will receive the bailoutAmount",
        "details": "Agreement liquidation event v2 (including agent account)",
        "params": {
          "agreementClass": "Contract address of the agreement",
          "id": "Agreement ID",
          "liquidationTypeData": "The encoded liquidation type data including the version (how to decode)",
          "liquidatorAccount": "Address of the executor of the liquidation",
          "rewardAmount": "The amount the reward recipient account balance should change by",
          "rewardAmountReceiver": "Account that collects the reward or bails out insolvent accounts",
          "targetAccount": "Account of the stream sender",
          "targetAccountBalanceDelta": "The amount the sender account balance should change by"
        }
      },
      "AgreementStateUpdated(address,address,uint256)": {
        "details": "Agreement account state updated event",
        "params": {
          "account": "Account updated",
          "agreementClass": "Contract address of the agreement",
          "slotId": "slot id of the agreement state"
        }
      },
      "AgreementTerminated(address,bytes32)": {
        "details": "Agreement terminated event",
        "params": {
          "agreementClass": "Contract address of the agreement",
          "id": "Agreement ID"
        }
      },
      "AgreementUpdated(address,bytes32,bytes32[])": {
        "details": "Agreement updated event",
        "params": {
          "agreementClass": "Contract address of the agreement",
          "data": "Agreement data",
          "id": "Agreement ID"
        }
      },
      "Approval(address,address,uint256)": {
        "details": "Emitted when the allowance of a `spender` for an `owner` is set by a call to {approve}. `value` is the new allowance."
      },
      "AuthorizedOperator(address,address)": {
        "details": "Emitted when `operator` is made operator for `tokenHolder`."
      },
      "Bailout(address,uint256)": {
        "custom:deprecated": "Use AgreementLiquidatedV2 instead",
        "details": "System bailout occurred (DEPRECATED BY AgreementLiquidatedBy)",
        "params": {
          "bailoutAccount": "Account that bailout the penalty account",
          "bailoutAmount": "Amount of account bailout"
        }
      },
      "Burned(address,address,uint256,bytes,bytes)": {
        "details": "Emitted when `operator` destroys `amount` tokens from `account`. Note that some additional user `data` and `operatorData` can be logged in the event."
      },
      "Initialized(uint8)": {
        "details": "Triggered when the contract has been initialized or reinitialized."
      },
      "Minted(address,address,uint256,bytes,bytes)": {
        "details": "Emitted when `amount` tokens are created by `operator` and assigned to `to`. Note that some additional user `data` and `operatorData` can be logged in the event."
      },
      "PoolAdminNFTCreated(address)": {
        "details": "Pool Admin NFT proxy created event",
        "params": {
          "poolAdminNFT": "pool admin nft address"
        }
      },
      "PoolMemberNFTCreated(address)": {
        "details": "Pool Member NFT proxy created event",
        "params": {
          "poolMemberNFT": "pool member nft address"
        }
      },
      "RevokedOperator(address,address)": {
        "details": "Emitted when `operator` is revoked its operator status for `tokenHolder`."
      },
      "TokenDowngraded(address,uint256)": {
        "details": "Token downgrade event",
        "params": {
          "account": "Account whose tokens are downgraded",
          "amount": "Amount of tokens downgraded"
        }
      },
      "TokenUpgraded(address,uint256)": {
        "details": "Token upgrade event",
        "params": {
          "account": "Account where tokens are upgraded to",
          "amount": "Amount of tokens upgraded (in 18 decimals)"
        }
      },
      "Transfer(address,address,uint256)": {
        "details": "Emitted when `value` tokens are moved from one account (`from`) to another (`to`). Note that `value` may be zero."
      }
    },
    "kind": "dev",
    "methods": {
      "approve(address,uint256)": {
        "details": "Sets `amount` as the allowance of `spender` over the caller's tokens.",
        "returns": {
          "_0": "Returns Success a boolean value indicating whether the operation succeeded."
        }
      },
      "authorizeOperator(address)": {
        "details": "Make an account an operator of the caller. See {isOperatorFor}."
      },
      "balanceOf(address)": {
        "details": "Returns the amount of tokens owned by an account (`owner`)."
      },
      "burn(uint256,bytes)": {
        "details": "Destroys `amount` tokens from the caller's account, reducing the total supply and transfers the underlying token to the caller's account. If a send hook is registered for the caller, the corresponding function will be called with `userData` and empty `operatorData`. See {IERC777Sender}."
      },
      "changeAdmin(address)": {
        "details": "Only the current admin can call this function if admin is address(0), it is implicitly the host address",
        "params": {
          "newAdmin": "New admin address"
        }
      },
      "createAgreement(bytes32,bytes32[])": {
        "details": "ISuperfluidToken.createAgreement implementation"
      },
      "decimals()": {
        "details": "Returns the number of decimals used to get its user representation. For example, if `decimals` equals `2`, a balance of `505` tokens should be displayed to a user as `5,05` (`505 / 10 ** 2`). Tokens usually opt for a value of 18, imitating the relationship between Ether and Wei. This is the value {ERC20} uses, unless {_setupDecimals} is called."
      },
      "decreaseAllowance(address,uint256)": {
        "details": "Atomically decreases the allowance granted to `spender` by the caller. This is an alternative to {approve} that can be used as a mitigation for problems described in {IERC20-approve}."
      },
      "defaultOperators()": {
        "details": "Returns the list of default operators. These accounts are operators for all token holders, even if {authorizeOperator} was never called on them. This list is immutable, but individual holders may revoke these via {revokeOperator}, in which case {isOperatorFor} will return false."
      },
      "downgrade(uint256)": {
        "details": "Downgrade SuperToken to ERC20.It will call transfer to send tokens",
        "params": {
          "amount": "Number of tokens to be downgraded"
        }
      },
      "downgradeTo(address,uint256)": {
        "details": "Downgrade SuperToken to ERC20 and transfer immediately",
        "params": {
          "amount": "Number of tokens to be downgraded (in 18 decimals)",
          "to": "The account to receive downgraded tokens"
        }
      },
      "getAccountActiveAgreements(address)": {
        "details": "ISuperfluidToken.getAccountActiveAgreements implementation"
      },
      "getAdmin()": {
        "details": "Returns the admin address for the SuperToken"
      },
      "getAgreementData(address,bytes32,uint256)": {
        "details": "ISuperfluidToken.getAgreementData implementation"
      },
      "getAgreementStateSlot(address,address,uint256,uint256)": {
        "details": "ISuperfluidToken.getAgreementState implementation"
      },
      "getCodeAddress()": {
        "details": "Get current implementation code address."
      },
      "getHost()": {
        "details": "ISuperfluidToken.getHost implementation"
      },
      "getUnderlyingDecimals()": {
        "details": "Return the underlying token decimals",
        "returns": {
          "_0": "Underlying token decimals"
        }
      },
      "getUnderlyingToken()": {
        "details": "Return the underlying token contract",
        "returns": {
          "_0": "Underlying token address"
        }
      },
      "granularity()": {
        "details": "Returns the smallest part of the token that is not divisible. This         means all token operations (creation, movement and destruction) must have         amounts that are a multiple of this number."
      },
      "increaseAllowance(address,uint256)": {
        "details": "Atomically increases the allowance granted to `spender` by the caller. This is an alternative to {approve} that can be used as a mitigation for problems described in {IERC20-approve}."
      },
      "initialize(address,uint8,string,string)": {
        "details": "Initialize the Super Token proxy"
      },
      "initializeWithAdmin(address,uint8,string,string,address)": {
        "details": "Initialize the Super Token proxy with an admin"
      },
      "isAccountCritical(address,uint256)": {
        "details": "A critical account is when availableBalance < 0",
        "params": {
          "account": "The account to check",
          "timestamp": "The time we'd like to check if the account is critical (should use future)"
        },
        "returns": {
          "isCritical": "Whether the account is critical"
        }
      },
      "isAccountCriticalNow(address)": {
        "details": "A critical account is when availableBalance < 0",
        "params": {
          "account": "The account to check"
        },
        "returns": {
          "isCritical": "Whether the account is critical"
        }
      },
      "isAccountSolvent(address,uint256)": {
        "details": "An account is insolvent when the sum of deposits for a token can't cover the negative availableBalance",
        "params": {
          "account": "The account to check",
          "timestamp": "The time we'd like to check if the account is solvent (should use future)"
        },
        "returns": {
          "isSolvent": "True if the account is solvent, false otherwise"
        }
      },
      "isAccountSolventNow(address)": {
        "details": "An account is insolvent when the sum of deposits for a token can't cover the negative availableBalance",
        "params": {
          "account": "The account to check"
        },
        "returns": {
          "isSolvent": "True if the account is solvent, false otherwise"
        }
      },
      "isOperatorFor(address,address)": {
        "details": "Returns true if an account is an operator of `tokenHolder`. Operators can send and burn tokens on behalf of their owners. All accounts are their own operator. See {operatorSend} and {operatorBurn}."
      },
      "makeLiquidationPayoutsV2(bytes32,bytes,address,bool,address,uint256,int256)": {
        "details": "ISuperfluidToken.makeLiquidationPayoutsV2 implementation"
      },
      "name()": {
        "details": "Returns the name of the token."
      },
      "operationApprove(address,address,uint256)": {
        "details": "Perform ERC20 approve by host contract.",
        "params": {
          "account": "The account owner to be approved.",
          "amount": "Number of tokens to be approved.",
          "spender": "The spender of account owner's funds."
        }
      },
      "operationDowngrade(address,uint256)": {
        "details": "Downgrade ERC20 to SuperToken by host contract.",
        "params": {
          "account": "The account to be changed.",
          "amount": "Number of tokens to be downgraded (in 18 decimals)"
        }
      },
      "operationDowngradeTo(address,address,uint256)": {
        "details": "Downgrade ERC20 to SuperToken by host contract and transfer immediately.",
        "params": {
          "account": "The account to be changed.",
          "amount": "Number of tokens to be downgraded (in 18 decimals)",
          "to": "The account to receive downgraded tokens"
        }
      },
      "operationSend(address,address,uint256,bytes)": {
        "details": "Perform ERC777 send by host contract.",
        "params": {
          "amount": "Number of tokens to be transferred.",
          "recipient": "The recipient of the funds.",
          "spender": "The account where the funds is sent from.",
          "userData": "Arbitrary user inputted data"
        }
      },
      "operationTransferFrom(address,address,address,uint256)": {
        "details": "Perform ERC20 transferFrom by host contract.",
        "params": {
          "account": "The account to spend sender's funds.",
          "amount": "Number of tokens to be transferred.",
          "recipient": "The recipient of the funds.",
          "spender": "The account where the funds is sent from."
        }
      },
      "operationUpgrade(address,uint256)": {
        "details": "Upgrade ERC20 to SuperToken by host contract.",
        "params": {
          "account": "The account to be changed.",
          "amount": "Number of tokens to be upgraded (in 18 decimals)"
        }
      },
      "operationUpgradeTo(address,address,uint256)": {
        "details": "Upgrade ERC20 to SuperToken by host contract and transfer immediately.",
        "params": {
          "account": "The account to be changed.",
          "amount": "Number of tokens to be upgraded (in 18 decimals)",
          "to": "The account to receive upgraded tokens"
        }
      },
      "operatorBurn(address,uint256,bytes,bytes)": {
        "details": "Destroys `amount` tokens from `account`, reducing the total supply. The caller must be an operator of `account`. If a send hook is registered for `account`, the corresponding function will be called with `userData` and `operatorData`. See {IERC777Sender}."
      },
      "operatorSend(address,address,uint256,bytes,bytes)": {
        "details": "Moves `amount` tokens from `sender` to `recipient`. The caller must be an operator of `sender`. If send or receive hooks are registered for `sender` and `recipient`, the corresponding functions will be called with `userData` and `operatorData`. See {IERC777Sender} and {IERC777Recipient}."
      },
      "proxiableUUID()": {
        "details": "Proxiable UUID marker function, this would help to avoid wrong logic      contract to be used for upgrading. NOTE: The semantics of the UUID deviates from the actual UUPS standard,       where it is equivalent of _IMPLEMENTATION_SLOT."
      },
      "realtimeBalanceOf(address,uint256)": {
        "details": "ISuperfluidToken.realtimeBalanceOf implementation"
      },
      "realtimeBalanceOfNow(address)": {
        "details": "ISuperfluidToken.realtimeBalanceOfNow implementation"
      },
      "revokeOperator(address)": {
        "details": "Revoke an account's operator status for the caller. See {isOperatorFor} and {defaultOperators}."
      },
      "selfApproveFor(address,address,uint256)": {
        "details": "Give `spender`, `amount` allowance to spend the tokens of `account`."
      },
      "selfBurn(address,uint256,bytes)": {
        "details": "Burn existing tokens for the account If `userData` is not empty, the `tokensToSend` hook is invoked according to ERC777 semantics."
      },
      "selfMint(address,uint256,bytes)": {
        "details": "Mint new tokens for the account If `userData` is not empty, the `tokensReceived` hook is invoked according to ERC777 semantics."
      },
      "send(address,uint256,bytes)": {
        "details": "Moves `amount` tokens from the caller's account to `recipient`.If send or receive hooks are registered for the caller and `recipient`,      the corresponding functions will be called with `userData` and empty      `operatorData`. See {IERC777Sender} and {IERC777Recipient}."
      },
      "settleBalance(address,int256)": {
        "details": "ISuperfluidToken.settleBalance implementation"
      },
      "symbol()": {
        "details": "Returns the symbol of the token, usually a shorter version of the name."
      },
      "terminateAgreement(bytes32,uint256)": {
        "details": "ISuperfluidToken.terminateAgreement implementation"
      },
      "toUnderlyingAmount(uint256)": {
        "details": "Return the underlying token conversion rate",
        "params": {
          "amount": "Number of tokens to be upgraded (in 18 decimals)"
        },
        "returns": {
          "adjustedAmount": "The super token amount after scaling",
          "underlyingAmount": "The underlying token amount after scaling"
        }
      },
      "totalSupply()": {
        "details": "See {IERC20-totalSupply}."
      },
      "transfer(address,uint256)": {
        "details": "Moves `amount` tokens from the caller's account to `recipient`.",
        "returns": {
          "_0": "Returns Success a boolean value indicating whether the operation succeeded."
        }
      },
      "transferAll(address)": {
        "details": "Transfer all available balance from `msg.sender` to `recipient`"
      },
      "updateAgreementData(bytes32,bytes32[])": {
        "details": "ISuperfluidToken.updateAgreementData implementation"
      },
      "updateAgreementStateSlot(address,uint256,bytes32[])": {
        "details": "ISuperfluidToken.updateAgreementState implementation"
      },
      "updateCode(address)": {
        "details": "Only the admin can call this function (host if admin == address(0))",
        "params": {
          "newAddress": "Address of the new logic contract"
        }
      },
      "upgrade(uint256)": {
        "details": "Upgrade ERC20 to SuperToken.",
        "params": {
          "amount": "Number of tokens to be upgraded (in 18 decimals)"
        }
      },
      "upgradeTo(address,uint256,bytes)": {
        "details": "Upgrade ERC20 to SuperToken and transfer immediately",
        "params": {
          "amount": "Number of tokens to be upgraded (in 18 decimals)",
          "to": "The account to receive upgraded tokens",
          "userData": "User data for the TokensRecipient callback"
        }
      }
    },
    "stateVariables": {
      "_allowances": {
        "details": "ERC20 Allowances Storage"
      },
      "_name": {
        "details": "IERC20Metadata Name property"
      },
      "_operators": {
        "details": "ERC777 operators support data"
      },
      "_symbol": {
        "details": "IERC20Metadata Symbol property"
      },
      "_underlyingDecimals": {
        "details": "Decimals of the underlying token"
      },
      "_underlyingToken": {
        "details": "The underlying ERC20 token"
      }
    },
    "title": "Superfluid's super token implementation",
    "version": 1
  },
  "userdoc": {
    "kind": "user",
    "methods": {
      "changeAdmin(address)": {
        "notice": "Changes the admin for the SuperToken"
      },
      "isAccountCritical(address,uint256)": {
        "notice": "Check if account is critical"
      },
      "isAccountCriticalNow(address)": {
        "notice": "Check if account is critical now (current host.getNow())"
      },
      "isAccountSolvent(address,uint256)": {
        "notice": "Check if account is solvent"
      },
      "isAccountSolventNow(address)": {
        "notice": "Check if account is solvent now"
      },
      "updateCode(address)": {
        "notice": "Updates the logic contract the proxy is pointing at"
      }
    },
    "version": 1
  }
}