{
  "contractName": "TOGA",
  "abi": [
    {
      "inputs": [
        {
          "internalType": "contract ISuperfluid",
          "name": "host_",
          "type": "address"
        },
        {
          "internalType": "uint256",
          "name": "minBondDuration_",
          "type": "uint256"
        }
      ],
      "stateMutability": "nonpayable",
      "type": "constructor"
    },
    {
      "anonymous": false,
      "inputs": [
        {
          "indexed": true,
          "internalType": "contract ISuperToken",
          "name": "token",
          "type": "address"
        },
        {
          "indexed": false,
          "internalType": "uint256",
          "name": "additionalBond",
          "type": "uint256"
        }
      ],
      "name": "BondIncreased",
      "type": "event"
    },
    {
      "anonymous": false,
      "inputs": [
        {
          "indexed": true,
          "internalType": "contract ISuperToken",
          "name": "token",
          "type": "address"
        },
        {
          "indexed": false,
          "internalType": "int96",
          "name": "exitRate",
          "type": "int96"
        }
      ],
      "name": "ExitRateChanged",
      "type": "event"
    },
    {
      "anonymous": false,
      "inputs": [
        {
          "indexed": true,
          "internalType": "contract ISuperToken",
          "name": "token",
          "type": "address"
        },
        {
          "indexed": false,
          "internalType": "address",
          "name": "pic",
          "type": "address"
        },
        {
          "indexed": false,
          "internalType": "uint256",
          "name": "bond",
          "type": "uint256"
        },
        {
          "indexed": false,
          "internalType": "int96",
          "name": "exitRate",
          "type": "int96"
        }
      ],
      "name": "NewPIC",
      "type": "event"
    },
    {
      "inputs": [],
      "name": "minBondDuration",
      "outputs": [
        {
          "internalType": "uint256",
          "name": "",
          "type": "uint256"
        }
      ],
      "stateMutability": "view",
      "type": "function"
    },
    {
      "inputs": [
        {
          "internalType": "contract ISuperToken",
          "name": "token",
          "type": "address"
        }
      ],
      "name": "getCurrentPIC",
      "outputs": [
        {
          "internalType": "address",
          "name": "pic",
          "type": "address"
        }
      ],
      "stateMutability": "view",
      "type": "function"
    },
    {
      "inputs": [
        {
          "internalType": "contract ISuperToken",
          "name": "token",
          "type": "address"
        }
      ],
      "name": "getCurrentPICInfo",
      "outputs": [
        {
          "internalType": "address",
          "name": "pic",
          "type": "address"
        },
        {
          "internalType": "uint256",
          "name": "bond",
          "type": "uint256"
        },
        {
          "internalType": "int96",
          "name": "exitRate",
          "type": "int96"
        }
      ],
      "stateMutability": "view",
      "type": "function"
    },
    {
      "inputs": [
        {
          "internalType": "contract ISuperToken",
          "name": "",
          "type": "address"
        },
        {
          "internalType": "uint256",
          "name": "bondAmount",
          "type": "uint256"
        }
      ],
      "name": "getDefaultExitRateFor",
      "outputs": [
        {
          "internalType": "int96",
          "name": "exitRate",
          "type": "int96"
        }
      ],
      "stateMutability": "view",
      "type": "function"
    },
    {
      "inputs": [
        {
          "internalType": "contract ISuperToken",
          "name": "",
          "type": "address"
        },
        {
          "internalType": "uint256",
          "name": "bondAmount",
          "type": "uint256"
        }
      ],
      "name": "getMaxExitRateFor",
      "outputs": [
        {
          "internalType": "int96",
          "name": "exitRate",
          "type": "int96"
        }
      ],
      "stateMutability": "view",
      "type": "function"
    },
    {
      "inputs": [
        {
          "internalType": "contract ISuperToken",
          "name": "token",
          "type": "address"
        },
        {
          "internalType": "int96",
          "name": "newExitRate",
          "type": "int96"
        }
      ],
      "name": "changeExitRate",
      "outputs": [],
      "stateMutability": "nonpayable",
      "type": "function"
    },
    {
      "inputs": [
        {
          "internalType": "address",
          "name": "",
          "type": "address"
        },
        {
          "internalType": "address",
          "name": "from",
          "type": "address"
        },
        {
          "internalType": "address",
          "name": "",
          "type": "address"
        },
        {
          "internalType": "uint256",
          "name": "amount",
          "type": "uint256"
        },
        {
          "internalType": "bytes",
          "name": "userData",
          "type": "bytes"
        },
        {
          "internalType": "bytes",
          "name": "",
          "type": "bytes"
        }
      ],
      "name": "tokensReceived",
      "outputs": [],
      "stateMutability": "nonpayable",
      "type": "function"
    }
  ],
  "bytecode": "0x60e060405234801561001057600080fd5b5060405161182a38038061182a83398101604081905261002f916102a5565b6001600160a01b038216608081905260c0829052604051635b69006f60e11b81527fa9214cc96615e0085d3bb077758db69497dc2dce3b2b1e97bc93c3d18d83efd3600482015263b6d200de90602401602060405180830381865afa15801561009c573d6000803e3d6000fd5b505050506040513d601f19601f820116820180604052508101906100c091906102d3565b6001600160a01b031660a0526040516329965a1d60e01b815230600482018190527fb281fc8c12954d22544db45de3159a39272895b169a852b314f9cc762e44c53b60248301819052604483019190915290731820a4b7618bde71dce8cdc73aab6c95905fad24906329965a1d90606401600060405180830381600087803b15801561014b57600080fd5b505af115801561015f573d6000803e3d6000fd5b50506040516329965a1d60e01b815230600482018190527fece6fc2bcfc93e4c34c28aeaa114be1a6161decb8268f79cbe7c3c7f31b1e8c660248301526044820152731820a4b7618bde71dce8cdc73aab6c95905fad2492506329965a1d9150606401600060405180830381600087803b1580156101dc57600080fd5b505af11580156101f0573d6000803e3d6000fd5b50506040516329965a1d60e01b815230600482018190527fca6323f8f0faf3d4f41f2397ee46c8d85bed576d54aadeb20b6cf7b45b3a696460248301526044820152731820a4b7618bde71dce8cdc73aab6c95905fad2492506329965a1d9150606401600060405180830381600087803b15801561026d57600080fd5b505af1158015610281573d6000803e3d6000fd5b505050505050506102f7565b6001600160a01b03811681146102a257600080fd5b50565b600080604083850312156102b857600080fd5b82516102c38161028d565b6020939093015192949293505050565b6000602082840312156102e557600080fd5b81516102f08161028d565b9392505050565b60805160a05160c05161149b61038f6000396000818161011d015281816102dd0152818161074201528181610792015261093501526000818161037e0152818161043f0152818161058f0152818161061e015281816107fa01528181610a5601528181610b170152610ce701526000818161041501528181610565015281816105f401528181610aed0152610cbd015261149b6000f3fe608060405234801561001057600080fd5b506004361061007c5760003560e01c8063362910631161005b57806336291063146100d457806360dfa69514610118578063b8a140331461014d578063bf8903dd1461016057600080fd5b806223de291461008157806302f3c6c51461009657806316e23b9f146100a9575b600080fd5b61009461008f366004610fc0565b61019b565b005b6100946100a4366004611085565b610243565b6100bc6100b73660046110be565b610735565b604051600b9190910b81526020015b60405180910390f35b6101006100e23660046110ea565b6001600160a01b039081166000908152602081905260409020541690565b6040516001600160a01b0390911681526020016100cb565b61013f7f000000000000000000000000000000000000000000000000000000000000000081565b6040519081526020016100cb565b6100bc61015b3660046110be565b610785565b61017361016e3660046110ea565b6107b7565b604080516001600160a01b0390941684526020840192909252600b0b908201526060016100cb565b336000818152602081905260409020546001600160a01b038981169116146101f457600084156101d6576101d18587018761110e565b6101e0565b6101e08288610735565b90506101ee828a898461089b565b50610238565b806001600160a01b03167fb9c1b85a7ee70d95c61aca7cda03ef957abc5265a191ca74cc335faf594095668760405161022f91815260200190565b60405180910390a25b505050505050505050565b6001600160a01b03808316600090815260208190526040902054163381146102ab5760405162461bcd60e51b81526020600482015260166024820152751513d1d04e881bdb9b1e48141250c8185b1b1bddd95960521b60448201526064015b60405180910390fd5b600082600b0b12156102cf5760405162461bcd60e51b81526004016102a29061112b565b6102d883610e28565b6103067f0000000000000000000000000000000000000000000000000000000000000000600b85900b611184565b111561034e5760405162461bcd60e51b81526020600482015260176024820152760a89e8e827440caf0d2e8a4c2e8ca40e8dede40d0d2ced604b1b60448201526064016102a2565b604051631cd43d1160e31b81526001600160a01b03848116600483015230602483015282811660448301526000917f00000000000000000000000000000000000000000000000000000000000000009091169063e6a1e88890606401608060405180830381865afa1580156103c7573d6000803e3d6000fd5b505050506040513d601f19601f820116820180604052508101906103eb919061119b565b5050915050600081600b0b1380156104065750600083600b0b135b15610540576001600160a01b037f00000000000000000000000000000000000000000000000000000000000000008116906339255d5b907f00000000000000000000000000000000000000000000000000000000000000009081166350209a6288878960005b6040519080825280601f01601f191660200182016040528015610496576020820181803683370190505b506040516024016104aa9493929190611240565b60408051808303601f1901815291815260208201805160e094851b6001600160e01b03909116179052519185901b6001600160e01b03191682526104f393925090600401611280565b6000604051808303816000875af1158015610512573d6000803e3d6000fd5b505050506040513d6000823e601f3d908101601f1916820160405261053a91908101906112c7565b506106ed565b80600b0b60001480156105565750600083600b0b135b156105c0576001600160a01b037f00000000000000000000000000000000000000000000000000000000000000008116906339255d5b907f00000000000000000000000000000000000000000000000000000000000000009081166362fc305e888789600061046c565b600081600b0b1380156105d6575082600b0b6000145b156106ed576040805160008152602081019091526001600160a01b037f00000000000000000000000000000000000000000000000000000000000000008116916339255d5b917f0000000000000000000000000000000000000000000000000000000000000000919082169063b4b333c69061065b908a9030908a906044810161137c565b60408051808303601f1901815291815260208201805160e094851b6001600160e01b03909116179052519185901b6001600160e01b03191682526106a493925090600401611280565b6000604051808303816000875af11580156106c3573d6000803e3d6000fd5b505050506040513d6000823e601f3d908101601f191682016040526106eb91908101906112c7565b505b604051600b84900b81526001600160a01b038516907f0988aefa675e81e1db7fca08264db5dc2a1cc2a604f2a78d902a9747146a56719060200160405180910390a250505050565b600061077c6107776107687f00000000000000000000000000000000000000000000000000000000000000006004611184565b61077290856113b0565b610ec9565b610f37565b90505b92915050565b600061077c6107776107727f0000000000000000000000000000000000000000000000000000000000000000856113b0565b6001600160a01b03818116600081815260208190526040808220549051631cd43d1160e31b815260048101939093523060248401528316604483015291829182917f0000000000000000000000000000000000000000000000000000000000000000169063e6a1e88890606401608060405180830381865afa158015610841573d6000803e3d6000fd5b505050506040513d601f19601f82011682018060405250810190610865919061119b565b50506001600160a01b0380871660009081526020819052604090205491935016905061089085610e28565b925092509193909250565b6001600160a01b038416600090815260208190526040902054600160a01b900460ff161561090b5760405162461bcd60e51b815260206004820152601c60248201527f544f47413a207265656e7472616e6379206e6f7420616c6c6f7765640000000060448201526064016102a2565b600081600b0b121561092f5760405162461bcd60e51b81526004016102a29061112b565b8161095e7f0000000000000000000000000000000000000000000000000000000000000000600b84900b611184565b11156109a65760405162461bcd60e51b81526020600482015260176024820152760a89e8e827440caf0d2e8a4c2e8ca40e8dede40d0d2ced604b1b60448201526064016102a2565b6000826109b286610e28565b6109bc91906113d2565b9050808311610a015760405162461bcd60e51b8152602060048201526011602482015270544f47413a2062696420746f6f206c6f7760781b60448201526064016102a2565b6001600160a01b038581166000818152602081905260408082208054600160a01b60ff60a01b198216179091559051631cd43d1160e31b815260048101939093523060248401528316604483018190529290917f00000000000000000000000000000000000000000000000000000000000000009091169063e6a1e88890606401608060405180830381865afa158015610a9f573d6000803e3d6000fd5b505050506040513d601f19601f82011682018060405250810190610ac3919061119b565b5050915050600081600b0b1315610be6576040805160008152602081019091526001600160a01b037f00000000000000000000000000000000000000000000000000000000000000008116916339255d5b917f0000000000000000000000000000000000000000000000000000000000000000919082169063b4b333c690610b54908d9030908a906044810161137c565b60408051808303601f1901815291815260208201805160e094851b6001600160e01b03909116179052519185901b6001600160e01b0319168252610b9d93925090600401611280565b6000604051808303816000875af1158015610bbc573d6000803e3d6000fd5b505050506040513d6000823e601f3d908101601f19168201604052610be491908101906112c7565b505b6001600160a01b03821615610c6a5760405163a9059cbb60e01b81526001600160a01b0383811660048301526024820185905288169063a9059cbb906044016020604051808303816000875af1158015610c44573d6000803e3d6000fd5b505050506040513d601f19601f82011682018060405250810190610c6891906113e5565b505b6001600160a01b03878116600090815260208190526040812080546001600160a01b03191692891692909217909155600b85900b1315610db6576040805160008152602081019091526001600160a01b037f00000000000000000000000000000000000000000000000000000000000000008116916339255d5b917f000000000000000000000000000000000000000000000000000000000000000091908216906362fc305e90610d24908d908d908c9060448101611240565b60408051808303601f1901815291815260208201805160e094851b6001600160e01b03909116179052519185901b6001600160e01b0319168252610d6d93925090600401611280565b6000604051808303816000875af1158015610d8c573d6000803e3d6000fd5b505050506040513d6000823e601f3d908101601f19168201604052610db491908101906112c7565b505b6001600160a01b0387811660008181526020818152604091829020805460ff60a01b191690558151938a1684528301889052600b87900b90830152907f836808e57755d5535898b7203c7d68b1bfb2701b1943ecb133c675e0d00780159060600160405180910390a250505050505050565b604051632ec8eec760e01b8152306004820152600090819081906001600160a01b03851690632ec8eec790602401608060405180830381865afa158015610e73573d6000803e3d6000fd5b505050506040513d601f19601f82011682018060405250810190610e979190611407565b50509150915060008183610eab919061143d565b13610eb7576000610ec1565b610ec1818361143d565b949350505050565b60006001600160ff1b03821115610f335760405162461bcd60e51b815260206004820152602860248201527f53616665436173743a2076616c756520646f65736e27742066697420696e2061604482015267371034b73a191a9b60c11b60648201526084016102a2565b5090565b60006b7fffffffffffffffffffffff8212610f33576b7fffffffffffffffffffffff92915050565b6001600160a01b0381168114610f7457600080fd5b50565b60008083601f840112610f8957600080fd5b50813567ffffffffffffffff811115610fa157600080fd5b602083019150836020828501011115610fb957600080fd5b9250929050565b60008060008060008060008060c0898b031215610fdc57600080fd5b8835610fe781610f5f565b97506020890135610ff781610f5f565b9650604089013561100781610f5f565b955060608901359450608089013567ffffffffffffffff81111561102a57600080fd5b6110368b828c01610f77565b90955093505060a089013567ffffffffffffffff81111561105657600080fd5b6110628b828c01610f77565b999c989b5096995094979396929594505050565b80600b0b8114610f7457600080fd5b6000806040838503121561109857600080fd5b82356110a381610f5f565b915060208301356110b381611076565b809150509250929050565b600080604083850312156110d157600080fd5b82356110dc81610f5f565b946020939093013593505050565b6000602082840312156110fc57600080fd5b813561110781610f5f565b9392505050565b60006020828403121561112057600080fd5b813561110781611076565b60208082526023908201527f544f47413a206e65676174697665206578697452617465206e6f7420616c6c6f6040820152621dd95960ea1b606082015260800190565b634e487b7160e01b600052601160045260246000fd5b808202811582820484141761077f5761077f61116e565b600080600080608085870312156111b157600080fd5b845160208601519094506111c481611076565b6040860151606090960151949790965092505050565b634e487b7160e01b600052604160045260246000fd5b60005b8381101561120b5781810151838201526020016111f3565b50506000910152565b6000815180845261122c8160208601602086016111f0565b601f01601f19169290920160200192915050565b6001600160a01b03858116825284166020820152600b83900b604082015260806060820181905260009061127690830184611214565b9695505050505050565b6001600160a01b03831681526060602082018190526000906112a490830184611214565b8281036040938401526002815261060f60f31b6020820152919091019392505050565b6000602082840312156112d957600080fd5b815167ffffffffffffffff8111156112f057600080fd5b8201601f8101841361130157600080fd5b805167ffffffffffffffff81111561131b5761131b6111da565b604051601f8201601f19908116603f0116810167ffffffffffffffff8111828210171561134a5761134a6111da565b60405281815282820160200186101561136257600080fd5b6113738260208301602086016111f0565b95945050505050565b6001600160a01b03858116825284811660208301528316604082015260806060820181905260009061127690830184611214565b6000826113cd57634e487b7160e01b600052601260045260246000fd5b500490565b8181038181111561077f5761077f61116e565b6000602082840312156113f757600080fd5b8151801515811461110757600080fd5b6000806000806080858703121561141d57600080fd5b505082516020840151604085015160609095015191969095509092509050565b808201828112600083128015821682158216171561145d5761145d61116e565b50509291505056fea2646970667358221220c4020e1d07f2f327aca004c1c176fefa1050d10950e16c9b82654ae4528827af64736f6c634300081a0033",
  "immutableReferences": {
    "58619": [
      {
        "length": 32,
        "start": 1045
      },
      {
        "length": 32,
        "start": 1381
      },
      {
        "length": 32,
        "start": 1524
      },
      {
        "length": 32,
        "start": 2797
      },
      {
        "length": 32,
        "start": 3261
      }
    ],
    "58622": [
      {
        "length": 32,
        "start": 894
      },
      {
        "length": 32,
        "start": 1087
      },
      {
        "length": 32,
        "start": 1423
      },
      {
        "length": 32,
        "start": 1566
      },
      {
        "length": 32,
        "start": 2042
      },
      {
        "length": 32,
        "start": 2646
      },
      {
        "length": 32,
        "start": 2839
      },
      {
        "length": 32,
        "start": 3303
      }
    ],
    "58624": [
      {
        "length": 32,
        "start": 285
      },
      {
        "length": 32,
        "start": 733
      },
      {
        "length": 32,
        "start": 1858
      },
      {
        "length": 32,
        "start": 1938
      },
      {
        "length": 32,
        "start": 2357
      }
    ]
  },
  "source": "// SPDX-License-Identifier: AGPLv3\npragma solidity ^0.8.23;\n\nimport { SafeCast } from \"@openzeppelin/contracts/utils/math/SafeCast.sol\";\n\nimport {\n    ISuperfluid, ISuperToken, IConstantFlowAgreementV1\n} from \"../interfaces/superfluid/ISuperfluid.sol\";\n\nimport { IERC1820Registry } from \"@openzeppelin/contracts/utils/introspection/IERC1820Registry.sol\";\nimport { IERC777Recipient } from \"@openzeppelin/contracts/token/ERC777/IERC777Recipient.sol\";\n\n/**\n * @title TOGA: Transparent Ongoing Auction\n * @author Superfluid\n *\n * @dev TOGA is a simple implementation of a continuous auction.\n *      It's used to designate PICs (Patrician In Charge) - a role defined per Super Token.\n *      Anybody can become the PIC for a Super Token by staking the highest bond (denominated in the token).\n *      Staking is done by simply using ERC777.send(), transferring the bond amount to be staked to this contract.\n *      Via userData parameter (abi-encoded int96), an exitRate can be defined. If omitted, a default will be chosen.\n *      The exitRate is the flowrate at which the bond is streamed back to the PIC.\n *      Any rewards accrued by this contract (in general the whole token balance) become part of the bond.\n *      When a PIC is outbid, the current bond is transferred to it with ERC777.send().\n *\n *      changes in v2:\n *      In case that send() fails (e.g. due to a reverting hook), the bond is transferred to a custodian contract.\n *      Funds accumulated there can be withdrawn from there at any time.\n *      The current PIC can increase its bond by sending more funds using ERC777.send().\n *\n *      changes in v3:\n *      Use ERC20.transfer() instead of ERC777.send() when outbid.\n *      This allows us to eliminate the custodian contract and related complexity.\n *\n */\ninterface ITOGAv1 {\n    /**\n     * @dev get the address of the current PIC for the given token.\n     * @param token The token for which to get the PIC\n     */\n    function getCurrentPIC(ISuperToken token) external view returns(address pic);\n\n    /**\n     * @dev get info about the state - most importantly the bond amount - of the current PIC for the given token.\n     * @param token The token for which to get PIC info\n     * Notes:\n     * The bond changes dynamically and can both grow or shrink between 2 blocks.\n     * Even the PIC itself could change anytime, this being a continuous auction.\n     * @return pic Address of the current PIC. Returns the ZERO address if not set\n     * @return bond The current bond amount. Can shrink or grow over time, depending on exitRate and rewards accrued\n     * @return exitRate The current flowrate of given tokens from the contract to the PIC\n     */\n    function getCurrentPICInfo(ISuperToken token) external view\n        returns(address pic, uint256 bond, int96 exitRate);\n\n    /**\n     * @dev Get the exit rate set by default for the given token and bond amount\n     * @param token The token for which to get info\n     * @param bondAmount The bond amount for which to make the calculation\n     * @return exitRate The exit rate set by default for a bid with the given bond amount for the given token\n     */\n    function getDefaultExitRateFor(ISuperToken token, uint256 bondAmount) external view returns(int96 exitRate);\n\n    /**\n     * @dev Get the max exit which can be set for the given token and bond amount\n     * @param token The token for which to get info\n     * @param bondAmount The bond amount for which to calculate the max exit rate\n     * @return exitRate The max exit rate which can be set for the given bond amount and token\n     *\n     * This limit is enforced only at the time of setting or updating the flow from the contract to the PIC.\n     */\n    function getMaxExitRateFor(ISuperToken token, uint256 bondAmount) external view returns(int96 exitRate);\n\n    /**\n    * @dev allows the current PIC for the given token to change the exit rate\n    * @param token The Super Token the exit rate should be changed for\n    * @param newExitRate The new exit rate. The same constraints as during bidding apply.\n    *\n    * Notes:\n    * newExitRate can't be higher than the value returned by getMaxExitRateFor() for the given token and bond.\n    * newExitRate can also be 0, this triggers closing of the flow from the contract to the PIC.\n    * If newExitRate is > 0 and no flow exists, a flow is created.\n    */\n    function changeExitRate(ISuperToken token, int96 newExitRate) external;\n\n    /**\n     * @dev Emitted on a successful bid designating a PIC\n     * @param token The Super token the new PIC bid for\n     * @param pic The address of the new PIC\n     * @param bond The size (amount) of the bond staked by the PIC\n     * @param exitRate The flowrate at which the bond and accrued rewards will be streamed to the PIC\n     * The exitRate must be greater or equal zero and respect the upper bound defined by getMaxExitRateFor()\n     */\n    event NewPIC(ISuperToken indexed token, address pic, uint256 bond, int96 exitRate);\n\n    /**\n     * @dev Emitted if a PIC changes the exit rate\n     * @param token The Super token for which the exit rate was changed\n     * @param exitRate The new flowrate of the given token from the contract to the PIC\n     */\n    event ExitRateChanged(ISuperToken indexed token, int96 exitRate);\n}\n\ninterface ITOGAv2 is ITOGAv1 {\n    /**\n    * @dev allows previous PICs to withdraw bonds which couldn't be sent back to them\n    * @param token The token for which to withdraw funds in custody\n    */\n    function withdrawFundsInCustody(ISuperToken token) external;\n\n    /**\n     * @dev Emitted if a PIC increases its bond\n     * @param additionalBond The additional amount added to the bond\n     */\n    event BondIncreased(ISuperToken indexed token, uint256 additionalBond);\n}\n\ninterface ITOGAv3 is ITOGAv1 {\n    /**\n     * @dev Emitted if a PIC increases its bond\n     * @param additionalBond The additional amount added to the bond\n     */\n    event BondIncreased(ISuperToken indexed token, uint256 additionalBond);\n}\n\ncontract TOGA is ITOGAv3, IERC777Recipient {\n\n    using SafeCast for uint256;\n    // lightweight struct packing an address and a bool (reentrancy guard) into 1 word\n    struct LockablePIC {\n        address addr;\n        bool lock;\n    }\n    mapping(ISuperToken => LockablePIC) internal _currentPICs;\n    ISuperfluid internal immutable _host;\n    IConstantFlowAgreementV1 internal immutable _cfa;\n    uint256 public immutable minBondDuration;\n    IERC1820Registry constant internal _ERC1820_REG = IERC1820Registry(0x1820a4B7618BdE71Dce8cdc73aAB6C95905faD24);\n\n    constructor(ISuperfluid host_, uint256 minBondDuration_) {\n        _host = ISuperfluid(host_);\n        minBondDuration = minBondDuration_;\n        _cfa = IConstantFlowAgreementV1(\n            address(host_.getAgreementClass(keccak256(\"org.superfluid-finance.agreements.ConstantFlowAgreement.v1\")))\n        );\n        bytes32 erc777TokensRecipientHash = keccak256(\"ERC777TokensRecipient\");\n        _ERC1820_REG.setInterfaceImplementer(address(this), erc777TokensRecipientHash, address(this));\n        _ERC1820_REG.setInterfaceImplementer(address(this), keccak256(\"TOGAv1\"), address(this));\n        _ERC1820_REG.setInterfaceImplementer(address(this), keccak256(\"TOGAv2\"), address(this));\n    }\n\n    function getCurrentPIC(ISuperToken token) external view override returns(address pic) {\n        return _currentPICs[token].addr;\n    }\n\n    function getCurrentPICInfo(ISuperToken token)\n        external view override\n        returns(address pic, uint256 bond, int96 exitRate)\n    {\n        (, exitRate,,) = _cfa.getFlow(token, address(this), _currentPICs[token].addr);\n        return (\n            _currentPICs[token].addr,\n            _getCurrentPICBond(token),\n            exitRate\n        );\n    }\n\n    function capToInt96(int256 value) internal pure returns(int96) {\n        return value < type(int96).max ? int96(value) : type(int96).max;\n    }\n\n    function getDefaultExitRateFor(ISuperToken /*token*/, uint256 bondAmount)\n        public view override\n        returns(int96 exitRate)\n    {\n        return capToInt96((bondAmount / (minBondDuration * 4)).toInt256());\n    }\n\n    function getMaxExitRateFor(ISuperToken /*token*/, uint256 bondAmount)\n        external view override\n        returns(int96 exitRate)\n    {\n        return capToInt96((bondAmount / minBondDuration).toInt256());\n    }\n\n    function changeExitRate(ISuperToken token, int96 newExitRate) external override {\n        address currentPICAddr = _currentPICs[token].addr;\n        require(msg.sender == currentPICAddr, \"TOGA: only PIC allowed\");\n        require(newExitRate >= 0, \"TOGA: negative exitRate not allowed\");\n        require(uint256(int256(newExitRate)) * minBondDuration <= _getCurrentPICBond(token), \"TOGA: exitRate too high\");\n\n        (, int96 curExitRate,,) = _cfa.getFlow(token, address(this), currentPICAddr);\n        if (curExitRate > 0 && newExitRate > 0) {\n            // need to update existing flow\n            _host.callAgreement(\n                _cfa,\n                abi.encodeCall(\n                    _cfa.updateFlow,\n                    (\n                        token,\n                        currentPICAddr,\n                        newExitRate,\n                        new bytes(0)\n                    )\n                ),\n                \"0x\"\n            );\n        } else if (curExitRate == 0 && newExitRate > 0) {\n            // no pre-existing flow, need to create\n            _host.callAgreement(\n                _cfa,\n                abi.encodeCall(\n                    _cfa.createFlow,\n                    (\n                        token,\n                        currentPICAddr,\n                        newExitRate,\n                        new bytes(0)\n                    )\n                ),\n                \"0x\"\n            );\n        } else if (curExitRate > 0 && newExitRate == 0) {\n            // need to close existing flow\n            _host.callAgreement(\n                _cfa,\n                abi.encodeCall(\n                    _cfa.deleteFlow,\n                    (\n                        token,\n                        address(this),\n                        currentPICAddr,\n                        new bytes(0)\n                    )\n                ),\n                \"0x\"\n            );\n        } // else do nothing (no existing flow, newExitRate == 0)\n\n        emit ExitRateChanged(token, newExitRate);\n    }\n\n    // ============ internal ============\n\n    function _getCurrentPICBond(ISuperToken token) internal view returns(uint256 bond) {\n        (int256 availBal, uint256 deposit, , ) = token.realtimeBalanceOfNow(address(this));\n        // The protocol guarantees that we get no values leading to an overflow here\n        return availBal + int256(deposit) > 0 ? uint256(availBal + int256(deposit)) : 0;\n    }\n\n    // This is the logic for designating a PIC via successful bid - invoked only by the ERC777 send() hook\n    // Relies on CFA (SuperApp) hooks not being able to block the transaction by reverting.\n    function _becomePIC(ISuperToken token, address newPIC, uint256 amount, int96 exitRate) internal {\n        require(!_currentPICs[token].lock, \"TOGA: reentrancy not allowed\");\n        require(exitRate >= 0, \"TOGA: negative exitRate not allowed\");\n        require(uint256(int256(exitRate)) * minBondDuration <= amount, \"TOGA: exitRate too high\");\n        // cannot underflow because amount was added to the balance before\n        uint256 currentPICBond = _getCurrentPICBond(token) - amount;\n        require(amount > currentPICBond, \"TOGA: bid too low\");\n        address currentPICAddr = _currentPICs[token].addr;\n\n        _currentPICs[token].lock = true; // set reentrancy guard\n\n        // close flow to current (soon previous) PIC if exists\n        (, int96 curFlowRate,,) = _cfa.getFlow(token, address(this), currentPICAddr);\n        if (curFlowRate > 0) {\n            _host.callAgreement(\n                _cfa,\n                abi.encodeCall(\n                    _cfa.deleteFlow,\n                    (\n                        token,\n                        address(this),\n                        currentPICAddr,\n                        new bytes(0)\n                    )\n                ),\n                \"0x\"\n            );\n        }\n\n        // if no PIC was set yet, rewards already accumulated become part of the bond of the first PIC\n        if (currentPICAddr != address(0)) {\n            // transfer remaining bond to current PIC\n            token.transfer(currentPICAddr, currentPICBond);\n        }\n\n        // set new PIC\n        // solhint-disable-next-line reentrancy\n        _currentPICs[token].addr = newPIC;\n\n        // if exitRate > 0, open stream to new PIC\n        if (exitRate > 0) {\n            _host.callAgreement(\n                _cfa,\n                abi.encodeCall(\n                    _cfa.createFlow,\n                    (\n                        token,\n                        newPIC,\n                        exitRate,\n                        new bytes(0)\n                    )\n                ),\n                \"0x\"\n            );\n        }\n\n        // solhint-disable-next-line reentrancy\n        _currentPICs[token].lock = false; // release reentrancy guard\n        emit NewPIC(token, newPIC, amount, exitRate);\n    }\n\n    // ============ IERC777Recipient ============\n\n    function tokensReceived(\n        address /*operator*/,\n        address from,\n        address /*to*/,\n        uint256 amount,\n        bytes calldata userData,\n        bytes calldata /*operatorData*/\n    ) override external {\n        // if it's not a SuperToken, something will revert along the way\n        ISuperToken token = ISuperToken(msg.sender);\n\n        if(from != _currentPICs[token].addr) {\n            int96 exitRate = userData.length == 0 ?\n                getDefaultExitRateFor(token, amount) :\n                abi.decode(userData, (int96));\n            _becomePIC(token, from, amount, exitRate);\n        } else {\n            // current PIC increases the bond\n            emit BondIncreased(token, amount);\n        }\n    }\n}\n",
  "sourcePath": "/home/runner/work/protocol-monorepo/protocol-monorepo/packages/ethereum-contracts/contracts/utils/TOGA.sol",
  "compiler": {
    "name": "solc",
    "version": "0.8.26+commit.8a97fa7a.Linux.g++"
  },
  "schemaVersion": "3.4.16",
  "updatedAt": "2024-11-25T09:47:04.558Z",
  "devdoc": {
    "events": {
      "BondIncreased(address,uint256)": {
        "details": "Emitted if a PIC increases its bond",
        "params": {
          "additionalBond": "The additional amount added to the bond"
        }
      },
      "ExitRateChanged(address,int96)": {
        "details": "Emitted if a PIC changes the exit rate",
        "params": {
          "exitRate": "The new flowrate of the given token from the contract to the PIC",
          "token": "The Super token for which the exit rate was changed"
        }
      },
      "NewPIC(address,address,uint256,int96)": {
        "details": "Emitted on a successful bid designating a PIC",
        "params": {
          "bond": "The size (amount) of the bond staked by the PIC",
          "exitRate": "The flowrate at which the bond and accrued rewards will be streamed to the PIC The exitRate must be greater or equal zero and respect the upper bound defined by getMaxExitRateFor()",
          "pic": "The address of the new PIC",
          "token": "The Super token the new PIC bid for"
        }
      }
    },
    "kind": "dev",
    "methods": {
      "changeExitRate(address,int96)": {
        "details": "allows the current PIC for the given token to change the exit rate",
        "params": {
          "newExitRate": "The new exit rate. The same constraints as during bidding apply. Notes: newExitRate can't be higher than the value returned by getMaxExitRateFor() for the given token and bond. newExitRate can also be 0, this triggers closing of the flow from the contract to the PIC. If newExitRate is > 0 and no flow exists, a flow is created.",
          "token": "The Super Token the exit rate should be changed for"
        }
      },
      "getCurrentPIC(address)": {
        "details": "get the address of the current PIC for the given token.",
        "params": {
          "token": "The token for which to get the PIC"
        }
      },
      "getCurrentPICInfo(address)": {
        "details": "get info about the state - most importantly the bond amount - of the current PIC for the given token.",
        "params": {
          "token": "The token for which to get PIC info Notes: The bond changes dynamically and can both grow or shrink between 2 blocks. Even the PIC itself could change anytime, this being a continuous auction."
        },
        "returns": {
          "bond": "The current bond amount. Can shrink or grow over time, depending on exitRate and rewards accrued",
          "exitRate": "The current flowrate of given tokens from the contract to the PIC",
          "pic": "Address of the current PIC. Returns the ZERO address if not set"
        }
      }
    },
    "version": 1
  },
  "userdoc": {
    "kind": "user",
    "methods": {},
    "version": 1
  }
}