{
  "contractName": "UUPSProxy",
  "abi": [
    {
      "stateMutability": "payable",
      "type": "fallback"
    },
    {
      "stateMutability": "payable",
      "type": "receive"
    },
    {
      "inputs": [
        {
          "internalType": "address",
          "name": "initialAddress",
          "type": "address"
        }
      ],
      "name": "initializeProxy",
      "outputs": [],
      "stateMutability": "nonpayable",
      "type": "function"
    }
  ],
  "bytecode": "0x6080604052348015600f57600080fd5b5061022a8061001f6000396000f3fe6080604052600436106100225760003560e01c80634a0687ef1461003957610031565b366100315761002f610059565b005b61002f610059565b34801561004557600080fd5b5061002f6100543660046101c4565b61006b565b610069610064610171565b6101a0565b565b6001600160a01b0381166100c65760405162461bcd60e51b815260206004820152601760248201527f5555505350726f78793a207a65726f206164647265737300000000000000000060448201526064015b60405180910390fd5b60006100f07f360894a13ba1a3210667c828492db98dca3e2076cc3735a920a3ca505d382bbc5490565b6001600160a01b0316146101465760405162461bcd60e51b815260206004820152601e60248201527f5555505350726f78793a20616c726561647920696e697469616c697a6564000060448201526064016100bd565b61016e817f360894a13ba1a3210667c828492db98dca3e2076cc3735a920a3ca505d382bbc55565b50565b600061019b7f360894a13ba1a3210667c828492db98dca3e2076cc3735a920a3ca505d382bbc5490565b905090565b3660008037600080366000845af43d6000803e8080156101bf573d6000f35b3d6000fd5b6000602082840312156101d657600080fd5b81356001600160a01b03811681146101ed57600080fd5b939250505056fea2646970667358221220fae816317186d33a564ddff3a944af220df3c9025c6f9ffcae9cd4a4a7a4b19164736f6c634300081a0033",
  "immutableReferences": {},
  "source": "// SPDX-License-Identifier: AGPLv3\npragma solidity ^0.8.23;\n\nimport { UUPSUtils } from \"./UUPSUtils.sol\";\nimport { Proxy } from \"@openzeppelin/contracts/proxy/Proxy.sol\";\n\n\n/**\n * @title UUPS (Universal Upgradeable Proxy Standard) Proxy\n *\n * NOTE:\n * - Compliant with [Universal Upgradeable Proxy Standard](https://eips.ethereum.org/EIPS/eip-1822)\n * - Compiiant with [Standard Proxy Storage Slots](https://eips.ethereum.org/EIPS/eip-1967)\n * - Implements delegation of calls to other contracts, with proper forwarding of\n *   return values and bubbling of failures.\n * - It defines a fallback function that delegates all calls to the implementation.\n */\ncontract UUPSProxy is Proxy {\n\n    /**\n     * @dev Proxy initialization function.\n     *      This should only be called once and it is permission-less.\n     * @param initialAddress Initial logic contract code address to be used.\n     */\n    function initializeProxy(address initialAddress) external {\n        require(initialAddress != address(0), \"UUPSProxy: zero address\");\n        require(UUPSUtils.implementation() == address(0), \"UUPSProxy: already initialized\");\n        UUPSUtils.setImplementation(initialAddress);\n    }\n\n    /// @dev Proxy._implementation implementation\n    function _implementation() internal virtual override view returns (address)\n    {\n        return UUPSUtils.implementation();\n    }\n\n}\n",
  "sourcePath": "/home/runner/work/protocol-monorepo/protocol-monorepo/packages/ethereum-contracts/contracts/upgradability/UUPSProxy.sol",
  "compiler": {
    "name": "solc",
    "version": "0.8.26+commit.8a97fa7a.Linux.g++"
  },
  "schemaVersion": "3.4.16",
  "updatedAt": "2024-11-25T09:47:04.364Z",
  "devdoc": {
    "kind": "dev",
    "methods": {
      "initializeProxy(address)": {
        "details": "Proxy initialization function.      This should only be called once and it is permission-less.",
        "params": {
          "initialAddress": "Initial logic contract code address to be used."
        }
      }
    },
    "title": "UUPS (Universal Upgradeable Proxy Standard) Proxy NOTE: - Compliant with [Universal Upgradeable Proxy Standard](https://eips.ethereum.org/EIPS/eip-1822) - Compiiant with [Standard Proxy Storage Slots](https://eips.ethereum.org/EIPS/eip-1967) - Implements delegation of calls to other contracts, with proper forwarding of   return values and bubbling of failures. - It defines a fallback function that delegates all calls to the implementation.",
    "version": 1
  },
  "userdoc": {
    "kind": "user",
    "methods": {},
    "version": 1
  }
}