{
  "_format": "hh-sol-artifact-1",
  "contractName": "GDAv1Forwarder",
  "sourceName": "contracts/utils/GDAv1Forwarder.sol",
  "abi": [
    {
      "inputs": [
        {
          "internalType": "contract ISuperfluid",
          "name": "host",
          "type": "address"
        }
      ],
      "stateMutability": "nonpayable",
      "type": "constructor"
    },
    {
      "inputs": [
        {
          "internalType": "contract ISuperfluidPool",
          "name": "pool",
          "type": "address"
        },
        {
          "internalType": "address",
          "name": "memberAddress",
          "type": "address"
        },
        {
          "internalType": "bytes",
          "name": "userData",
          "type": "bytes"
        }
      ],
      "name": "claimAll",
      "outputs": [
        {
          "internalType": "bool",
          "name": "success",
          "type": "bool"
        }
      ],
      "stateMutability": "nonpayable",
      "type": "function"
    },
    {
      "inputs": [
        {
          "internalType": "contract ISuperfluidPool",
          "name": "pool",
          "type": "address"
        },
        {
          "internalType": "bytes",
          "name": "userData",
          "type": "bytes"
        }
      ],
      "name": "connectPool",
      "outputs": [
        {
          "internalType": "bool",
          "name": "",
          "type": "bool"
        }
      ],
      "stateMutability": "nonpayable",
      "type": "function"
    },
    {
      "inputs": [
        {
          "internalType": "contract ISuperfluidToken",
          "name": "token",
          "type": "address"
        },
        {
          "internalType": "address",
          "name": "admin",
          "type": "address"
        },
        {
          "components": [
            {
              "internalType": "bool",
              "name": "transferabilityForUnitsOwner",
              "type": "bool"
            },
            {
              "internalType": "bool",
              "name": "distributionFromAnyAddress",
              "type": "bool"
            }
          ],
          "internalType": "struct PoolConfig",
          "name": "config",
          "type": "tuple"
        }
      ],
      "name": "createPool",
      "outputs": [
        {
          "internalType": "bool",
          "name": "success",
          "type": "bool"
        },
        {
          "internalType": "contract ISuperfluidPool",
          "name": "pool",
          "type": "address"
        }
      ],
      "stateMutability": "nonpayable",
      "type": "function"
    },
    {
      "inputs": [
        {
          "internalType": "contract ISuperfluidPool",
          "name": "pool",
          "type": "address"
        },
        {
          "internalType": "bytes",
          "name": "userData",
          "type": "bytes"
        }
      ],
      "name": "disconnectPool",
      "outputs": [
        {
          "internalType": "bool",
          "name": "",
          "type": "bool"
        }
      ],
      "stateMutability": "nonpayable",
      "type": "function"
    },
    {
      "inputs": [
        {
          "internalType": "contract ISuperfluidToken",
          "name": "token",
          "type": "address"
        },
        {
          "internalType": "address",
          "name": "from",
          "type": "address"
        },
        {
          "internalType": "contract ISuperfluidPool",
          "name": "pool",
          "type": "address"
        },
        {
          "internalType": "uint256",
          "name": "requestedAmount",
          "type": "uint256"
        },
        {
          "internalType": "bytes",
          "name": "userData",
          "type": "bytes"
        }
      ],
      "name": "distribute",
      "outputs": [
        {
          "internalType": "bool",
          "name": "",
          "type": "bool"
        }
      ],
      "stateMutability": "nonpayable",
      "type": "function"
    },
    {
      "inputs": [
        {
          "internalType": "contract ISuperfluidToken",
          "name": "token",
          "type": "address"
        },
        {
          "internalType": "address",
          "name": "from",
          "type": "address"
        },
        {
          "internalType": "contract ISuperfluidPool",
          "name": "pool",
          "type": "address"
        },
        {
          "internalType": "int96",
          "name": "requestedFlowRate",
          "type": "int96"
        },
        {
          "internalType": "bytes",
          "name": "userData",
          "type": "bytes"
        }
      ],
      "name": "distributeFlow",
      "outputs": [
        {
          "internalType": "bool",
          "name": "",
          "type": "bool"
        }
      ],
      "stateMutability": "nonpayable",
      "type": "function"
    },
    {
      "inputs": [
        {
          "internalType": "contract ISuperfluidToken",
          "name": "token",
          "type": "address"
        },
        {
          "internalType": "address",
          "name": "from",
          "type": "address"
        },
        {
          "internalType": "contract ISuperfluidPool",
          "name": "to",
          "type": "address"
        },
        {
          "internalType": "uint256",
          "name": "requestedAmount",
          "type": "uint256"
        }
      ],
      "name": "estimateDistributionActualAmount",
      "outputs": [
        {
          "internalType": "uint256",
          "name": "actualAmount",
          "type": "uint256"
        }
      ],
      "stateMutability": "view",
      "type": "function"
    },
    {
      "inputs": [
        {
          "internalType": "contract ISuperfluidToken",
          "name": "token",
          "type": "address"
        },
        {
          "internalType": "address",
          "name": "from",
          "type": "address"
        },
        {
          "internalType": "contract ISuperfluidPool",
          "name": "to",
          "type": "address"
        },
        {
          "internalType": "int96",
          "name": "requestedFlowRate",
          "type": "int96"
        }
      ],
      "name": "estimateFlowDistributionActualFlowRate",
      "outputs": [
        {
          "internalType": "int96",
          "name": "actualFlowRate",
          "type": "int96"
        },
        {
          "internalType": "int96",
          "name": "totalDistributionFlowRate",
          "type": "int96"
        }
      ],
      "stateMutability": "view",
      "type": "function"
    },
    {
      "inputs": [
        {
          "internalType": "contract ISuperfluidToken",
          "name": "token",
          "type": "address"
        },
        {
          "internalType": "address",
          "name": "from",
          "type": "address"
        },
        {
          "internalType": "contract ISuperfluidPool",
          "name": "to",
          "type": "address"
        }
      ],
      "name": "getFlowDistributionFlowRate",
      "outputs": [
        {
          "internalType": "int96",
          "name": "",
          "type": "int96"
        }
      ],
      "stateMutability": "view",
      "type": "function"
    },
    {
      "inputs": [
        {
          "internalType": "contract ISuperfluidToken",
          "name": "token",
          "type": "address"
        },
        {
          "internalType": "address",
          "name": "account",
          "type": "address"
        }
      ],
      "name": "getNetFlow",
      "outputs": [
        {
          "internalType": "int96",
          "name": "",
          "type": "int96"
        }
      ],
      "stateMutability": "view",
      "type": "function"
    },
    {
      "inputs": [
        {
          "internalType": "contract ISuperfluidPool",
          "name": "pool",
          "type": "address"
        }
      ],
      "name": "getPoolAdjustmentFlowInfo",
      "outputs": [
        {
          "internalType": "address",
          "name": "",
          "type": "address"
        },
        {
          "internalType": "bytes32",
          "name": "",
          "type": "bytes32"
        },
        {
          "internalType": "int96",
          "name": "",
          "type": "int96"
        }
      ],
      "stateMutability": "view",
      "type": "function"
    },
    {
      "inputs": [
        {
          "internalType": "address",
          "name": "pool",
          "type": "address"
        }
      ],
      "name": "getPoolAdjustmentFlowRate",
      "outputs": [
        {
          "internalType": "int96",
          "name": "",
          "type": "int96"
        }
      ],
      "stateMutability": "view",
      "type": "function"
    },
    {
      "inputs": [
        {
          "internalType": "contract ISuperfluidPool",
          "name": "pool",
          "type": "address"
        },
        {
          "internalType": "address",
          "name": "member",
          "type": "address"
        }
      ],
      "name": "isMemberConnected",
      "outputs": [
        {
          "internalType": "bool",
          "name": "",
          "type": "bool"
        }
      ],
      "stateMutability": "view",
      "type": "function"
    },
    {
      "inputs": [
        {
          "internalType": "contract ISuperfluidToken",
          "name": "token",
          "type": "address"
        },
        {
          "internalType": "address",
          "name": "account",
          "type": "address"
        }
      ],
      "name": "isPool",
      "outputs": [
        {
          "internalType": "bool",
          "name": "",
          "type": "bool"
        }
      ],
      "stateMutability": "view",
      "type": "function"
    },
    {
      "inputs": [
        {
          "internalType": "contract ISuperfluidPool",
          "name": "pool",
          "type": "address"
        },
        {
          "internalType": "address",
          "name": "memberAddress",
          "type": "address"
        },
        {
          "internalType": "uint128",
          "name": "newUnits",
          "type": "uint128"
        },
        {
          "internalType": "bytes",
          "name": "userData",
          "type": "bytes"
        }
      ],
      "name": "updateMemberUnits",
      "outputs": [
        {
          "internalType": "bool",
          "name": "success",
          "type": "bool"
        }
      ],
      "stateMutability": "nonpayable",
      "type": "function"
    }
  ],
  "bytecode": "0x60c060405234801561001057600080fd5b506040516118e63803806118e683398101604081905261002f916100e5565b6001600160a01b0381166080819052604051635b69006f60e11b81527fdfd8ece9bfbcb8c5c540edb935641f63d67686490a1ab97f000288759f30a946600482015263b6d200de90602401602060405180830381865afa158015610097573d6000803e3d6000fd5b505050506040513d601f19601f820116820180604052508101906100bb91906100e5565b6001600160a01b031660a05250610109565b6001600160a01b03811681146100e257600080fd5b50565b6000602082840312156100f757600080fd5b8151610102816100cd565b9392505050565b60805160a0516117336101b3600039600081816102ef015281816103760152818161040e01528181610462015281816104f801528181610566015281816105c7015281816106720152818161070b0152818161079a0152818161080a01528181610857015281816108bd0152818161095c015281816109a901528181610a1501528181610a6e01528181610b140152610b8e015260008181610c7f0152610cf101526117336000f3fe608060405234801561001057600080fd5b50600436106100f55760003560e01c80635a6c6dbc11610097578063d2c0d54211610066578063d2c0d54214610254578063e8e7e2d114610267578063eccfc6a51461027a578063f0b7b9151461029b57600080fd5b80635a6c6dbc146102085780636d1007a61461021b5780637b2cc0da1461022e578063c782eb9c1461024157600080fd5b8063398c74e1116100d3578063398c74e11461018f57806344999ff7146101a25780634d5c91ec146101c85780634e9ced57146101f557600080fd5b80630779d365146100fa57806330925b791461013157806337bd42e014610154575b600080fd5b61010d610108366004610ef4565b6102ae565b6040805192151583526001600160a01b039091166020830152015b60405180910390f35b61014461013f36600461101e565b610369565b6040519015158152602001610128565b61016761016236600461106e565b61043c565b604080516001600160a01b0390941684526020840192909252600b0b90820152606001610128565b61014461019d36600461108b565b6104dc565b6101b56101b036600461110c565b610596565b604051600b9190910b8152602001610128565b6101db6101d6366004611166565b610634565b60408051600b93840b81529190920b602082015201610128565b6101b561020336600461106e565b6106e9565b6101446102163660046111c2565b61077e565b61014461022936600461124a565b61083b565b61014461023c3660046112b0565b610893565b61014461024f3660046112b0565b610932565b6101446102623660046112e9565b61098d565b6101b56102753660046112b0565b610a44565b61028d61028836600461134b565b610adb565b604051908152602001610128565b6101446102a936600461101e565b610b81565b604051630779d36560e01b81526001600160a01b038481166004830152838116602483015282511515604483015260208301511515606483015260009182917f00000000000000000000000000000000000000000000000000000000000000001690630779d365906084016020604051808303816000875af1158015610338573d6000803e3d6000fd5b505050506040513d601f19601f8201168201806040525081019061035c919061139c565b6001969095509350505050565b6000806001600160a01b037f0000000000000000000000000000000000000000000000000000000000000000166330925b7985835b6040519080825280601f01601f1916602001820160405280156103c8576020820181803683370190505b506040516024016103da929190611409565b604051602081830303815290604052915060e01b6020820180516001600160e01b03838183161783525050505090506104347f00000000000000000000000000000000000000000000000000000000000000008285610bba565b949350505050565b6040516301bdea1760e51b81526001600160a01b038281166004830152600091829182917f0000000000000000000000000000000000000000000000000000000000000000909116906337bd42e090602401606060405180830381865afa1580156104ab573d6000803e3d6000fd5b505050506040513d601f19601f820116820180604052508101906104cf919061142d565b9250925092509193909250565b6040805160008082526020820190925281906001600160a01b037f0000000000000000000000000000000000000000000000000000000000000000169063398c74e1906105329089908990899060448101611465565b604051602081830303815290604052915060e01b6020820180516001600160e01b038381831617835250505050905061058c7f00000000000000000000000000000000000000000000000000000000000000008285610bba565b9695505050505050565b60405162735d7560e41b81526001600160a01b038481166004830152838116602483015282811660448301526000917f000000000000000000000000000000000000000000000000000000000000000090911690630735d75090606401602060405180830381865afa158015610610573d6000803e3d6000fd5b505050506040513d601f19601f8201168201806040525081019061043491906114a0565b604051631357247b60e21b81526001600160a01b03858116600483015284811660248301528381166044830152600b83900b606483015260009182917f00000000000000000000000000000000000000000000000000000000000000001690634d5c91ec906084016040805180830381865afa1580156106b8573d6000803e3d6000fd5b505050506040513d601f19601f820116820180604052508101906106dc91906114bd565b9150915094509492505050565b604051634e9ced5760e01b81526001600160a01b0382811660048301526000917f000000000000000000000000000000000000000000000000000000000000000090911690634e9ced5790602401602060405180830381865afa158015610754573d6000803e3d6000fd5b505050506040513d601f19601f8201168201806040525081019061077891906114a0565b92915050565b6040805160008082526020820190925281906001600160a01b037f00000000000000000000000000000000000000000000000000000000000000001690635a6c6dbc906107d6908a908a908a908a90604481016114ec565b604051602081830303815290604052915060e01b6020820180516001600160e01b03838183161783525050505090506108307f00000000000000000000000000000000000000000000000000000000000000008285610bba565b979650505050505050565b6040805160008082526020820190925281906001600160a01b037f00000000000000000000000000000000000000000000000000000000000000001690636d1007a6906107d6908a908a908a908a906044810161152a565b604051633d96606d60e11b81526001600160a01b03838116600483015282811660248301526000917f000000000000000000000000000000000000000000000000000000000000000090911690637b2cc0da906044015b602060405180830381865afa158015610907573d6000803e3d6000fd5b505050506040513d601f19601f8201168201806040525081019061092b9190611565565b9392505050565b6040516331e0bae760e21b81526001600160a01b03838116600483015282811660248301526000917f00000000000000000000000000000000000000000000000000000000000000009091169063c782eb9c906044016108ea565b6040805160008082526020820190925281906001600160a01b037f0000000000000000000000000000000000000000000000000000000000000000169063d2c0d542906109e1908890889060448101611582565b604051602081830303815290604052915060e01b6020820180516001600160e01b0383818316178352505050509050610a3b7f00000000000000000000000000000000000000000000000000000000000000008285610bba565b95945050505050565b60405163e8e7e2d160e01b81526001600160a01b03838116600483015282811660248301526000917f00000000000000000000000000000000000000000000000000000000000000009091169063e8e7e2d190604401602060405180830381865afa158015610ab7573d6000803e3d6000fd5b505050506040513d601f19601f8201168201806040525081019061092b91906114a0565b60405163eccfc6a560e01b81526001600160a01b03858116600483015284811660248301528381166044830152606482018390526000917f00000000000000000000000000000000000000000000000000000000000000009091169063eccfc6a590608401602060405180830381865afa158015610b5d573d6000803e3d6000fd5b505050506040513d601f19601f82011682018060405250810190610a3b91906115ae565b6000806001600160a01b037f00000000000000000000000000000000000000000000000000000000000000001663f0b7b915858361039e565b604080516001808252818301909252600091829190816020015b60408051606080820183526000808352602083015291810191909152815260200190600190039081610bd4579050509050604051806060016040528060c963ffffffff168152602001866001600160a01b031681526020018585604051602001610c3f9291906115c7565b60405160208183030381529060405281525081600081518110610c6457610c646115ec565b6020026020010181905250610a3b81600061077882600080807f00000000000000000000000000000000000000000000000000000000000000006001600160a01b031663670e77e385604051602401610cbd9190611602565b604051602081830303815290604052915060e01b6020820180516001600160e01b03838183161783525050505090506000807f00000000000000000000000000000000000000000000000000000000000000006001600160a01b0316858433604051602001610d2d929190611697565b60408051601f1981840301815290829052610d47916116ce565b60006040518083038185875af1925050503d8060008114610d84576040519150601f19603f3d011682016040523d82523d6000602084013e610d89565b606091505b509150915081610d9c57610d9c81610da8565b50600195945050505050565b600481511015610dff5760405162461bcd60e51b815260206004820152601a60248201527f43616c6c5574696c733a2074617267657420726576657274282900000000000060448201526064015b60405180910390fd5b602081015163b1b7848f60e01b6001600160e01b0319821601610eaf5760408051808201825260208082527f43616c6c5574696c733a207461726765742070616e69636b65643a2030785f5f90820190815260248501517f43616c6c5574696c733a207461726765742070616e69636b65643a2030780000600482811c600f908116603090810160081b918516011791909117909252925162461bcd60e51b8152919291610df6918491016116ea565b81518060208401fd5b50565b6001600160a01b0381168114610eb857600080fd5b634e487b7160e01b600052604160045260246000fd5b8015158114610eb857600080fd5b60008060008385036080811215610f0a57600080fd5b8435610f1581610ebb565b93506020850135610f2581610ebb565b92506040603f1982011215610f3957600080fd5b506040805190810167ffffffffffffffff81118282101715610f5d57610f5d610ed0565b6040908152850135610f6e81610ee6565b81526060850135610f7e81610ee6565b602082015292959194509192509050565b600082601f830112610fa057600080fd5b813567ffffffffffffffff811115610fba57610fba610ed0565b604051601f8201601f19908116603f0116810167ffffffffffffffff81118282101715610fe957610fe9610ed0565b60405281815283820160200185101561100157600080fd5b816020850160208301376000918101602001919091529392505050565b6000806040838503121561103157600080fd5b823561103c81610ebb565b9150602083013567ffffffffffffffff81111561105857600080fd5b61106485828601610f8f565b9150509250929050565b60006020828403121561108057600080fd5b813561092b81610ebb565b600080600080608085870312156110a157600080fd5b84356110ac81610ebb565b935060208501356110bc81610ebb565b925060408501356001600160801b03811681146110d857600080fd5b9150606085013567ffffffffffffffff8111156110f457600080fd5b61110087828801610f8f565b91505092959194509250565b60008060006060848603121561112157600080fd5b833561112c81610ebb565b9250602084013561113c81610ebb565b9150604084013561114c81610ebb565b809150509250925092565b80600b0b8114610eb857600080fd5b6000806000806080858703121561117c57600080fd5b843561118781610ebb565b9350602085013561119781610ebb565b925060408501356111a781610ebb565b915060608501356111b781611157565b939692955090935050565b600080600080600060a086880312156111da57600080fd5b85356111e581610ebb565b945060208601356111f581610ebb565b9350604086013561120581610ebb565b9250606086013561121581611157565b9150608086013567ffffffffffffffff81111561123157600080fd5b61123d88828901610f8f565b9150509295509295909350565b600080600080600060a0868803121561126257600080fd5b853561126d81610ebb565b9450602086013561127d81610ebb565b9350604086013561128d81610ebb565b925060608601359150608086013567ffffffffffffffff81111561123157600080fd5b600080604083850312156112c357600080fd5b82356112ce81610ebb565b915060208301356112de81610ebb565b809150509250929050565b6000806000606084860312156112fe57600080fd5b833561130981610ebb565b9250602084013561131981610ebb565b9150604084013567ffffffffffffffff81111561133557600080fd5b61134186828701610f8f565b9150509250925092565b6000806000806080858703121561136157600080fd5b843561136c81610ebb565b9350602085013561137c81610ebb565b9250604085013561138c81610ebb565b9396929550929360600135925050565b6000602082840312156113ae57600080fd5b815161092b81610ebb565b60005b838110156113d45781810151838201526020016113bc565b50506000910152565b600081518084526113f58160208601602086016113b9565b601f01601f19169290920160200192915050565b6001600160a01b0383168152604060208201819052600090610434908301846113dd565b60008060006060848603121561144257600080fd5b835161144d81610ebb565b60208501516040860151919450925061114c81611157565b6001600160a01b038581168252841660208201526001600160801b038316604082015260806060820181905260009061058c908301846113dd565b6000602082840312156114b257600080fd5b815161092b81611157565b600080604083850312156114d057600080fd5b82516114db81611157565b60208401519092506112de81611157565b6001600160a01b038681168252858116602083015284166040820152600b83900b606082015260a060808201819052600090610830908301846113dd565b6001600160a01b0386811682528581166020830152841660408201526060810183905260a060808201819052600090610830908301846113dd565b60006020828403121561157757600080fd5b815161092b81610ee6565b6001600160a01b03848116825283166020820152606060408201819052600090610a3b908301846113dd565b6000602082840312156115c057600080fd5b5051919050565b6040815260006115da60408301856113dd565b8281036020840152610a3b81856113dd565b634e487b7160e01b600052603260045260246000fd5b6000602082016020835280845180835260408501915060408160051b86010192506020860160005b8281101561168b57868503603f190184528151805163ffffffff1686526020808201516001600160a01b031690870152604090810151606091870182905290611675908701826113dd565b955050602093840193919091019060010161162a565b50929695505050505050565b600083516116a98184602088016113b9565b60609390931b6bffffffffffffffffffffffff19169190920190815260140192915050565b600082516116e08184602087016113b9565b9190910192915050565b60208152600061092b60208301846113dd56fea264697066735822122036d5d0efae8f56961aebd4e929624177711907e85f40ee231dfb32a810f6339d64736f6c634300081a0033",
  "linkReferences": {},
  "deployedLinkReferences": {}
}