{
  "_format": "hh-sol-artifact-1",
  "contractName": "SimpleForwarder",
  "sourceName": "contracts/utils/SimpleForwarder.sol",
  "abi": [
    {
      "anonymous": false,
      "inputs": [
        {
          "indexed": true,
          "internalType": "address",
          "name": "previousOwner",
          "type": "address"
        },
        {
          "indexed": true,
          "internalType": "address",
          "name": "newOwner",
          "type": "address"
        }
      ],
      "name": "OwnershipTransferred",
      "type": "event"
    },
    {
      "inputs": [
        {
          "internalType": "address",
          "name": "target",
          "type": "address"
        },
        {
          "internalType": "bytes",
          "name": "data",
          "type": "bytes"
        }
      ],
      "name": "forwardCall",
      "outputs": [
        {
          "internalType": "bool",
          "name": "success",
          "type": "bool"
        },
        {
          "internalType": "bytes",
          "name": "returnData",
          "type": "bytes"
        }
      ],
      "stateMutability": "payable",
      "type": "function"
    },
    {
      "inputs": [],
      "name": "owner",
      "outputs": [
        {
          "internalType": "address",
          "name": "",
          "type": "address"
        }
      ],
      "stateMutability": "view",
      "type": "function"
    },
    {
      "inputs": [],
      "name": "renounceOwnership",
      "outputs": [],
      "stateMutability": "nonpayable",
      "type": "function"
    },
    {
      "inputs": [
        {
          "internalType": "address",
          "name": "newOwner",
          "type": "address"
        }
      ],
      "name": "transferOwnership",
      "outputs": [],
      "stateMutability": "nonpayable",
      "type": "function"
    },
    {
      "inputs": [
        {
          "internalType": "address payable",
          "name": "receiver",
          "type": "address"
        }
      ],
      "name": "withdrawLostNativeTokens",
      "outputs": [],
      "stateMutability": "nonpayable",
      "type": "function"
    }
  ],
  "bytecode": "0x6080604052348015600f57600080fd5b50601733601b565b606b565b600080546001600160a01b038381166001600160a01b0319831681178455604051919092169283917f8be0079c531659141344cd1fd0a4f28419497f9722a3daafe3b4186f6b6457e09190a35050565b6104488061007a6000396000f3fe60806040526004361061004a5760003560e01c806322bee4941461004f578063715018a6146100795780638da5cb5b14610090578063a2852784146100b8578063f2fde38b146100d8575b600080fd5b61006261005d366004610300565b6100f8565b604051610070929190610387565b60405180910390f35b34801561008557600080fd5b5061008e61016e565b005b34801561009c57600080fd5b506000546040516001600160a01b039091168152602001610070565b3480156100c457600080fd5b5061008e6100d33660046103de565b610182565b3480156100e457600080fd5b5061008e6100f33660046103de565b6101c3565b60006060610104610241565b846001600160a01b031634858560405161011f929190610402565b60006040518083038185875af1925050503d806000811461015c576040519150601f19603f3d011682016040523d82523d6000602084013e610161565b606091505b5090969095509350505050565b610176610241565b610180600061029b565b565b61018a610241565b6040516001600160a01b038216904780156108fc02916000818181858888f193505050501580156101bf573d6000803e3d6000fd5b5050565b6101cb610241565b6001600160a01b0381166102355760405162461bcd60e51b815260206004820152602660248201527f4f776e61626c653a206e6577206f776e657220697320746865207a65726f206160448201526564647265737360d01b60648201526084015b60405180910390fd5b61023e8161029b565b50565b6000546001600160a01b031633146101805760405162461bcd60e51b815260206004820181905260248201527f4f776e61626c653a2063616c6c6572206973206e6f7420746865206f776e6572604482015260640161022c565b600080546001600160a01b038381166001600160a01b0319831681178455604051919092169283917f8be0079c531659141344cd1fd0a4f28419497f9722a3daafe3b4186f6b6457e09190a35050565b6001600160a01b038116811461023e57600080fd5b60008060006040848603121561031557600080fd5b8335610320816102eb565b9250602084013567ffffffffffffffff81111561033c57600080fd5b8401601f8101861361034d57600080fd5b803567ffffffffffffffff81111561036457600080fd5b86602082840101111561037657600080fd5b939660209190910195509293505050565b8215158152604060208201526000825180604084015260005b818110156103bd57602081860181015160608684010152016103a0565b506000606082850101526060601f19601f8301168401019150509392505050565b6000602082840312156103f057600080fd5b81356103fb816102eb565b9392505050565b818382376000910190815291905056fea264697066735822122019b2ba226200e0e93d86ecd4f0d20893a71c4429a898fc967cb0c11b1cc1c4c464736f6c634300081a0033",
  "linkReferences": {},
  "deployedLinkReferences": {}
}